:100000000C94D1150C9402160C9402160C94021642
:100010000C9402160C9402160C9402160C94021600
:100020000C9402160C9402160C9402160C940216F0
:100030000C9402160D94640D0C9402160C94021686
:100040000C9402160C9462AD0C9402160C940216D9
:100050000C9402160C9402160C9402B90D943107FC
:100060000C9402160C9404160C9402160C940216AE
:100070000C9402160C9402160C9402160C940216A0
:100080000C9405A20C9402160C9402160C94021601
:100090000C9402160C9402160C9402160C94021680
:1000A0000C9402160C9402160C9432A20C940216B4
:1000B0000C9402160C9402160C9402160C945FA277
:1000C0000C9402160C9402160C9402160C94021650
:1000D0000C9402160C9402160C9402160C94021640
:1000E0000C940216B9C1C2C1CBC1D4C1DDC1F8C1E3
:1000F00005C20EC2E6C1EFC1D000E0000601E40077
:1001000002010801FC00D200D600F600DE0000016A
:10011000E200F4000801F200E800CA00CC00EA00A6
:10012000D400F000C600EE00EC00FE00C8000401A0
:10013000FA00F8000A01CE00EE00DC00D8000C0145
:10014000084AD73B3BCE016E84BCBFFDC12F3D6C3E
:1001500074319ABD56833DDA3D00C77F11BED9E4A4
:10016000BB4C3E916BAAAABE000000803F05A84C84
:10017000CDB2D44EB93836A9020C50B99186880850
:100180003CA6AAAA2ABE000000803F000D941509D3
:100190000D942A090D94ED080D9419090D94400948
:1001A0000D9460080D9490080D940B090D94980817
:1001B0000D944A090D942C070D9446090D94AC0832
:1001C0000D9465080D94C5080D9474080D94EA0902
:1001D0000D94E3080D941C090D9420090D94530906
:1001E0000D940F090D94D9080D94CF080D94A20811
:1001F0000D9438090D9432090D9488080D94240942
:100200000D94B6080D947E080D942E090D946A087D
:100210000D94F7080D943C090D944E09446F6E65DA
:1002200020736176696E672066696C652E0A004DE1
:100230003239002020506C616E6E657242756666C0
:10024000657242797465733A2000204672656520B4
:100250004D656D6F72793A2000436F6D70696C6502
:10026000643A2041707220203120323031380A0047
:10027000207C20417574686F723A20284C6576693D
:1002800020456C73746F6E2C204D61726C696E200A
:10029000312E312E38290A00323031372D31322DAE
:1002A00032352031323A303000204C6173742055A1
:1002B0007064617465643A2000312E312E380A0072
:1002C0004D61726C696E0020536F66747761726560
:1002D0002052657365740A00205761746368646F07
:1002E000672052657365740A002042726F776E2032
:1002F0006F75742052657365740A002045787465C3
:10030000726E616C2052657365740A00506F776578
:100310007255700A0073746172740A005072696ECB
:100320007465722068616C7465642E206B696C6CF6
:1003300028292063616C6C6564210A004B494C4C90
:1003400045442E20004B494C4C2063617573656415
:10035000206279204B494C4C20627574746F6E2F6B
:1003600070696E0A004B494C4C45442E20004B49A5
:100370004C4C2063617573656420627920746F6FE3
:10038000206D75636820696E616374697665207499
:10039000696D65202D2063757272656E7420636FC0
:1003A0006D6D616E643A20004D3630300020746F00
:1003B0006F206C6F6E6720657874727573696F6EED
:1003C0002070726576656E7465640A0020636F6CD8
:1003D0006420657874727573696F6E2070726576CB
:1003E000656E7465640A006F6B00526573656E64B8
:1003F0003A20004E6F2063617365206C69676874F2
:100400000A004175746F0020452F443D0041647619
:10041000616E6365204B3D004D36303020486F746F
:10042000656E6420746F6F20636F6C6420746F203E
:100430006368616E67652066696C616D656E740ADC
:10044000003A2000207A5F6D696E3A20202D33300B
:10045000207A5F6D61783A202033300A0050726F45
:100460006265205A204F6666736574004F66667336
:10047000657473206170706C696564004572723ACE
:1004800020546F6F206661722100546F6F20666187
:10049000722066726F6D207265666572656E636547
:1004A00020706F696E740A00426564204C65766541
:1004B0006C696E6720004661696C656420746F200A
:1004C000656E61626C6520426564204C6576656C82
:1004D000696E670A00426564204C6576656C20434E
:1004E0006F7272656374696F6E204D6174726978A2
:1004F0003A0043290A0061626C656420286D696EC8
:100500002074656D702000436F6C64206578747290
:100510007564657320617265200020643A0020696B
:100520003A0020703A00206F7574206F6620726167
:100530006E67650A00536572766F20003A200020CE
:10054000536572766F2000205A0020590058002011
:10055000204D61783A2000205A0020590058002090
:10056000204D696E3A20004F6666004F6E200053A2
:100570006F667420656E6473746F70733A200053F5
:10058000657474696E672054726176656C2041638E
:1005900063656C65726174696F6E3A2000536574AF
:1005A00074696E672052657472616374204163637D
:1005B000656C65726174696F6E3A2000536574747E
:1005C000696E67205072696E7420416363656C6563
:1005D000726174696F6E3A200053657474696E6756
:1005E000205072696E7420616E6420547261766569
:1005F0006C20416363656C65726174696F6E3A204B
:10060000004D31343520533C696E6465783E206F6F
:100610007574206F662072616E67652028302D31F9
:10062000290A002F2F20003A004361703A00454DFF
:10063000455247454E43595F50415253455200433E
:100640004153455F4C494748545F425249474854DB
:100650004E45535300544F47474C455F4C4947481C
:10066000545300534F4654574152455F504F5745DE
:1006700052004255494C445F50455243454E540048
:100680004C4556454C494E475F44415441005A5FE2
:1006900050524F4245004155544F4C4556454C0031
:1006A0005052494E545F4A4F420050524F475245B4
:1006B0005353004155544F5245504F52545F544587
:1006C0004D5000564F4C554D4554524943004545F9
:1006D00050524F4D0053455249414C5F584F4E5F69
:1006E000584F4646004649524D574152455F4E418C
:1006F0004D453A4D61726C696E20312E312E382095
:10070000284769746875622920534F555243455FE5
:10071000434F44455F55524C3A68747470733A2F96
:100720002F6769746875622E636F6D2F4D61726CEF
:10073000696E4669726D776172652F4D61726C6981
:100740006E2050524F544F434F4C5F5645525349C1
:100750004F4E3A312E30204D414348494E455F546B
:100760005950453A46542D3520523220455854525E
:10077000554445525F434F554E543A3120555549E3
:10078000443A63656465326132662D343161322DDD
:10079000343734382D396231322D63353563363292
:1007A0006633363766660A0046542D3520523220AD
:1007B0004F66662E0042656420646F6E652E0020D1
:1007C000573A004265642048656174696E672E007F
:1007D00048656174696E6720646F6E652E002057EE
:1007E0003A004525692025730046542D35205232A4
:1007F0002072656164792E006F6B004D31313320BA
:1008000053004B494C4C45442E20004543484F0073
:10081000494E464F004552524F525300445259528E
:10082000554E00434F4D4D554E49434154494F4E4F
:10083000006F6666000B08100815081C08230844A2
:10084000454255473A004525692025730046542DF9
:10085000352052322072656164792E0000013637EE
:100860002603FF3C3D380EFF2E303E1213130C08BA
:100870000907FFFF1A1C18FFFF08440AFF43FFFF88
:10088000FFFFFFFF50726F746563746564205069E9
:100890006E0A002569730025696D2025697300259E
:1008A00069682025696D2025697300256964202504
:1008B00069682025696D20256973002569792025DF
:1008C0006964202569682025696D202569730050B9
:1008D00072696E742074696D653A2000456E6420FB
:1008E00066696C65206C6973740A00426567696E9D
:1008F0002066696C65206C6973740A004E6F206D08
:100900006F76652E00526573756D696E6720707223
:10091000696E740046542D35205232207265616430
:10092000792E00436C69636B20746F207265737558
:100930006D652E2E2E00205A3A200020593A2000B4
:1009400042656420583A20000A0A426564204C65DA
:1009500076656C20436F7272656374696F6E204DAB
:1009600061747269783A00202B000A436F727265D5
:100970006374656420426564204865696768742013
:1009800076732E2042656420546F706F6C6F6779A8
:100990003A0A00202B000A426564204865696768AE
:1009A0007420546F706F6772617068793A0A202002
:1009B000202B2D2D2D204241434B202D2D2B0A2065
:1009C00020207C20202020202020202020207C0A85
:1009D000204C207C20202020282B29202020207C17
:1009E00020520A2045207C2020202020202020206A
:1009F00020207C20490A2046207C20282D29204EBA
:100A000020282B29207C20470A2054207C202020CD
:100A100020202020202020207C20480A2020207C0C
:100A200020202020282D29202020207C20540A202E
:100A300020207C20202020202020202020207C0A14
:100A40002020204F2D2D2046524F4E54202D2D2B4F
:100A50000A2028302C30290A004D65616E206F660F
:100A60002073616D706C656420706F696E74733A89
:100A7000200020643A200020623A200045716E2058
:100A8000636F656666696369656E74733A20613A7F
:100A90002000202844525952554E2900473239200F
:100AA0004175746F20426564204C6576656C696E93
:100AB000670028422961636B00284629726F6E74B3
:100AC000002852296967687400284C2965667400FB
:100AD0003F4E756D626572206F662070726F626541
:100AE00020706F696E747320697320696D706C611A
:100AF000757369626C65202832206D696E696D7549
:100B00006D292E0A003F2856296572626F73652091
:100B10006C6576656C20697320696D706C617573A6
:100B200069626C652028302D34292E0A00536C65CB
:100B300065702E2E2E0047322F47332062616420CD
:100B4000706172616D65746572730A0041637469E6
:100B500076652045787472756465723A2000204588
:100B60003A00205A3A0020593A00583A0020706F53
:100B7000736974696F6E206F7574206F662072617F
:100B80006E67652E0A003F50726F62652000473223
:100B900038205A20466F7262696464656E0A0047A5
:100BA0003238205A20466F7262696464656E00575D
:100BB00061726E696E673A20486F6D696E67204298
:100BC000756D702044697669736F72203C20310A1C
:100BD00000020204627573793A207061757365646E
:100BE00020666F7220696E7075740A006275737981
:100BF0003A2070617573656420666F722075736545
:100C0000720A00627573793A2070726F636573734C
:100C1000696E670A0050726F62696E67206661696B
:100C20006C65640A0050726F62696E672066616964
:100C30006C656400205A3A200020593A2000426531
:100C40006420583A2000486F6D6520257325732570
:100C500073206669727374002066697273740A0087
:100C60005A0059005800486F6D65200020496E7683
:100C7000616C6964206578747275646572200053D4
:100C8000442072656164206572726F720A00446F5D
:100C90006E65207072696E74696E672066696C6536
:100CA0000A004B494C4C45442E200053544F5050A1
:100CB00045442E20005072696E7465722073746F03
:100CC000707065642064756520746F206572726F42
:100CD00072732E2046697820746865206572726F81
:100CE0007220616E6420757365204D393939207426
:100CF0006F20726573746172742E202854656D7054
:100D000065726174757265206973207265736574AC
:100D10002E20536574206974206166746572207298
:100D2000657374617274696E67290A004E6F20439F
:100D30006865636B73756D2077697468206C696E84
:100D400065206E756D6265722C204C617374204C49
:100D5000696E653A2000636865636B73756D206D1D
:100D600069736D617463682C204C617374204C69E5
:100D70006E653A20004C696E65204E756D62657235
:100D8000206973206E6F74204C617374204C696EFF
:100D900065204E756D6265722B312C204C61737429
:100DA000204C696E653A20004D31313000656E711E
:100DB00075657565696E67202200FFFFFF0000A062
:100DC000400000A040000000400000964300009654
:100DD000430000BE430000000000000000000000CF
:100DE0000000009643000096430000BE4300000050
:100DF0000000000000000000000000484200004821
:100E00004200002041000000007C3C3E5E2B3D3F44
:100E10002F5B5D3B2C2A225C004D33310043616E19
:100E20006E6F7420656E746572207375626469728A
:100E30003A20006175746F25692E67006572726FC4
:100E4000722077726974696E6720746F2066696CAE
:100E5000650A004E6F74205344207072696E746985
:100E60006E670A005344207072696E74696E672061
:100E700062797465200044656C6574696F6E2066E4
:100E800061696C65642C2046696C653A200046698E
:100E90006C652064656C657465643A006F70656E9E
:100EA000206661696C65642C2046696C653A200097
:100EB00057726974696E6720746F2066696C653A51
:100EC00020006F70656E206661696C65642C204639
:100ED000696C653A20006F70656E206661696C65AB
:100EE000642C2046696C653A200046696C65207365
:100EF000656C65637465640A002053697A653A20FD
:100F00000046696C65206F70656E65643A20006FFD
:100F100070656E206661696C65642C2046696C653D
:100F20003A20002066696C653A2000667265736835
:100F300000646F696E67004E6F772000454E442055
:100F4000535542524F5554494E450A002220706F66
:100F500073002220706172656E743A22005355420C
:100F6000524F5554494E452043414C4C20746172B8
:100F70006765743A22004B494C4C45442E2000745E
:100F80007279696E6720746F2063616C6C20737571
:100F9000622D67636F64652066696C65732077698D
:100FA000746820746F6F206D616E79206C65766552
:100FB0006C732E204D4158206C6576656C206973EA
:100FC0003A004D3234004D32332025730053442013
:100FD00063617264206F6B0A006F70656E526F6F91
:100FE00074206661696C65640A00766F6C756D6566
:100FF0002E696E6974206661696C65640A005344E9
:1010000020696E6974206661696C0A0043616E6EC6
:101010006F74206F70656E20737562646972200052
:1010200020520020204D393030204B004C696E6535
:10103000617220416476616E63653A0A0020204D3A
:10104000383531205A005A2D50726F6265204F6634
:101050006673657420286D6D293A0A0020440020CB
:10106000490020204D333031205000504944207336
:10107000657474696E67733A0A0020460020420066
:1010800020480020204D3134352053004D617465D7
:101090007269616C2068656174757020706172613D
:1010A0006D65746572733A0A0020204D3432302029
:1010B00053004175746F20426564204C6576656C01
:1010C000696E673A0A00205A0020590020204D32EC
:1010D0003036205800486F6D65206F666673657402
:1010E0003A0A00204500205A0020590020580020CC
:1010F000420020540020204D3230352053004164FE
:1011000076616E6365643A20533C6D696E5F666517
:101110006564726174653E20543C6D696E5F7472E3
:101120006176656C5F66656564726174653E2042D8
:101130003C6D696E5F7365676D656E745F74696D34
:10114000655F75733E20583C6D61785F78795F6AA2
:1011500065726B3E205A3C6D61785F7A5F6A65729A
:101160006B3E20453C6D61785F655F6A65726B3EE2
:101170000A0020540020520020204D3230342050EC
:1011800000416363656C65726174696F6E202875D8
:101190006E6974732F7332293A20503C7072696EF5
:1011A000745F616363656C3E20523C72657472616A
:1011B00063745F616363656C3E20543C7472617656
:1011C000656C5F616363656C3E0A00204500205AD0
:1011D0000020590020204D3230312058004D6178D8
:1011E000696D756D20416363656C65726174696FCB
:1011F0006E2028756E6974732F7332293A0A0020A5
:101200004500205A0020590020204D32303320580C
:10121000004D6178696D756D2066656564726174F5
:1012200065732028756E6974732F73293A0A00203C
:101230004500205A0020590020204D393220580006
:1012400053746570732070657220756E69743A0A04
:101250000020204D3230302044300A0020204D3212
:1012600030302044002044697361626C65640A0078
:1012700046696C616D656E742073657474696E6720
:10128000733A0020204D3134392043203B20556EE5
:1012900069747320696E2043656C736975730A0005
:1012A0002020473231202020203B20556E69747366
:1012B00020696E206D6D0A0048617264636F646519
:1012C000642044656661756C742053657474696E3E
:1012D0006773204C6F616465640A00F4010000F4D8
:1012E000010000C800000010270000000096430025
:1012F0000096430000A0400000C8420000A0420049
:1013000000A0420000C84348E1CD42202863616C40
:1013100063756C6174656429210A0020213D2000F9
:10132000454550524F4D20435243206D69736D61C6
:10133000746368202D202873746F726564292000FF
:10134000290A002062797465733B20637263200070
:101350002073746F7265642073657474696E67734B
:1013600020726574726965766564202800204D617D
:10137000726C696E3D563437290A00284545505233
:101380004F4D3D00454550524F4D20766572736973
:101390006F6E206D69736D617463682000290A00A7
:1013A0002062797465733B20637263200053657417
:1013B00074696E67732053746F72656420280045EA
:1013C00072726F722077726974696E6720746F2011
:1013D000454550524F4D210A0066696C616D656E3E
:1013E000743A20007A5F70726F62653A20007A5F0B
:1013F0006D696E3A2000795F6D696E3A2000785F02
:101400006D696E3A20005265706F7274696E672064
:10141000656E6473746F70207374617475730A0001
:10142000456E6473746F70732025632025632025D7
:10143000632025630020503A00205A3A0020593A90
:101440000020583A00656E6473746F707320686989
:10145000743A2000556E6B6E6F776E20636F6D6D02
:10146000616E643A20220020746F6F206C6F6E678B
:1014700020657874727573696F6E20707265766519
:101480006E7465640A0020636F6C64206578747202
:101490007573696F6E2070726576656E7465640A27
:1014A000006563686F3A004572726F723A00205AA5
:1014B0003A0020593A0020436F756E7420583A0064
:1014C0004D383420582059205A20450024F4D43077
:1014D00050C38E20C2A24017828B7011127A910DD8
:1014E000816CD90AA861E108C758660761514306B3
:1014F0001E4B5D05C145A7041A411104093D98031F
:10150000713931034036DB0265339102D430540225
:10151000802E1D02632CEE01752AC501B028A001A2
:10152000102781018F2564012B244B01E022340117
:10153000AC211F018D200D01801FFC00841EED00D9
:10154000971DDF00B81CD200E61BC600201BBC00A4
:10155000641AB200B219A8000A19A0006A1899000A
:10156000D117910040178B00B516840031167E000C
:10157000B31579003A157300C7146F0058146A0048
:10158000EE1366008813630025135E00C7125B002C
:101590006C12570015125400C111510070114F0008
:1015A00021114B00D61049008D1047004610440011
:1015B00002104200C00F4000800F3E00420F3C006E
:1015C000060F3B00CB0E3800930E37005C0E350043
:1015D000270E3400F30D3200C10D3100900D3000A4
:1015E000600D2E00320D2D00050D2C00D90C2B00A6
:1015F000AE0C2900850C29005C0C2700350C270057
:101600000E0C2600E80B2400C40B2400A00B2300C2
:101610007D0B23005A0B2100390B2100180B2000F1
:10162000F80A1F00D90A1E00BB0A1E009D0A1D00F1
:10163000800A1D00630A1C00470A1B002C0A1B00BD
:10164000110A1A00F7091A00DD091900C409190066
:10165000AB091900920917007B09180063091700EC
:101660004C09160036091600200916000A09150053
:10167000F5081500E0081400CC081400B8081400A0
:10168000A4081400900813007D0812006B081300D2
:1016900058081200460812003408110023081100EF
:1016A0001208110001081100F0071000E0071000F7
:1016B000D0071000C0071000B0070F00A1071000EE
:1016C00091070E0083070F0074070F0065070E00D7
:1016D00057070E0049070E003B070D002E070E00AE
:1016E00020070D0013070D0006070D00F9060C007A
:1016F000ED060D00E0060C00D4060C00C8060C0038
:10170000BC060C00B0060C00A4060B0099060C00E9
:101710008D060B0082060B0077060B006C060B0093
:1017200061060A0057060B004C060A0042060A0032
:1017300038060A002E060A0024060A001A060A00C5
:101740001006090007060A00FD050900F405090056
:10175000EB050900E2050900D9050900D0050900DB
:10176000C7050900BE050900B5050800AD0508005C
:10177000A50509009C050800940508008C050800D3
:10178000840508007C050800740508006C05070046
:10179000650508005D050700560508004E050700B1
:1017A0004705070040050800380507003105070018
:1017B0002A050700230507001C050600160507007B
:1017C0000F0507000805060002050700FB040600D8
:1017D000F5040700EE040600E8040600E204070032
:1017E000DB040600D5040600CF040600C904060089
:1017F000C3040600BD040600B7040600B1040500DA
:10180000AC040600A6040600A00405009B04060024
:1018100095040500900406008A040500850405006F
:10182000800406007A0405007504050070040500B4
:101830006B04050066040500610405005C040500F6
:1018400057040500520405004D0405004804050036
:10185000430405003E0404003A0405003504050075
:10186000300404002C0405002704040023040500B0
:101870001E0404001A0404001604050011040400E8
:101880000D0404000904050004040400000404001D
:10189000FC030400F8030400F4030400F003040054
:1018A000EC030400E8030400E4030400E003040084
:1018B000DC030400D8030400D4030400D0030400B4
:1018C000CC030400C8030300C503030024F404D9B7
:1018D000201BC40C5C0E9804C4095F0265077101EB
:1018E000F405F900FB04B30048048700C103690054
:1018F0005803550003034500BE023A00840231003C
:1019000053022A002902250004022000E4011C00E1
:10191000C8011900AF0117009801140084011300D9
:10192000710110006101100051010E0043010D0012
:1019300036010B002B010B0020010B0015010900E3
:101940000C01090003010800FB000800F300080077
:10195000EB000700E4000600DE000600D8000600E9
:10196000D2000600CC000500C7000500C20005003B
:10197000BD000400B9000400B5000400B10004007B
:10198000AD000400A9000400A5000300A2000300AC
:101990009F0004009B0003009800030095000200D4
:1019A00093000300900003008D0002008B000300F1
:1019B000880002008600020084000300810002000B
:1019C0007F0002007D0002007B000200790002001F
:1019D000770001007600020074000200720001002E
:1019E000710002006F0002006D0001006C00020037
:1019F0006A00010069000200670001006600010042
:101A00006500010064000200620001006100010045
:101A1000600001005F0002005D0001005C00010049
:101A20005B0001005A00010059000100580001004C
:101A3000570001005600010055000100540001004C
:101A4000530000005300010052000100510001004A
:101A5000500001004F0001004E0000004E00010048
:101A60004D0001004C0001004B0000004B00010044
:101A70004A00010049000100480000004800010040
:101A8000470001004600000046000100450000003C
:101A90004500010044000100430000004300010034
:101AA000420000004200010041000000410001002E
:101AB000400001003F0000003F0001003E00000028
:101AC0003E0001003D0000003D0001003C00000020
:101AD0003C0000003C0001003B0000003B00010016
:101AE0003A0000003A00010039000000390001000E
:101AF0003800000038000000380001003700000006
:101B000037000100360000003600000036000100FA
:101B100035000000350000003500010034000000F1
:101B200034000000340001003300000033000000E6
:101B300033000100320000003200000032000100DA
:101B400031000000310000003100010030000000D1
:101B500030000000300001002F0000002F000000C6
:101B60002F0000002F0001002E0000002E000000BA
:101B70002E0001002D0000002D0000002D000000AF
:101B80002D0001002C0000002C0000002C000000A3
:101B90002C0001002B0000002B0000002B00000097
:101BA0002B0001002A0000002A0000002A0000008B
:101BB0002A0001002900000029000000290000007F
:101BC0002900000029000100280000002800000072
:101BD0002800000028000000280001002700000065
:101BE0002700000027000000270000002700010058
:101BF000260000002600000026000000260000004D
:101C0000260001002500000025000000250000003E
:101C10002500000025000000250001002400000030
:101C20002400000024000000240000002400010023
:101C30002300000023000000230000002300000018
:101C40002300000023000000230001002200000008
:101C500022000000220000002200000022000000FC
:101C600022000100210000002100000021000000EE
:101C700021000000210000002100000021000100DF
:101C800020000000200000002000000020000000D4
:101C900020000000200000002000000020000100C3
:101CA0001F0000001F0000001F0000001F000000B8
:101CB0001F0000001F0000001F0001001E000000A8
:101CC0001E0000001E0000001E0000002042403ADE
:101CD0000020403A00202F00546865726D616C202E
:101CE00052756E6177617900544845524D414C20E0
:101CF00052554E41574159004B494C4C45442E20BA
:101D000000202D20496E76616C69642065787472BC
:101D100075646572206E756D62657220210A0048D7
:101D2000656174696E67206661696C656400486509
:101D30006174696E67206661696C656400486561FD
:101D400074696E67206661696C65640048656174DA
:101D5000696E67206661696C6564004D494E544543
:101D60004D502074726967676572656400457272D0
:101D70003A204D494E54454D50204245440045724D
:101D8000723A204D494E54454D50004D41585445EE
:101D90004D502074726967676572656400457272A0
:101DA0003A204D415854454D50204245440045721B
:101DB000723A204D415854454D50006265640A0006
:101DC0002C2073797374656D2073746F7070656403
:101DD00021204865617465725F49443A200023649C
:101DE0006566696E65202044454641554C545F4BFD
:101DF00064200023646566696E6520204445464181
:101E0000554C545F4B69200023646566696E6520FC
:101E10002044454641554C545F4B70200050494486
:101E2000204175746F74756E652066696E6973689C
:101E30006564212050757420746865206C6173742A
:101E4000204B702C204B6920616E64204B64206312
:101E50006F6E7374616E74732066726F6D2062654D
:101E60006C6F7720696E746F20436F6E666967755B
:101E7000726174696F6E2E680A0050494420417582
:101E8000746F74756E65206661696C656421207479
:101E9000696D656F75740A00546865726D616C20B8
:101EA00052756E6177617900544845524D414C201E
:101EB00052554E415741590048656174696E67201B
:101EC0006661696C65640048656174696E67206667
:101ED00061696C656400504944204175746F747584
:101EE0006E65206661696C6564212054656D70655E
:101EF00072617475726520746F6F20686967680A13
:101F000000204B643A2000204B693A2000204B709F
:101F10003A20000A20436C6173736963205049447E
:101F2000200A002054753A2000204B753A200020EA
:101F30006D61783A2000206D696E3A200020643A85
:101F4000200020626961733A200070012C01900129
:101F50002701B0012201C0011D01F001180110028A
:101F6000130130020E016002090190020401C00257
:101F7000FF000003FA004003F5008003F000D003E7
:101F8000EB002004E6007004E100E004DC00400502
:101F9000D700C005D2004006CD00D006C80080079B
:101FA000C3003008BE00F008B900C009B400B00A90
:101FB000AF00B00BAA00D00CA500000EA000500F7F
:101FC0009B00C01096005012910000148C00C015A8
:101FD0008700B0178200B0197D00D01B7800001E6A
:101FE000730040206E0090226900F02464004027B6
:101FF0005F0090295A00E02B5500102E5000203031
:102000004B0010324600E033410090353C00103761
:10201000370070383200A0392D00B03A2800A03BBC
:102020002300603C1E00103D1900903D1400103E3E
:102030000F00703E0A00C03E0500003F0000403F18
:10204000FBFF803FF6FFC03FF1FF436172642072E7
:10205000656D6F766564004361726420696E7365B7
:102060007274656400746F20726573756D650057D6
:1020700061697420666F72207072696E74005052CC
:10208000494E54205041555345440020204E6F7A0C
:102090007A6C653A200066696C616D656E742065C6
:1020A000787472756465005761697420666F720098
:1020B0005052494E54205041555345440020204E23
:1020C0006F7A7A6C653A200066696C616D656E7432
:1020D000206C6F6164005761697420666F720050F4
:1020E00052494E54205041555345440020204E6FD4
:1020F0007A7A6C653A2000746F20636F6E74696E33
:1021000075652E2E2E00616E6420707265737320CB
:10211000627574746F6E00496E73657274206669BF
:102120006C616D656E74005052494E54205041559B
:102130005345440020204E6F7A7A6C653A2000683F
:10214000656174206E6F7A7A6C652E0050726573CB
:102150007320627574746F6E20746F005052494E14
:1021600054205041555345440020204E6F7A7A6CDC
:10217000653A2000506C6561736520776169742E43
:102180002E2E0048656174696E67206E6F7A7A6CD6
:1021900065005052494E542050415553454400204B
:1021A000204E6F7A7A6C653A200066696C616D65C5
:1021B0006E7420756E6C6F6164005761697420667F
:1021C0006F72005052494E542050415553454400BF
:1021D00020204E6F7A7A6C653A20006368616E67E2
:1021E00065006F66207468652066696C616D656E58
:1021F00074005761697420666F7220737461727421
:10220000005052494E5420504155534544004578A2
:102210007472756465206D6F726500526573756DBB
:1022200065207072696E7400524553554D45204FBC
:102230005054494F4E533A0020204E6F7A7A6C65C5
:102240003A20004261636B004D696E696D756D20C7
:1022500054656D70206973203138302E00486561F7
:1022600074696E67206661696C656400052E2E00D6
:102270004D61696E0046696C2E204469612E0046EE
:10228000696C2E204469612E004520696E206D6DB9
:1022900033004F6666004F6E2000416476616E63C6
:1022A00065204B00416476616E6365204B0041649C
:1022B00076616E6365204B00436F6E74726F6C00C5
:1022C00053746570732F6D6D004A65726B004163C6
:1022D00063656C65726174696F6E0056656C6F63DF
:1022E000697479005A204F6666736574005A204FEE
:1022F000666673657400436F6E74726F6C0045732D
:10230000746570732F6D6D004573746570732F6DF8
:102310006D005A73746570732F6D6D005A73746518
:1023200070732F6D6D005973746570732F6D6D0030
:102330005973746570732F6D6D0058737465707385
:102340002F6D6D005873746570732F6D6D004D6F38
:1023500074696F6E0056652D6A65726B0056652D47
:102360006A65726B0056652D6A65726B00567A2D30
:102370006A65726B00567A2D6A65726B0056792D0C
:102380006A65726B0056792D6A65726B0056792DFD
:102390006A65726B0056782D6A65726B0056782DEF
:1023A0006A65726B0056782D6A65726B004D6F74AA
:1023B000696F6E00416D6178204500416D61782044
:1023C0004500416D6178205A00416D6178205A00C6
:1023D000416D6178205900416D6178205900416D4F
:1023E0006178205800416D6178205800412D747249
:1023F0006176656C00412D74726176656C00412DCB
:102400007265747261637400412D726574726163E8
:102410007400416363656C00416363656C004D6FDC
:1024200074696F6E005654726176206D696E005645
:1024300054726176206D696E005654726176206D1B
:10244000696E00566D696E00566D696E00566D6955
:102450006E00566D6178204500566D61782045000C
:10246000566D6178204500566D6178205A00566D92
:102470006178205A00566D6178205A00566D617857
:10248000205900566D6178205900566D61782059A9
:1024900000566D6178205800566D617820580056BE
:1024A0006D61782058004D6F74696F6E0053746FC2
:1024B00072652073657474696E67730042656400A9
:1024C00042656400426564004E6F7A7A6C65004E26
:1024D0006F7A7A6C65004E6F7A7A6C650046616E31
:1024E0002073706565640046616E20737065656475
:1024F0000046616E2073706565640054656D70659B
:10250000726174757265005072656865617420410E
:10251000425320636F6E6600507265686561742077
:10252000504C4120636F6E660050494420417574E1
:102530006F74756E6500504944204175746F7475F1
:102540006E65005049442D44005049442D440050CC
:1025500049442D49005049442D49005049442D50CB
:10256000005049442D500020022046616374002031
:10257000022046616374002002204D617800200231
:10258000204D6178002002204D6178002002204D0E
:10259000696E002002204D696E002002204D696E98
:1025A000004175746F74656D70004F6666004F6E04
:1025B000200046616E2073706565642032004661BC
:1025C0006E20737065656420320046616E20737002
:1025D00065656420320046616E2073706565642015
:1025E000310046616E20737065656420310046617C
:1025F0006E20737065656420310042656400426539
:1026000064004E6F7A7A6C65004E6F7A7A6C650062
:10261000436F6E74726F6C004D3330332055312030
:102620004525692053256900496E697469616C69A3
:102630007A6520454550524F4D00436F6E74726F5E
:102640006C00496E697469616C697A652045455012
:10265000524F4D00526573746F7265206661696CEC
:1026600073616665004C6F61642073657474696E94
:1026700067730053746F72652073657474696E6755
:10268000730046696C616D656E74004D6F74696F9F
:102690006E0054656D7065726174757265004D6190
:1026A000696E004578747275646572004D6F766569
:1026B000205A004D6F76652059004D6F7665205881
:1026C0000050726570617265004D6F766520302E26
:1026D000316D6D004D6F766520316D6D004D6F76FB
:1026E000652031306D6D004D6F76652061786973BE
:1026F000004578747275646572004D6F7665205A76
:10270000004D6F76652059004D6F76652058004565
:1027100078747275646572004D6F7665205A004D4D
:102720006F76652059004D6F7665205800507265B0
:102730006865617420414253005072656865617438
:1027400020504C4100436F6F6C646F776E0043689C
:10275000616E67652066696C616D656E74004469C1
:102760007361626C65207374657070657273004D7F
:1027700038340053657420686F6D65206F6666732A
:1027800065747300426564204C6576656C696E679C
:10279000004732380A47323900486F6D65205A00C9
:1027A000473238205A00486F6D652059004732384B
:1027B000205900486F6D6520580047323820580076
:1027C0004175746F20686F6D6500473238004D6F3A
:1027D00076652061786973004D61696E005072659D
:1027E00068656174204142532042656400507265FF
:1027F000686561742041425320456E6400507265E3
:102800006865617420414253005072657061726561
:10281000005072656865617420504C4120426564C7
:10282000005072656865617420504C4120456E64AB
:10283000005072656865617420504C4100507265AB
:1028400070617265004368616E67652066696C61DE
:102850006D656E7400466C6F7700466C6F7700464E
:10286000616E20737065656420320046616E20736E
:102870007065656420320046616E20737065656422
:1028800020320046616E2073706565642031004619
:10289000616E20737065656420310046616E20733F
:1028A0007065656420310042656400426564004ED5
:1028B0006F7A7A6C65004E6F7A7A6C65005370653A
:1028C0006564005370656564005370656564004D10
:1028D00061696E004D363030204230004D34323860
:1028E000004E6F2053442063617264005072696E21
:1028F000742066726F6D2053440053746F702070A3
:1029000072696E7400526573756D65207072696EC0
:1029100074005061757365207072696E7400436F46
:102920006E74726F6C0050726570617265005475E0
:102930006E6500496E666F2073637265656E005048
:1029400072696E742061626F72746564005072699E
:102950006E7420706175736564000025753A2530CA
:10296000327500253032753A25303275002D2D2D07
:10297000005344005A0059005800506C656173655B
:10298000207265736574005052494E544552204878
:10299000414C54454400001C1F11111F000000064B
:1029A000191803130C00040E1F041C000000000E75
:1029B0001315110E00001C10181705060500040A57
:1029C0000A0A0A11110E0C12120C00000000001F5E
:1029D0001511151F00000000000001020404000092
:1029E000001C1C0C04040402010000000000040888
:1029F0001000000000002D2D2D2D2D2D007C4D618F
:102A0000726C696E7C002D2D2D2D2D2D0068747437
:102A1000703A2F2F6D61726C696E66772E6F7267D8
:102A200000687474703A2F2F6D61726C696E6677EE
:102A30002E6F72670020312E312E380000000A0BF5
:102A400002090C0D0E08070304010000000000003D
:102A50000000000000000000000000000000000076
:102A60000000000000000000121110000000000033
:102A70000000000000000000000000000000000056
:102A80000000010210202008081020401020408083
:102A90000201020108040201010204081020408022
:102AA00080402010080402018004020180402010B0
:102AB00008040201080402010102040810204080F9
:102AC00001020408102040800505050507050808D7
:102AD0000808020202020A0A0808040404040101A8
:102AE00001010101010103030303030303030407BD
:102AF00007070C0C0C0C0C0C0C0C02020202060654
:102B00000606060606060B0B0B0B0B0B0B0B000049
:102B100020002300260029002C002F003200000195
:102B20000000030106010901000022002500280021
:102B30002B002E00310034000201000005010801C5
:102B40000B0100002100240027002A002D00300086
:102B5000330001010000040107010A01024E414E49
:102B6000494E495459494E46CDCCCC3D0AD7233C19
:102B700017B7D13877CC2B329595E6241FB14F0A81
:102B8000000020410000C84200401C4620BCBE4C52
:102B9000CA1B0E5AAEC59D74FA58C98587A0ABCA28
:102BA0001B5911241FBECFEFD1E2DEBFCDBF00E025
:102BB0000CBF13E0A0E0B2E0E0E7F4E302E00BBFFB
:102BC00002C007900D92A039B107D9F724E1A0E91E
:102BD000B3E001C01D92A534B207E1F71BE2C0EAE1
:102BE000DBE200E006C022970109FE010BBF0F9453
:102BF0009E12C839D10780E00807A9F70F94090E83
:102C00000D94271A0C9400001F920F920FB60F928A
:102C100011240BB60F922F938F939F93EF93FF93F3
:102C2000E091100481E08E0F8F779091C600209183
:102C30001104821731F0F0E0E057FC4F908380934D
:102C40001004FF91EF919F918F912F910F900BBEE8
:102C50000F900FBE0F901F9018959B01AC0121158E
:102C600081EE38074105510549F182E08093C000AB
:102C700060E079E08DE390E00F945D12215031091E
:102C800041095109CA01B90122E030E040E050E0B9
:102C90000F945D123093C5002093C4008091C10051
:102CA00080618093C1008091C10088608093C100E1
:102CB0008091C10080688093C10008951092C00087
:102CC00020E130E0E7CF3FB7F894209111048091E4
:102CD0001004821759F0E22FF0E0E057FC4F80819A
:102CE00090E02F5F2F772093110402C08FEF9FEFAA
:102CF0003FBF08958FB7F8949091110490931004FA
:102D00008FBF08959091C00095FFFCCF8093C600BF
:102D10000895F8CFAF92BF92CF92DF92EF92FF92D9
:102D20000F931F93CF93DF93CDB7DEB7A0970FB666
:102D3000F894DEBF0FBECDBF611571058105910509
:102D4000A9F1B12CC42ED12CE12CF12CAA24A394EE
:102D5000AB0C01E010E00C0F1D1F0B0D111DB7FC9B
:102D60001A95A70196010F943B12F8016083B901EF
:102D7000CA01611571058105910511F41B2D11C062
:102D8000BA2CE4CFE1E0F0E0EC0FFD1FE10FF11D04
:102D900017FDFA9580818A3038F490E3890FB2DF0D
:102DA00011501F3F79F714C097E3F8CF80E3A09646
:102DB0000FB6F894DEBF0FBECDBFDF91CF911F914C
:102DC0000F91FF90EF90DF90CF90BF90AF909ACF90
:102DD000A0960FB6F894DEBF0FBECDBFDF91CF91A6
:102DE0001F910F91FF90EF90DF90CF90BF90AF9029
:102DF00008954115510511F4862F84CF8BCFAB0177
:102E0000682F70E080E090E0F4CFAB01BC0180E07F
:102E100090E0EFCFCF92DF92EF92FF926B017C01B7
:102E200097FF0AC08DE26EDFF094E094D094C094D6
:102E3000C11CD11CE11CF11C4AE0C701B601FF9086
:102E4000EF90DF90CF9066CF4115510511F4862F9A
:102E500059CF4A30510509F4DDCF5CCFAB01BC013D
:102E6000882777FD8095982FEFCF8DE04BDF8AE0A4
:102E700049CFAB01BC0180E090E0BBDFF6CF8F9281
:102E80009F92AF92BF92CF92DF92EF92FF92CF9339
:102E90006B017C01B42E20E030E0A9010F94F10E0B
:102EA00087FF06C08DE22EDFF7FAF094F7F8F09472
:102EB000C0E060E070E080E09FE3CB1541F02DECD6
:102EC0003CEC4CEC5DE30F942F11CF5FF6CF9B01F0
:102ED000AC01C701B6010F94180E6B017C010F9471
:102EE000650F4B015C014AE015DFCC2381F1C50180
:102EF000B4010F94910F9B01AC01C701B6010F946F
:102F0000170E6B017C018EE2FDDE20E030E040E236
:102F100051E4C701B6010F942F116B017C010F948E
:102F2000600F4B01AA2497FCA094BA2CC501B401F0
:102F300071DFC501B4010F94930F9B01AC01C70170
:102F4000B6010F94170E6B017C01C150F1F6CF91C1
:102F5000FF90EF90DF90CF90BF90AF909F908F90B9
:102F600008958DCFEF92FF920F931F93CF93DF932E
:102F70001F92CDB7DEB7082F162FE9E2F6E0849155
:102F80007F012FEFE21AF20A882329F09983C1DE2C
:102F9000F7019981F4CFE02FF92F84917F019FEF02
:102FA000E91AF90A882319F0B4DEF701F6CFE7E24F
:102FB000F6E084917F01AFEFEA1AFA0A882319F04C
:102FC000A8DEF701F6CF6AE070E0812F90E046DFDF
:102FD0008AE00F90DF91CF911F910F91FF90EF90BA
:102FE00098CE8091281381111AC060914D02709182
:102FF0004E02882777FD8095982F0F94930F9B01A1
:10300000AC0160914D1370914E1380914F139091CC
:1030100050130F94F10E881F8827881F089580E0B1
:103020000895CF92DF92EF92FF920F931F93CF9369
:10303000DF93EC010F947B070E811F812885398572
:103040000115110521053105B9F53C85332309F436
:1030500040C02A8531503C8731E0320F3A874D8598
:10306000341301C01A86FE0134E0239FE00DF11DE8
:10307000112406851785208931890A831B832C83B7
:103080003D836B017C01C00ED11EE11CF11CCE8280
:10309000DF82E886F9868C819D81892BD1F01FB76C
:1030A000F8942A813B8140E050E06C817D8185E28B
:1030B0000F94300A1FBF0DC06B017C01C01AD10AEA
:1030C000E20AF30AF7FC05C040981E821F821886A8
:1030D0001986DF91CF911F910F91FF90EF90DF90B4
:1030E000CF9008950F947B076093DF047093E00402
:1030F0008093E1049093E2040895809123029091DB
:103100002402A0912502B09126028093220590937B
:103110002305A0932405B093250580912102909169
:103120002202909321058093200584E690E09093FD
:10313000220280932102D6CF80912205909123050F
:10314000A0912405B0912505809323029093240239
:10315000A0932502B093260280912005909121052D
:103160009093220280932102BDCF80E1E9EBF6E04B
:10317000A9ECB6E001900D928A95E1F7089580E1FF
:10318000E9ECF6E0A9EBB6E001900D928A95E1F743
:103190000895CF92DF92EF92FF920F931F93CF93F8
:1031A000DF93EB01FC0160817181828193812CE3CB
:1031B000C22ED12CE12CF12CA70196010F943B12C9
:1031C000162F072FCA01B901A70196010F943B12D0
:1031D000F62EE72ECA01B90128E130E040E050E0C8
:1031E0000F943B12FB01C9016DE671E00F941412BC
:1031F0009B014F2D5E2D21153105D9F00F931F93A3
:10320000EF92FF92FF93EF939F938F933F932F93B0
:103210008BEB98E09F938F93DF93CF930F941417CA
:103220008DB79EB70E960FB6F8949EBF0FBE8DBF9A
:103230005BC00097C9F00F931F93EF92FF92FF932B
:10324000EF939F938F938BEA98E09F938F93DF93F5
:10325000CF930F941417EDB7FEB73C960FB6F894C2
:10326000FEBF0FBEEDBF40C03097B9F00F931F9364
:10327000EF92FF92FF93EF938FE998E09F938F93E4
:10328000DF93CF930F9414178DB79EB70A960FB69E
:10329000F8949EBF0FBE8DBF27C0452BA9F00F939A
:1032A0001F93EF92FF9287E998E09F938F93DF93AC
:1032B000CF930F941417EDB7FEB738960FB6F89466
:1032C000FEBF0FBEEDBF10C00F931F9383E998E0C0
:1032D0009F938F93DF93CF930F9414170F900F90BA
:1032E0000F900F900F900F90DF91CF911F910F9142
:1032F000FF90EF90DF90CF90089581548A3148F588
:10330000482F50E0FA0133E0F595E7953A95E1F75B
:10331000E054F44F208130E0877002C03595279546
:103320008A95E2F720FF15C0FA01EA55F44F208193
:10333000222339F08091CB0B9091CC0B820F911D01
:1033400002C080E090E09093C80B8093C70B81E0AF
:10335000089580E00895D1DF882339F081E020913D
:10336000C70B3091C80B232B09F480E008951F93FD
:10337000CF93DF938091C70B9091C80B009701F119
:10338000FC01EF011191212F2F7D99F0153411F0DF
:103390001536B9F7188260E070E08091C70B909104
:1033A000C80B0F94A2121883562F472F382F292F9E
:1033B0000BC060E070E0DF91CF911F910D94A212DD
:1033C00050E040E030E020E0652F742F832F922FF3
:1033D000DF91CF911F9108958091C70B9091C80BF9
:1033E000009731F04AE050E060E070E00D940A147C
:1033F00060E070E0CB0108958091C70B9091C80BFD
:10340000009731F04AE050E060E070E00D943B1529
:1034100060E070E0CB010895DFDF97FD0CC0DCDFDA
:103420006F3F71058105910509F014F4D5DF01C0E6
:103430006FEF862F089580E008958091C70B9091DB
:10344000C80B892B39F0E8DF91E0811101C090E0D1
:10345000892F089581E00895EF92FF920F931F93B3
:10346000CF93DF93EC017B018A016C854D8564135A
:103470000AC0E881F9810190F081E02DCE01199513
:103480000E9420B6F2CFF70120813181F8018081BE
:1034900091815B85FE0174E0579FE00DF11D1124C1
:1034A0003E9631832083938382836F5F6C8781E0B4
:1034B000850F841711F08B8701C01B86DF91CF9198
:1034C0001F910F91FF90EF900895AF92BF92CF920E
:1034D000DF92FF920F931F93CF93DF9300D01F9241
:1034E000CDB7DEB7F82E662351F010921804109273
:1034F00014041092150410921604109217040F94DD
:103500007B0700911404109115042091160430914A
:1035100017045B016C01A01AB10AC20AD30AD7FCD6
:1035200040C0F7FE05C004EC19E020E030E015C013
:10353000E09118042F2D332727FD30952C5F3F4F46
:103540004E2F552747FD50952417350754F1EF1599
:1035500054F300E911E020E030E0DC01CB01800F02
:10356000911FA21FB31F8093140490931504A0937E
:103570001604B093170480ED97E09A8389838CE258
:1035800091E09C838B83AE014F5F5F4FBE016D5F07
:103590007F4F8FEA94E060DF809118048F5F809303
:1035A00018040F900F900F900F90DF91CF911F9103
:1035B0000F91FF90DF90CF90BF90AF9008950F9341
:1035C0001F93CF93DF93CDB7DEB72C970FB6F89448
:1035D000DEBF0FBECDBF8091D1069091D206A091E3
:1035E000D306B091D4064091CD065091CE0660919D
:1035F000CF067091D0060091C9061091CA0620919D
:10360000CB063091CC0609871A872B873C874D83E0
:103610005E836F83788789839A83AB83BC83AE0193
:103620004F5F5F4FBE016B5F7F4FCE0109960E94D7
:10363000AF8F25ED36E0AE014F5F5F4FBE016B5F90
:103640007F4FCE0109960E94399E2C960FB6F894B2
:10365000DEBF0FBECDBFDF91CF911F910F910895B7
:103660008F929F92BF92CF92DF92EF92FF920F9331
:103670001F93CF93DF93CDB7DEB764970FB6F8945F
:10368000DEBF0FBECDBFF02EB12E69018C01000F41
:10369000111F000F111FC8018753994F4C01FC01E6
:1036A0001082118212821382498B5A8B6B8B7C8B16
:1036B00086DF49895A896B897C89F401408351836B
:1036C00062837383E090E70420E030E0A9016F2D6E
:1036D0007B2DC6010F94F10E811108C00750124FC7
:1036E000F80185919591A591B49103C08F2D9B2DE3
:1036F000D6018D879E87AF87B88B8091D106909138
:10370000D206A091D306B091D4064091CD06509137
:10371000CE066091CF067091D0060091C906109137
:10372000CA062091CB063091CC0609871A872B87D1
:103730003C874D835E836F83788789839A83AB83CD
:10374000BC83AE014F5F5F4FBE016B5F7F4FCE0109
:1037500009960E94AF8F8E01035F1F4F25ED36E063
:10376000AE014F5F5F4FBE016B5F7F4FCE01099689
:103770000E942C9B0E9400AE1092A10B64960FB683
:10378000F894DEBF0FBECDBFDF91CF911F910F9197
:10379000FF90EF90DF90CF90BF909F908F90089513
:1037A0008091A8068093A9061092AA060895909188
:1037B000A806E92FF0E0E956FB4F80839F5F943025
:1037C00018F49093A80602C01092A8068091AA0649
:1037D0008F5F8093AA060895CF93FC01C62F808146
:1037E0008B3399F08091AA06843078F42091A80652
:1037F00030E6239FC0011124BF01885D9A4F0F94CA
:10380000E5168C2FD4DF81E001C080E0CF910895D0
:103810000F931F93CF93DF93EC01DEDF8823B1F08A
:10382000E1EAF4E184918F010F5F1F4F882319F0C3
:1038300070DAF801F7CFBE018DEA9DE00E948BA0FF
:1038400082E267DA8AE065DA81E001C080E0DF9138
:10385000CF911F910F910895DF92EF92FF920F93F6
:103860001F93CF93DF93CDB7DEB76E970FB6F89463
:10387000DEBF0FBECDBF6091260570912705611593
:10388000710559F14DE150E08E010F5F1F4FC801E6
:103890000F9474161E8EF8017F01E01AF10AD19080
:1038A000DD2019F08AE0D812F7CFF801EE0DFF1DE8
:1038B000108260E0C801ACDF882379F0DD20B1F030
:1038C0008FEFE81AF80A80912605909127058E0D52
:1038D0009F1D909327058093260581E02091260562
:1038E00030912705232B29F480E003C080E090E08D
:1038F000F0CF6E960FB6F894DEBF0FBECDBFDF914E
:10390000CF911F910F91FF90EF90DF9008959093CA
:10391000270580932605A0CF9898A09A08956C98C3
:10392000749A08956BE070E084E994E00E944FA3DC
:1039300084E994E00C9454A3CF92DF92EF92FF922B
:103940000F931F93CF93DF938091DC06882309F4B4
:10395000D5C08091AA06811102C010921A04FF24DA
:10396000F39440917F095091800960918109709191
:10397000820980917B0990917C09A0917D09B09189
:103980007E09481759076A077B0708F4F12CC0E045
:10399000D0E0EE24E394F0E6DF2E8091AA06843096
:1039A00008F0ACC0F110AAC080911A048111A6C021
:1039B0008091D6089091D708A091D808B091D908E5
:1039C00080937F0990938009A0938109B093820925
:1039D0008EEC98E00E94D65DC82EFF24F3940091EF
:1039E0007F091091800920918109309182094091CD
:1039F0007B0950917C0960917D0970917E090417C3
:103A0000150726073707C0F4F12C8F3F2FEF9207D9
:103A100061F12AE0821709F445C02DE0821709F40C
:103A200041C023E2821719F02AE382134EC020918D
:103A3000190421114AC031C08AED96E00E946373D7
:103A40008091DC06811127C0EEE8FCE084918F01B3
:103A50000F5F1F4F882319F05CD9F801F7CF61E0A1
:103A60008AED96E00E94B66E18C0E7EAF4E1849110
:103A70008F010F5F1F4F882319F04BD9F801F7CF43
:103A8000EFE7FCE084918F010F5F1F4F882329F03F
:103A900040D9F801F7CFC0E0D0E083E2C81202C0FD
:103AA000E0921A0410921904209709F476CF8091BD
:103AB000A806D89EC00DD11D1124C85DDA4F18820A
:103AC00080E075DEC0E0D0E068CFCF35D10508F0EA
:103AD00064CF2BE3C21202C0E092190420911904B2
:103AE00021115BCF9091A806FE01D99EE00DF11D3A
:103AF0001124E85DFA4F808321964FCFDF91CF915B
:103B00001F910F91FF90EF90DF90CF900895FF925B
:103B10000F931F93CF93DF93EC0184E51CDC882384
:103B200021F17ADCF82E1816ECF4E1EAF4E1849144
:103B30008F010F5F1F4F882319F0EBD8F801F7CFE3
:103B40008DE4E7D86AE070E0CE015FD96F2D77276A
:103B500067FD70958CE69CE00E94B3A08AE0D9D8FE
:103B600081E008C08093AE0404C08091E704809394
:103B7000AE0480E0DF91CF911F910F91FF900895E7
:103B8000EF92FF920F931F93CF93DF93EC018C0181
:103B9000000F111F000F111FC80188509B4F7C019F
:103BA000F801EC5FFA4FD801A05FBA4F2D913D911B
:103BB0004D915C9160817181828193810F94180E87
:103BC000F70160837183828393830351124FF8015D
:103BD0004591559165917491FE01EE0FFF1FEE0F17
:103BE000FF1FDF01A451BB4F4D935D936D937C93F9
:103BF0001397EF51F24F4591559165917491CC0F08
:103C0000DD1FCC0FDD1FCB5EDD4F488359836A83F8
:103C10007B83DF91CF911F910F91FF90EF900895DB
:103C20004F925F926F927F92AF92BF92CF92DF924C
:103C3000EF92FF920F931F93CF93DF93EC01FC0160
:103C4000E654F24F6491FC01EE0FFF1FEE0FFF1FD1
:103C5000E753F24F4590559065907490772767FD34
:103C60007095872F972F0F94930F6B017C0120E0A5
:103C700030E040EC5FE3C301B2010F942F11A701C4
:103C800096010F942F11AB01BC0100E010E09801E8
:103C9000CE01E6DCFE01EE0FFF1FEE0FFF1FE35427
:103CA000F24F2591359145915491C701B6010F947A
:103CB0002F116B017C0120E030E0A9010F94F10E7F
:103CC0005E01AA0CBB1CAA0CBB1C882309F446C0CD
:103CD00000E010E09801B701A6017058CE01C0DCE9
:103CE000FE01EF52F44F6491611118C0E1EAF4E172
:103CF00084918F010F5F1F4F882319F00AD8F801B4
:103D0000F7CFEFEAFBE084918F010F5F1F4F88230D
:103D100021F00E948916F801F6CF6AE0F501E7501C
:103D2000F24F459055906590749070E080E090E07F
:103D30000F94930F9B01AC01C301B2010F94F80ED5
:103D40002B013C01A7019601C701B6010F94180E83
:103D5000AB01BC0193018201CE0182DCFE01EA5479
:103D6000F94F81E08083FE01ED54F94F8083F50126
:103D7000E05FFA4F1082118212821382CE0100DFBF
:103D8000F501EB52F24F85919591A591B4918E0179
:103D9000000F111F000F111FE801C753D94F88836F
:103DA0009983AA83BB830BDCF801E754F94F888120
:103DB0009981AA81BB8180839183A283B383DF91A0
:103DC000CF911F910F91FF90EF90DF90CF90BF9018
:103DD000AF907F906F905F904F900895EF920F9308
:103DE0001F93CF93DF93CDB7DEB72C970FB6F89420
:103DF000DEBF0FBECDBFE090E7048091D106909169
:103E0000D206A091D306B091D4064091CD06509130
:103E1000CE066091CF067091D0060091C906109130
:103E2000CA062091CB063091CC0609871A872B87CA
:103E30003C874D835E836F83788789839A83AB83C6
:103E4000BC83AE014F5F5F4FBE016B5F7F4FCE0102
:103E500009960E94AF8F03E212E025ED36E0AE0135
:103E60004F5F5F4FBE016B5F7F4FCE0109960E948F
:103E70002C9B2C960FB6F894DEBF0FBECDBFDF9102
:103E8000CF911F910F91EF900895EF920F931F9391
:103E9000CF93DF93CDB7DEB760970FB6F894DEBF50
:103EA0000FBECDBF6D877E878F87988BE090E7042C
:103EB0008091C1069091C206A091C306B091C4063C
:103EC0004091BD065091BE066091BF067091C0063C
:103ED0000091B9061091BA062091BB063091BC063C
:103EE00009871A872B873C874D835E836F8378878A
:103EF00089839A83AB83BC83AE014F5F5F4FBE0162
:103F00006B5F7F4FCE0109960E94AF8F8E01035FDA
:103F10001F4F25EC36E0AE014F5F5F4FBE016B5F78
:103F20007F4FCE0109960E942C9B60960FB6F894A5
:103F3000DEBF0FBECDBFDF91CF911F910F91EF90EC
:103F400008952F923F924F925F926F927F928F923D
:103F50009F92AF92BF92CF92DF92EF92FF920F9318
:103F60001F93CF93DF9300D0CDB7DEB75C014B0139
:103F70008A013B832A834090230250902402609060
:103F8000250270902602F9013080D180E280F38012
:103F900020E030E0A901632D7D2DC7010F94F10EC3
:103FA000811107C0E1E0FEE0C590D590E590F49066
:103FB00005C0832D9D2DD7016C017D01F801208165
:103FC0003181428153816091D1067091D2068091F6
:103FD000D3069091D4060F94F10E87FF16C0C092BD
:103FE0002302D0922402E0922502F0922602F801E8
:103FF00080819181A281B3818093D1069093D20672
:10400000A093D306B093D406E9DEEA81FB81208039
:104010003180F281F983EA81FB81F381FA8320E028
:1040200030E0A901B10189819F2F0F94F10E811118
:1040300009C020900B0230900C0220910D023091AB
:104040000E0202C029813A81C101D9018093230265
:1040500090932402A0932502B0932602F50180815B
:104060009181A281B3818093C9069093CA06A093DF
:10407000CB06B093CC06F40180819181A281B381FB
:104080008093CD069093CE06A093CF06B093D00632
:10409000A5DEF80120813181428153816091D106F2
:1040A0007091D2068091D3069091D4060F94F410AB
:1040B0001816B4F4C0922302D0922402E092250292
:1040C000F0922602F80180819181A281B3818093D0
:1040D000D1069093D206A093D306B093D4067EDE89
:1040E0000E9400AE40922302509224026092250268
:1040F000709226020F900F900F90DF91CF911F9139
:104100000F91FF90EF90DF90CF90BF90AF909F9076
:104110008F907F906F905F904F903F902F90089579
:104120009B01AC016DEC76E089EC96E00ACF9A0138
:1041300041ED56E006CFFF920F931F93CF93DF938D
:10414000882329F0C091B60681E0C82701C0C0E0ED
:10415000662329F0D091B70681E0D82701C0D0E0CE
:10416000442329F0F090B80681E0F82601C0F12C34
:10417000C11105C0D11103C0FF2009F47BC0E1EAE1
:10418000F4E184918F010F5F1F4F882321F00E947B
:104190008916F801F6CFE6E6FCE084918F010F5F07
:1041A0001F4F882321F00E948916F801F6CFCC23F7
:1041B00061F0E4E6FCE084918F010F5F1F4F8823DC
:1041C00021F00E948916F801F6CFDD2361F0E2E6C6
:1041D000FCE084918F010F5F1F4F882321F00E9424
:1041E0008916F801F6CFF11003C0E8E5FCE00CC039
:1041F000E0E6FCE084918F010F5F1F4F8823A9F355
:104200000E948916F801F6CF84918F010F5F1F4F2E
:10421000882321F00E948916F801F6CFFF2019F0BB
:1042200044EC52E002C04BE353E0DD2319F026ECEE
:1042300032E002C02BE333E0CC2319F088EC92E0AB
:1042400002C08BE393E05F934F933F932F939F9331
:104250008F9386E49CE09F938F931F920E94E8C700
:104260008DB79EB709960FB6F8949EBF0FBE8DBF4F
:1042700081E001C080E0DF91CF911F910F91FF900D
:104280000895CF92DF92EF92FF921F93CF93DF9327
:10429000CDB7DEB72C970FB6F894DEBF0FBECDBFFB
:1042A000182F80919E0B811709F468C080E090E080
:1042B000A0EFB1E48D839E83AF83B887C090AA043A
:1042C000D090AB04E090AC04F090AD0420E030E07E
:1042D000A901C701B6010F94F10E87FF0CC0A70119
:1042E000960160E070E080EF91E40F94170E6D830B
:1042F0007E838F8398872091D1063091D20640919A
:10430000D3065091D4066D817E818F8198850F945C
:10431000F410181654F419821A821B821C82BE01F2
:104320006F5F7F4FCE010596FBDE4091C90650912D
:10433000CA066091CB067091CC0649875A876B8775
:104340007C874091CD065091CE066091CF0670914A
:10435000D0064D835E836F83788719821A821B8211
:104360001C829E012F5F3F4F41ED56E0BE016B5F07
:104370007F4FCE010996E5DD10939E0B80E02C96D1
:104380000FB6F894DEBF0FBECDBFDF91CF911F9166
:10439000FF90EF90DF90CF9008958F929F92AF9211
:1043A000BF92CF92DF92EF92FF920F931F93CF9322
:1043B000DF9361E0A62E63E0B62E79EBE72E76E080
:1043C000F72E09EC16E0E8EFCE2EE4E0DE2EC0E09A
:1043D000D0E0F50181915F010E947D19882361F190
:1043E0000E94B719FE01E45EFA4F2081211104C03A
:1043F0002091E604222331F0F801208131814281AD
:10440000538103C020E030E0A9010F94180EC3309F
:1044100049F0F60120813181428153810F94170EBA
:10442000FB0102C0E62FF72FAF01BC01F70140836B
:104430005183628373830AC0F80180819181A281D4
:10444000B381F70180839183A283B3832196F4E043
:10445000EF0EF11C0C5F1F4F84E0C80ED11CC4305E
:10446000D10509F0B6CF86E40E94AB198823C9F0C4
:104470000E94B71920E030E0A9010F94F41018163B
:1044800084F40E94B71920E030E040E752E40F9432
:10449000F80E609323027093240280932502909378
:1044A0002602DF91CF911F910F91FF90EF90DF9047
:1044B000CF90BF90AF909F908F900895CF92DF9252
:1044C000EF92FF92CF93DF930F947B076B017C01F8
:1044D00080910A02882309F468C0209192043091E7
:1044E00093042115310509F460C080918E049091E8
:1044F0008F04A0919004B0919104B701A601481BCC
:10450000590B6A0B7B0B77FD63C02330310519F122
:104510003CF4213031050CF448C0E1EAF4E107C075
:104520002430310509F041C0E1EAF4E12AC0849168
:10453000EF012196882321F00E948916FE01F7CF12
:10454000E3E0FCE08491EF012196882371F10E9461
:104550008916FE01F7CFE1EAF4E18491EF0121969B
:10456000882321F00E948916FE01F7CFECEEFBE0D4
:104570008491EF0121968823C1F00E948916FE01E3
:10458000F7CF8491EF012196882321F00E948916AC
:10459000FE01F7CFE4EDFBE08491EF012196882343
:1045A00021F00E948916FE01F7CF20910A0230E027
:1045B000A8EEB3E00F947F126C0D7D1D8E1D9F1D24
:1045C00060938E0470938F04809390049093910471
:1045D000DF91CF91FF90EF90DF90CF900895CF9330
:1045E000DF93CDB7DEB72D970FB6F894DEBF0FBEC1
:1045F000CDBF41E061E081E09EDD811129C080E016
:1046000090E0A6E1B3E489839A83AB83BC8380E026
:1046100090E0A1E9B3E48D839E83AF83B88780E007
:1046200090E0A0EAB1E489879A87AB87BC8780E5F0
:104630000E94AB19882319F00E94EC1901C060E0B8
:104640006D87BE016F5F7F4FCE010D960E9452892C
:104650002D960FB6F894DEBF0FBECDBFDF91CF9180
:1046600008950F931F93CF93DF9300D01F92CDB780
:10467000DEB78091B306882321F08091B4068111C2
:104680001EC060E08FE99BE00E9491C7E1EAF4E17F
:1046900084918F010F5F1F4F882321F00E9489169C
:1046A000F801F6CFEEE8FBE084918F010F5F1F4F1A
:1046B000882309F43DC00E948916F801F5CF0E94B5
:1046C000DF1A80E090E0A0EAB1E48093B90690930D
:1046D000BA06A093BB06B093BC0680E090E0ACE8BD
:1046E000B3E48093BD069093BE06A093BF06B0933B
:1046F000C0068091D1069091D206A091D306B091C8
:10470000D4068093C1069093C206A093C306B093CB
:10471000C40619821A821B821C82AE014F5F5F4F52
:104720006DEB76E089EB96E002DD82E090E078DAEE
:104730000F900F900F900F90DF91CF911F910F91DD
:104740000895EF92FF921F93CF93DF931F92CDB7FF
:10475000DEB7182FE6E8FBE084917F012FEFE21A25
:10476000F20A882331F099830E948916F701998112
:10477000F3CFE12FF92F84917F019FEFE91AF90A16
:10478000882321F00E948916F701F5CFEDE6FBE0C2
:1047900084917F01AFEFEA1AFA0A882321F00E9480
:1047A0008916F701F5CF0F90DF91CF911F91FF9000
:1047B000EF900895CF92DF92EF92FF92CF93DF9325
:1047C0006A017B01C5EDD6E0E091E70424E0E29FB9
:1047D000F0011124EC5CFD4F208131814281538135
:1047E000FC0160817181828193810F94F80E9B019D
:1047F000AC01688179818A819B810F94180E68834E
:1048000079838A839B830E94BF18C701B6013DDB71
:10481000DF91CF91FF90EF90DF90CF900C9400AE9E
:104820000F931F93CF93DF93CDB7DEB769970FB682
:10483000F894DEBF0FBECDBF8DEC94E00E94B5AF03
:104840006E8B7F8B888F998FBE016F5F7F4FCE01FC
:1048500046960E94C91860E0CE0101960E947FC76B
:10486000E1EAF4E184918F010F5F1F4F882321F06B
:104870000E948916F801F6CFBE016F5F7F4F8FEC63
:1048800098E00E948BA08AE00E94891669960FB674
:10489000F894DEBF0FBECDBFDF91CF911F910F9176
:1048A0000895CF938091DC0681110E9400AE809123
:1048B000DD068823B1F180E50E94AB19882319F049
:1048C0000E941D1A03C080E50E947D19C82F6091C7
:1048D000C90B7091CA0B282F41E08AED96E00E9427
:1048E0000B7083E50E94AB19882381F00E94EC19BC
:1048F000AB01BC0140937F0950938009609381090B
:10490000709382098EEC98E00E94A35E8AED96E097
:104910000E94836CC11105C08DEC94E0CF910C9482
:10492000E2AFCF9108950F931F93CF93DF9383E569
:104930000E94AB19882309F44DC00E940C1A082F5D
:1049400080E50E94AB19882331F00E94EC1977FDB5
:1049500041C0EB0102C0CDE0D0E08C2FECE5F8E0E7
:104960009491891731F0319698E0E438F907C1F74E
:1049700016C0E7EAF4E18491EF012196882321F043
:104980000E948916FE01F7CFE4E8F8E08491EF0178
:1049900021968823F9F00E948916FE01F7CF61E085
:1049A0008C2F0F945409602F8C2F0F948D0910E0D9
:1049B000B8018C2F0F943C08C730D10529F410930F
:1049C000EB040093EA0406C0299721F41093E9044C
:1049D0000093E804DF91CF911F910F91089588E62D
:1049E00090E095D8811151C08091D90683FD4DC0CA
:1049F00083E50E94AB19882309F445C00E94B719CA
:104A00000F94600F709346136093451380E00E94EB
:104A1000C7B30E94B71920E030E044EB52E40F9492
:104A2000F10E18164CF08DEC94E00E9476AF60E029
:104A30008DE498E00E9491C70E94B71920914D1310
:104A400030914E1340914F13509150130F94F41026
:104A50001816CCF48AEC92E09F938F938091AE0469
:104A600090E001969F938F9386E498E09F938F93B5
:104A70001F920E94E8C78DB79EB707960FB6F894AD
:104A80009EBF0FBE8DBF0C9457A00895DF92EF928A
:104A9000FF920F931F93CF93DF9383E50E947D19BD
:104AA000882359F083E50E94AB19882319F00E94EE
:104AB0000C1A01C080E08093D906E1EAF4E1849108
:104AC000EF012196882321F00E948916FE01F7CF7D
:104AD000EFE3F8E08491EF012196882321F00E9412
:104AE0008916FE01F7CF8091D906882381F105E36D
:104AF00018E0C0E0D0E020E08091D90690E00C2ED4
:104B000002C0959587950A94E2F780FF17C0DD24CF
:104B1000D394D20E222319F08CE20E948916F80158
:104B200025913491F90184917901FFEFEF1AFF0A81
:104B3000882329F00E9489169701F4CFD22E21965E
:104B40000E5F1F4FC530D10569F02D2DD5CFE1E3A4
:104B5000F8E08491EF012196882321F00E948916C4
:104B6000FE01F7CF8AE0DF91CF911F910F91FF9067
:104B7000EF90DF900C948916CF93DF9383E50E942A
:104B8000AB19882351F00E940C1A8D3308F08CE386
:104B900080930A02DF91CF910895E1EAF4E18491D4
:104BA000EF012196882321F00E948916FE01F7CF9C
:104BB00040910A0250E060E070E08BEF97E00E94C5
:104BC00026A18AE0DF91CF910C948916CF93DF93D1
:104BD00083E50E94AB19882319F00E94EC1902C0EA
:104BE00060E070E0EB01DD27C230D105B8F0E7EA04
:104BF000F4E18491EF012196882321F00E94891627
:104C0000FE01F7CFE1E0F6E08491EF0121968823E1
:104C100009F44DC00E948916FE01F6CF88E40E9477
:104C2000AB198823A1F00E94EC19643B710534F0A4
:104C3000663F71052CF065EF70E002C064EB70E038
:104C4000FE01EE0FFF1FE050FC4E7183608386E48F
:104C50000E94AB19882399F00E94EC196F3F7105EF
:104C600019F014F06FEF70E0FE01EE0FFF1FE85037
:104C7000FC4E77FF02C060E070E07183608382E4E5
:104C80000E94AB19882399F00E94EC1965307105D8
:104C900034F0683871052CF067E870E002C065E018
:104CA00070E0CC0FDD1FC450DC4E79836883DF9148
:104CB000CF9108957F928F929F92AF92BF92CF92A1
:104CC000DF92EF92FF920F931F93CF93DF9301E058
:104CD00013E0C9EADCE0712CF80181918F010E9498
:104CE0007D19882309F46CC0F3E07F1263C00E9431
:104CF000B7196B017C0120E030E040EA51E40F94E9
:104D0000F10E87FF4EC0A70196016091B50C70911E
:104D1000B60C8091B70C9091B80C0F94F80E4B0123
:104D20005C019B01AC016091590C70915A0C80910F
:104D30005B0C90915C0C0F942F116093590C709345
:104D40005A0C80935B0C90935C0CA50194016091CC
:104D5000C50C7091C60C8091C70C9091C80C0F9433
:104D60002F116093C50C7093C60C8093C70C909361
:104D7000C80C60918D0C70918E0C80918F0C90916D
:104D8000900C0F94910FA50194010F942F110F9483
:104D9000650F60938D0C70938E0C80938F0C9093A5
:104DA000900CC092B50CD092B60CE092B70CF09279
:104DB000B80C06C00E94B719688379838A839B83E5
:104DC0007394249684E0781287CFDF91CF911F915E
:104DD0000F91FF90EF90DF90CF90BF90AF909F909A
:104DE0008F907F900C9433A0CF93DF93EAE6FBE0A3
:104DF0008491EF012196882321F00E948916FE01FB
:104E0000F7CF2091F8043091F9044091FA045091C1
:104E1000FB046091C9067091CA068091CB069091FF
:104E2000CC060F94180E42E050E00E94B117E6E65F
:104E3000FBE08491EF012196882321F00E948916DE
:104E4000FE01F7CF2091FC043091FD044091FE0457
:104E50005091FF046091CD067091CE068091CF06EF
:104E60009091D0060F94180E42E050E00E94B117C6
:104E7000E2E6FBE08491EF012196882321F00E9475
:104E80008916FE01F7CF2091000530910105409170
:104E90000205509103056091D1067091D206809170
:104EA000D3069091D4060F94180E42E050E00E9471
:104EB000B117EEE5FBE08491EF012196882321F004
:104EC0000E948916FE01F7CF6091D5067091D60633
:104ED0008091D7069091D80642E050E00E94B11729
:104EE000DF91CF910C94F5AE2F923F924F925F924B
:104EF0006F927F928F929F92AF92BF92CF92DF92EA
:104F0000EF92FF920F931F93CF93DF930E9400AE17
:104F1000C1E0CC2EC3E0DC2ED0E1ED2ED5E0FD2E9D
:104F200000E010E0C0E0D0E0312CF60181916F018B
:104F30000E94AB19882309F453C00E94B7192B01B2
:104F40003C012C2EF3E0CF1759F0F801E850FB4F4D
:104F500020813181428153810F94170E2B013C0136
:104F6000F801E753F94F2081318142815381B20129
:104F7000C3010F94170E4B015C012DEB37E346E89C
:104F800055EB0F94F41087FD0AC02DEB37E346E88C
:104F900055E3C501B4010F94F10E18160CF583E02A
:104FA00028120DC0C201D3018093D5069093D60676
:104FB000A093D706B093D8063324339411C0A5012B
:104FC0009401F70160817181828193810F94180EA1
:104FD000F7016083718382839383CE010E94C01D99
:104FE0002196F4E0EF0EF11C0C5F1F4FC430D10589
:104FF00009F09BCF332031F065ED76E083E090E05F
:105000000E945E9FDF91CF911F910F91FF90EF90D3
:10501000DF90CF90BF90AF909F908F907F906F90D8
:105020005F904F903F902F90DFCECF93DF93E5EED0
:10503000F6E08491EF012196882321F00E948916E1
:10504000FE01F7CF60E085ED96E00E94B21761E0C7
:105050008EEC96E00E94B21761E083EC96E00E942D
:10506000B21761E083EB96E00E94B21760E08AEA33
:1050700096E00E94B21761E080EA96E00E94B217C3
:1050800061E086E996E00E94B21761E08EE896E062
:105090000E94B21761E080E896E00E94B21760E0DB
:1050A00082E796E00E94B21760E083E696E00E94F5
:1050B000B21760E085E596E00E94B21760E08FE3EA
:1050C00096E00E94B21760E08EE296E0DF91CF9109
:1050D0000C94B217CF93DF9385E40E94AB19882319
:1050E00019F00E941D1A03C085E40E947D198823CF
:1050F00059F0E1EAF4E18491EF012196882321F04F
:105100000E948916FE01F7CF81E40E94AB19882323
:1051100019F00E941D1A03C081E40E947D198823A2
:1051200059F0E3E2F6E08491EF012196882321F023
:105130000E948916FE01F7CFC091C90BD091CA0B0E
:105140008991882319F00E948916FACF8AE0DF91AD
:10515000CF910C948916CF9388EC90E00E94871D24
:10516000811140C084E40E947D198823C1F10E940E
:10517000B719C1E020E030E0A9010F94F10E8111D0
:1051800001C0C0E0C093CD0BCC2349F10E94B719F8
:10519000E091AE0424E0E29FF0011124EB56F34FBE
:1051A000608371838283938320E030E0A901609162
:1051B000950C7091960C8091970C9091980C0F948F
:1051C000F10E81110CC080E090E0A0EEBFE380936F
:1051D000950C9093960CA093970CB093980CCF914C
:1051E0000C944A8FCF91089583E50E947D198823FE
:1051F000D9F00E94B719AB01BC014093650C5093E4
:10520000660C6093670C7093680C40935D0C509330
:105210005E0C60935F0C7093600C89ED95E00E94CA
:10522000EAA08AE00E94891680E50E947D19882301
:1052300099F00E94B719AB01BC014093650C5093E3
:10524000660C6093670C7093680C8CEB95E00E9481
:10525000EAA08AE00E94891682E50E947D198823CF
:1052600099F00E94B719AB01BC014093610C5093B7
:10527000620C6093630C7093640C8DE995E00E945E
:10528000EAA08AE00E94891684E50E947D1988239D
:1052900099F00E94B719AB01BC0140935D0C50938B
:1052A0005E0C60935F0C7093600C8FE795E00E943A
:1052B000EAA08AE00C948916089583E50E947D197E
:1052C000882351F00E94B7196093690C70936A0C9F
:1052D00080936B0C90936C0C84E50E947D1988235D
:1052E00051F00E94B7196093490C70934A0C809357
:1052F0004B0C90934C0C82E40E947D19882351F052
:105300000E94FC1960936D0C70936E0C80936F0C6F
:105310009093700C88E50E947D19882351F00E94BB
:10532000B71960934D0C70934E0C80934F0C909373
:10533000500C89E50E947D19882351F00E94B7190D
:105340006093510C7093520C8093530C9093540CB7
:105350008AE50E947D19882351F00E94B719609355
:10536000550C7093560C8093570C9093580C85E411
:105370000E947D19882351F00E94B7196093590C3F
:1053800070935A0C80935B0C90935C0C0895CF93B0
:10539000DF93E1EAF4E18491EF012196882321F083
:1053A0000E948916FE01F7CF83E50E947D198823AC
:1053B00021F00E941D1A80931402EFE6F5E084911B
:1053C000EF012196882321F00E948916FE01F7CF74
:1053D00080911402882319F0EBE6F5E002C0E7E6BD
:1053E000F5E08491EF012196882321F00E9489162F
:1053F000FE01F7CFEFE5F5E08491EF0121968823D8
:1054000021F00E948916FE01F7CF2091F804309117
:10541000F9044091FA045091FB046091EC047091FE
:10542000ED048091EE049091EF040F94180EAB01FF
:10543000BC018DE595E00E94EAA02091FC0430912A
:10544000FD044091FE045091FF046091F0047091BE
:10545000F1048091F2049091F3040F94180EAB01C3
:10546000BC018AE595E00E94EAA0209100053091F8
:10547000010540910205509103056091F40470917B
:10548000F5048091F6049091F7040F94180EAB0187
:10549000BC0187E595E00E94EAA0EFE4F5E0849185
:1054A000EF012196882321F00E948916FE01F7CF93
:1054B0002091F8043091F9044091FA045091FB04D2
:1054C0006091150270911602809117029091180256
:1054D0000F94180EAB01BC018DE495E00E94EAA088
:1054E0002091FC043091FD044091FE045091FF0492
:1054F0006091190270911A0280911B0290911C0216
:105500000F94180EAB01BC018AE495E00E94EAA05A
:10551000209100053091010540910205509103054D
:1055200060911D0270911E0280911F0290912002D5
:105530000F94180EAB01BC0187E495E00E94EAA02D
:105540008AE0DF91CF910C9489160F931F93CF932C
:10555000DF938DED90E00E94871D81113BC083E5B4
:105560000E94AB198823B1F1C091AE04D0E00E9433
:10557000EC19FE01EE0FFF1FE85CFD4F71836083A5
:10558000E091AE04F0E0EF01CC0FDD1FCC0FDD1F8A
:105590008E010C5C1D4FEE0FFF1FE85CFD4F60811C
:1055A0007181882777FD8095982F0F94930F2AE0BB
:1055B00037ED43E25CE30F942F11CF56D34F288190
:1055C00039814A815B810F942F11F80160837183C7
:1055D00082839383DF91CF911F910F910895CF9292
:1055E000DF92EF92FF92CF93DF9380E50E947D19C7
:1055F000882309F458C00E94EC196B017C016115E5
:105600007105A1F583E50E947D19882361F00E9450
:10561000EC1984E994E0DF91CF91FF90EF90DF9057
:10562000CF900C9465A4E1EAF4E18491EF01219616
:10563000882321F00E948916FE01F7CF60E070E018
:105640008FE395E00E94B3A084E994E00E941AA43D
:10565000BC018CE395E00E94B3A08AE0DF91CF917A
:10566000FF90EF90DF90CF900C948916E7EAF4E179
:105670008491EF012196882321F00E948916FE0172
:10568000F7CFB60185E395E00E94B3A0E6E2F5E02E
:1056900084917F019FEFE91AF90A882321F00E9483
:1056A0008916F701F5CFDF91CF91FF90EF90DF9052
:1056B000CF900895CF93DF9300D01F92CDB7DEB780
:1056C00083E50E94AB19882319F00E94EC1902C0EF
:1056D00064E071E07C836B8380E50E94AB198823D2
:1056E00039F00E94EC19693823E1720730F402C0E6
:1056F00068EE73E07A83698304C088E893E19A8353
:105700008983AE014D5F5F4FBE016F5F7F4F8FEAB0
:1057100094E00E942C1A0F900F900F900F90DF9141
:10572000CF910895CF93DF9385E40E94AB19811147
:1057300010C080E50E947D19882391F00E94B7195E
:1057400060933D1370933E1380933F1390934013E7
:1057500007C00E940C1A882361F3E7EAF4E16DC0E8
:1057600089E40E947D19882381F00E94B7192CEAF0
:1057700035EC47E25EE30F942F1160933913709379
:105780003A1380933B1390933C1384E40E947D1959
:10579000882381F00E94B7192CEA35EC47E25EE3DA
:1057A0000F94F80E6093351370933613809337136C
:1057B00090933813E1EAF4E18491EF012196882374
:1057C00021F00E948916FE01F7CF40913D135091C0
:1057D0003E1360913F137091401382E295E00E9466
:1057E000EAA02CEA35EC47E25EE360913913709150
:1057F0003A1380913B1390913C130F94F80EAB0138
:10580000BC018EE195E00E9408A12CEA35EC47E24C
:105810005EE3609135137091361380913713909148
:1058200038130F942F11AB01BC018AE195E00E945F
:1058300008A110C00E948916FE018491EF012196F3
:105840008111F8CFC5EDD2E08991882319F00E942B
:105850008916FACF8AE0DF91CF910C948916CF9305
:10586000DF9383E50E947D19C82F882371F00E9481
:10587000B7190F94600F70934E0260934D0221E0B0
:10588000672B09F020E02093281380E50E947D1902
:10589000882369F080914D0290914E02892B19F076
:1058A0000E941D1A01C081E0809328132DC0C111F0
:1058B0002BC0E1EAF4E18491EF012196882321F0E5
:1058C0000E948916FE01F7CF80912813882319F0D2
:1058D00065E273E002C066EE72E087E095E00E9448
:1058E0008BA060914D0270914E0286EF94E00E9471
:1058F000B3A0E2EFF4E08491EF012196882321F038
:105900000E948916FE01F7CFDF91CF910895CF92C3
:10591000DF92EF92FF920F931F93CF93DF931F922B
:105920001F92CDB7DEB785E40E94AB19882321F022
:105930000E94EC196B0102C0C12CD12C83E40E949F
:10594000AB19882321F00E94EC19162F01C015E035
:1059500085E50E94AB19882319F00E941D1A03C027
:1059600085E50E947D19082FE12CF12CD7FE03C09C
:105970002CE892E402C026E193E483E529839A832C
:105980000E94AB1929819A81882321F00E94B719BE
:105990007B01282F392FB701C9010F94600FC11463
:1059A000D10411F41092AE04882777FD8095982FCA
:1059B0000F94930F212F4C2D0E94DDB90F900F9063
:1059C000DF91CF911F910F91FF90EF90DF90CF90DB
:1059D00008952F923F924F925F926F927F928F9293
:1059E0009F92AF92BF92CF92DF92EF92FF920F936E
:1059F0001F93CF93DF93CDB7DEB760970FB6F894C0
:105A0000DEBF0FBECDBF41E061E081E00E949B2080
:105A10008111D7C025EDA22E2DE0B22E39EC232E18
:105A200036E0332E4AEB842E4DE0942E8E010F5F2C
:105A30001F4FF5016591759185919491F101419008
:105A40005190619071901F01A30192010F94170E64
:105A50006B017C0120E030E040EA51EC0F94F4103F
:105A600087FD10C020E030E040EA51E4C701B601F4
:105A70000F94F10E181634F0F801C082D182E28240
:105A8000F3820DC0F40184911816B4F777FA70947C
:105A900077F87094F8014082518262827382F80133
:105AA000C190D190E190F1908F0120E030E040EA88
:105AB00051ECC701B6010F94F41087FF03C0E7EA69
:105AC000F4E10BC020E030E040EA51E4C701B60148
:105AD0000F94F10E181624F5F2CF84918F010F5F09
