:100000000C943C160C946D160C946D160C946D1695
:100010000C946D160C946D160C946D160C946D1654
:100020000C946D160C946D160C946D160C946D1644
:100030000C946D160C94E0410C946D160C946D1696
:100040000C946D160C94B3910C946D160C946D1663
:100050000C946D160C946D160C94EDB60C948EAB3E
:100060000C946D160C948A410C946D160C946D16BC
:100070000C946D160C946D160C946D160C946D16F4
:100080000C94CB9B0C946D160C946D160C946D1601
:100090000C946D160C946D160C946D160C946D16D4
:1000A0000C946D160C946D160C949D9B0C946D160F
:1000B0000C946D160C946D160C946D160C946F9B2D
:1000C0000C946D160C946D160C946D160C946D16A4
:1000D0000C946D160C946D160C946D160C946D1694
:1000E0000C946D16FA5403550D5516551F553A5577
:1000F00047555055285531557DA980A96FA973A939
:1001000079A9B7A984A988A98EA992A996A99CA919
:10011000A0A9A4A9B7A9AAA9AEA9B2A9AAAAAFAA37
:10012000B4AABEAAC8AA41ABD2AADAAAE2AAECAA89
:10013000F6AA00AB0FAB19AB41AB23AB2DAB37AB82
:10014000084AD73B3BCE016E84BCBFFDC12F3D6C3E
:1001500074319ABD56833DDA3D00C77F11BED9E4A4
:10016000BB4C3E916BAAAABE000000803F05A84C84
:10017000CDB2D44EB93836A9020C50B99186880850
:100180003CA6AAAA2ABE000000803F000D94DA0314
:100190000D9436064E414E494E495459494E46CD6E
:1001A000CCCC3D0AD7233C17B7D13877CC2B32952E
:1001B00095E6241FB14F0A000020410000C842000C
:1001C000401C4620BCBE4CCA1B0E5AAEC59D744393
:1001D0004F4D4D554E49434154494F4E004452599D
:1001E00052554E004552524F525300494E464F0011
:1001F0004543484F0020746F6F206C6F6E67206519
:100200007874727573696F6E2070726576656E743E
:1002100065640A0020636F6C64206578747275737E
:10022000696F6E2070726576656E7465640A00474A
:10023000322F47332062616420706172616D657492
:100240006572730A00526573756D696E672070720E
:10025000696E740046542D352052322072656164F7
:10026000792E00436C69636B20746F20726573751F
:100270006D652E2E2E004E6F206D6F76652E00451B
:100280006E642066696C65206C6973740A0042654F
:1002900067696E2066696C65206C6973740A004634
:1002A000696C652064656C657465643A0044656CCE
:1002B0006574696F6E206661696C65642C2046699F
:1002C0006C653A20006F70656E206661696C6564CC
:1002D0002C2046696C653A20002569730025696DFC
:1002E00020256973002569682025696D20256973BB
:1002F00000256964202569682025696D20256973BA
:100300000025697920256964202569682025696DA3
:1003100020256973005072696E742074696D653AA6
:10032000200050726F7465637465642050696E0AB2
:10033000004525692025730046542D352052322072
:1003400072656164792E00F001EB01E401DD01CFFB
:10035000016F66660044454255473A004B494C4C94
:1003600045442E20004D3131332053006F6B00483F
:10037000656174696E6720646F6E652E0020573A60
:10038000004525692025730046542D352052322022
:1003900072656164792E0042656420646F6E652E1B
:1003A0000020573A004265642048656174696E67B1
:1003B0002E00454D455247454E43595F50415253DB
:1003C000455200434153455F4C494748545F4252B0
:1003D000494748544E45535300544F47474C455F97
:1003E0004C494748545300534F4654574152455F78
:1003F000504F574552004255494C445F5045524377
:10040000454E54004C4556454C494E475F44415477
:1004100041005A5F50524F4245004155544F4C45A0
:1004200056454C005052494E545F4A4F420050527C
:100430004F4752455353004155544F5245504F5228
:10044000545F54454D5000564F4C554D45545249FC
:100450004300454550524F4D0053455249414C5F72
:10046000584F4E5F584F4646004649524D574152ED
:10047000455F4E414D453A4D61726C696E20312E9B
:10048000312E3820284769746875622920534F55EA
:100490005243455F434F44455F55524C3A6874742C
:1004A00070733A2F2F6769746875622E636F6D2FB2
:1004B0004D61726C696E4669726D776172652F4D20
:1004C00061726C696E2050524F544F434F4C5F56CF
:1004D000455253494F4E3A312E30204D4143484901
:1004E0004E455F545950453A46542D3520523220DE
:1004F00045585452554445525F434F554E543A3136
:1005000020555549443A63656465326132662D343D
:100510003161322D343734382D396231322D633523
:10052000356336326633363766660A002F2F200071
:1005300066696C616D656E743A20007A5F6D696EF4
:100540003A2000795F6D696E3A2000785F6D696EC0
:100550003A20005265706F7274696E6720656E6430
:1005600073746F70207374617475730A004D313445
:100570003520533C696E6465783E206F7574206F3A
:10058000662072616E67652028302D31290A00537C
:10059000657474696E672054726176656C2041637E
:1005A00063656C65726174696F6E3A20005365749F
:1005B00074696E672052657472616374204163636D
:1005C000656C65726174696F6E3A2000536574746E
:1005D000696E67205072696E7420416363656C6553
:1005E000726174696F6E3A200053657474696E6746
:1005F000205072696E7420616E6420547261766559
:100600006C20416363656C65726174696F6E3A203A
:1006100000205A00205900580020204D61783A20CF
:1006200000205A00205900580020204D696E3A20C1
:10063000004F6E20004F666600536F667420656E33
:100640006473746F70733A2000000136372603FF1D
:100650003C3D380EFF2E303E12FFFF0C080907FF0D
:10066000FF1A1C18FFFF08440AFF43FFFFFFFFFFAC
:10067000FF206F7574206F662072616E67650A00D7
:10068000536572766F20003A200020536572766FB2
:10069000200020643A0020693A0020703A00432983
:1006A0000A0061626C656420286D696E2074656D56
:1006B000702000436F6C6420657874727564657394
:1006C00020617265200023646566696E65202044A0
:1006D000454641554C545F4B642000236465666970
:1006E0006E65202044454641554C545F4B692000BF
:1006F00023646566696E65202044454641554C5427
:100700005F4B702000504944204175746F74756EC2
:10071000652066696E697368656421205075742070
:10072000746865206C617374204B702C204B6920B9
:10073000616E64204B6420636F6E7374616E7473BA
:100740002066726F6D2062656C6F7720696E746FC2
:1007500020436F6E66696775726174696F6E2E688B
:100760000A00504944204175746F74756E652066A7
:1007700061696C6564212074696D656F75740A0028
:10078000544845524D414C2052554E415741590015
:10079000546865726D616C2052756E617761790085
:1007A00048656174696E67206661696C65640048BC
:1007B000656174696E67206661696C6564005049A3
:1007C00044204175746F74756E65206661696C654F
:1007D00064212054656D7065726174757265207452
:1007E0006F6F20686967680A00204B643A20002018
:1007F0004B693A2000204B703A20000A20436C617C
:100800007373696320504944200A002054753A20CC
:1008100000204B753A2000206D61783A2000206D51
:10082000696E3A200020643A200020626961733AC0
:10083000200041637469766520457874727564653B
:10084000723A2000556E6B6E6F776E20636F6D6D20
:10085000616E643A2022004C696E65204E756D62AF
:100860006572206973206E6F74204C617374204C24
:10087000696E65204E756D6265722B312C204C615E
:100880007374204C696E653A20004B494C4C4544CA
:100890002E200053544F505045442E200050726972
:1008A0006E7465722073746F707065642064756512
:1008B00020746F206572726F72732E2046697820E3
:1008C000746865206572726F7220616E6420757342
:1008D00065204D39393920746F20726573746172E7
:1008E000742E202854656D70657261747572652070
:1008F00069732072657365742E2053657420697462
:100900002061667465722072657374617274696EB9
:1009100067290A004E6F20436865636B73756D200D
:1009200077697468206C696E65206E756D6265729A
:100930002C204C617374204C696E653A200063680A
:1009400065636B73756D206D69736D617463682C7D
:10095000204C617374204C696E653A20004D313132
:1009600030004D333100534420726561642065725C
:10097000726F720A00446F6E65207072696E7469DE
:100980006E672066696C650A0020496E76616C6945
:100990006420657874727564657220000000000040
:1009A0000000000000000000000096430000964395
:1009B0000000BE4353544F505045442E2000507207
:1009C000696E7465722073746F70706564206475ED
:1009D0006520746F206572726F72732E204669787D
:1009E00020746865206572726F7220616E64207574
:1009F0007365204D39393920746F207265737461C5
:100A000072742E202854656D7065726174757265FC
:100A10002069732072657365742E20536574206994
:100A20007420616674657220726573746172746992
:100A30006E67290A0053544F502063616C6C6564E3
:100A40002062656361757365206F6620424C546F48
:100A5000756368206572726F72202D2072657374E1
:100A60006172742077697468204D3939390A00023F
:100A70004B494C4C45442E2000202D20496E766178
:100A80006C6964206578747275646572206E756D2A
:100A900062657220210A002D2D2D2D2D2D007C4DFB
:100AA00061726C696E7C002D2D2D2D2D2D006874CA
:100AB00074703A2F2F6D61726C696E66772E6F724B
:100AC0006700687474703A2F2F6D61726C696E667E
:100AD000772E6F72670020312E312E380020205083
:100AE0006C616E6E65724275666665724279746598
:100AF000733A20002046726565204D656D6F7279EE
:100B00003A2000436F6D70696C65643A20417567E7
:100B100020203720323031380A00207C2041757483
:100B2000686F723A202843617265467564756E6419
:100B300061652C204D61726C696E20312E312E382A
:100B4000290A00323031372D31322D323520313201
:100B50003A303000204C61737420557064617465C4
:100B6000643A2000312E312E380A004D61726C69D2
:100B70006E0020536F6674776172652052657365ED
:100B8000740A00205761746368646F67205265734C
:100B900065740A002042726F776E206F7574205260
:100BA000657365740A002045787465726E616C2007
:100BB00052657365740A00506F77657255700A004C
:100BC00073746172740A006572726F722077726951
:100BD00074696E6720746F2066696C650A00456EE3
:100BE0006473746F70732025632025632025632050
:100BF000256300205A3A0020593A0020583A0065EF
:100C00006E6473746F7073206869743A2000446F67
:100C10006E6520736176696E672066696C652E0A61
:100C2000004D32390050726568656174204142534D
:100C300020456E64005072656865617420414253BE
:100C400020426564005072656865617420414253BA
:100C50000050726570617265004D343238004D325B
:100C60003830205030205331363000424C546F75AC
:100C700063682053656C662D54657374004D32387B
:100C80003020503020533132300050726568656139
:100C90007420414253005072656865617420504C65
:100CA0004100436F6F6C646F776E005265736574BB
:100CB00020424C546F756368004368616E6765201D
:100CC00066696C616D656E740044697361626C6520
:100CD000207374657070657273004D38340053650D
:100CE0007420686F6D65206F66667365747300426B
:100CF0006564204C6576656C696E67004732380A1A
:100D000047323900486F6D65205A00473238205A03
:100D100000486F6D65205900473238205900486FF0
:100D20006D652058004732382058004175746F2097
:100D3000686F6D6500473238004D6F7665206178C9
:100D40006973004D61696E004D6F76652058004DE6
:100D50006F76652059004D6F7665205A004578748E
:100D60007275646572004D6F766520302E316D6D41
:100D7000004D6F766520316D6D004D6F76652031C9
:100D8000306D6D004D6F7665206178697300457830
:100D9000747275646572004D6F7665205A004D6FF0
:100DA00076652059004D6F7665205800457874723D
:100DB00075646572004D6F7665205A004D6F7665DB
:100DC0002059004D6F766520580050726570617231
:100DD000650020204E6F7A7A6C653A200066696C57
:100DE000616D656E74206578747275646500576115
:100DF000697420666F72005052494E54205041551C
:100E000053454400746F20726573756D65005761BA
:100E1000697420666F72207072696E740050524956
:100E20004E54205041555345440043617264207232
:100E3000656D6F766564004361726420696E7365E9
:100E40007274656400496E697469616C697A6520C1
:100E5000454550524F4D00436F6E74726F6C005297
:100E60006573746F7265206661696C736166650095
:100E70004C6F61642073657474696E677300496EAA
:100E8000697469616C697A6520454550524F4D001F
:100E900053746F72652073657474696E6773004272
:100EA0004C546F7563680046696C616D656E7400C3
:100EB0004D6F74696F6E0054656D70657261747505
:100EC0007265004D61696E004D333033205531201D
:100ED0004525692053256900507265686561742055
:100EE00041425320636F6E6600507265686561749D
:100EF00020504C4120636F6E66005049442041757C
:100F0000746F74756E6500504944204175746F7438
:100F1000756E65005049442D44005049442D4400ED
:100F20005049442D49005049442D49005049442D11
:100F300050005049442D5000200220466163740047
:100F400020022046616374002002204D6178002059
:100F500002204D6178002002204D6178002002209F
:100F60004D696E002002204D696E002002204D69FF
:100F70006E004F6666004F6E20004175746F746599
:100F80006D700046616E20737065656420320046A6
:100F9000616E20737065656420320046616E207357
:100FA0007065656420320046616E2073706565640B
:100FB00020310046616E2073706565642031004603
:100FC000616E207370656564203100426564004283
:100FD0006564004E6F7A7A6C65004E6F7A7A6C6544
:100FE00000436F6E74726F6C0053746F7265207380
:100FF000657474696E6773004265640042656400DD
:10100000426564004E6F7A7A6C65004E6F7A7A6C36
:1010100065004E6F7A7A6C650046616E207370656C
:1010200065640046616E2073706565640046616E9C
:101030002073706565640054656D706572617475C8
:1010400072650000000000000000000000000000C9
:10105000004842000048420000A041000000005744
:1010600061726E696E673A20486F6D696E672042E3
:10107000756D702044697669736F72203C20310A67
:10108000000202040000A0400000A0400000004058
:1010900000009643000096430000BE43FFFFFF7C24
:1010A0003C3E5E2B3D3F2F5B5D3B2C2A225C005675
:1010B000652D6A65726B0056652D6A65726B005608
:1010C000652D6A65726B00567A2D6A65726B0056E3
:1010D0007A2D6A65726B0056792D6A65726B0056BF
:1010E000792D6A65726B0056792D6A65726B0056B0
:1010F000782D6A65726B0056782D6A65726B0056A2
:10110000782D6A65726B004D6F74696F6E00457360
:10111000746570732F6D6D004573746570732F6DFA
:101120006D005A73746570732F6D6D005A7374651A
:1011300070732F6D6D005973746570732F6D6D0032
:101140005973746570732F6D6D0058737465707387
:101150002F6D6D005873746570732F6D6D004D6F3A
:1011600074696F6E0053746570732F6D6D004A65FE
:10117000726B00416363656C65726174696F6E00C8
:1011800056656C6F63697479005A204F66667365A3
:1011900074005A204F666673657400436F6E7472F4
:1011A0006F6C0046696C2E204469612E0046696CA4
:1011B0002E204469612E004F6666004F6E20004568
:1011C00020696E206D6D3300416476616E63652029
:1011D0004B00416476616E6365204B00416476612B
:1011E0006E6365204B00436F6E74726F6C004361D9
:1011F0006E6E6F7420656E746572207375626469BB
:10120000723A2000052E2E004D61696E00205200BA
:1012100020204D393030204B004C696E65617220C2
:10122000416476616E63653A0A0020204D3835319D
:10123000205A005A2D50726F6265204F66667365A2
:101240007420286D6D293A0A0020440020490020AE
:10125000204D333031205000504944207365747460
:10126000696E67733A0A0020460020420020480059
:1012700020204D3134352053004D61746572696111
:101280006C2068656174757020706172616D657441
:101290006572733A0A0020204D34323020530041E9
:1012A00075746F20426564204C6576656C696E6765
:1012B0003A0A00205A0020590020204D32303620B2
:1012C0005800486F6D65206F66667365743A0A0052
:1012D000204500205A0020590020580020420020BC
:1012E000540020204D323035205300416476616E29
:1012F0006365643A20533C6D696E5F666565647230
:101300006174653E20543C6D696E5F7472617665F0
:101310006C5F66656564726174653E20423C6D6910
:101320006E5F7365676D656E745F74696D655F751B
:10133000733E20583C6D61785F78795F6A65726BA7
:101340003E205A3C6D61785F7A5F6A65726B3E2021
:10135000453C6D61785F655F6A65726B3E0A00208F
:10136000540020520020204D323034205000416380
:1013700063656C65726174696F6E2028756E69743F
:10138000732F7332293A20503C7072696E745F611A
:101390006363656C3E20523C726574726163745F76
:1013A000616363656C3E20543C74726176656C5F6A
:1013B000616363656C3E0A00204500205A00205995
:1013C0000020204D3230312058004D6178696D7514
:1013D0006D20416363656C65726174696F6E20286E
:1013E000756E6974732F7332293A0A002045002004
:1013F0005A0020590020204D3230332058004D61D2
:1014000078696D756D2066656564726174657320B9
:1014100028756E6974732F73293A0A0020450020DD
:101420005A0020590020204D39322058005374654D
:1014300070732070657220756E69743A0A002020FE
:101440004D3230302044300A0020204D32303020E0
:1014500044002044697361626C65640A0046696CEB
:10146000616D656E742073657474696E67733A009C
:1014700020204D3134392043203B20556E69747350
:1014800020696E2043656C736975730A00202047DC
:101490003231202020203B20556E69747320696E04
:1014A000206D6D0A00536C6565702E2E2E00207025
:1014B0006F736974696F6E206F7574206F66207228
:1014C000616E67652E0A003F50726F626520000AE8
:1014D0000A426564204C6576656C20436F727265C4
:1014E0006374696F6E204D61747269783A00202BC5
:1014F000000A436F727265637465642042656420FC
:101500004865696768742076732E204265642054AC
:101510006F706F6C6F67793A0A00202B000A426582
:10152000642048656967687420546F706F677261E2
:101530007068793A0A2020202B2D2D2D204241431E
:101540004B202D2D2B0A2020207C20202020202005
:1015500020202020207C0A204C207C2020202028B5
:101560002B29202020207C20520A2045207C20206E
:101570002020202020202020207C20490A204620D6
:101580007C20282D29204E20282B29207C20470A2A
:101590002054207C20202020202020202020207C5F
:1015A00020480A2020207C20202020282D292020AF
:1015B00020207C20540A2020207C20202020202055
:1015C00020202020207C0A2020204F2D2D20465234
:1015D0004F4E54202D2D2B0A2028302C30290A0064
:1015E0004D65616E206F662073616D706C6564205F
:1015F000706F696E74733A200020643A2000206294
:101600003A200045716E20636F656666696369659F
:101610006E74733A20613A20002028445259525582
:101620004E2900473239204175746F20426564208D
:101630004C6576656C696E670028422961636B00B2
:10164000284629726F6E74002852296967687400F1
:10165000284C29656674003F4E756D626572206F77
:10166000662070726F626520706F696E7473206996
:101670007320696D706C61757369626C65202832C6
:10168000206D696E696D756D292E0A003F285629F7
:101690006572626F7365206C6576656C2069732076
:1016A000696D706C61757369626C652028302D34CA
:1016B000292E0A004572726F722077726974696E02
:1016C0006720746F20454550524F4D210A00290A6A
:1016D000002062797465733B206372632000536558
:1016E0007474696E67732053746F72656420280088
:1016F00024F4D43050C38E20C2A24017828B7011C4
:10170000127A910D816CD90AA861E108C758660761
:10171000615143061E4B5D05C145A7041A411104E2
:10172000093D9803713931034036DB02653391027C
:10173000D4305402802E1D02632CEE01752AC5019F
:10174000B028A001102781018F2564012B244B01B3
:10175000E0223401AC211F018D200D01801FFC000F
:10176000841EED00971DDF00B81CD200E61BC600EA
:10177000201BBC00641AB200B219A8000A19A0000C
:101780006A189900D117910040178B00B516840094
:1017900031167E00B31579003A157300C7146F0037
:1017A00058146A00EE1366008813630025135E0068
:1017B000C7125B006C12570015125400C111510082
:1017C00070114F0021114B00D61049008D104700B9
:1017D0004610440002104200C00F4000800F3E003F
:1017E000420F3C00060F3B00CB0E3800930E370033
:1017F0005C0E3500270E3400F30D3200C10D3100B0
:10180000900D3000600D2E00320D2D00050D2C00C6
:10181000D90C2B00AE0C2900850C29005C0C27008C
:10182000350C27000E0C2600E80B2400C40B240006
:10183000A00B23007D0B23005A0B2100390B210044
:10184000180B2000F80A1F00D90A1E00BB0A1E0050
:101850009D0A1D00800A1D00630A1C00470A1B0028
:101860002C0A1B00110A1A00F7091A00DD091900D9
:10187000C4091900AB091900920917007B09180067
:10188000630917004C0916003609160020091600D6
:101890000A091500F5081500E0081400CC0814002A
:1018A000B8081400A4081400900813007D08120062
:1018B0006B08130058081200460812003408110083
:1018C000230811001208110001081100F007100090
:1018D000E0071000D0071000C0071000B0070F008D
:1018E000A107100091070E0083070F0074070F0077
:1018F00065070E0057070E0049070E003B070D0055
:101900002E070E0020070D0013070D0006070D001F
:10191000F9060C00ED060D00E0060C00D4060C00E4
:10192000C8060C00BC060C00B0060C00A4060B0098
:1019300099060C008D060B0082060B0077060B0043
:101940006C060B0061060A0057060B004C060A00E5
:1019500042060A0038060A002E060A0024060A007B
:101960001A060A001006090007060A00FD0509000C
:10197000F4050900EB050900E2050900D905090095
:10198000D0050900C7050900BE050900B505080016
:10199000AD050800A50509009C0508009405080090
:1019A0008C050800840508007C0508007405080003
:1019B0006C050700650508005D0507005605080071
:1019C0004E050700470507004005080038050700D9
:1019D000310507002A050700230507001C0506003E
:1019E000160507000F050700080506000205070099
:1019F000FB040600F5040700EE040600E8040600F8
:101A0000E2040700DB040600D5040600CF0406004C
:101A1000C9040600C3040600BD040600B70406009E
:101A2000B1040500AC040600A6040600A0040500ED
:101A30009B04060095040500900406008A04050036
:101A400085040500800406007A040500750405007D
:101A5000700405006B0405006604050061040500C0
:101A60005C04050057040500520405004D04050000
:101A700048040500430405003E0404003A04050040
:101A800035040500300404002C040500270404007C
:101A9000230405001E0404001A04040016040500B3
:101AA000110404000D0404000904050004040400EA
:101AB00000040400FC030400F8030400F403040021
:101AC000F0030400EC030400E8030400E403040052
:101AD000E0030400DC030400D8030400D403040082
:101AE000D0030400CC030400C8030300C5030300B3
:101AF00024F404D9201BC40C5C0E9804C4095F02B2
:101B000065077101F405F900FB04B3004804870080
:101B1000C10369005803550003034500BE023A00A3
:101B20008402310053022A00290225000402200009
:101B3000E4011C00C8011900AF011700980114004E
:101B400084011300710110006101100051010E00A9
:101B500043010D0036010B002B010B0020010B008F
:101B6000150109000C01090003010800FB00080031
:101B7000F3000800EB000700E4000600DE000600AA
:101B8000D8000600D2000600CC000500C700050002
:101B9000C2000500BD000400B9000400B500040047
:101BA000B1000400AD000400A9000400A50003007A
:101BB000A20003009F0004009B00030098000300A4
:101BC0009500020093000300900003008D000200C6
:101BD0008B000300880002008600020084000300DE
:101BE000810002007F0002007D0002007B000200F5
:101BF0007900020077000100760002007400020004
:101C000072000100710002006F0002006D0001000F
:101C10006C0002006A000100690002006700010018
:101C2000660001006500010064000200620001001E
:101C300061000100600001005F0002005D00010022
:101C40005C0001005B0001005A0001005900010026
:101C50005800010057000100560001005500010026
:101C60005400010053000000530001005200010025
:101C700051000100500001004F0001004E00000023
:101C80004E0001004D0001004C0001004B0000001F
:101C90004B0001004A00010049000100480000001B
:101CA0004800010047000100460000004600010016
:101CB0004500000045000100440001004300000011
:101CC000430001004200000042000100410000000A
:101CD00041000100400001003F0000003F00010002
:101CE0003E0000003E0001003D0000003D000100FC
:101CF0003C0000003C0000003C0001003B000000F4
:101D00003B0001003A0000003A00010039000000E9
:101D100039000100380000003800000038000100E0
:101D200037000000370001003600000036000000D8
:101D300036000100350000003500000035000100CC
:101D400034000000340000003400010033000000C3
:101D500033000000330001003200000032000000B8
:101D600032000100310000003100000031000100AC
:101D70003000000030000000300001002F000000A3
:101D80002F0000002F0000002F0001002E00000097
:101D90002E0000002E0001002D0000002D0000008C
:101DA0002D0000002D0001002C0000002C00000080
:101DB0002C0000002C0001002B0000002B00000074
:101DC0002B0000002B0001002A0000002A00000068
:101DD0002A0000002A00010029000000290000005C
:101DE000290000002900000029000100280000004F
:101DF0002800000028000000280000002800010042
:101E00002700000027000000270000002700000036
:101E10002700010026000000260000002600000028
:101E2000260000002600010025000000250000001B
:101E3000250000002500000025000000250001000D
:101E40002400000024000000240000002400000002
:101E500024000100230000002300000023000000F4
:101E600023000000230000002300000023000100E5
:101E700022000000220000002200000022000000DA
:101E800022000000220001002100000021000000CB
:101E900021000000210000002100000021000000BE
:101EA00021000100200000002000000020000000B0
:101EB00020000000200000002000000020000000A2
:101EC000200001001F0000001F0000001F00000094
:101ED0001F0000001F0000001F0000001F00010085
:101EE0001E0000001E0000001E0000001E0000007A
:101EF0004D383420582059205A204500534420633F
:101F0000617264206F6B0A006F70656E526F6F7440
:101F1000206661696C65640A00766F6C756D652E6C
:101F2000696E6974206661696C65640A00534420B7
:101F3000696E6974206661696C0A006175746F2549
:101F4000692E67004D3234004D323320257300571F
:101F5000726974696E6720746F2066696C653A20D7
:101F6000006F70656E206661696C65642C2046693F
:101F70006C653A20006F70656E206661696C6564FF
:101F80002C2046696C653A200046696C65207365B3
:101F90006C65637465640A002053697A653A2000B1
:101FA00046696C65206F70656E65643A20006F70DD
:101FB000656E206661696C65642C2046696C653AC3
:101FC00020002066696C653A2000646F696E6700C6
:101FD0006672657368004E6F772000454E4420534B
:101FE0005542524F5554494E450A002220706F7396
:101FF000002220706172656E743A2200535542527D
:102000004F5554494E452043414C4C2074617267F2
:1020100065743A22004B494C4C45442E20007472A2
:1020200079696E6720746F2063616C6C20737562D0
:102030002D67636F64652066696C657320776974CA
:102040006820746F6F206D616E79206C6576656CA9
:10205000732E204D4158206C6576656C2069733A6B
:10206000004572726F723A0053746F7720424C547D
:102070006F756368004D323830205030205339304E
:10208000004465706C6F7920424C546F7563680032
:102090004D3238302050302053313000424C546F94
:1020A0007563682053656C662D54657374004D32FA
:1020B000383020503020533132300052657365740F
:1020C00020424C546F756368004D323830205030D8
:1020D0002053313630004D61696E005072696E7464
:1020E0002070617573656400005072696E742061C0
:1020F000626F72746564005072696E742066726FEC
:102100006D2053440053746F70207072696E7400B8
:10211000526573756D65207072696E74004E6F2024
:10212000534420636172640050617573652070725E
:10213000696E7400436F6E74726F6C0050726570DC
:102140006172650054756E6500496E666F20736339
:102150007265656E004D3630302042300043686154
:102160006E67652066696C616D656E7400466C6FA4
:102170007700466C6F770046616E2073706565640A
:1021800020320046616E207370656564203200461F
:10219000616E20737065656420320046616E207345
:1021A0007065656420310046616E207370656564FA
:1021B00020310046616E20737065656420310042F5
:1021C000656400426564004E6F7A7A6C65004E6FFC
:1021D0007A7A6C6500537065656400537065656458
:1021E000005370656564004D61696E0050726568EA
:1021F00065617420504C4120456E640050726568E2
:1022000065617420504C41204265640050726568DD
:1022100065617420504C41005072657061726500B8
:1022200000002100240027002A002D003000330088
:1022300001010000040107010A010000220025003D
:1022400028002B002E00310034000201000005019F
:1022500008010B01000020002300260029002C00AB
:102260002F003200000100000301060109010505ED
:102270000505070508080808020202020A0A0808FC
:10228000040404040101010101010101030303032A
:1022900003030303040707070C0C0C0C0C0C0C0CB9
:1022A0000202020206060606060606060B0B0B0BCA
:1022B0000B0B0B0B010210202008081020401020EF
:1022C00040800201020108040201010204081020FA
:1022D00040808040201008040201800402018040F8
:1022E0002010080402010804020101020408102061
:1022F0004080010204081020408000000A0B0209FF
:102300000C0D0E080703040100000000000000008F
:1023100000000000000000000000000000000000BD
:10232000000000000000121110000000000000007A
:10233000000000000000000000000000000000009D
:1023400043616E6E6F74206F70656E20737562648A
:1023500069722000656E7175657565696E6720220A
:10236000006563686F3A0070012C0190012701B08D
:10237000012201C0011D01F00118011002130130FA
:10238000020E016002090190020401C002FF000078
:1023900003FA004003F5008003F000D003EB0020B7
:1023A00004E6007004E100E004DC004005D700C052
:1023B00005D2004006CD00D006C8008007C300301B
:1023C00008BE00F008B900C009B400B00AAF00B000
:1023D0000BAA00D00CA500000EA000500F9B00C05F
:1023E0001096005012910000148C00C0158700B0A8
:1023F000178200B0197D00D01B7800001E730040CA
:10240000206E0090226900F024640040275F009055
:10241000295A00E02B5500102E500020304B0010A0
:10242000324600E033410090353C001037370070F1
:10243000383200A0392D00B03A2800A03B230060BC
:102440003C1E00103D1900903D1400103E0F00701E
:102450003E0A00C03E0500003F0000403FFBFF80F9
:102460003FF6FFC03FF1FF544845524D414C2052CA
:10247000554E4157415900546865726D616C205248
:10248000756E61776179004572723A204D494E54FC
:10249000454D5020424544004572723A204D494E08
:1024A00054454D50004D494E54454D50207472696D
:1024B000676765726564004572723A204D415854F1
:1024C000454D5020424544004572723A204D4158D6
:1024D00054454D50004D415854454D50207472693B
:1024E00067676572656400202F002042403A002033
:1024F000403A0000000000010204040000001C1C1F
:102500000C04040402010000000000040810000094
:10251000000000001C1F11111F0000000619180305
:10252000130C00040E1F041C000000000E131511F4
:102530000E00001C10181705060500040A0A0A0AF6
:1025400011110E0C12120C00000000001F151115C5
:102550001F0000426564204C6576656C696E6720DB
:10256000004661696C656420746F20656E61626C01
:102570006520426564204C6576656C696E670A006B
:10258000426564204C6576656C20436F72726563AA
:1025900074696F6E204D61747269783A004F666697
:1025A00073657473206170706C6965640045727244
:1025B0003A20546F6F206661722100546F6F20665D
:1025C00061722066726F6D207265666572656E63FA
:1025D0006520706F696E740A003A2000207A5F6D82
:1025E000696E3A20202D3330207A5F6D61783A2071
:1025F0002033300A0050726F6265205A204F6666A1
:10260000736574004D36303020486F74656E6420F9
:10261000746F6F20636F6C6420746F206368616EE9
:1026200067652066696C616D656E740A004175743A
:102630006F0020452F443D00416476616E63652044
:102640004B3D004E6F2063617365206C6967687451
:102650000A00473238205A20466F72626964646506
:102660006E0A00473238205A20466F7262696464ED
:10267000656E0050726F62696E67206661696C6595
:10268000640A0050726F62696E67206661696C65EA
:102690006400205A3A200020593A20004265642004
:1026A000583A2000486F6D652025732573257320E7
:1026B0006669727374002066697273740A005A0046
:1026C00059005800486F6D65200025753A25303255
:1026D0007500253032753A25303275002D2D2D00CC
:1026E0005344005A0059005800205A3A20002059FB
:1026F0003A200042656420583A200053442070720A
:10270000696E74696E67206279746520004E6F741B
:10271000205344207072696E74696E670A004654D3
:102720002D35205232204F66662E00205A3A002066
:10273000593A0020436F756E7420583A0020453A8C
:1027400000205A3A0020593A00583A003A004361B2
:10275000703A00202863616C63756C61746564294C
:10276000210A0020213D2000454550524F4D204375
:102770005243206D69736D61746368202D20287346
:10278000746F726564292000290A002062797465DB
:10279000733B2063726320002073746F7265642042
:1027A00073657474696E6773207265747269657697
:1027B0006564202800204D61726C696E3D56343787
:1027C000290A0028454550524F4D3D00454550527D
:1027D0004F4D2076657273696F6E206D69736D6100
:1027E000746368200048617264636F6465642044A8
:1027F000656661756C742053657474696E677320C7
:102800004C6F616465640A00E8030000E80300009F
:10281000C800000010270000000016430000164307
:102820000000A0400000C8420000A0420000A042FA
:102830000000C84348E1CD4220204E6F7A7A6C6593
:102840003A20004261636B004D696E696D756D20C1
:1028500054656D70206973203138302E00486561F1
:1028600074696E67206661696C656400457874728E
:10287000756465206D6F726500526573756D6520B6
:102880007072696E7400524553554D45204F505437
:10289000494F4E533A0020204E6F7A7A6C653A20A9
:1028A000006368616E6765006F6620746865206606
:1028B000696C616D656E74005761697420666F7232
:1028C000207374617274005052494E542050415527
:1028D0005345440020204E6F7A7A6C653A2000669A
:1028E000696C616D656E7420756E6C6F6164005704
:1028F00061697420666F72005052494E54205041F5
:10290000555345440020204E6F7A7A6C653A20007A
:10291000506C6561736520776169742E2E2E0048B6
:10292000656174696E67206E6F7A7A6C65005052CB
:10293000494E54205041555345440020204E6F7A53
:102940007A6C653A200068656174206E6F7A7A6CE3
:10295000652E00507265737320627574746F6E20FB
:10296000746F005052494E54205041555345440015
:1029700020204E6F7A7A6C653A2000746F20636F66
:102980006E74696E75652E2E2E00616E64207072F5
:1029900065737320627574746F6E00496E7365722F
:1029A000742066696C616D656E74005052494E54B6
:1029B000205041555345440020204E6F7A7A6C6573
:1029C0003A200066696C616D656E74206C6F61649D
:1029D000005761697420666F72005052494E54204E
:1029E00050415553454400526573656E643A20006A
:1029F0006F6B00627573793A20706175736564203E
:102A0000666F7220696E7075740A00627573793A28
:102A10002070617573656420666F722075736572CE
:102A20000A00627573793A2070726F636573736917
:102A30006E670A004D363030004B494C4C45442EF1
:102A400020004B494C4C20636175736564206279AA
:102A5000204B494C4C20627574746F6E2F70696EF8
:102A60000A004B494C4C45442E20004B494C4C200D
:102A700063617573656420627920746F6F206D7572
:102A8000636820696E6163746976652074696D6539
:102A9000202D2063757272656E7420636F6D6D6199
:102AA0006E643A2000506C656173652072657365D1
:102AB00074005052494E5445522048414C544544AC
:102AC000005072696E7465722068616C7465642E62
:102AD000206B696C6C28292063616C6C6564210A29
:102AE0000020746F6F206C6F6E672065787472754C
:102AF00073696F6E2070726576656E7465640A0026
:102B000020636F6C6420657874727573696F6E20D2
:102B100070726576656E7465640A005654726176EB
:102B2000206D696E005654726176206D696E005694
:102B300054726176206D696E00566D696E00566D37
:102B4000696E00566D696E00566D617820450056BD
:102B50006D6178204500566D6178204500566D61A5
:102B600078205A00566D6178205A00566D617820A1
:102B70005A00566D6178205900566D6178205900D1
:102B8000566D6178205900566D6178205800566D59
:102B90006178205800566D61782058004D6F746937
:102BA0006F6E00416D6178204500416D6178204570
:102BB00000416D6178205A00416D6178205A0041D2
:102BC0006D6178205900416D6178205900416D6137
:102BD00078205800416D6178205800412D74726151
:102BE00076656C00412D74726176656C00412D72C2
:102BF00065747261637400412D72657472616374EF
:102C000000416363656C00416363656C004D6F74E4
:102C1000696F6E006265640A002C207379737465B5
:102C20006D2073746F7070656421204865617465F0
:102C3000725F49443A200048656174696E67206696
:102C400061696C65640048656174696E67206661DE
:102C5000696C65640048656174696E6720666169C6
:102C60006C65640048656174696E67206661696CB3
:102C700065640000C600C80011241FBECFEFD1E27A
:102C8000DEBFCDBF00E00CBF13E0A0E0B2E0E0EF9C
:102C9000FAE202E00BBF02C007900D92AA39B10719
:102CA000D9F724E1AAE9B3E001C01D92AA34B20722
:102CB000E1F716E1CBE3D6E100E006C02197010978
:102CC000802FFE010F94DC14CA33D10780E008077F
:102CD000A9F70E94F9FC0D9467150C9400002F923F
:102CE0003F924F925F926F927F928F929F92AF929C
:102CF000BF92CF92DF92EF92FF920F931F93CF93E9
:102D0000DF93CDB7DEB7C859D1090FB6F894DEBF4F
:102D10000FBECDBF81E090E090935B1380935A1378
:102D2000809143148D3409F44BC6843511F40C940E
:102D3000A52E873411F00C94E72E809141149091C8
:102D400042148B31910509F4FAC594F4843091054D
:102D50003CF482309105ACF597FF2CC00C94012F08
:102D6000049711F00C94012F0E94D8760C94012F37
:102D70008E31910509F417C664F48C31910509F47C
:102D80000EC64D9711F00C94012F0E94C3780C943D
:102D9000012F8B35910509F40AC68C35910509F48C
:102DA0000BC68A35910511F00C94012F10929E03E9
:102DB0000C94012F8091890281110C94082F0C949E
:102DC000012F20918902222311F40C94012F11E08C
:102DD000029709F010E00E94267782E50E94733C7A
:102DE000882309F45CC10E94113C6B017C01409076
:102DF0006A1250906B1260906C1270906D128091FC
:102E00006E1290916F12A0917012B0917112239670
:102E10008CAF9DAFAEAFBFAF239720913A123091E8
:102E20003B1240913C1250913D1227962CAF3DAF82
:102E30004EAF5FAF279780913E1290913F12A091C5
:102E40004012B091411263968CAF9DAFAEAFBFAF51
:102E5000639720E030E0A901C701B6010F94A80DE7
:102E6000882309F452C5A301920127966CAD7DAD6C
:102E70008EAD9FAD27970F94A80D811111C0239699
:102E80002CAD3DAD4EAD5FAD239763966CAD7DAD82
:102E90008EAD9FAD63970F94A80D882309F435C5B7
:102EA00020E030E0A901C701B6010F94A80D881FEA
:102EB0008827881F18130BC020E030E040E85FE34C
:102EC0006B962CAF3DAF4EAF5FAF6B970AC080E003
:102ED00090E0A0E8BFEB6B968CAF9DAFAEAFBFAFFD
:102EE0006B97A301920127966CAD7DAD8EAD9FAD22
:102EF00027970F94E0112F966CAF7DAF8EAF9FAFE9
:102F00002F9723962CAD3DAD4EAD5FAD23976396C5
:102F10006CAD7DAD8EAD9FAD63970F94E01167965C
:102F20006CAF7DAF8EAF9FAF67972F962CAD3DAD49
:102F30004EAD5FAD2F97CA01B9010F940D0E4B0135
:102F40005C0167962CAD3DAD4EAD5FAD6797CA0194
:102F5000B9010F940D0E9B01AC01C501B4010F9492
:102F6000E1110F944C142B966CAF7DAF8EAF9FAFD9
:102F70002B9720E030E040E05FE30F940D0E4B0113
:102F80005C01A7019601C701B6010F940D0E6B01FC
:102F90007C01A5019401C501B4010F940D0E9B01A4
:102FA000AC01C701B6010F94E0110F944C149B01C2
:102FB000AC016B966CAD7DAD8EAD9FAD6B970F94F4
:102FC0000D0E4B015C0127962CAD3DAD4EAD5FADB6
:102FD0002797C301B2010F94E11120E030E040E0F7
:102FE0005FE30F940D0E6B017C0167966CAD7DADB8
:102FF0008EAD9FAD679790582B962CAD3DAD4EADE5
:103000005FAD2B970F94BD129B01AC01C501B401BC
:103010000F940D0E9B01AC01C701B6010F94E11195
:10302000A30192010F94E0116B017C0163962CAD1A
:103030003DAD4EAD5FAD639723966CAD7DAD8EAD6E
:103040009FAD23970F94E11120E030E040E05FE373
:103050000F940D0E2B013C012B962CAD3DAD4EADCA
:103060005FAD2B972F966CAD7DAD8EAD9FAD2F973D
:103070000F94BD129B01AC01C501B4010F940D0E5C
:103080009B01AC01C301B2010F94E11123962CAD59
:103090003DAD4EAD5FAD23970F94E01114C089E4B0
:1030A0000E94733C882329F00E94113C6B017C0133
:1030B00003C0C12CD12C76018AE40E94733C882382
:1030C000F9F00E94113C63966CAF7DAF8EAF9FAF5D
:1030D000639720E030E0A901C701B6010F94A80D65
:1030E00081111EC020E030E0A90163966CAD7DAD7A
:1030F0008EAD9FAD63970F94A80D811111C005C4CB
:1031000020E030E0A901C701B6010F94A80D882383
:1031100009F4FBC363961CAE1DAE1EAE1FAE6397D3
:10312000A7019601505823962CAF3DAF4EAF5FAF2D
:10313000239763968CAD9DADAEADBFAD6397B05890
:1031400027968CAF9DAFAEAFBFAF2797CA01B9012D
:103150000F940D0E4B015C0127962CAD3DAD4EAD8D
:103160005FAD2797CA01B9010F940D0E9B01AC0109
:10317000C501B4010F94E1110F944C14AB966CAFE0
:103180007DAF8EAF9FAFAB9720916A1230916B12DB
:1031900040916C1250916D122B962CAF3DAF4EAFFB
:1031A0005FAF2B97A70196012B966CAD7DAD8EADD1
:1031B0009FAD2B970F94E1116B966CAF7DAF8EAFE7
:1031C0009FAF6B9780916E1290916F12A0917012C9
:1031D000B091711267968CAF9DAFAEAFBFAF6797DE
:1031E00063962CAD3DAD4EAD5FAD6397BC01CD0197
:1031F0000F94E1116F966CAF7DAF8EAF9FAF6F975D
:1032000020913A1230913B1240913C1250913D1264
:10321000A3962CAF3DAF4EAF5FAFA3976B962CAD8F
:103220003DAD4EAD5FAD6B97A3966CAD7DAD8EADF4
:103230009FADA3970F94E0116B017C0180913E122A
:1032400090913F12A0914012B0914112A7968CAF7D
:103250009DAFAEAFBFAFA7976F962CAD3DAD4EAD56
:103260005FAD6F97BC01CD010F94E0114B015C0184
:103270002091721230917312409174125091751214
:10328000E3962CAF3DAF4EAF5FAFE3976091421234
:103290007091431280914412909145120F94E01165
:1032A0002F966CAF7DAF8EAF9FAF2F978091461258
:1032B00090914712A0914812B0914912AF968CAFED
:1032C0009DAFAEAFBFAFAF9720917612309177121E
:1032D0004091781250917912E7962CAF3DAF4EAFE6
:1032E0005FAFE797A701960123966CAD7DAD8EADDC
:1032F0009FAD23970F940D0E2B013C01A501940166
:1033000027966CAD7DAD8EAD9FAD27970F940D0EBA
:103310009B01AC01C301B2010F94E1112B013C01EF
:10332000A501940123966CAD7DAD8EAD9FAD239725
:103330000F940D0E4B015C01A701960127966CAD11
:103340007DAD8EAD9FAD27970F940D0E9B01AC0107
:10335000C501B4010F94E011A30192010F9454121E
:103360006B017C0120E030E0A9010F94A80D87FFDC
:103370000AC02BED3FE049EC50E4C701B6010F94C1
:10338000E1116B017C01112351F02BED3FE049EC81
:1033900050E4C701B6010F94E0116B017C0120E0FD
:1033A00030E0A901C701B6010F94A80D811128C012
:1033B000A3962CAD3DAD4EAD5FADA3972B966CADF6
:1033C0007DAD8EAD9FAD2B970F94A80D811118C0C8
:1033D000A7962CAD3DAD4EAD5FADA79767966CAD92
:1033E0007DAD8EAD9FAD67970F94A80D811108C07C
:1033F000BBEDCB2EBFE0DB2EB9ECEB2EB0E4FB2E09
:10340000AB962CAD3DAD4EAD5FADAB97C701B601F0
:103410000F940D0E9B01AC010F940D0E4B015C013E
:103420002F962CAD3DAD4EAD5FAD2F97CA01B901C2
:103430000F940D0E9B01AC01C501B4010F94E11175
:103440000F944C144B015C012FE632E143E85AE340
:103450000F94A80D87FD55C2C501B4010F945613F2
:103460000F942A131B01672B19F422242394312C67
:10347000B10180E090E00F94AC0D4B015C019B0129
:10348000AC01C701B6010F94BD122B966CAF7DAF96
:103490008EAF9FAF2B97A50194012F966CAD7DAD9C
:1034A0008EAD9FAD2F970F94BD12AB966CAF7DAFD5
:1034B0008EAF9FAFAB97E7962CAD3DAD4EAD5FADF8
:1034C000E797AF966CAD7DAD8EAD9FADAF970F9486
:1034D000E011A50194010F94BD12AF966CAF7DAFC2
:1034E0008EAF9FAFAF972B962CAD3DAD4EAD5FAD80
:1034F0002B97CA01B9010F940D0E20E030E040E097
:103500005FE30F940D0E9B01AC0160E070E080E87A
:103510009FE30F94E011A3966CAF7DAF8EAF9FAF8A
:10352000A397E3968CAD9DADAEADBFADE397898714
:103530009A87AB87BC87E7962CAD3DAD4EAD5FADAE
:10354000E7972D873E874F87588B609135027091A2
:103550003602072E000C880B990B0F94AE0D2091AC
:103560003F023091400240914102509142020F943B
:103570000D0E2AE037ED43E25CE30F940D0E6BAFC6
:103580007CAF8DAF9EAF0E9482AB9B01AC012853F4
:103590003F4F4F4F5F4FA7962CAF3DAF4EAF5FAF42
:1035A000A7974FAC21965FAC219722966FAC2297DC
:1035B00023967FAC239741E050E065965FAF4EAF16
:1035C000659759E12C965FAF2C976596AEADBFAD70
:1035D0006597A215B30509F459C10E94B0F90E947C
:1035E00082ABDC01CB01A7962CAD3DAD4EAD5FADFE
:1035F000A797821B930BA40BB50BB7FD11C00E94BC
:1036000082AB9B01AC0128533F4F4F4F5F4FA796B2
:103610002CAF3DAF4EAF5FAFA79780E00E9496E919
:103620002C963FAD2C9731502C963FAF2C973323DF
:1036300009F44BC0A3962CAD3DAD4EAD5FADA39745
:1036400027966CAD7DAD8EAD9FAD27970F940D0E77
:103650006B017C012B962CAD3DAD4EAD5FAD2B9734
:10366000B201C3010F940D0EA70196010F94E11151
:103670006B017C01A3962CAD3DAD4EAD5FADA39724
:10368000B201C3010F940D0E4B015C012B962CADC2
:103690003DAD4EAD5FAD2B9727966CAD7DAD8EAD3C
:1036A0009FAD27970F940D0E9B01AC01C501B4018E
:1036B0000F94E0112B013C01C601D70127968CAF76
:1036C0009DAFAEAFBFAF279761C065964EAD5FAD02
:1036D0006597BA0180E090E00F94AC0D2B962CAD6D
:1036E0003DAD4EAD5FAD2B970F940D0E4B015C01C0
:1036F0000F94BA126B017C01C501B4010F944214FE
:103700004B015C01A701960123966CAD7DAD8EAD9A
:103710009FAD23970F940D0E2B013C01A501940141
:1037200063966CAD7DAD8EAD9FAD63970F940D0E1E
:103730009B01AC01C301B2010F94E1112B013C01CB
:10374000A501940123966CAD7DAD8EAD9FAD239701
:103750000F940D0E4B015C01A701960163966CADB1
:103760007DAD8EAD9FAD63970F940D0E9B01AC01A7
:10377000C501B4010F94E01127966CAF7DAF8EAFF9
:103780009FAF279759E12C965FAF2C979201A30129
:103790006B966CAD7DAD8EAD9FAD6B970F94E111C7
:1037A00069837A838B839C8327962CAD3DAD4EAD88
:1037B0005FAD27976F966CAD7DAD8EAD9FAD6F976A
:1037C0000F94E1116D837E838F839887AB962CAD28
:1037D0003DAD4EAD5FADAB9769857A858B859C8598
:1037E0000F94E11169877A878B879C87AF962CAD00
:1037F0003DAD4EAD5FADAF976D857E858F85988968
:103800000F94E1116D877E878F87988B80911502C9
:10381000882321F0CE0101960E94DE65E090E91335
:1038200089819A81AB81BC8188A399A3AAA3BBA3F8
:103830008D819E81AF81B8858CA39DA3AEA3BFA3CC
:1038400089859A85AB85BC8588A799A7AAA7BBA7B8
:10385000CE0180960E948E3C8E01055C1F4F9E011A
:10386000235F3F4FAE01485D5F4FBE016C5D7F4FF0
:10387000CE0180960E94F6EF65968EAD9FAD65975E
:10388000019665969FAF8EAF65979FCEE090E91346
:1038900080913A1290913B12A0913C12B0913D124E
:1038A00088A399A3AAA3BBA380913E1290913F1233
:1038B000A0914012B09141128CA39DA3AEA3BFA3CF
:1038C0008091421290914312A0914412B0914512FE
:1038D00088A799A7AAA7BBA7CE0180960E948E3C75
:1038E0008E01055C1F4F26E432E1AE01485D5F4F5B
:1038F000BE016C5D7F4FCE0180960E94F6EF0E9464
:10390000A03C0E94AA3C0C94012FE1E6F0E28491D5
:103910008F010F5F1F4F882321F00E94ED3CF801BB
:10392000F6CFEFE2F2E084918F010F5F1F4F882303
:1039300011F40C94012F0E94ED3CF801F4CF0E9489
:1039400093C181110C94012F80E090E0A6E1B3E4D3
:1039500089839A83AB83BC8380E090E0A1E9B3E4E0
:103960008D839E83AF83B88780E090E0A0EAB1E4C6
:1039700089879A87AB87BC8780E50E94733C882340
:1039800019F00E94E13B01C060E068A3BE016F5FD7
:103990007F4FCE0180960E9422710C94012F0E94CD
:1039A00099C50C94012F0E9475DD0C94012F81E0C4
:1039B00080939E030C94012F0E94DEDC0C94012F57
:1039C00080914114909142148537910511F40C9423
:1039D00009250CF0D8C08C34910509F424C50CF0ED
:1039E00070C08831910509F4B1C2DCF582319105CE
:1039F00009F4DCC6F4F497FF02C00C94012F823066
:103A000091050CF4CAC1419711F00C94012F60E0AC
:103A100086E792E00E942DB15F988A989FB7F8944C
:103A2000809108018E7F809308019FBF12980C94AB
:103A3000012F8531910509F47FC23CF4449711F0C0
:103A40000C94012FEEE8F2E034C28631910509F4BE
:103A500077C2479711F00C94012F0E94C5DB0C949C
:103A6000012F8E31910509F494C2C4F48A31910575
:103A700009F47DC20CF475C28B31910509F485C23D
:103A80004C9711F00C94012F40E060E080913F14BE
:103A9000909140140E94AE9D0C94012F80329105AC
:103AA00009F48FC30CF4D9C38A32910509F47BC49D
:103AB0008B34910511F00C94012F0E9453C10C948A
:103AC000012F8A36910509F461C6B4F58435910554
:103AD00009F46CC6E4F48135910509F45FC64CF431
:103AE0008D34910511F00C94012F0E9433B20C9487
:103AF000012F8235910509F455C68335910511F0E2
:103B00000C94012F81E080939D030C94012F8C3540
:103B1000910509F49DC634F48535910509F47DC6F7
:103B20000C94012F8836910509F481C489369105DA
:103B300009F4AEC50C94012F8F36910509F4E1C448
:103B400084F48C36910509F44DC50CF423C68D36EA
:103B5000910509F4E1C58E36910509F4BFC40C94B2
:103B6000012F8137910509F449C50CF43FC582370F
:103B7000910509F4F6C68337910511F00C94012FD5
:103B8000E9E6F4E0F4C68C32B1E09B0711F40C9442
:103B9000D1290CF081C0893C910511F40C949D262B
:103BA00084F58C38910509F455C5ACF48737910537
:103BB00009F477C70CF436C78837910509F4F5C7BF
:103BC0008937910511F00C94012F10929F0E1092DD
:103BD0009E0E0C94012F8B39910509F476C534F4AF
:103BE0008139910509F4E8C70C94012F8E3B9105AA
:103BF00009F4B0C5883C910511F40C9455260C9439
:103C0000012F833D910511F40C94C92764F58C3C78
:103C1000910511F40C94D72684F48B3C910511F096
:103C20000C94012FFEE9EF2EF3E1FF2E0AE812E0DB
:103C3000A4E0DA2ED00E0C94C7268D3C910511F429
:103C40000C9441278E3C910511F00C94012F7AE8D9
:103C5000C72E72E0D72EE7E4EE2EE4E0FE2E00E061
:103C600010E00C94AC278D3D910511F40C94B6280E
:103C70003CF48C3D910511F40C94A9280C94012F6F
:103C8000823E910511F40C94FD288831914011F485
:103C90000C9427290C94012F8C3A21E0920711F4FF
:103CA0000C94962EB4F5803941E0940711F40C94ED
:103CB0008B2EC4F48E32A1E09A0711F40C94982A4A
:103CC00014F40C94FA298F32E1E09E0711F40C945D
:103CD000EC2A8336914011F00C94012F0E9413BB03
:103CE0000C94012F823921E0920711F40C94922E4A
:103CF00014F40C948E2E8A3941E0940709F47AC4A6
:103D0000843A914011F00C94012F0E9495C00C94BC
:103D1000012F8835A2E09A0711F40C949F2EFCF431
:103D2000853FE1E09E0711F40C94992E4CF4843FFA
:103D3000914011F00C94012F0E94B3870C94012F35
:103D4000863F31E0930711F40C949C2E873F9140FD
:103D500011F00C94012F0E9482BF0C94012F843823
:103D600053E0950711F40C94A22E4CF48335934044
:103D700011F00C94012F0E941ABF0C94012F803A6D
:103D8000E3E09E0709F45CC2873E934011F00C9477
:103D9000012F0E94FEBA0C94012FA0903F14B09006
:103DA000401480E50E94733C882359F00E94D13B67
:103DB0006B017C0111E0672B682B692B31F410E05B
:103DC00004C010E0C12CD12C760183E50E94733C25
:103DD0008823F1F00E94113C20E030E04AE754E4EF
:103DE0000F940D0E0F942A136B017C01111112C058
:103DF000672B682B692B71F4A114B10459F0D5011C
:103E00008C91882339F061E0C5010E944EB107C052
:103E1000112391F360E083E692E00E942DB183E0EC
:103E200090E090935B1380935A1381E08093230674
:103E30000E9477FB0E94AA3CC114D104E104F10462
:103E4000F1F08091651390916613A0916713B09182
:103E50006813C80ED91EEA1EFB1E0E9482ABDC014D
:103E6000CB018C199D09AE09BF09B7FF1EC0809117
:103E700023068823D1F080E00E9496E9EECF80915E
:103E80002306882321F080E00E9496E9F8CF8091F4
:103E90002E0F90912F0F60E0029719F484E592E0C5
:103EA00002C085E492E00E942DB1109223060C948A
:103EB000012F84918F010F5F1F4F882321F00E94F3
:103EC000ED3CF801F6CF1092EB111092EA1140E0B0
:103ED00050E0BA0186E99FE00E945E8F8BE1E6E93F
:103EE000FFE0DE01159601900D928A95E1F7809131
:103EF000940F9091950F9C838B8384EB92E09A832F
:103F0000898340E050E0BE016F5F7F4F89E893E016
:103F10000E9433B3CE0101960E942AE9EFE7F2E056
:103F200084918F010F5F1F4F882311F40C94012F90
:103F30000E94ED3CF801F4CF0E94F2A00C94012FF6
:103F400010923E0F10923F0F0C94012F80913F0F63
:103F5000882319F081E080933E0F0E9453C10C9496
:103F6000012F10923E0F0E94FAC20C94012F8091F3
:103F70003F0F882311F40C94012F83E50E94733CBA
:103F800081110C94BD2F0C94012F0E9488DB0C949E
:103F9000012F80913F0F882311F40C94012F80E3AF
:103FA00091E10E941D8F80E391E10E942F5E1092AB
:103FB0003D0F10923C0FE0903F14F0904014809120
:103FC0003F0F882311F40C94012F0E9428B21D8208
:103FD00018861C821B8284EB92E09A83898382E993
:103FE0009FE09093B20F8093B10FF70180818F32E1
:103FF00009F068C06FE270E0C7010F9424158C01CE
:104000000F5F1F4F9E012F5F3F4F490101151105A3
:1040100009F45EC06FE270E0C8010F9424156C01D2
:10402000009709F456C00817190708F052C05C0140
:10403000A01AB10AA501B801CE0180960F944D15C2
:10404000E0E2F0E0EC0FFD1FEA0DFB1D10828E0197
:10405000005E1F4FD8018D918D01882319F00E94B9
:10406000ED3CF8CF8AE00E94ED3C6091B10F709179
:10407000B20F6115710511F06C5F7F4F21E0AE0149
:10408000405E5F4FCE0105960E94BB63811112C056
:10409000BE01605E7F4F85EC92E00E9409EE8EE2E9
:1040A0000E94ED3C8AE00E94ED3CC4010E942AE996
:1040B0000C94012F9092B20F8092B10F86010F5F86
:1040C0001F4FA4CF83EB9FE09093B20F8093B10F6B
:1040D00087016091B10F7091B20F6115710511F0F8
:1040E0006C5F7F4F18A21BA222E0A801CE01809630
:1040F0000E94BB63811102C0F12C1EC0CE018096CC
:104100000E9496B18823C1F36CA57DA58EA59FA5BD
:1041100041E00E940C8D882379F3E8A9B0E2EB9F7F
:10412000F0011124ED5FF34F309731F385EE80837A
:104130001BA20E94CC8CF82ECE0180960E947F3C60
:10414000FF2009F1EFE9F2E084917F012FEFE21AFD
:10415000F20A882321F00E94ED3CF701F5CFD80147
:104160008D918D01882319F00E94ED3CF8CF8AE0F3
:104170000E94ED3C1092E1111092E2111092E311B5
:104180001092E41118C0EDEAF2E084917F01BFEFD4
:10419000EB1AFB0A882321F00E94ED3CF701F5CFD2
:1041A000F80181918F01882319F00E94ED3CF8CF2E
:1041B0008EE20E94ED3CCE0101960E942AE90C9409
:1041C000012F80913E0F81110E9477FB80913F0F5C
:1041D000882311F40C94012F80E50E94733C8823FE
:1041E00019F00E94023C03C080E50E94443C182F55
:1041F000482F61E080913F14909140140E94AE9D41
:1042000083E50E94733C882381F00E94E13BAB016F
:10421000BC014093E1115093E2116093E31170935C
:10422000E41180E391E10E945E8F80913F0F88232B
:1042300019F081E080933E0F11110C94012F8DCE67
:1042400080913F149091401421E020933D0F40E075
:1042500060E00E94AE9D0C94012F0E94FEB2FCE330
:10426000CF2ED12CE12CF12CA70196010F948311B4
:10427000762E672ECA01B901A70196010F9483110A
:104280006B017C01CA01B90128E130E040E050E057
:104290000F9483114B015C01C9016DE671E00F942D
:1042A000B5148E010F5F1F4F6115710599F06F9264
:1042B0007F92DF92CF929F928F929F938F937F9363
:1042C0006F9381E093E09F938F931F930F930F94CD
:1042D000410D12C00097B1F06F927F92DF92CF92A2
:1042E0009F928F929F938F9381EF92E09F938F93F2
:1042F0001F930F930F94410D0FB6F894DEBF0FBEBE
:10430000CDBF36C081149104A104B10479F06F923D
:104310007F92DF92CF929F928F9285EE92E09F9351
:104320008F931F930F930F94410DE6CFC114D104C7
:10433000E104F10469F06F927F92DF92CF928DEDEC
:1043400092E09F938F931F930F930F94410DD4CFBF
:104350006F927F9289ED92E09F938F931F930F93BB
:104360000F94410D0F900F900F900F900F900F90A2
:1043700060E0C8010E944EB1E1E6F3E284917F0162
:10438000BFEFEB1AFB0A882321F00E94ED3CF701F6
:10439000F5CFB80185E193E00E9409EE8AE00E9422
:1043A000ED3C0C94012F83E50E94733C882311F4AB
:1043B0000C94012F0E94F13BE82E80E50E94733C93
:1043C000882341F00E94E13B8B0177FF02C00C94EF
:1043D000012F02C00DE010E0902FE9E4F6E088E242
:1043E0008E0F2491921729F031968E13FACF0C94E8
:1043F000CE2FE1E6F0E284918F010F5F1F4F8823FB
:1044000021F00E94ED3CF801F6CFE2E2F3E0849166
:104410008F010F5F1F4F882311F40C94012F0E940E
:10442000ED3CF801F4CF0E94FAC20C94012F88E60B
:1044300090E00E94C34081110C94012F8091110ED5
:1044400083FF02C00C94012F83E50E94733C8823F4
:1044500009F440C00E94113C0F9425137093E4139B
:104460006093E31380E00E94CCB90E94113C20E0ED
:1044700030E044EB52E40F94A80D18163CF00E9473
:1044800033B260E088E393E00E942DB10E94113CBA
:104490002091F6053091F7054091F8055091F90506
:1044A0000F9407141816B4F48FE093E09F938F9342
:1044B0008091001290E001969F938F9381E393E0A7
:1044C0009F938F931F920E9436C10FB6F894DEBF60
:1044D0000FBECDBF0F947E060C94012F8EE40E9478
:1044E000733C882311F40C94012F0E94E13B6093EC
:1044F000FF0B7093000C8093010C9093020C0C94B2
:10450000012F83E50E94443C882359F083E50E94F3
:10451000733C882319F00E94F13B01C080E0809336
:10452000110EE1E6F3E284918F010F5F1F4F8823A4
:1045300021F00E94ED3CF801F6CFE5E5F3E084912F
:104540008F010F5F1F4F882321F00E94ED3CF8017F
:10455000F6CF8091110E8823A1F1E7E4CE2EE3E09F
:10456000DE2EE12CF12C20E08091110E90E00E2C3B
:1045700002C0959587950A94E2F780FF17C0BB2487
:10458000B394B20E222319F08CE20E94ED3CF601A6
:1045900025913491F901849189010F5F1F4F882380
:1045A00021F00E94ED3C9801F5CF2B2DFFEFEF1A83
:1045B000FF0A32E0C30ED11C45E0E416F104A1F677
:1045C0000CC0E1E5F3E084918F010F5F1F4F88235A
:1045D00021F00E94ED3CF801F6CF8AE00E94ED3C0C
:1045E0000C94012F10922E020C94012F8CE593E075
:1045F0000E9444E90E94D7D90C94012F83E50E94C0
:10460000733C882369F00E94F13B8D3320F4809342
:1046100081020C94012F8CE3809381020C94012F72
:10462000E1E6F3E284918F010F5F1F4F882321F0B1
:104630000E94ED3CF801F6CF4091810250E060E02D
:1046400070E085E693E00E9499ED8AE00E94ED3CDF
:104650000C94012F8091110E83FF02C00C94012F46
:1046600083E50E94733C882311F40C94012F0E946F
:10467000113C0F9425136739710514F066E970E059
:104680007093E2136093E1130E9481B90C94012F9F
:1046900089E690E00E94C340811111C0ECE6F3E08E
:1046A00084918F010F5F1F4F882321F00E94ED3C02
:1046B000F801F6CF0E9461B68AE00E94ED3C1092AC
:1046C0005B1310925A130C94CA3483E50E94733C16
:1046D000882311F40C94012F0E94F13B182F8D3385
:1046E00008F01CE3109360130E9482AB6B017C0105
:1046F000212F30E0A8EEB3E00F94D111C60ED71EE3
:10470000E81EF91EC0925C13D0925D13E0925E1316
:10471000F0925F130C94012F8DE690E00E94C3404D
:1047200081110C94012F8091110E83FF02C00C9413
:10473000012F83E50E94733C60968FAF60978111D3
:104740000C94EC2F82E50E94733C81110C94EC2FA9
:104750000C94012F8091110E83FF02C00C94012F45
:1047600060E085EA93E00E942DB183E50E94733CEE
:1047700060968FAF609781110C947E3182E50E9424
:10478000733C81110C947E310C94012F0E945DDBEF
:104790000C94012F0E9448DB0C94012F0E9431DB06
:1047A0000C94012F10929D030C94012F83E50E941D
:1047B000733C8823A1F00E94113C20E030E04AE7DE
:1047C00054E40F940D0E0F942A1360938202709399
:1047D000830280938402909385020C94012F88E5D4
:1047E0000E94443C81110C94E53289E50E94443CCE
:1047F00081110C94E5328AE50E94443C81110C94AD
:10480000E53285E40E94443C81110C94E5320E941B
:1048100077FB0E9434E90C94012F83E50E94443C0D
:10482000882311F40C94012F0E94113C20E030E009
:104830004AE754E40F940D0E0F942A136093691302
:1048400070936A1380936B1390936C130C94012FE5
:104850004AE8C42E42E0D42E5AE7E52E52E1F52E66
:1048600010E0D6018D916D010E94443C882309F42B
:104870006DC0133009F063C00E94113C4B015C0114
:1048800020E030E040EA51E40F94A80D87FF4EC0CD
:10489000A50194016091861270918712809188120F
:1048A000909189120F94BD122B013C019B01AC0128
:1048B00060918006709181068091820690918306B6
:1048C0000F940D0E6093800670938106809382068C
:1048D00090938306A30192016091AA137091AB1388
:1048E0008091AC139091AD130F940D0E6093AA13A9
:1048F0007093AB138093AC139093AD1360918F13AF
:104900007091901380919113909192130F94AC0D2C
:10491000A30192010F940D0E0F942A1360938F132D
:1049200070939013809391139093921380928612B8
:1049300090928712A0928812B092891207C00E94AA
:10494000113CF70160837183828393831F5FF4E0DE
:10495000EF0EF11C143009F084CF0E948BEF0C9401
:10496000012F0E9477FB0E9454DA0C94012F84914E
:104970008F010F5F1F4F882321F00E94ED3CF8014B
:10498000F6CF60E089E594E00E9410DA61E082E50C
:1049900094E00E9410DA61E087E494E00E9410DA6B
:1049A00061E087E394E00E9410DA60E08EE294E038
:1049B0000E9410DA61E084E294E00E9410DA61E083
:1049C0008AE194E00E9410DA61E082E194E00E94C2
:1049D00010DA61E084E094E00E9410DA60E086EF93
:1049E00093E00E9410DA60E087EE93E00E9410DA14
:1049F00060E089ED93E00E9410DA60E083EC93E0E0
:104A00000E9410DA60E082EB93E00E9410DA0C94CE
:104A1000012F60E080913F14909140140E944EB1AC
:104A20000C94012F85E40E94733C882319F00E94A6
:104A3000023C03C085E40E94443C882361F0E1E627
:104A4000F3E284918F010F5F1F4F882321F00E94B2
:104A5000ED3CF801F6CF81E40E94733C882319F005
:104A60000E94023C03C081E40E94443C882361F020
:104A7000ECE2F5E084918F010F5F1F4F882321F056
:104A80000E94ED3CF801F6CF00913F1410914014C4
:104A9000D8018D918D01882309F49FCD0E94ED3CB2
:104AA000F7CFE3E5F5E084918F010F5F1F4F882377
:104AB00021F00E94ED3CF801F6CFEBE4F5E08491A3
:104AC0008F010F5F1F4F882321F00E94ED3CF801FA
:104AD000F6CF659B03C00CEF12E002C001E013E0CB
:104AE000F80181918F01882319F00E94ED3CF8CFE5
:104AF0008AE00E94ED3CE3E4F5E084918F010F5FD2
:104B00001F4F882321F00E94ED3CF801F6CF8091E1
:104B1000030181FF03C00CEF12E002C001E013E0CB
:104B2000D8018D918D01882319F00E94ED3CF8CFBA
:104B30008AE00E94ED3CEBE3F5E084918F010F5F8A
:104B40001F4F882321F00E94ED3CF801F6CF4B99CE
:104B500003C00CEF12E002C001E013E0F801819104
:104B60008F01882319F00E94ED3CF8CF8AE00E9463
:104B7000ED3CE0E3F5E084918F010F5F1F4F882348
:104B800021F00E94ED3CF801F6CF649B03C00CEFCE
:104B900012E002C001E013E0D8018D918D0188235D
:104BA00009F41BCD0E94ED3CF7CF81E080939F0E6E
:104BB00080939E0E0C94012F83E50E94733C882302
:104BC00019F00E94E13B02C060E070E08B01112708
:104BD00002301105D4F0E1E6F0E284918F010F5F1D
:104BE0001F4F882321F00E94ED3CF801F6CFEDE63F
:104BF000F5E084918F010F5F1F4F882311F40C940F
:104C0000012F0E94ED3CF801F4CF88E40E94733C30
:104C10008823A1F00E94E13B643B710534F0663FBC
:104C200071052CF065EF70E002C064EB70E0F801F4
:104C3000EE0FFF1FE85BF94F7183608386E40E94EB
:104C4000733C8823A9F00E94E13BF801EE0FFF1F9F
:104C5000E45BF94F718360836F3F710519F014F0C5
:104C60006FEF70E077FF02C060E070E071836083F7
:104C700082E40E94733C882311F40C94012F0E945B
:104C8000E13B6530710534F0683871052CF067E858
:104C900070E002C065E070E0000F111FF801EC5BEE
:104CA000F94F718360830C94012F88EC90E00E948F
:104CB000C34081110C94012F84E40E94443C88235A
:104CC000C1F10E94113C11E020E030E0A9010F94F5
:104CD000A80D811101C010E010938806112349F13D
:104CE0000E94113CE0910012B4E0EB9FF00111240E
:104CF000EC57F94F608371838283938320E030E027
:104D0000A901609184067091850680918606909134
:104D100087060F94A80D81110CC080E090E0A0EEF2
:104D2000BFE38093840690938506A0938606B09394
:104D300087060E9421C70C94012FBEEAEB2EB3E137
:104D4000FB2E0AE812E084E0D82ED00EF801819103
:104D50008F010E94443C882351F00E94113C0F9423
:104D60002A13D7016D937D938D939C931397B4E091
:104D7000EB0EF11CD012EACF0E9431EE0C94012F01
:104D8000B4E0EB0EF11CD01611F40C94012FF801D5
:104D900081918F010E94443C882391F30E94113C31
:104DA000D7016D937D938D939C931397E9CF83E502
:104DB0000E94443C8823D9F00E94113CAB01BC0105
:104DC0004093C6135093C7136093C8137093C913CD
:104DD0004093BE135093BF136093C0137093C113DD
:104DE00089EE95E00E94D3ED8AE00E94ED3C80E5DB
:104DF0000E94443C882399F00E94113CAB01BC0105
:104E00004093C6135093C7136093C8137093C9138C
:104E10008CEC95E00E94D3ED8AE00E94ED3C82E5A7
:104E20000E94443C882399F00E94113CAB01BC01D4
:104E30004093C2135093C3136093C4137093C5136C
:104E40008DEA95E00E94D3ED8AE00E94ED3C84E576
:104E50000E94443C882309F4D4C70E94113CAB0152
:104E6000BC014093BE135093BF136093C013709363
:104E7000C1138FE895E00E94D3ED8AE00E94ED3CDB
:104E8000C0C783E50E94443C882351F00E94113C36
:104E900060939A1370939B1380939C1390939D132C
:104EA00084E50E94443C882351F00E94113C6093A9
:104EB000961370939713809398139093991382E4A9
:104EC0000E94443C882351F00E94D13B609393128E
:104ED00070939412809395129093961288E50E9495
:104EE000443C882351F00E94113C609374067093F7
:104EF0007506809376069093770689E50E94443C78
:104F0000882351F00E94113C6093780670937906D3
:104F100080937A0690937B068AE50E94443C88231E
:104F200051F00E94113C60937C0670937D06809343
:104F30007E0690937F0685E40E94443C882309F412
:104F400060C70E94113C6093800670938106809335
:104F500082069093830655C7F60181916F010E94E6
:104F6000443C882359F00E94113CD7016D937D93F6
:104F70008D939C931397C8010E94D43A0F5F1F4FE3
:104F8000B4E0EB0EF11C0330110531F70E9454DA46
:104F900038C7E1E6F3E284918F010F5F1F4F88234A
:104FA00021F00E94ED3CF801F6CF83E50E94443CDD
:104FB000882321F00E94023C80931502E9E3F6E089
:104FC00084918F010F5F1F4F882321F00E94ED3CD9
:104FD000F801F6CF80911502811103C0E5E3F6E0F8
:104FE00002C0E1E3F6E084918F010F5F1F4F882339
:104FF00021F00E94ED3CF801F6CFE9E2F6E0849161
:105000008F010F5F1F4F882321F00E94ED3CF801B4
:10501000F6CF20914A1230914B1240914C12509190
:105020004D126091FB057091FC058091FD059091FA
:10503000FE050F94E111AB01BC0187E296E00E94EE
:10504000D3ED20914E1230914F1240915012509159
:1050500051126091FF0570910006809101069091B8
:1050600002060F94E111AB01BC0184E296E00E94BC
:10507000D3ED20915212309153124091541250911D
:105080005512609103067091040680910506909177
:1050900006060F94E111AB01BC0181E296E00E948B
:1050A000D3EDE9E1F6E084918F010F5F1F4F882374
:1050B00021F00E94ED3CF801F6CF20914A12309188
:1050C0004B1240914C1250914D1260910902709117
:1050D0000A0280910B0290910C020F94E111AB0136
:1050E000BC0187E196E00E94D3ED20914E123091F1
:1050F0004F12409150125091511260910D027091D7
:105100000E0280910F02909110020F94E111AB01F9
:10511000BC0184E196E00E94D3ED209152123091BF
:105120005312409154125091551260911102709196
:10513000120280911302909114020F94E111AB01BD
:10514000BC0181E196E00E94D3ED8AE00E94ED3C33
:1051500058C683E50E94733C882309F452C60E9416
:10516000E13B70933602609335024BC68DED90E0C3
:105170000E94C340811145C683E50E94733C882389
:1051800009F43FC60091001210E00E94E13B000FBD
:10519000111FF801ED5CFD4F718360838091001257
:1051A00090E08C01000F111F000F111FF801E15D4D
:1051B000FD4F7F01880F991FFC01ED5CFD4F608161
:1051C0007181072E000C880B990B0F94AE0D2AE00D
:1051D00037ED43E25CE30F940D0EF801EE5EF14F04
:1051E00020813181428153810F940D0ED7016D933F
:1051F0007D938D939C93139704C680E50E94443C55
:10520000882309F4FEC50E94E13B6B017C0183E524
:105210000E94733C882321F00E94E13B8B0102C075
:105220000FEF1FEFC8010196039708F0EAC5D7FCFE
:10523000E8C59C2DE9E4F6E088E28E0F24919217F0
:1052400009F4DFC531968E13F9CF0C94A13480E5B3
:105250000E94443C882309F4D4C50E94E13B6B01C1
:105260007C018B01672B09F07EC083E50E94443CE2
:10527000882339F00E94E13B8DE09FE00E94CD9AA7
:10528000C0C5E1E6F3E284917F01BFEFEB1AFB0AB0
:10529000882321F00E94ED3CF701F5CF60E070E03B
:1052A0008AE896E00E94F0ED80910F0F28E532E049
:1052B0006901C81AD10887FDD394CC0CDD1CCC0C35
:1052C000DD1C0D2C000CEE08FF0880910E0F28E865
:1052D00030E04901881A910887FD9394880C991C45
:1052E000880C991C092C000CAA08BB0880910D0F92
:1052F0008F3FB9F090E0FC01EE0FFF1F8E0F9F1F54
:10530000FC01E056F14F0181128183E0000F111F73
:105310008A95E1F794E0169507959A95E1F70E5F67
:105320001F4F98012F5F3F4FC901330FAA0BBB0BD3
:105330009C01AD01281939094A095B09A4EBB0E0C9
:105340000F94C111A7019601281939094A095B096F
:105350000F94A511B90187E896E00E94F0ED8AE06C
:105360000E94ED3C4EC5E1E6F0E284918F010F5FB3
:105370001F4F882321F00E94ED3CF801F6CFB601C3
:1053800080E896E00E94F0EDE1E7F6E084918F017D
:105390000F5F1F4F882309F434C50E94ED3CF801CC
:1053A000F5CF83E50E94733C882319F00E94E13B0E
:1053B00002C064E071E079A368A380E50E94733CB9
:1053C000882339F00E94E13B6938E3E17E0730F43D
:1053D00002C068EE73E07A83698304C088E893E1D1
:1053E0009A838983BE01605E7F4FCE0101960E9441
:1053F00079A207C585E40E94733C811110C080E545
:105400000E94443C882391F00E94113C609337062F
:10541000709338068093390690933A0607C00E942D
:10542000F13B882361F3E1E6F0E271C089E40E9478
:10543000443C882381F00E94113C2CEA35EC47E281
:105440005EE30F940D0E60933F06709340068093C9
:1054500041069093420684E40E94443C882381F0F4
:105460000E94113C2CEA35EC47E25EE30F94BD123A
:1054700060933B0670933C0680933D0690933E06F6
:10548000E1E6F3E284918F010F5F1F4F882321F043
:105490000E94ED3CF801F6CF409137065091380656
:1054A0006091390670913A068AE996E00E94D3ED40
:1054B0002CEA35EC47E25EE360913F0670914006CE
:1054C00080914106909142060F94BD12AB01BC0140
:1054D00086E996E00E94B6ED2CEA35EC47E25EE301
:1054E00060913B0670913C0680913D0690913E068E
:1054F0000F940D0EAB01BC0182E996E00E94B6ED5F
:105500008AE00E94ED3C7DC40E94ED3CF80184914C
:105510008F010F5F1F4F8111F7CF0AE113E0D80110
:105520008D918D01882309F458C80E94ED3CF7CF76
:1055300083E50E94443C182F882371F00E94113C9F
:105540000F942513709308026093070221E0672BE4
:1055500009F020E02093FA0580E50E94443C88236E
:1055600059F02091070230910802232B11F00E947C
:10557000023C8093FA0545C4111143C4E1E6F3E20D
:1055800084918F010F5F1F4F882321F00E94ED3C13
:10559000F801F6CF8091FA05811103C06BE073E04A
:1055A00002C06EEF72E083EB96E00E9409EE60911C
:1055B00007027091080282EA96E00E94F0EDEEE99F
:1055C000F6E084918F010F5F1F4F882309F419C4FF
:1055D0000E94ED3CF801F5CF85E40E94733C8823DE
:1055E00021F00E94E13B7B0102C0E12CF12C83E41D
:1055F0000E94733C882341F00E94E13BC058DF4F7A
:105600006883C058D04006C025E0C058DF4F2883CB
:10561000C058D04085E50E94733C882319F00E9451
:10562000023C03C085E50E94443CC457DF4F888399
:10563000CC58D040F7FC07C0812C912CB6E1AB2EA2
:10564000B3E4BB2E06C0812C912CACE8AA2EA2E4B8
:10565000BA2E83E50E94733C882321F00E94113CFE
:105660004B015C01E114F10411F4109200120E944C
:1056700082AB2B013C01E11003C00BE213E00CC034
:105680000EE313E0D8018D918D01882311F40C9461
:10569000ED220E94ED3CF6CFF80181918F01882325
:1056A00019F00E94ED3CF8CFC501B4010F94251309
:1056B000072E000C880B990B0F94AE0D60966FAF00
:1056C000609728967FAF28972C968FAF2C9764967B
:1056D0009FAF6497A3019201205E314B4F4F5F4F04
:1056E000CB56DF4F288339834A835B83C559D0402B
:1056F0008AE00E94ED3C0E9417BA8FE78093FE116A
:1057000081E080932E02CC57DF4F488259826A8213
:105710007B82C458D040C357DF4F488259826A8287
:105720007B82CD58D040CD57DF4F1882C358D04030
:10573000CF56DF4F188219821A821B82C159D0407E
:105740006C961FAE6C9730E4A0963FAFA0974CE1EB
:10575000A4964FAFA49756E4E0965FAFE097E49627
:105760001FAEE497A8961FAEA897AC961FAEAC9755
:10577000E8961FAEE897C458DF4F188219821A8244
:105780001B82CC57D040EC961CAE1DAE1EAE1FAE99
:10579000EC97C12CD12C7601FFE78F2E912CA12CF8
:1057A000B12C8FE790E0A0E0B0E027968CAF9DAFE2
:1057B000AEAFBFAF2797C857DF4F188219821A8242
:1057C0001B82C858D04091E0CE57DF4F9883C25813
:1057D000D04069961FAE1EAE699710E0212C312C87
:1057E00000E0C058DF4FA881C058D0400A2E000CFE
:1057F000BB0BC058DF4FB983A883C058D0408091FD
:105800002E02882309F40CC10E9482AB23966CAF50
:105810007DAF8EAF9FAF23978091FC11882309F451
:10582000DBC00E94DCBA1091F6052090F70530909D
:10583000F8050091F905212F322D432D502FE496C4
:105840006FADE497A8967FADA897AC968FADAC9757
:10585000E8969FADE8970F94A80D87FF0CC0E496DB
:105860001FAFE497A8962FAEA897AC963FAEAC9723
:10587000E8960FAFE897212F322D432D502F6C96CD
:105880006FAD6C97A0967FADA097A4968FADA497AF
:10589000E0969FADE0970F940714181664F46C9689
:1058A0001FAF6C97A0962FAEA097A4963FAEA4977B
:1058B000E0960FAFE097CE57DF4FB881C258D04087
:1058C00060962FAD609728963FAD28972C964FADE8
:1058D0002C9764965FAD6497612F722D832D902F66
:1058E000BB2309F45BC00F94071418160CF074C0A6
:1058F00023964CAD5DAD6EAD7FAD23974419550930
:1059000066097709DB01CA0188589341A109B109E9
:10591000B7FD62C027968CAD9DADAEADBFAD2797EC
:1059200088199909AA09BB09B595A79597958795EF
:105930008093FE11C857DF4F488359836A837B8366
:10594000C858D0406096EFAD6097E496EFAFE4970B
:105950002896FFAD2897A896FFAFA8972C962FAD55
:105960002C97AC962FAFAC9764963FAD6497E896B2
:105970003FAFE89723968CAD9DADAEADBFAD2397FD
:10598000CC57DF4F88839983AA83BB83C458D04008
:10599000CE57DF4F1882C258D0401EC00F94A80DBA
:1059A00087FF1AC023968CAD9DADAEADBFAD2397DA
:1059B000CC57DF4F288139814A815B81C458D04060
:1059C000821B930BA40BB50BAC01BD01485853418E
:1059D0006109710977FF23C620E030E040EA51E415
:1059E00060966FAD609728967FAD28972C968FAD07
:1059F0002C9764969FAD64970F94E1119B01AC01C5
:105A0000612F722D832D902F0F94071418167CF49C
:105A1000EEEBF7E084918F010F5F1F4F811103C000
:105A20000E9417BAEEC10E94ED3CF801F3CF239615
:105A30008CAD9DADAEADBFAD2397C357DF4F288171
:105A400039814A815B81CD58D040821B930BA40BD6
:105A5000B50BB7FDB7C00E9461B68AE00E94ED3C6D
:105A600023968CAD9DADAEADBFAD23978053984FBF
:105A7000AF4FBF4FC357DF4F88839983AA83BB8340
:105A8000CD58D040CD57DF4F9881C358D0409111A9
:105A900076C0CF56DF4F288139814A815B81C15959
:105AA000D040612F722D832D902F0F94071418165C
:105AB0000CF04CC020E030E040EC50E460966FAD5C
:105AC000609728967FAD28972C968FAD2C9764967B
:105AD0009FAD64970F94E0119B01AC01A1E0CD57FD
