:100000000C9486160C94B7160C94B7160C94B7166D
:100010000C94B7160C94B7160C94B7160C94B7162C
:100020000C94B7160C94B7160C94B7160C94B7161C
:100030000C94B7160D9403130C94B7160C94B716C2
:100040000C94B7160C944BB20C94B7160C94B716CC
:100050000C94B7160C94B7160C94EBBD0D94D00C01
:100060000C94B7160C94B9160C94B7160C94B716DA
:100070000C94B7160C94B7160C94B7160C94B716CC
:100080000C94EEA60C94B7160C94B7160C94B716F5
:100090000C94B7160C94B7160C94B7160C94B716AC
:1000A0000C94B7160C94B7160C941BA70C94B716A7
:1000B0000C94B7160C94B7160C94B7160C9448A76A
:1000C0000C94B7160C94B7160C94B7160C94B7167C
:1000D0000C94B7160C94B7160C94B7160C94B7166C
:1000E0000C94B716A2C6ABC6B4C6BDC6C6C6E1C69A
:1000F000EEC6F7C6CFC6D8C6E2000801EA00FE0089
:10010000D400DC00D8000E01E400F600FC00DE00A4
:10011000C800DA00DC00E600E000F400E800CC00F3
:100120001001D200F8000A010401F000FA000601F3
:10013000CA00D600D000F2000A01C600CE00EC00D2
:10014000084AD73B3BCE016E84BCBFFDC12F3D6C3E
:1001500074319ABD56833DDA3D00C77F11BED9E4A4
:10016000BB4C3E916BAAAABE000000803F05A84C84
:10017000CDB2D44EB93836A9020C50B99186880850
:100180003CA6AAAA2ABE000000803F000D94E50EFE
:100190000D94640E0D94D10E0D94BB0E0D94E90ECA
:1001A0000D94DB0E0D94AE0E0D941D0E0D94D70E16
:1001B0000D94270E0D946E0E0D94960E0D94550E03
:1001C0000D94820E0D94FF0D0D94370E0D94780E44
:1001D0000D94B80E0D94090E0D94ED0E0D942A0198
:1001E0000D94C30E0D94DF0E0D948C0E0D94410EE4
:1001F0000D94B40E0D94C90E0D944B0E0D94130E68
:100200000D94890F0D94CB0C0D94BF0E0D94CD0E53
:100210000D94040E0D94F20E0D945D000D942F0EAE
:100220000D94AA0E446F6E6520736176696E672027
:1002300066696C652E0A004D3239002020506C61D1
:100240006E6E657242756666657242797465733A60
:1002500020002046726565204D656D6F72793A20E9
:1002600000436F6D70696C65643A204A616E20329C
:100270003820323031380A00207C20417574686F94
:10028000723A20284C65766920456C73746F6E2C29
:10029000204D61726C696E20312E312E38290A0092
:1002A000323031372D31322D32352031323A303043
:1002B00000204C61737420557064617465643A2049
:1002C00000312E312E380A004D61726C696E0020AB
:1002D000536F6674776172652052657365740A00A6
:1002E000205761746368646F672052657365740A90
:1002F000002042726F776E206F75742052657365AF
:10030000740A002045787465726E616C20526573C2
:1003100065740A00506F77657255700A00737461D6
:1003200072740A0053544F505045442E20005072AE
:10033000696E7465722073746F7070656420647583
:100340006520746F206572726F72732E2046697813
:1003500020746865206572726F7220616E6420750A
:100360007365204D39393920746F2072657374615B
:1003700072742E202854656D706572617475726593
:100380002069732072657365742E2053657420692B
:100390007420616674657220726573746172746929
:1003A0006E67290A005072696E7465722068616C0C
:1003B0007465642E206B696C6C28292063616C6CF9
:1003C0006564210A004B494C4C45442E20004B49A2
:1003D0004C4C20636175736564206279204B494CF5
:1003E0004C20627574746F6E2F70696E0A004B49F1
:1003F0004C4C45442E20004B494C4C206361757396
:10040000656420627920746F6F206D756368206960
:100410006E6163746976652074696D65202D206353
:10042000757272656E7420636F6D6D616E643A20D3
:10043000004D3630300020746F6F206C6F6E672077
:10044000657874727573696F6E2070726576656E0B
:100450007465640A0020636F6C642065787472753B
:1004600073696F6E2070726576656E7465640A00DC
:100470006F6B00526573656E643A20004E6F2063A7
:10048000617365206C696768740A004175746F0058
:1004900020452F443D00416476616E6365204B3DED
:1004A000004D36303020486F74656E6420746F6F75
:1004B00020636F6C6420746F206368616E676520D1
:1004C00066696C616D656E740A003A2000207A5F7F
:1004D0006D696E3A20202D3230207A5F6D61783A56
:1004E000202032300A0050726F6265205A204F6619
:1004F00066736574004F666673657473206170700F
:100500006C696564004572723A20546F6F206661B1
:10051000722100546F6F206661722066726F6D20C9
:100520007265666572656E636520706F696E740AC8
:1005300000426564204C6576656C696E67200046F4
:1005400061696C656420746F20656E61626C652002
:10055000426564204C6576656C696E670A00426589
:1005600064204C6576656C20436F727265637469B4
:100570006F6E204D61747269783A0043290A0061F8
:10058000626C656420286D696E2074656D70200052
:10059000436F6C6420657874727564657320617252
:1005A00065200020643A0020693A0020703A00205B
:1005B0006F7574206F662072616E67650A005365FF
:1005C00072766F20003A200020536572766F20000B
:1005D000205A00205900580020204D61783A200010
:1005E000205A00205900580020204D696E3A200002
:1005F0004F6666004F6E2000536F667420656E6410
:1006000073746F70733A200053657474696E672059
:1006100054726176656C20416363656C65726174C8
:10062000696F6E3A200053657474696E6720526575
:10063000747261637420416363656C65726174698F
:100640006F6E3A200053657474696E67205072694A
:100650006E7420416363656C65726174696F6E3A94
:10066000200053657474696E67205072696E74203F
:10067000616E642054726176656C20416363656CC1
:1006800065726174696F6E3A20004D3134352053C4
:100690003C696E6465783E206F7574206F662072C9
:1006A000616E67652028302D31290A002F2F200028
:1006B0003A004361703A00454D455247454E435913
:1006C0005F50415253455200434153455F4C4947A7
:1006D00048545F4252494748544E45535300544F83
:1006E00047474C455F4C494748545300534F465485
:1006F000574152455F504F574552004255494C446F
:100700005F50455243454E54004C4556454C494E6A
:10071000475F44415441005A5F50524F42450041A7
:1007200055544F4C4556454C005052494E545F4A23
:100730004F420050524F4752455353004155544F7A
:100740005245504F52545F54454D5000564F4C55F2
:100750004D455452494300454550524F4D00534575
:100760005249414C5F584F4E5F584F4646004649EC
:10077000524D574152455F4E414D453A4D61726C65
:10078000696E20312E312E382028476974687562D1
:100790002920534F555243455F434F44455F5552BF
:1007A0004C3A68747470733A2F2F67697468756275
:1007B0002E636F6D2F4D61726C696E4669726D7735
:1007C0006172652F4D61726C696E2050524F544FAB
:1007D000434F4C5F56455253494F4E3A312E3020CD
:1007E0004D414348494E455F545950453A46542D72
:1007F000352052322045585452554445525F434F9C
:10080000554E543A3120555549443A636564653232
:100810006132662D343161322D343734382D3962EE
:1008200031322D6335356336326633363766660AC4
:100830000046542D35205232204F66662E00426508
:100840006420646F6E652E0020573A004265642074
:1008500048656174696E672E0048656174696E67EA
:1008600020646F6E652E0020573A004525692025CB
:10087000730046542D352052322072656164792E02
:10088000006F6B004D3131332053004B494C4C45C8
:10089000442E20004543484F00494E464F004552E4
:1008A000524F52530044525952554E00434F4D4DF2
:1008B000554E49434154494F4E006F6666009408B7
:1008C00099089E08A508AC0844454255473A00459A
:1008D00025692025730046542D352052322072653B
:1008E0006164792E00000136372603FF3C3D380E47
:1008F000FF2E303E12FFFF0C080907FFFF1A1C18DD
:10090000FFFF08440AFF43FFFFFFFFFFFF50726F26
:100910007465637465642050696E0A00256973000C
:1009200025696D20256973002569682025696D207A
:1009300025697300256964202569682025696D2073
:100940002569730025697920256964202569682057
:1009500025696D20256973005072696E7420746971
:100960006D653A2000456E642066696C65206C698F
:1009700073740A00426567696E2066696C65206C55
:100980006973740A004E6F206D6F76652E00526594
:1009900073756D696E67207072696E740046542DB0
:1009A000352052322072656164792E00436C696390
:1009B0006B20746F20726573756D652E2E2E00206E
:1009C0005A3A200020593A200042656420583A20C3
:1009D000000A0A426564204C6576656C20436F729C
:1009E00072656374696F6E204D61747269783A0044
:1009F000202B000A436F7272656374656420426540
:100A000064204865696768742076732E20426564A7
:100A100020546F706F6C6F67793A0A00202B000AC0
:100A20004265642048656967687420546F706F6719
:100A300072617068793A0A2020202B2D2D2D2042DA
:100A400041434B202D2D2B0A2020207C20202020CC
:100A5000202020202020207C0A204C207C202020C8
:100A600020282B29202020207C20520A2045207C71
:100A700020202020202020202020207C20490A2007
:100A800046207C20282D29204E20282B29207C2020
:100A9000470A2054207C20202020202020202020B5
:100AA000207C20480A2020207C20202020282D295E
:100AB000202020207C20540A2020207C2020202060
:100AC000202020202020207C0A2020204F2D2D2097
:100AD00046524F4E54202D2D2B0A2028302C3029E1
:100AE0000A004D65616E206F662073616D706C65E4
:100AF0006420706F696E74733A200020643A20009D
:100B000020623A200045716E20636F6566666963F6
:100B100069656E74733A20613A2000202844525966
:100B200052554E2900473239204175746F20426575
:100B300064204C6576656C696E67002842296163A4
:100B40006B00284629726F6E740028522969676805
:100B50007400284C29656674003F4E756D6265729D
:100B6000206F662070726F626520706F696E74739B
:100B700020697320696D706C61757369626C6520A2
:100B80002832206D696E696D756D292E0A003F2827
:100B900056296572626F7365206C6576656C206995
:100BA0007320696D706C61757369626C65202830A3
:100BB0002D34292E0A00536C6565702E2E2E0047A9
:100BC000322F47332062616420706172616D6574F9
:100BD0006572730A004163746976652045787472A2
:100BE000756465723A200020453A00205A3A002088
:100BF000593A00583A0020706F736974696F6E201B
:100C00006F7574206F662072616E67652E0A003FF3
:100C100050726F62652000473238205A20466F724A
:100C200062696464656E0A00473238205A20466F54
:100C30007262696464656E005761726E696E673ACC
:100C400020486F6D696E672042756D70204469762B
:100C500069736F72203C20310A00020204627573CE
:100C6000793A2070617573656420666F7220696ED1
:100C70007075740A00627573793A207061757365D6
:100C80006420666F7220757365720A0062757379ED
:100C90003A2070726F63657373696E670A005072F1
:100CA0006F62696E67206661696C65640A005072E4
:100CB0006F62696E67206661696C656400205A3AEC
:100CC000200020593A200042656420583A20005301
:100CD000544F502063616C6C65642062656361757C
:100CE0007365206F6620424C546F7563682065728F
:100CF000726F72202D20726573746172742077692F
:100D00007468204D3939390A00486F6D65202573A4
:100D10002573257320666972737400206669727387
:100D2000740A005A0059005800486F6D6520002071
:100D3000496E76616C696420657874727564657259
:100D4000200053442072656164206572726F720ADC
:100D500000446F6E65207072696E74696E672066FC
:100D6000696C650A004B494C4C45442E2000535495
:100D70004F505045442E20005072696E74657220A9
:100D800073746F707065642064756520746F20657E
:100D900072726F72732E20466978207468652065C0
:100DA00072726F7220616E6420757365204D3939DF
:100DB0003920746F20726573746172742E20285408
:100DC000656D7065726174757265206973207265F6
:100DD0007365742E20536574206974206166746590
:100DE000722072657374617274696E67290A004EAD
:100DF0006F20436865636B73756D20776974682035
:100E00006C696E65206E756D6265722C204C617325
:100E100074204C696E653A2000636865636B737576
:100E20006D206D69736D617463682C204C617374FF
:100E3000204C696E653A20004C696E65204E756DD8
:100E4000626572206973206E6F74204C6173742028
:100E50004C696E65204E756D6265722B312C204C8D
:100E6000617374204C696E653A20004D3131300059
:100E7000656E7175657565696E67202200FFFFFFFD
:100E80000000A0400000A040000000400000964389
:100E9000000096430000BE43000000000000000078
:100EA0000000000000009643000096430000BE438F
:100EB00000000000000000000000000000004842A8
:100EC0000000484200002041000000007C3C3E5EE3
:100ED0002B3D3F2F5B5D3B2C2A225C004D333100C4
:100EE00043616E6E6F7420656E74657220737562F7
:100EF0006469723A20006175746F25692E67006518
:100F000072726F722077726974696E6720746F20D5
:100F100066696C650A004E6F7420534420707269D4
:100F20006E74696E670A005344207072696E74694A
:100F30006E672062797465200044656C6574696F22
:100F40006E206661696C65642C2046696C653A2088
:100F50000046696C652064656C657465643A006F71
:100F600070656E206661696C65642C2046696C65ED
:100F70003A200057726974696E6720746F20666941
:100F80006C653A20006F70656E206661696C6564FF
:100F90002C2046696C653A20006F70656E20666192
:100FA000696C65642C2046696C653A200046696C62
:100FB000652073656C65637465640A002053697A03
:100FC000653A200046696C65206F70656E65643A0D
:100FD00020006F70656E206661696C65642C204628
:100FE000696C653A20002066696C653A200066727B
:100FF00065736800646F696E67004E6F7720004507
:101000004E4420535542524F5554494E450A0022F2
:1010100020706F73002220706172656E743A220036
:10102000535542524F5554494E452043414C4C2054
:101030007461726765743A22004B494C4C45442EEA
:101040002000747279696E6720746F2063616C6C24
:10105000207375622D67636F64652066696C6573C4
:10106000207769746820746F6F206D616E79206CD1
:101070006576656C732E204D4158206C6576656CE5
:101080002069733A004D3234004D3233202573000D
:1010900053442063617264206F6B0A006F70656E49
:1010A000526F6F74206661696C65640A00766F6CBC
:1010B000756D652E696E6974206661696C65640A78
:1010C00000534420696E6974206661696C0A0043AC
:1010D000616E6E6F74206F70656E207375626469E7
:1010E00072200020520020204D393030204B004C1F
:1010F000696E65617220416476616E63653A0A00CB
:1011000020204D383531205A005A2D50726F6265BB
:10111000204F666673657420286D6D293A0A002099
:10112000440020490020204D3330312050005049E8
:10113000442073657474696E67733A0A0020460030
:1011400020420020480020204D3134352053004DEE
:101150006174657269616C20686561747570207076
:101160006172616D65746572733A0A0020204D34B6
:1011700032302053004175746F20426564204C6505
:1011800076656C696E673A0A00205A002059002083
:10119000204D323036205800486F6D65206F6666EE
:1011A0007365743A0A00204500205A002059002037
:1011B000580020420020540020204D32303520536A
:1011C00000416476616E6365643A20533C6D696EDC
:1011D0005F66656564726174653E20543C6D696E3E
:1011E0005F74726176656C5F666565647261746573
:1011F0003E20423C6D696E5F7365676D656E745F1E
:1012000074696D655F75733E20583C6D61785F78D9
:10121000795F6A65726B3E205A3C6D61785F7A5FD8
:101220006A65726B3E20453C6D61785F655F6A65FB
:10123000726B3E0A0020540020520020204D3230B4
:1012400034205000416363656C65726174696F6E30
:101250002028756E6974732F7332293A20503C70C0
:1012600072696E745F616363656C3E20523C7265A7
:1012700074726163745F616363656C3E20543C7497
:10128000726176656C5F616363656C3E0A00204540
:1012900000205A0020590020204D323031205800C3
:1012A0004D6178696D756D20416363656C65726130
:1012B00074696F6E2028756E6974732F7332293AC2
:1012C0000A00204500205A0020590020204D3230CD
:1012D000332058004D6178696D756D2066656564D1
:1012E00072617465732028756E6974732F73293A5F
:1012F0000A00204500205A0020590020204D393294
:1013000020580053746570732070657220756E6983
:10131000743A0A0020204D3230302044300A002038
:10132000204D3230302044002044697361626C6586
:10133000640A0046696C616D656E7420736574742F
:10134000696E67733A0020204D3134392043203BC9
:1013500020556E69747320696E2043656C736975DE
:10136000730A002020473231202020203B20556E78
:1013700069747320696E206D6D0A00486172646340
:101380006F6465642044656661756C742053657490
:1013900074696E6773204C6F616465640A00DC05D4
:1013A0000000DC050000C80000001027000000005D
:1013B0009643000096430000A0400000C841000092
:1013C000A0420000A0420000C84348E1CD422028CE
:1013D00063616C63756C6174656429210A00202166
:1013E0003D2000454550524F4D20435243206D69EA
:1013F000736D61746368202D202873746F72656447
:10140000292000290A002062797465733B206372E9
:101410006320002073746F7265642073657474694F
:101420006E67732072657472696576656420280042
:10143000204D61726C696E3D563437290A0028458B
:101440004550524F4D3D00454550524F4D20766519
:101450007273696F6E206D69736D617463682000CB
:10146000290A002062797465733B2063726320004F
:1014700053657474696E67732053746F726564206A
:1014800028004572726F722077726974696E6720E6
:10149000746F20454550524F4D210A0066696C61BA
:1014A0006D656E743A20007A5F6D696E3A2000793E
:1014B0005F6D696E3A2000785F6D696E3A20005268
:1014C00065706F7274696E6720656E6473746F7097
:1014D000207374617475730A00456E6473746F7061
:1014E0007320256320256320256320256300205A6F
:1014F0003A0020593A0020583A00656E6473746FC0
:101500007073206869743A2000556E6B6E6F776E49
:1015100020636F6D6D616E643A20220020746F6FDE
:10152000206C6F6E6720657874727573696F6E20BA
:1015300070726576656E7465640A0020636F6C6412
:1015400020657874727573696F6E20707265766548
:101550006E7465640A006563686F3A004572726F65
:10156000723A00205A3A0020593A0020436F756EB3
:101570007420583A004D383420582059205A2045BC
:101580000024F4D43050C38E20C2A24017828B7046
:1015900011127A910D816CD90AA861E108C75866C9
:1015A00007615143061E4B5D05C145A7041A411151
:1015B00004093D9803713931034036DB02653391EC
:1015C00002D4305402802E1D02632CEE01752AC510
:1015D00001B028A001102781018F2564012B244B25
:1015E00001E0223401AC211F018D200D01801FFC80
:1015F00000841EED00971DDF00B81CD200E61BC65C
:1016000000201BBC00641AB200B219A8000A19A07D
:10161000006A189900D117910040178B00B5168405
:101620000031167E00B31579003A157300C7146FA8
:101630000058146A00EE1366008813630025135ED9
:1016400000C7125B006C12570015125400C11151F3
:101650000070114F0021114B00D61049008D10472A
:10166000004610440002104200C00F4000800F3EB0
:1016700000420F3C00060F3B00CB0E3800930E37A4
:10168000005C0E3500270E3400F30D3200C10D3121
:1016900000900D3000600D2E00320D2D00050D2C38
:1016A00000D90C2B00AE0C2900850C29005C0C27FE
:1016B00000350C27000E0C2600E80B2400C40B2478
:1016C00000A00B23007D0B23005A0B2100390B21B6
:1016D00000180B2000F80A1F00D90A1E00BB0A1EC2
:1016E000009D0A1D00800A1D00630A1C00470A1B9A
:1016F000002C0A1B00110A1A00F7091A00DD09194B
:1017000000C4091900AB091900920917007B0918D8
:1017100000630917004C0916003609160020091647
:10172000000A091500F5081500E0081400CC08149B
:1017300000B8081400A4081400900813007D0812D3
:10174000006B0813005808120046081200340811F4
:1017500000230811001208110001081100F0071001
:1017600000E0071000D0071000C0071000B0070FFE
:1017700000A107100091070E0083070F0074070FE8
:101780000065070E0057070E0049070E003B070DC6
:10179000002E070E0020070D0013070D0006070D91
:1017A00000F9060C00ED060D00E0060C00D4060C56
:1017B00000C8060C00BC060C00B0060C00A4060B0A
:1017C0000099060C008D060B0082060B0077060BB5
:1017D000006C060B0061060A0057060B004C060A57
:1017E0000042060A0038060A002E060A0024060AED
:1017F000001A060A001006090007060A00FD05097E
:1018000000F4050900EB050900E2050900D9050906
:1018100000D0050900C7050900BE050900B5050887
:1018200000AD050800A50509009C05080094050801
:10183000008C050800840508007C05080074050874
:10184000006C050700650508005D050700560508E2
:10185000004E05070047050700400508003805074A
:1018600000310507002A050700230507001C0506AF
:1018700000160507000F050700080506000205070A
:1018800000FB040600F5040700EE040600E8040669
:1018900000E2040700DB040600D5040600CF0406BE
:1018A00000C9040600C3040600BD040600B7040610
:1018B00000B1040500AC040600A6040600A004055F
:1018C000009B04060095040500900406008A0405A8
:1018D0000085040500800406007A040500750405EF
:1018E00000700405006B0405006604050061040532
:1018F000005C04050057040500520405004D040572
:101900000048040500430405003E0404003A0405B1
:101910000035040500300404002C040500270404ED
:1019200000230405001E0404001A04040016040524
:1019300000110404000D040400090405000404045B
:101940000000040400FC030400F8030400F4030492
:1019500000F0030400EC030400E8030400E40304C3
:1019600000E0030400DC030400D8030400D40304F3
:1019700000D0030400CC030400C8030300C5030324
:101980000024F404D9201BC40C5C0E9804C4095F25
:101990000265077101F405F900FB04B300480487F0
:1019A00000C10369005803550003034500BE023A15
:1019B000008402310053022A00290225000402207B
:1019C00000E4011C00C8011900AF011700980114C0
:1019D0000084011300710110006101100051010E1B
:1019E0000043010D0036010B002B010B0020010B01
:1019F00000150109000C01090003010800FB0008A3
:101A000000F3000800EB000700E4000600DE00061B
:101A100000D8000600D2000600CC000500C7000573
:101A200000C2000500BD000400B9000400B50004B8
:101A300000B1000400AD000400A9000400A50003EB
:101A400000A20003009F0004009B00030098000315
:101A5000009500020093000300900003008D000237
:101A6000008B00030088000200860002008400034F
:101A700000810002007F0002007D0002007B000266
:101A80000079000200770001007600020074000275
:101A90000072000100710002006F0002006D000181
:101AA000006C0002006A000100690002006700018A
:101AB0000066000100650001006400020062000190
:101AC0000061000100600001005F0002005D000194
:101AD000005C0001005B0001005A00010059000198
:101AE0000058000100570001005600010055000198
:101AF0000054000100530000005300010052000197
:101B00000051000100500001004F0001004E000094
:101B1000004E0001004D0001004C0001004B000090
:101B2000004B0001004A000100490001004800008C
:101B30000048000100470001004600000046000187
:101B40000045000000450001004400010043000082
:101B5000004300010042000000420001004100007B
:101B60000041000100400001003F0000003F000173
:101B7000003E0000003E0001003D0000003D00016D
:101B8000003C0000003C0000003C0001003B000065
:101B9000003B0001003A0000003A0001003900005B
:101BA0000039000100380000003800000038000152
:101BB000003700000037000100360000003600004A
:101BC000003600010035000000350000003500013E
:101BD0000034000000340000003400010033000035
:101BE000003300000033000100320000003200002A
:101BF000003200010031000000310000003100011E
:101C0000003000000030000000300001002F000014
:101C1000002F0000002F0000002F0001002E000008
:101C2000002E0000002E0001002D0000002D0000FD
:101C3000002D0000002D0001002C0000002C0000F1
:101C4000002C0000002C0001002B0000002B0000E5
:101C5000002B0000002B0001002A0000002A0000D9
:101C6000002A0000002A00010029000000290000CD
:101C700000290000002900000029000100280000C0
:101C800000280000002800000028000000280001B3
:101C900000270000002700000027000000270000A8
:101CA000002700010026000000260000002600009A
:101CB000002600000026000100250000002500008D
:101CC000002500000025000000250000002500017F
:101CD0000024000000240000002400000024000074
:101CE0000024000100230000002300000023000066
:101CF0000023000000230000002300000023000157
:101D0000002200000022000000220000002200004B
:101D1000002200000022000100210000002100003C
:101D2000002100000021000000210000002100002F
:101D30000021000100200000002000000020000021
:101D40000020000000200000002000000020000013
:101D500000200001001F0000001F0000001F000005
:101D6000001F0000001F0000001F0000001F0001F6
:101D7000001E0000001E0000001E0000001E0000EB
:101D8000002042403A0020403A00202F005468656D
:101D9000726D616C2052756E6177617900544845AF
:101DA000524D414C2052554E41574159004B494CE0
:101DB0004C45442E2000202D20496E76616C6964CC
:101DC000206578747275646572206E756D626572D7
:101DD00020210A0048656174696E67206661696C3C
:101DE00065640048656174696E67206661696C6549
:101DF000640048656174696E67206661696C65643A
:101E00000048656174696E67206661696C6564008D
:101E10004D494E54454D502074726967676572652F
:101E200064004572723A204D494E54454D5020424F
:101E30004544004572723A204D494E54454D50007C
:101E40004D415854454D50207472696767657265FD
:101E500064004572723A204D415854454D5020421D
:101E60004544004572723A204D415854454D50004A
:101E70006265640A002C2073797374656D20737435
:101E80006F7070656421204865617465725F4944B4
:101E90003A200023646566696E652020444546410A
:101EA000554C545F4B64200023646566696E652061
:101EB0002044454641554C545F4B692000236465DE
:101EC00066696E65202044454641554C545F4B7011
:101ED0002000504944204175746F74756E6520660A
:101EE000696E697368656421205075742074686533
:101EF000206C617374204B702C204B6920616E64E0
:101F0000204B6420636F6E7374616E74732066720D
:101F10006F6D2062656C6F7720696E746F20436F00
:101F20006E66696775726174696F6E2E680A00501B
:101F30004944204175746F74756E65206661696CE3
:101F40006564212074696D656F75740A0054686555
:101F5000726D616C2052756E6177617900544845ED
:101F6000524D414C2052554E4157415900486561F0
:101F700074696E67206661696C65640048656174A8
:101F8000696E67206661696C656400504944204150
:101F900075746F74756E65206661696C6564212067
:101FA00054656D706572617475726520746F6F2011
:101FB000686967680A00204B643A2000204B693A40
:101FC0002000204B703A20000A20436C6173736933
:101FD0006320504944200A002054753A2000204BC9
:101FE000753A2000206D61783A2000206D696E3AC4
:101FF000200020643A200020626961733A2000705A
:10200000012C0190012701B0012201C0011D01F046
:102010000118011002130130020E01600209019043
:10202000020401C002FF000003FA004003F5008033
:1020300003F000D003EB002004E6007004E100E0B0
:1020400004DC004005D700C005D2004006CD00D01A
:1020500006C8008007C3003008BE00F008B900C001
:1020600009B400B00AAF00B00BAA00D00CA5000064
:102070000EA000500F9B00C010960050129100005F
:10208000148C00C0158700B0178200B0197D00D0F5
:102090001B7800001E730040206E0090226900F043
:1020A00024640040275F0090295A00E02B5500105F
:1020B0002E500020304B0010324600E0334100909B
:1020C000353C001037370070383200A0392D00B091
:1020D0003A2800A03B2300603C1E00103D190090F0
:1020E0003D1400103E0F00703E0A00C03E05000087
:1020F0003F0000403FFBFF803FF6FFC03FF1FF4342
:102100006172642072656D6F76656400436172640C
:1021100020696E73657274656400746F20726573F4
:10212000756D65005761697420666F722070726901
:102130006E74005052494E5420504155534544004E
:1021400020204E6F7A7A6C653A200066696C616D6A
:10215000656E742065787472756465005761697482
:1021600020666F72005052494E54205041555345DD
:10217000440020204E6F7A7A6C653A200066696CC4
:10218000616D656E74206C6F6164005761697420C5
:10219000666F72005052494E542050415553454489
:1021A0000020204E6F7A7A6C653A2000746F2063AD
:1021B0006F6E74696E75652E2E2E00616E642070D0
:1021C0007265737320627574746F6E00496E736507
:1021D00072742066696C616D656E74005052494E70
:1021E00054205041555345440020204E6F7A7A6C5C
:1021F000653A200068656174206E6F7A7A6C652E8E
:1022000000507265737320627574746F6E20746F02
:10221000005052494E54205041555345440020200F
:102220004E6F7A7A6C653A2000506C656173652058
:10223000776169742E2E2E0048656174696E67207F
:102240006E6F7A7A6C65005052494E542050415559
:102250005345440020204E6F7A7A6C653A20006620
:10226000696C616D656E7420756E6C6F616400578A
:1022700061697420666F72005052494E542050417B
:10228000555345440020204E6F7A7A6C653A200001
:102290006368616E6765006F6620746865206669B3
:1022A0006C616D656E74005761697420666F722091
:1022B0007374617274005052494E5420504155530A
:1022C00045440045787472756465206D6F726500D1
:1022D000526573756D65207072696E740052455356
:1022E000554D45204F5054494F4E533A0020204EF3
:1022F0006F7A7A6C653A20004261636B004D696EBB
:10230000696D756D2054656D7020697320313830AA
:102310002E0048656174696E67206661696C65644A
:1023200000052E2E004D61696E0046696C2E20441A
:1023300069612E0046696C2E204469612E0045209B
:10234000696E206D6D33004F6666004F6E20004150
:102350006476616E6365204B00416476616E6365EF
:10236000204B00416476616E6365204B00436F6EC5
:1023700074726F6C0053746570732F6D6D004A65D5
:10238000726B00416363656C65726174696F6E00A6
:1023900056656C6F63697479005A204F6666736581
:1023A00074005A204F666673657400436F6E7472D2
:1023B0006F6C004573746570732F6D6D0045737499
:1023C0006570732F6D6D005A73746570732F6D6D2A
:1023D000005A73746570732F6D6D00597374657056
:1023E000732F6D6D005973746570732F6D6D005888
:1023F00073746570732F6D6D005873746570732FEF
:102400006D6D004D6F74696F6E0056652D6A657253
:102410006B0056652D6A65726B0056652D6A657294
:102420006B00567A2D6A65726B00567A2D6A65725A
:102430006B0056792D6A65726B0056792D6A65724C
:102440006B0056792D6A65726B0056782D6A65723D
:102450006B0056782D6A65726B0056782D6A65722E
:102460006B004D6F74696F6E00416D61782045009F
:10247000416D6178204500416D6178205A00416DC1
:102480006178205A00416D6178205900416D617872
:10249000205900416D6178205800416D61782058C5
:1024A00000412D74726176656C00412D7472617605
:1024B000656C00412D7265747261637400412D7208
:1024C00065747261637400416363656C00416363AA
:1024D000656C004D6F74696F6E00565472617620A2
:1024E0006D696E005654726176206D696E005654A7
:1024F000726176206D696E00566D696E00566D6969
:102500006E00566D696E00566D6178204500566DFF
:102510006178204500566D6178204500566D6178E0
:10252000205A00566D6178205A00566D6178205A05
:1025300000566D6178205900566D6178205900561B
:102540006D6178205900566D6178205800566D6194
:1025500078205800566D61782058004D6F74696F6F
:102560006E0053746F72652073657474696E67735F
:10257000004265640042656400426564004E6F7A03
:102580007A6C65004E6F7A7A6C65004E6F7A7A6C61
:10259000650046616E2073706565640046616E205B
:1025A00073706565640046616E20737065656400D4
:1025B00054656D70657261747572650050726568FE
:1025C0006561742041425320636F6E6600507265EE
:1025D0006865617420504C4120636F6E66005049FD
:1025E00044204175746F74756E65005049442041F4
:1025F00075746F74756E65005049442D44005049E0
:10260000442D44005049442D49005049442D49006F
:102610005049442D50005049442D5000200220467E
:102620006163740020022046616374002002204D23
:102630006178002002204D6178002002204D6178F1
:10264000002002204D696E002002204D696E00209E
:1026500002204D696E004175746F74656D70004F96
:102660006666004F6E200046616E2073706565647B
:1026700020320046616E207370656564203200462A
:10268000616E20737065656420320046616E207350
:102690007065656420310046616E20737065656405
:1026A00020310046616E2073706565642031004200
:1026B000656400426564004E6F7A7A6C65004E6F07
:1026C0007A7A6C6500436F6E74726F6C004D3330B4
:1026D0003320553120452569205325690053746FF7
:1026E0007720424C546F756368004D32383020506B
:1026F0003020533930004465706C6F7920424C545F
:102700006F756368004D32383020503020533130BF
:1027100000424C546F7563682053656C662D546598
:102720007374004D32383020503020533132300035
:10273000526573657420424C546F756368004D3266
:1027400038302050302053313630004D61696E00F2
:10275000496E697469616C697A6520454550524FCC
:102760004D00436F6E74726F6C00496E69746961DD
:102770006C697A6520454550524F4D00526573741F
:102780006F7265206661696C73616665004C6F618C
:10279000642073657474696E67730053746F726537
:1027A0002073657474696E677300424C546F75636F
:1027B000680046696C616D656E74004D6F74696F79
:1027C0006E0054656D7065726174757265004D615F
:1027D000696E004578747275646572004D6F766538
:1027E000205A004D6F76652059004D6F7665205850
:1027F0000050726570617265004D6F766520302EF5
:10280000316D6D004D6F766520316D6D004D6F76C9
:10281000652031306D6D004D6F766520617869738C
:10282000004578747275646572004D6F7665205A44
:10283000004D6F76652059004D6F76652058004534
:1028400078747275646572004D6F7665205A004D1C
:102850006F76652059004D6F76652058005265737C
:10286000657420424C546F756368004D32383020D7
:102870005030205331363000424C546F756368201D
:1028800053656C662D54657374004D32383020509A
:1028900030205331323000507265686561742041D8
:1028A0004253005072656865617420504C4100438A
:1028B0006F6F6C646F776E004368616E676520664A
:1028C000696C616D656E740044697361626C65204A
:1028D0007374657070657273004D3834005365749D
:1028E00020686F6D65206F6666736574730042655E
:1028F00064204C6576656C696E67004732380A471C
:10290000323900486F6D65205A00473238205A002E
:10291000486F6D65205900473238205900486F6D67
:10292000652058004732382058004175746F206880
:102930006F6D6500473238004D6F766520617869AC
:1029400073004D61696E0050726568656174204165
:10295000425320426564005072656865617420418D
:10296000425320456E640050726568656174204171
:1029700042530050726570617265005072656865FF
:10298000617420504C412042656400507265686556
:10299000617420504C4120456E640050726568653A
:1029A000617420504C410050726570617265004343
:1029B00068616E67652066696C616D656E7400465E
:1029C0006C6F7700466C6F770046616E20737065A0
:1029D000656420320046616E207370656564203244
:1029E0000046616E20737065656420320046616E3A
:1029F00020737065656420310046616E20737065D8
:102A0000656420310046616E207370656564203115
:102A10000042656400426564004E6F7A7A6C65001E
:102A20004E6F7A7A6C65005370656564005370650B
:102A30006564005370656564004D61696E004D36D4
:102A40003030204230004D343238004E6F20534435
:102A50002063617264005072696E742066726F6DDB
:102A60002053440053746F70207072696E7400526A
:102A70006573756D65207072696E74005061757351
:102A800065207072696E7400436F6E74726F6C00B3
:102A9000507265706172650054756E6500496E66AE
:102AA0006F2073637265656E005072696E74206189
:102AB000626F72746564005072696E742070617523
:102AC000736564000025753A253032750025303273
:102AD000753A25303275002D2D2D005344005A00D3
:102AE00059005800506C6561736520726573657498
:102AF000005052494E5445522048414C54454400E0
:102B0000001C1F11111F00000006191803130C00F0
:102B1000040E1F041C000000000E1315110E00000F
:102B20001C10181705060500040A0A0A0A11110EDE
:102B30000C12120C00000000001F1511151F0000E0
:102B400000000000010204040000001C1C0C04042E
:102B50000402010000000000040810000000000052
:102B60002D2D2D2D2D2D007C4D61726C696E7C00FC
:102B70002D2D2D2D2D2D00687474703A2F2F6D6121
:102B8000726C696E66772E6F726700687474703A43
:102B90002F2F6D61726C696E66772E6F72670020E1
:102BA000312E312E380000000A0B02090C0D0E08E0
:102BB0000703040100000000000000000000000006
:102BC0000000000000000000000000000000000005
:102BD00000001211100000000000000000000000C2
:102BE00000000000000000000000000001021020B2
:102BF0002008081020401020408002010201080433
:102C000002010102040810204080804020100804C6
:102C1000020180040201804020100804020108041F
:102C20000201010204081020408001020408102063
:102C3000408005050505070508080808020202028C
:102C40000A0A080804040404010101010101010148
:102C50000303030303030303040707070C0C0C0C13
:102C60000C0C0C0C020202020606060606060606FC
:102C70000B0B0B0B0B0B0B0B000020002300260093
:102C800029002C002F003200000100000301060182
:102C9000090100002200250028002B002E00310031
:102CA000340002010000050108010B0100002100B1
:102CB000240027002A002D0030003300010100000D
:102CC000040107010A01024E414E494E4954594937
:102CD0004E46CDCCCC3D0AD7233C17B7D13877CC64
:102CE0002B329595E6241FB14F0A000020410000C9
:102CF000C84200401C4620BCBE4CCA1B0E5AAEC582
:102D00009D74C95AFE8670A555CFEA5A11241FBE7C
:102D1000CFEFD1E2DEBFCDBF00E00CBF13E0A0E0FB
:102D2000B2E0EEEAFFE302E00BBF02C007900D92B3
:102D3000A039B107D9F724E1A0E9B3E001C01D92A1
:102D4000AE31B207E1F71DE2CAE0DDE200E006C005
:102D500022970109FE010BBF0F943D18C230D10725
:102D600080E00807A9F70F94A8130D94C61F0C94D0
:102D700000001F920F920FB60F9211240BB60F9204
:102D80002F938F939F93EF93FF93E091100481E033
:102D90008E0F8F779091C60020911104821731F029
:102DA000F0E0E057FC4F908380931004FF91EF9187
:102DB0009F918F912F910F900BBE0F900FBE0F9090
:102DC0001F9018959B01AC01211581EE3807410534
:102DD000510549F182E08093C00060E079E08DE325
:102DE00090E00F94FC172150310941095109CA01A3
:102DF000B90122E030E040E050E00F94FC1730933E
:102E0000C5002093C4008091C10080618093C100FF
:102E10008091C10088608093C1008091C10080686A
:102E20008093C10008951092C00020E130E0E7CF08
:102E30003FB7F8942091110480911004821759F043
:102E4000E22FF0E0E057FC4F808190E02F5F2F777A
:102E50002093110402C08FEF9FEF3FBF08958FB7FB
:102E6000F89490911104909310048FBF089590915D
:102E7000C00095FFFCCF8093C6000895F8CFAF92B5
:102E8000BF92CF92DF92EF92FF920F931F93CF9357
:102E9000DF93CDB7DEB7A0970FB6F894DEBF0FBEB5
:102EA000CDBF6115710581059105A9F1B12CC42E25
:102EB000D12CE12CF12CAA24A394AB0C01E010E05E
:102EC0000C0F1D1F0B0D111DB7FC1A95A7019601C4
:102ED0000F94DA17F8016083B901CA016115710511
:102EE0008105910511F41B2D11C0BA2CE4CFE1E04E
:102EF000F0E0EC0FFD1FE10FF11D17FDFA95808149
:102F00008A3038F490E3890FB2DF11501F3F79F710
:102F100014C097E3F8CF80E3A0960FB6F894DEBF15
:102F20000FBECDBFDF91CF911F910F91FF90EF901A
:102F3000DF90CF90BF90AF909ACFA0960FB6F89445
:102F4000DEBF0FBECDBFDF91CF911F910F91FF90DC
:102F5000EF90DF90CF90BF90AF900895411551054D
:102F600011F4862F84CF8BCFAB01682F70E080E007
:102F700090E0F4CFAB01BC0180E090E0EFCFCF92C6
:102F8000DF92EF92FF926B017C0197FF0AC08DE206
:102F90006EDFF094E094D094C094C11CD11CE11C6D
:102FA000F11C4AE0C701B601FF90EF90DF90CF908F
:102FB00066CF4115510511F4862F59CF4A3051057E
:102FC00009F4DDCF5CCFAB01BC01882777FD80958C
:102FD000982FEFCF8DE04BDF8AE049CFAB01BC01EA
:102FE00080E090E0BBDFF6CF8F929F92AF92BF92CE
:102FF000CF92DF92EF92FF92CF936B017C01B42EC0
:1030000020E030E0A9010F94901487FF06C08DE204
:103010002EDFF7FAF094F7F8F094C0E060E070E08B
:1030200080E09FE3CB1541F02DEC3CEC4CEC5DE3F4
:103030000F94CE16CF5FF6CF9B01AC01C701B6014E
:103040000F94B7136B017C010F9404154B015C01C5
:103050004AE015DFCC2381F1C501B4010F9430158E
:103060009B01AC01C701B6010F94B6136B017C0143
:103070008EE2FDDE20E030E040E251E4C701B6011F
:103080000F94CE166B017C010F94FF144B01AA2400
:1030900097FCA094BA2CC501B40171DFC501B4013D
:1030A0000F9432159B01AC01C701B6010F94B61302
:1030B0006B017C01C150F1F6CF91FF90EF90DF9052
:1030C000CF90BF90AF909F908F9008958DCFEF924B
:1030D000FF920F931F93CF93DF931F92CDB7DEB76D
:1030E000082F162FE2EBF6E084917F012FEFE21A12
:1030F000F20A882329F09983C1DEF7019981F4CF80
:10310000E02FF92F84917F019FEFE91AF90A8823B4
:1031100019F0B4DEF701F6CFE0EBF6E084917F0121
:10312000AFEFEA1AFA0A882319F0A8DEF701F6CF02
:103130006AE070E0812F90E046DF8AE00F90DF9137
:10314000CF911F910F91FF90EF9098CE8091051332
:1031500081111AC060914D0270914E02882777FD4F
:103160008095982F0F9432159B01AC0160912A1322
:1031700070912B1380912C1390912D130F94901418
:10318000881F8827881F089580E00895CF92DF92D6
:10319000EF92FF920F931F93CF93DF93EC010F9465
:1031A0001A0D0E811F81288539850115110521050C
:1031B0003105B9F53C85332309F440C02A853150E7
:1031C0003C8731E0320F3A874D85341301C01A86AF
:1031D000FE0134E0239FE00DF11D112406851785C3
:1031E000208931890A831B832C833D836B017C01F9
:1031F000C00ED11EE11CF11CCE82DF82E886F9866A
:103200008C819D81892BD1F01FB7F8942A813B8155
:1032100040E050E06C817D8185E20F94CF0F1FBFAD
:103220000DC06B017C01C01AD10AE20AF30AF7FC57
:1032300005C040981E821F8218861986DF91CF91A3
:103240001F910F91FF90EF90DF90CF9008950F9412
:103250001A0D6093DF047093E0048093E10490936F
:10326000E20408958091230290912402A091250206
:10327000B09126028093220590932305A093240504
:10328000B09325058091210290912202909321050F
:103290008093200584E690E090932202809321029F
:1032A000D6CF8091220590912305A0912405B0915D
:1032B00025058093230290932402A0932502B093C6
:1032C00026028091200590912105909322028093FF
:1032D0002102BDCF80E1EDEBF6E0ADECB6E0019070
:1032E0000D928A95E1F7089580E1EDECF6E0ADEB03
:1032F000B6E001900D928A95E1F70895CF92DF92A2
:10330000EF92FF920F931F93CF93DF93EB01FC019A
:1033100060817181828193812CE3C22ED12CE12CBA
:10332000F12CA70196010F94DA17162F072FCA0167
:10333000B901A70196010F94DA17F62EE72ECA01FC
:10334000B90128E130E040E050E00F94DA17FB01CA
:10335000C9016DE671E00F94B3179B014F2D5E2DEF
:1033600021153105D9F00F931F93EF92FF92FF9330
:10337000EF939F938F933F932F9384E499E09F93D0
:103380008F93DF93CF930F94B31C8DB79EB70E9698
:103390000FB6F8949EBF0FBE8DBF5BC00097C9F0FB
:1033A0000F931F93EF92FF92FF93EF939F938F934F
:1033B00084E399E09F938F93DF93CF930F94B31C93
:1033C000EDB7FEB73C960FB6F894FEBF0FBEEDBF4B
:1033D00040C03097B9F00F931F93EF92FF92FF9385
:1033E000EF9388E299E09F938F93DF93CF930F94AD
:1033F000B31C8DB79EB70A960FB6F8949EBF0FBE4A
:103400008DBF27C0452BA9F00F931F93EF92FF921A
:1034100080E299E09F938F93DF93CF930F94B31C37
:10342000EDB7FEB738960FB6F894FEBF0FBEEDBFEE
:1034300010C00F931F938CE199E09F938F93DF93BC
:10344000CF930F94B31C0F900F900F900F900F908D
:103450000F90DF91CF911F910F91FF90EF90DF9030
:10346000CF90089581548A3148F5482F50E0FA01F1
:1034700033E0F595E7953A95E1F7E356F44F20816F
:1034800030E0877002C0359527958A95E2F720FFD6
:1034900015C0FA01ED57F44F2081222339F08091B5
:1034A000A80B9091A90B820F911D02C080E090E0C3
:1034B0009093A50B8093A40B81E0089580E008957C
:1034C000D1DF882339F081E02091A40B3091A50B46
:1034D000232B09F480E008951F93CF93DF9380910D
:1034E000A40B9091A50B009701F1FC01EF01119144
:1034F000212F2F7D99F0153411F01536B9F7188268
:1035000060E070E08091A40B9091A50B0F9441189E
:103510001883562F472F382F292F0BC060E070E0FB
:10352000DF91CF911F910D94411850E040E030E0C1
:1035300020E0652F742F832F922FDF91CF911F9161
:1035400008958091A40B9091A50B009731F04AE06B
:1035500050E060E070E00D94A91960E070E0CB01EC
:1035600008958091A40B9091A50B009731F04AE04B
:1035700050E060E070E00D94DA1A60E070E0CB019A
:103580000895DFDF97FD0CC0DCDF6F3F710581051B
:10359000910509F014F4D5DF01C06FEF862F08956F
:1035A00080E008958091A40B9091A50B892B39F0B0
:1035B000E8DF91E0811101C090E0892F089581E05A
:1035C0000895EF92FF920F931F93CF93DF93EC0137
:1035D0007B018A016C854D8564130AC0E881F981FD
:1035E0000190F081E02DCE0119950E9409BBF2CF28
:1035F000F70120813181F801808191815B85FE0195
:1036000074E0579FE00DF11D11243E963183208315
:10361000938382836F5F6C8781E0850F841711F03D
:103620008B8701C01B86DF91CF911F910F91FF9077
:10363000EF900895AF92BF92CF92DF92FF920F93D7
:103640001F93CF93DF9300D01F92CDB7DEB7F82E34
:10365000662351F01092180410921404109215046D
:1036600010921604109217040F941A0D009114046E
:103670001091150420911604309117045B016C0120
:10368000A01AB10AC20AD30AD7FC40C0F7FE05C08F
:1036900004EC19E020E030E015C0E09118042F2D73
:1036A000332727FD30952C5F3F4F4E2F552747FD81
:1036B00050952417350754F1EF1554F300E911E044
:1036C00020E030E0DC01CB01800F911FA21FB31F6F
:1036D0008093140490931504A0931604B0931704D8
:1036E00080ED97E09A8389838CE291E09C838B83C1
:1036F000AE014F5F5F4FBE016D5F7F4F8FEA94E079
:1037000060DF809118048F5F809318040F900F90F2
:103710000F900F90DF91CF911F910F91FF90DF904D
:10372000CF90BF90AF9008950F931F93CF93DF93E7
:10373000CDB7DEB72C970FB6F894DEBF0FBECDBF66
:103740008091D5069091D606A091D706B091D80663
:103750004091D1065091D2066091D3067091D40663
:103760000091CD061091CE062091CF063091D00663
:1037700009871A872B873C874D835E836F83788701
:1037800089839A83AB83BC83AE014F5F5F4FBE01D9
:103790006B5F7F4FCE0109960E94989429ED36E029
:1037A000AE014F5F5F4FBE016B5F7F4FCE01099649
:1037B0000E9422A32C960FB6F894DEBF0FBECDBF99
:1037C000DF91CF911F910F9108958091A80680936A
:1037D000A9061092AA0608959091A806E92FF0E094
:1037E000E956FB4F80839F5F943018F49093A806AE
:1037F00002C01092A8068091AA068F5F8093AA0645
:103800000895CF93FC01C62F80818B3399F080916E
:10381000AA06843078F42091A80630E6239FC001E0
:103820001124BF01885D9A4F0F94841C8C2FD4DF24
:1038300081E001C080E0CF9108950F931F93CF9353
:10384000DF93EC01DEDF8823B1F0E6E5F5E184915A
:103850008F010F5F1F4F882319F010DBF801F7CF9E
:10386000BE0180E79EE00E9474A582E207DB8AE049
:1038700005DB81E001C080E0DF91CF911F910F91C6
:103880000895DF92EF92FF920F931F93CF93DF93F0
:10389000CDB7DEB76E970FB6F894DEBF0FBECDBFC3
:1038A00060912605709127056115710559F14DE16B
:1038B00050E08E010F5F1F4FC8010F94131C1E8E26
:1038C000F8017F01E01AF10AD190DD2019F08AE0B9
:1038D000D812F7CFF801EE0DFF1D108260E0C8018D
:1038E000ACDF882379F0DD20B1F08FEFE81AF80A19
:1038F00080912605909127058E0D9F1D9093270599
:103900008093260581E02091260530912705232B01
:1039100029F480E003C080E090E0F0CF6E960FB60F
:10392000F894DEBF0FBECDBFDF91CF911F910F91F5
:10393000FF90EF90DF9008959093270580932605E0
:10394000A0CF9898A09A08956C98749A08956BE007
:1039500070E084E994E00E9438A884E994E00E9431
:103960003DA86AE570E084E994E00C944EA9CF92FA
:10397000DF92EF92FF920F931F93CF93DF9380918B
:10398000E006882309F4D5C08091AA06811102C0FF
:1039900010921A04FF24F39440915C0950915D0940
:1039A00060915E0970915F09809158099091590961
:1039B000A0915A09B0915B09481759076A077B071C
:1039C00008F4F12CC0E0D0E0EE24E39440E6D42EDD
:1039D0008091AA06843008F0ACC0F110AAC0809192
:1039E0001A048111A6C08091B3089091B408A091E7
:1039F000B508B091B60880935C0990935D09A093D7
:103A00005E09B0935F098BEA98E00E94A55FC82E1B
:103A1000FF24F39400915C0910915D0920915E09E7
:103A200030915F09409158095091590960915A09A4
:103A300070915B090417150726073707C0F4F12CAE
:103A40008F3F2FEF920761F12AE0821709F445C0FA
:103A50002DE0821709F441C023E2821719F02AE30E
:103A600082134EC02091190421114AC031C08EED3D
:103A700096E00E941B758091E006811127C0E1E568
:103A8000FDE084918F010F5F1F4F882319F0F6D955
:103A9000F801F7CF61E08EED96E00E947D7018C0CE
:103AA000ECE5F5E184918F010F5F1F4F882319F03A
:103AB000E5D9F801F7CFE2E4FDE084918F010F5FD3
:103AC0001F4F882329F0DAD9F801F7CFC0E0D0E002
:103AD00083E2C81202C0E0921A04109219042097DF
:103AE00009F476CF8091A806D89EC00DD11D11246F
:103AF000C85DDA4F188280E06FDEC0E0D0E068CFAA
:103B0000CF35D10508F064CF2BE3C21202C0E0929A
:103B100019042091190421115BCF9091A806FE0190
:103B2000D99EE00DF11D1124E85DFA4F80832196A6
:103B30004FCFDF91CF911F910F91FF90EF90DF90CA
:103B4000CF900895FF920F931F93CF93DF93EC01D3
:103B500084E5B6DC882321F114DDF82E1816ECF488
:103B6000E6E5F5E184918F010F5F1F4F882319F07F
:103B700085D9F801F7CF8DE481D96AE070E0CE01F4
:103B8000F9D96F2D772767FD70958FE29DE00E9430
:103B90009CA58AE073D981E008C08093AE0404C07C
:103BA0008091E7048093AE0480E0DF91CF911F9174
:103BB0000F91FF900895EF92FF920F931F93CF9371
:103BC000DF93EC018C01000F111F000F111FC801C2
:103BD00088509B4F7C01F801EC5FFA4FD801A05F41
:103BE000BA4F2D913D914D915C916081718182819F
:103BF00093810F94B713F70160837183828393835A
:103C00000055114FF8014591559165917491FE0150
:103C1000EE0FFF1FEE0FFF1FDF01A451BB4F4D93AF
:103C20005D936D937C931397EC55F14F45915591AE
:103C300065917491CC0FDD1FCC0FDD1FCB5EDD4F86
:103C4000488359836A837B83DF91CF911F910F91C2
:103C5000FF90EF900895EF920F931F93CF93DF9310
:103C6000CDB7DEB72C970FB6F894DEBF0FBECDBF31
:103C7000E090E7048091D5069091D606A091D706F2
:103C8000B091D8064091D1065091D2066091D306EA
:103C90007091D4060091CD061091CE062091CF06EA
:103CA0003091D00609871A872B873C874D835E8326
:103CB0006F83788789839A83AB83BC83AE014F5F20
:103CC0005F4FBE016B5F7F4FCE0109960E949894B3
:103CD00003E212E029ED36E0AE014F5F5F4FBE0117
:103CE0006B5F7F4FCE0109960E9415A02C960FB6F0
:103CF000F894DEBF0FBECDBFDF91CF911F910F9122
:103D0000EF900895EF920F931F93CF93DF93CDB76A
:103D1000DEB760970FB6F894DEBF0FBECDBF6D87DC
:103D20007E878F87988BE090E7048091C5069091FD
:103D3000C606A091C706B091C8064091C106509131
:103D4000C2066091C3067091C4060091BD06109131
:103D5000BE062091BF063091C00609871A872B87BF
:103D60003C874D835E836F83788789839A83AB8397
:103D7000BC83AE014F5F5F4FBE016B5F7F4FCE01D3
:103D800009960E9498948E01035F1F4F29EC36E03C
:103D9000AE014F5F5F4FBE016B5F7F4FCE01099653
:103DA0000E9415A060960FB6F894DEBF0FBECDBF7F
:103DB000DF91CF911F910F91EF9008952F923F9235
:103DC0004F925F926F927F928F929F92AF92BF922B
:103DD000CF92DF92EF92FF920F931F93CF93DF93D7
:103DE00000D0CDB7DEB75C014B018A013B832A834B
:103DF0004090230250902402609025027090260289
:103E0000F9013080D180E280F38020E030E0A90128
:103E1000632D7D2DC7010F949014811107C0E4EC30
:103E2000FEE0C590D590E590F49005C0832D9D2DC2
:103E3000D7016C017D01F8012081318142815381DC
:103E40006091D5067091D6068091D7069091D806DC
:103E50000F94901487FF16C0C0922302D0922402C0
:103E6000E0922502F0922602F80180819181A281E0
:103E7000B3818093D5069093D606A093D706B093CE
:103E8000D806E9DEEA81FB8120803180F281F98366
:103E9000EA81FB81F381FA8320E030E0A901B101DE
:103EA00089819F2F0F949014811109C020900B02DB
:103EB00030900C0220910D0230910E0202C0298137
:103EC0003A81C101D9018093230290932402A093E7
:103ED0002502B0932602F50180819181A281B381F0
:103EE0008093CD069093CE06A093CF06B093D006D4
:103EF000F40180819181A281B3818093D106909356
:103F0000D206A093D306B093D406A5DEF801208193
:103F10003181428153816091D5067091D60680919E
:103F2000D7069091D8060F9493161816B4F4C09241
:103F30002302D0922402E0922502F0922602F80198
:103F400080819181A281B3818093D5069093D6061A
:103F5000A093D706B093D8067EDE0E94E9B24092C5
:103F600023025092240260922502709226020F9042
:103F70000F900F90DF91CF911F910F91FF90EF90D5
:103F8000DF90CF90BF90AF909F908F907F906F9079
:103F90005F904F903F902F9008959B01AC0161ED91
:103FA00076E08DEC96E00ACF9A0145ED56E006CF1B
:103FB000FF920F931F93CF93DF93882329F0C09133
:103FC000BA0681E0C82701C0C0E0662329F0D0917D
:103FD000BB0681E0D82701C0D0E0442329F0F0904F
:103FE000BC0681E0F82601C0F12CC11105C0D11139
:103FF00003C0FF2009F47BC0E6E5F5E184918F0161
:104000000F5F1F4F882321F00E943E17F801F6CF63
:10401000E9E2FDE084918F010F5F1F4F882321F0BB
:104020000E943E17F801F6CFCC2361F0E7E2FDE0F5
:1040300084918F010F5F1F4F882321F00E943E174C
:10404000F801F6CFDD2361F0E5E2FDE084918F0118
:104050000F5F1F4F882321F00E943E17F801F6CF13
:10406000F11003C0EBE1FDE00CC0E3E2FDE0849160
:104070008F010F5F1F4F8823A9F30E943E17F8019D
:10408000F6CF84918F010F5F1F4F882321F00E948C
:104090003E17F801F6CFFF2019F044EC52E002C0C1
:1040A0004BE353E0DD2319F026EC32E002C02BE3B2
:1040B00033E0CC2319F088EC92E002C08BE393E06C
:1040C0005F934F933F932F939F938F9389E09DE04E
:1040D0009F938F931F920E94C2CC8DB79EB7099673
:1040E0000FB6F8949EBF0FBE8DBF81E001C080E087
:1040F000DF91CF911F910F91FF900895BC0184E94A
:1041000094E00E944EA967E771E080E090E00D9492
:104110003B02CF92DF92EF92FF921F93CF93DF93F8
:10412000CDB7DEB72C970FB6F894DEBF0FBECDBF6C
:10413000182F80917B0B811709F468C080E090E014
:10414000A0E7B1E48D839E83AF83B887C090AA04B3
:10415000D090AB04E090AC04F090AD0420E030E0EF
:10416000A901C701B6010F94901487FF0CC0A701E5
:10417000960160E070E080E791E40F94B6136D83E0
:104180007E838F8398872091D5063091D606409103
:10419000D7065091D8066D817E818F8198850F94C6
:1041A0009316181654F419821A821B821C82BE01BF
:1041B0006F5F7F4FCE010596F0DE4091CD065091A6
:1041C000CE066091CF067091D00649875A876B87DB
:1041D0007C874091D1065091D2066091D3067091B0
:1041E000D4064D835E836F83788719821A821B827F
:1041F0001C829E012F5F3F4F45ED56E0BE016B5F75
:104200007F4FCE010996DADD10937B0B80E02C9670
:104210000FB6F894DEBF0FBECDBFDF91CF911F91D7
:10422000FF90EF90DF90CF9008958F929F92AF9282
:10423000BF92CF92DF92EF92FF920F931F93CF9393
:10424000DF93C1E0AC2EC3E0BC2EDDEBED2ED6E05B
:10425000FD2E0DEC16E088EFC82E84E0D82EC0E0CD
:10426000D0E0F50181915F01FDD8882359F134D95F
:10427000FE01E45EFA4F2081211104C02091E60482
:10428000222331F0F801208131814281538103C022
:1042900020E030E0A9010F94B713C33049F0F601D4
:1042A00020813181428153810F94B613FB0102C0FA
:1042B000E62FF72FAF01BC01F701408351836283E2
:1042C00073830AC0F80180819181A281B381F701D3
:1042D00080839183A283B3832196F4E0EF0EF11CD7
:1042E0000C5F1F4F84E0C80ED11CC430D10509F00B
:1042F000B8CF86E4E5D88823B9F0EED820E030E0E6
:10430000A9010F94931618167CF4E6D820E030E04B
:1043100040E752E40F9497146093230270932402B1
:104320008093250290932602DF91CF911F910F91E8
:10433000FF90EF90DF90CF90BF90AF909F908F90C5
:104340000895CF92DF92EF92FF92CF93DF930F9475
:104350001A0D6B017C0180910A02882309F468C060
:1043600020919204309193042115310509F460C025
:1043700080918E0490918F04A0919004B09191044B
:10438000B701A601481B590B6A0B7B0B77FD63C075
:104390002330310519F13CF4213031050CF448C0CB
:1043A000E6E5F5E107C02430310509F041C0E6E556
:1043B000F5E12AC08491EF012196882321F00E9423
:1043C0003E17FE01F7CFECE8FCE08491EF01219667
:1043D000882371F10E943E17FE01F7CFE6E5F5E173
:1043E0008491EF012196882321F00E943E17FE015F
:1043F000F7CFE5E7FCE08491EF0121968823C1F037
:104400000E943E17FE01F7CF8491EF012196882389
:1044100021F00E943E17FE01F7CFEDE5FCE084910C
:10442000EF012196882321F00E943E17FE01F7CF6D
:1044300020910A0230E0A8EEB3E00F941E186C0D34
:104440007D1D8E1D9F1D60938E0470938F0480933D
:10445000900490939104DF91CF91FF90EF90DF90C3
:10446000CF900895CF93DF93CDB7DEB727970FB6E0
:10447000F894DEBF0FBECDBF41E061E081E098DD82
:10448000811133C080E51CD8882311F05AD801C0AF
:1044900060E06F8383E514D8882311F052D801C0FF
:1044A0006CE06E8384E50CD8882311F04AD801C0F3
:1044B00063E06D8382E504D8882311F00DD804C031
:1044C00060E070E080ED90E469837A838B839C8365
:1044D0009E012B5F3F4FAE014F5F5F4FBE016A5F92
:1044E0007F4FCE0107960E94938D27960FB6F894C2
:1044F000DEBF0FBECDBFDF91CF910895CF93DF9385
:10450000CDB7DEB72D970FB6F894DEBF0FBECDBF87
:1045100041E061E081E04CDD811129C080E090E064
:10452000A6E1B3E489839A83AB83BC8380E090E007
:10453000A1E9B3E48D839E83AF83B88780E090E0E8
:10454000A0EAB1E489879A87AB87BC8780E50E949F
:10455000601A882319F00E94A11A01C060E06D87DB
:10456000BE016F5F7F4FCE010D960E943B8E2D9650
:104570000FB6F894DEBF0FBECDBFDF91CF91089587
:10458000EF92FF921F93CF93DF931F92CDB7DEB7C9
:10459000182FEFE0FCE084917F012FEFE21AF20A7E
:1045A000882331F099830E943E17F7019981F3CF58
:1045B000E12FF92F84917F019FEFE91AF90A8823EF
:1045C00021F00E943E17F701F5CFE6EFFBE0849162
:1045D0007F01AFEFEA1AFA0A882321F00E943E1702
:1045E000F701F5CF0F90DF91CF911F91FF90EF90E2
:1045F0000895CF92DF92EF92FF92CF93DF936A01FB
:104600007B01C9EDD6E0E091E70424E0E29FF001F0
:104610001124EC5CFD4F2081318142815381FC01EA
:1046200060817181828193810F9497149B01AC0109
:10463000688179818A819B810F94B713688379831C
:104640008A839B830E947419C701B6015BDBDF91EB
:10465000CF91FF90EF90DF90CF900C94E9B20F9341
:104660001F93CF93DF93CDB7DEB769970FB6F8945A
:10467000DEBF0FBECDBF8DEC94E00E949EB46E8B6A
:104680007F8B888F998FBE016F5F7F4FCE014696DB
:104690000E947E1960E0CE0101960E9460CCE6E5A2
:1046A000F5E184918F010F5F1F4F882321F00E9455
:1046B0003E17F801F6CFBE016F5F7F4F88E599E0A6
:1046C0000E9474A58AE00E943E1769960FB6F8947E
:1046D000DEBF0FBECDBFDF91CF911F910F91089527
:1046E000CF938091E00681110E94E9B28091E106AA
:1046F0008823B1F180E50E94601A882319F00E9496
:10470000D21A03C080E50E94321AC82F6091A60B0E
:104710007091A70B282F41E08EED96E00E94CB719F
:1047200083E50E94601A882381F00E94A11AAB01E0
:10473000BC0140935C0950935D0960935E097093DE
:104740005F098BEA98E00E9472608EED96E00E940D
:104750004B6EC11105C08DEC94E0CF910C94CBB49D
:10476000CF9108950F931F93CF93DF9383E50E941A
:10477000601A882309F44DC00E94C11A082F80E5F1
:104780000E94601A882331F00E94A11A77FD41C06F
:10479000EB0102C0CDE0D0E08C2FE5EEF8E0949183
:1047A000891731F0319699E0ED30F907C1F716C05D
:1047B000ECE5F5E18491EF012196882321F00E9438
:1047C0003E17FE01F7CFEDE0F9E08491EF0121966D
:1047D0008823F9F00E943E17FE01F7CF61E08C2F8D
:1047E0000F94F30E602F8C2F0F942C0F10E0B80154
:1047F0008C2F0F94DB0DC730D10529F41093EB04F7
:104800000093EA0406C0299721F41093E904009369
:10481000E804DF91CF911F910F91089588E690E011
:1048200091D9811151C08091DD0683FD4DC083E592
:104830000E94601A882309F445C00E946C1A0F94E4
:10484000FF14709323136093221380E00E94B0B88A
:104850000E946C1A20E030E044EB52E40F94901474
:1048600018164CF08DEC94E00E945FB460E086ED89
:1048700098E00E9470CC0E946C1A20912A1330910B
:104880002B1340912C1350912D130F94931618163F
:10489000CCF48AEC92E09F938F938091AE0490E0E9
:1048A00001969F938F938FEC98E09F938F931F9225
:1048B0000E94C2CC8DB79EB707960FB6F8949EBFE4
:1048C0000FBE8DBF0C9440A50895DF92EF92FF922A
:1048D0000F931F93CF93DF9383E50E94321A8823AF
:1048E00059F083E50E94601A882319F00E94C11ACA
:1048F00001C080E08093DD06E6E5F5E18491EF01FB
:104900002196882321F00E943E17FE01F7CFE8ECA4
:10491000F8E08491EF012196882321F00E943E1750
:10492000FE01F7CF8091DD06882381F10EEB18E0C0
:10493000C0E0D0E020E08091DD0690E00C2E02C0C7
:10494000959587950A94E2F780FF17C0DD24D394EC
:10495000D20E222319F08CE20E943E17F801259115
:104960003491F90184917901FFEFEF1AFF0A88234E
:1049700029F00E943E179701F4CFD22E21960E5FA8
:104980001F4FC530D10569F02D2DD5CFEAEBF8E0EA
:104990008491EF012196882321F00E943E17FE01A9
:1049A000F7CF8AE0DF91CF911F910F91FF90EF90A9
:1049B000DF900C943E17CF93DF9383E50E94601A3B
:1049C000882351F00E94C11A8D3308F08CE3809344
:1049D0000A02DF91CF910895E6E5F5E18491EF01B8
:1049E0002196882321F00E943E17FE01F7CF4091C7
:1049F0000A0250E060E070E084E898E00E940FA6B0
:104A00008AE0DF91CF910C943E17CF93DF9383E53B
:104A10000E94601A882319F00E94A11A02C060E067
:104A200070E0EB01DD27C230D105B8F0ECE5F5E12F
:104A30008491EF012196882321F00E943E17FE0108
:104A4000F7CFEAE8F6E08491EF012196882309F494
:104A50004DC00E943E17FE01F6CF88E40E94601A06
:104A60008823A1F00E94A11A643B710534F0663FCF
:104A700071052CF065EF70E002C064EB70E0FE01A0
:104A8000EE0FFF1FE752FC4E7183608386E40E94A5
:104A9000601A882399F00E94A11A6F3F710519F0DE
:104AA00014F06FEF70E0FE01EE0FFF1FEF52FC4EAF
:104AB00077FF02C060E070E07183608382E40E944F
:104AC000601A882399F00E94A11A6530710534F0AC
:104AD000683871052CF067E870E002C065E070E0AE
:104AE000CC0FDD1FCB52DC4E79836883DF91CF91F1
:104AF00008957F928F929F92AF92BF92CF92DF9252
:104B0000EF92FF920F931F93CF93DF9301E013E097
:104B1000C6E8DCE0712CF80181918F010E94321A05
:104B2000882309F46CC0F3E07F1263C00E946C1A02
:104B30006B017C0120E030E040EA51E40F949014D6
:104B400087FF4EC0A70196016091920C7091930C63
:104B50008091940C9091950C0F9497144B015C01EB
:104B60009B01AC016091360C7091370C8091380C30
:104B70009091390C0F94CE166093360C7093370CCD
:104B80008093380C9093390CA50194016091A20C8C
:104B90007091A30C8091A40C9091A50C0F94CE164B
:104BA0006093A20C7093A30C8093A40C9093A50C1B
:104BB00060916A0C70916B0C80916C0C90916D0CF3
:104BC0000F943015A50194010F94CE160F9404157F
:104BD00060936A0C70936B0C80936C0C90936D0CCB
:104BE000C092920CD092930CE092940CF092950C9F
:104BF00006C00E946C1A688379838A839B837394AE
:104C0000249684E0781287CFDF91CF911F910F9186
:104C1000FF90EF90DF90CF90BF90AF909F908F90DC
:104C20007F900C941CA5CF93DF93E3EFFBE084917E
:104C3000EF012196882321F00E943E17FE01F7CF55
:104C40002091F8043091F9044091FA045091FB044A
:104C50006091CD067091CE068091CF069091D006DE
:104C60000F94B71342E050E00E946618EFEEFBE0AD
:104C70008491EF012196882321F00E943E17FE01C6
:104C8000F7CF2091FC043091FD044091FE04509137
:104C9000FF046091D1067091D2068091D306909165
:104CA000D4060F94B71342E050E00E946618EBEE72
:104CB000FBE08491EF012196882321F00E943E17AA
:104CC000FE01F7CF209100053091010540910205CA
:104CD000509103056091D5067091D6068091D70654
:104CE0009091D8060F94B71342E050E00E946618E6
:104CF000E7EEFBE08491EF012196882321F00E94EA
:104D00003E17FE01F7CF6091D9067091DA068091C7
:104D1000DB069091DC0642E050E00E946618DF91CD
:104D2000CF910C94DEB32F923F924F925F926F928D
:104D30007F928F929F92AF92BF92CF92DF92EF922B
:104D4000FF920F931F93CF93DF930E94E9B241E04C
:104D5000C42E43E0D42E50E1E52E55E0F52E00E0C0
:104D600010E0C0E0D0E0312CF60181916F010E948B
:104D7000601A882309F453C00E946C1A2B013C016D
:104D80002C2EF3E0CF1759F0F801E850FB4F2081AB
:104D90003181428153810F94B6132B013C01F801FC
:104DA000E353F94F2081318142815381B201C30124
:104DB0000F94B6134B015C012DEB37E346E855EB3E
:104DC0000F94931687FD0AC02DEB37E346E855E3B1
:104DD000C501B4010F94901418160CF583E0281245
:104DE0000DC0C201D3018093D9069093DA06A09337
:104DF000DB06B093DC063324339411C0A501940183
:104E0000F70160817181828193810F94B713F7015B
:104E10006083718382839383CE010E94DB1D219680
:104E2000F4E0EF0EF11C0C5F1F4FC430D10509F008
:104E30009BCF332031F069ED76E083E090E00E9473
:104E400047A4DF91CF911F910F91FF90EF90DF90DA
:104E5000CF90BF90AF909F908F907F906F905F901A
:104E60004F903F902F90DFCECF93DF93EEE6F7E0A9
:104E70008491EF012196882321F00E943E17FE01C4
:104E8000F7CF60E08EE597E00E94671861E087E564
:104E900097E00E94671861E08CE497E00E94671831
:104EA00061E08CE397E00E94671860E083E397E09D
:104EB0000E94671861E089E297E00E94671861E04C
:104EC0008FE197E00E94671861E087E197E00E9418
:104ED000671861E089E097E00E94671860E08BEF57
:104EE00096E00E94671860E08CEE96E00E946718DA
:104EF00060E08EED96E00E94671860E088EC96E036
:104F00000E94671860E087EB96E0DF91CF910C94E8
:104F10006718CF93DF9385E40E94601A882319F005
:104F20000E94D21A03C085E40E94321A882359F0E5
:104F3000E6E5F5E18491EF012196882321F00E94B6
:104F40003E17FE01F7CF81E40E94601A882319F012
:104F50000E94D21A03C081E40E94321A882359F0B9
:104F6000ECEAF6E08491EF012196882321F00E947B
:104F70003E17FE01F7CFC091A60BD091A70B8991E8
:104F8000882319F00E943E17FACF8AE0DF91CF9173
:104F90000C943E17CF9388EC90E00E94A21D8111E3
:104FA00040C084E40E94321A8823C1F10E946C1A26
:104FB000C1E020E030E0A9010F949014811101C0FC
:104FC000C0E0C093AA0BCC2349F10E946C1AE09177
:104FD000AE0424E0E29FF0011124EE58F34F608309
:104FE00071838283938320E030E0A9016091720C89
:104FF0007091730C8091740C9091750C0F949014B7
:1050000081110CC080E090E0A0EEBFE38093720CB1
:105010009093730CA093740CB093750CCF910C9477
:105020003394CF91089583E50E94321A8823D9F0F2
:105030000E946C1AAB01BC014093420C5093430C8C
:105040006093440C7093450C40933A0C50933B0C86
:1050500060933C0C70933D0C82E696E00E94D3A5D1
:105060008AE00E943E1780E50E94321A882399F058
:105070000E946C1AAB01BC014093420C5093430C4C
:105080006093440C7093450C85E496E00E94D3A590
:105090008AE00E943E1782E50E94321A882399F026
:1050A0000E946C1AAB01BC0140933E0C50933F0C24
:1050B0006093400C7093410C86E296E00E94D3A569
:1050C0008AE00E943E1784E50E94321A882399F0F4
:1050D0000E946C1AAB01BC0140933A0C50933B0CFC
:1050E00060933C0C70933D0C88E096E00E94D3A541
:1050F0008AE00C943E17089583E50E94321A8823B3
:1051000051F00E946C1A6093460C7093470C809388
:10511000480C9093490C84E50E94321A882351F080
:105120000E946C1A6093260C7093270C8093280CB5
:105130009093290C82E40E94321A882351F00E9435
:10514000B11A60934A0C70934B0C80934C0C909363
:105150004D0C88E50E94321A882351F00E946C1A87
:1051600060932A0C70932B0C80932C0C90932D0C35
:1051700089E50E94321A882351F00E946C1A6093CC
:105180002E0C70932F0C8093300C9093310C8AE589
:105190000E94321A882351F00E946C1A6093320CDC
:1051A0007093330C8093340C9093350C85E40E94FB
:1051B000321A882351F00E946C1A6093360C709357
:1051C000370C8093380C9093390C0895CF93DF936C
:1051D000E6E5F5E18491EF012196882321F00E9414
:1051E0003E17FE01F7CF83E50E94321A882321F093
:1051F0000E94D21A80931402E8EFF5E08491EF0147
:105200002196882321F00E943E17FE01F7CF80915E
:105210001402882319F0E4EFF5E002C0E0EFF5E0B6
:105220008491EF012196882321F00E943E17FE0110
:10523000F7CFE8EEF5E08491EF012196882321F085
:105240000E943E17FE01F7CF2091F8043091F90437
:105250004091FA045091FB046091EC047091ED04CC
:105260008091EE049091EF040F94B713AB01BC0151
:1052700086EE95E00E94D3A52091FC043091FD04B8
:105280004091FE045091FF046091F0047091F1048C
:105290008091F2049091F3040F94B713AB01BC0119
:1052A00083EE95E00E94D3A5209100053091010581
:1052B00040910205509103056091F4047091F5044A
:1052C0008091F6049091F7040F94B713AB01BC01E1
:1052D00080EE95E00E94D3A5E8EDF5E08491EF0122
:1052E0002196882321F00E943E17FE01F7CF2091DE
:1052F000F8043091F9044091FA045091FB04609154
:1053000015027091160280911702909118020F9465
:10531000B713AB01BC0186ED95E00E94D3A52091A7
:10532000FC043091FD044091FE045091FF04609113
:10533000190270911A0280911B0290911C020F9425
:10534000B713AB01BC0183ED95E00E94D3A520917A
:1053500000053091010540910205509103056091CF
:105360001D0270911E0280911F02909120020F94E5
:10537000B713AB01BC0180ED95E00E94D3A58AE094
:10538000DF91CF910C943E170F931F93CF93DF9330
:105390008DED90E00E94A21D81113BC083E50E942B
:1053A000601A8823B1F1C091AE04D0E00E94A11A26
:1053B000FE01EE0FFF1FE85CFD4F71836083E091FB
:1053C000AE04F0E0EF01CC0FDD1FCC0FDD1F8E012E
:1053D0000C5C1D4FEE0FFF1FE85CFD4F608171817B
:1053E000882777FD8095982F0F9432152AE037EDA6
:1053F00043E25CE30F94CE16C259D34F2881398122
:105400004A815B810F94CE16F80160837183828399
:105410009383DF91CF911F910F910895CF92DF92E7
:10542000EF92FF92CF93DF9380E50E94321A882398
:1054300009F458C00E94A11A6B017C016115710525
:10544000A1F583E50E94321A882361F00E94A11A17
:1054500084E994E0DF91CF91FF90EF90DF90CF90BF
:105460000C944EA9E6E5F5E18491EF01219688239D
:1054700021F00E943E17FE01F7CF60E070E088EC5B
:1054800095E00E949CA584E994E00E9403A9BC01D8
:1054900085EC95E00E949CA58AE0DF91CF91FF907A
:1054A000EF90DF90CF900C943E17ECE5F5E18491FE
:1054B000EF012196882321F00E943E17FE01F7CFCD
:1054C000B6018EEB95E00E949CA5EFEAF5E0849191
:1054D0007F019FEFE91AF90A882321F00E943E1705
:1054E000F701F5CFDF91CF91FF90EF90DF90CF9054
:1054F0000895CF93DF9300D01F92CDB7DEB783E539
:105500000E94601A882319F00E94A11A02C064E068
:1055100071E07C836B8380E50E94601A882339F0F8
:105520000E94A11A693823E1720730F402C068EEC4
:1055300073E07A83698304C088E893E19A8389835E
:10554000AE014D5F5F4FBE016F5F7F4F8FEA94E00A
:105550000E94E11A0F900F900F900F90DF91CF9162
:105560000895CF93DF9385E40E94601A811110C0E3
:1055700080E50E94321A882391F00E946C1A609391
:105580001A1370931B1380931C1390931D1307C061
:105590000E94C11A882361F3ECE5F5E16DC089E44E
:1055A0000E94321A882381F00E946C1A2CEA35EC92
:1055B00047E25EE30F94CE166093161370931713B1
:1055C000809318139093191384E40E94321A88234D
:1055D00081F00E946C1A2CEA35EC47E25EE30F94EE
:1055E0009714609312137093131380931413909372
:1055F0001513E6E5F5E18491EF012196882321F06A
:105600000E943E17FE01F7CF40911A1350911B13D1
:1056100060911C1370911D138BEA95E00E94D3A535
:105620002CEA35EC47E25EE3609116137091171394
:1056300080911813909119130F949714AB01BC012A
:1056400087EA95E00E94F1A52CEA35EC47E25EE39B
:10565000609112137091131380911413909115138C
:105660000F94CE16AB01BC0183EA95E00E94F1A530
:1056700010C00E943E17FE018491EF012196811116
:10568000F8CFC5EDD2E08991882319F00E943E172A
:10569000FACF8AE0DF91CF910C943E17CF93DF933E
:1056A00083E50E94321AC82F882371F00E946C1A79
:1056B0000F94FF1470934E0260934D0221E0672B0C
:1056C00009F020E02093051380E50E94321A882318
:1056D00069F080914D0290914E02892B19F00E9441
:1056E000D21A01C081E0809305132DC0C1112BC0D7
:1056F000E6E5F5E18491EF012196882321F00E94EF
:105700003E17FE01F7CF80910513882319F065E25B
:1057100073E002C066EE72E080E995E00E9474A535
:1057200060914D0270914E028FE795E00E949CA51A
:10573000EBE7F5E08491EF012196882321F00E94A8
:105740003E17FE01F7CFDF91CF910895CF92DF9200
:10575000EF92FF920F931F93CF93DF931F921F92AD
:10576000CDB7DEB785E40E94601A882321F00E943D
:10577000A11A6B0102C0C12CD12C83E40E94601AD3
:10578000882321F00E94A11A162F01C015E085E59B
:105790000E94601A882319F00E94D21A03C085E57E
:1057A0000E94321A082FE12CF12CD7FE03C02CE8FE
:1057B00092E402C026E193E483E529839A830E9460
:1057C000601A29819A81882321F00E946C1A7B013A
:1057D000282F392FB701C9010F94FF14C114D10428
:1057E00011F41092AE04882777FD8095982F0F94BE
:1057F0003215212F4C2D0E94C6BE0F900F90DF91C5
:10580000CF911F910F91FF90EF90DF90CF9008956F
:105810002F923F924F925F926F927F928F929F92C0
:10582000AF92BF92CF92DF92EF92FF920F931F93AE
:10583000CF93DF93CDB7DEB760970FB6F894DEBF96
:105840000FBECDBF41E061E081E00E94D81F811111
:10585000D7C028E9A22E2EE0B22E3DEC232E36E052
:10586000332E4DE7842E4EE0942E8E010F5F1F4F96
:10587000F5016591759185919491F1014190519057
:10588000619071901F01A30192010F94B6136B01F7
:105890007C0120E030E040EA51EC0F94931687FD44
:1058A00010C020E030E040EA51E4C701B6010F9497
:1058B0009014181634F0F801C082D182E282F3828B
:1058C0000DC0F40184911816B4F777FA709477F844
:1058D0007094F8014082518262827382F801C19013
:1058E000D190E190F1908F0120E030E040EA51EC5E
:1058F000C701B6010F94931687FF03C0ECE5F5E1ED
:105900000BC020E030E040EA51E4C701B6010F943B
:105910009014181624F5F2CF84918F010F5F1F4F5A
:10592000882321F00E943E17F801F6CFE3E1F5E06D
:1059300084918F010F5F1F4F882321F00E943E1733
:10594000F801F6CF85E095E00E94DFCC88E290E098
:105950009E878D8788EC90E0988B8F8747C0F4E016
:10596000AF0EB11C8FEF881A980A94EAA9169EE030
:10597000B90609F07DCF94E0E92E95E0F92EFE01FD
:1059800031966F0100E010E0F60141915191619173
:1059900071916F01F70141935193619371937F016D
:1059A000C8010E94DB1D0F5F1F4F0330110561F717
:1059B0003AD960E085EF94E00E9470CC83E992E0F0
:1059C0009E878D8704E610E0188B0F87AE01435F3A
:1059D0005F4FBE01615F7F4F8FEA94E00E94E11A42
:1059E0008AEB92E09E878D87188B0F87AE01435F0D
:1059F0005F4FBE01615F7F4F8FEA94E00E94E11A22
:105A000060960FB6F894DEBF0FBECDBFDF91CF9189
:105A10001F910F91FF90EF90DF90CF90BF90AF90CC
:105A20009F908F907F906F905F904F903F902F90BE
:105A30000895CF92DF92EF92FF92E6E5F5E184912F
:105A40007F019FEFE91AF90A882321F00E943E178F
:105A5000F701F5CFE6EEF4E084917F019FEFE91ABC
:105A6000F90A882321F00E943E17F701F5CF8AE555
:105A70000E94321A882359F10E946C1A6B017C0132
:105A800020E030E040EA51EC0F94931687FD0AC005
:105A900020E030E040EA51E4C701B6010F949014D1
:105AA00018166CF4EDECF4E084917F019FEFE91A95
:105AB000F90A8823F9F00E943E17F701F5CFC0924A
:105AC000AA04D092AB04E092AC04F092AD044091F1
:105AD000AA045091AB046091AC047091AD048AECBF
