:100000000C9463170C9494170C9494170C949417F5
:100010000C9494170C9494170C9494170C949417B4
:100020000C9494170C9494170C9494170C949417A4
:100030000C9494170D94DF160C9494170C94941749
:100040000C9494170C94A0B70C9494170C949417D8
:100050000C9494170C9494170C9440C30D94AC100A
:100060000C9494170C942F290C9494170C949417B7
:100070000C9494170C9494170C9494170C94941754
:100080000C945FAC0C9494170C9494170C949417E4
:100090000C9494170C9494170C9494170C94941734
:1000A0000C9494170C9494170C948CAC0C94941797
:1000B0000C9494170C9494170C9494170C94B9AC5A
:1000C0000C9494170C9494170C9494170C94941704
:1000D0000C9494170C9494170C9494170C949417F4
:1000E0000C9494179ACCA3CCACCCB5CCBECCD9CCC8
:1000F000E6CCEFCCC7CCD0CC0801FE00CA001C0176
:100100000001E8002C01C800F00014012601C6001F
:1001100004011801E800F600F4002201EA00E00002
:10012000FA00E200E400DC000E01EC0024011E01F4
:1001300020010601CE00EE00DC00120116011A01BA
:10014000084AD73B3BCE016E84BCBFFDC12F3D6C3E
:1001500074319ABD56833DDA3D00C77F11BED9E4A4
:10016000BB4C3E916BAAAABE000000803F05A84C84
:10017000CDB2D44EB93836A9020C50B99186880850
:100180003CA6AAAA2ABE000000803F000D943112AE
:100190000D940B120D94E5110D9465130D94B71287
:1001A0000D9433060D9446070D94DB080D942B092E
:1001B0000D944D010D944A080D94CE120D94BB047C
:1001C0000D9497120D948A120D9490120D94C807F5
:1001D0000D9472120D9494120D949F120D94BB12F3
:1001E0000D9413120D94A7100D945E120D945412D9
:1001F0000D942F050D9486120D94AC040D94E0110E
:100200000D94F9110D94C0040D9440120D94B31285
:100210000D94DB110D94B6040D94C4060D949B123D
:100220000D942C020D94C1120D941D120D94C51243
:100230000D944A120D94C9120D94EF110D94A91248
:100240000D94AD120D9468120D94A5120D94271201
:100250000D94B1040D94B1050D9403122C20657911
:100260003D0029202D3E202865783D002C20737903
:100270003D0020436F6E6E656374696E6720776919
:10028000746820766572746963616C206C696E6550
:10029000202873783D002C2065793D0029202D3ED3
:1002A000202865783D002C2073793D0020436F6E37
:1002B0006E656374696E67207769746820686F7211
:1002C000697A6F6E74616C206C696E652028737832
:1002D0003D004669786564204C656E6774682050FF
:1002E00072696D652E00446F6E65205072696D698C
:1002F0006E6700446F6E65205072696D696E6700AD
:10030000557365722D436F6E74726F6C6C656420EB
:100310005072696D65004732362048656174696EB8
:1003200067204E6F7A7A6C652E004732362048651A
:100330006174696E67204265642E004C6561766960
:100340006E6720473236002C2079693D002020203E
:10035000446F696E6720636972636C652061743AEB
:10036000202878693D003F5370656369666965645C
:1003700020582C5920636F6F7264696E6174652018
:100380006F7574206F6620626F756E64732E0A003D
:100390003F28522965706561742076616C7565200F
:1003A0006E6F7420706C61757369626C653B206D53
:1003B000757374206265206174206C6561737420AC
:1003C000312E0A003F537065636966696564206E6B
:1003D0006F7A7A6C652074656D7065726174757280
:1003E00065206E6F7420706C61757369626C652E28
:1003F0000A003F5370656369666965642066696CCD
:10040000616D656E742073697A65206E6F742070FB
:100410006C61757369626C652E0A003F5370656389
:100420006966696564207072696D65206C656E67C8
:100430007468206E6F7420706C61757369626C658E
:100440002E0A003F537065636966696564206E6FAC
:100450007A7A6C652073697A65206E6F7420706C8F
:1004600061757369626C652E0A003F526574726132
:100470006374696F6E204D756C7469706C69657218
:10048000206D757374206265207370656369666999
:1004900065642E0A003F5370656369666965642070
:1004A00052657472616374696F6E204D756C746906
:1004B000706C696572206E6F7420706C6175736901
:1004C000626C652E0A003F537065636966696564F6
:1004D000206C6179657220686569676874206E6F49
:1004E0007420706C61757369626C652E0A003F53ED
:1004F0007065636966696564206265642074656D12
:100500007065726174757265206E6F7420706C61B5
:10051000757369626C652E0A0047323620636F6D11
:100520006D616E6420737461727465642E2057610E
:100530006974696E6720666F7220686561746572A0
:100540002873292E0A00696E206D6F76655F746FBF
:10055000282920666565645F76616C756520666F25
:10056000722058593A004C656176696E67204732AF
:1005700036004D6573682056616C69646174696FFB
:100580006E2053746F707065642E00446F6E65202A
:10059000736176696E672066696C652E0A004D325C
:1005A00039002020506C616E6E657242756666651A
:1005B0007242797465733A20002046726565204D59
:1005C000656D6F72793A2000436F6D70696C656478
:1005D0003A204A616E20323920323031380A002008
:1005E0007C20417574686F723A20284C65766920CA
:1005F000456C73746F6E2C204D61726C696E203186
:100600002E312E38290A00323031372D31322D3239
:10061000352031323A303000204C617374205570EF
:1006200064617465643A2000312E312E380A004D21
:1006300061726C696E0020536F6674776172652019
:1006400052657365740A00205761746368646F674C
:100650002052657365740A002042726F776E206FB6
:1006600075742052657365740A002045787465724C
:100670006E616C2052657365740A00506F77657205
:1006800055700A0073746172740A005072696E7456
:1006900065722068616C7465642E206B696C6C28CF
:1006A000292063616C6C6564210A004B494C4C4500
:1006B000442E20004B494C4C2063617573656420C7
:1006C0006279204B494C4C20627574746F6E2F70A8
:1006D000696E0A004B494C4C45442E20004B494C56
:1006E0004C2063617573656420627920746F6F209C
:1006F0006D75636820696E616374697665207469DD
:100700006D65202D2063757272656E7420636F6D48
:100710006D616E643A20004D3630300020746F6F8A
:10072000206C6F6E6720657874727573696F6E20C8
:1007300070726576656E7465640A0020636F6C6420
:1007400020657874727573696F6E20707265766556
:100750006E7465640A006F6B00526573656E643A6F
:1007600020004E6F2063617365206C696768740AAE
:10077000004175746F0020452F443D00416476614F
:100780006E6365204B3D004D36303020486F7465F8
:100790006E6420746F6F20636F6C6420746F2063CD
:1007A00068616E67652066696C616D656E740A00CC
:1007B0004F666673657473206170706C6965640060
:1007C0004572723A20546F6F206661722100546F37
:1007D0006F206661722066726F6D20726566657249
:1007E000656E636520706F696E740A004D6573688D
:1007F00020706F696E742063616E6E6F7420626525
:10080000207265736F6C7665640A004D3432312056
:10081000696E636F727265637420706172616D6579
:100820007465722075736167650A004F66660A0019
:1008300046616465204865696768742000426564A4
:10084000204C6576656C696E6720004661696C6551
:100850006420746F20656E61626C6520426564205F
:100860004C6576656C696E670A004D657368204259
:100870006564204C6576656C20646174613A0A0099
:1008800043290A0061626C656420286D696E2074DA
:10089000656D702000436F6C6420657874727564B8
:1008A000657320617265200020643A0020693A0077
:1008B00020703A00206F7574206F662072616E6739
:1008C000650A00536572766F20003A200020536558
:1008D00072766F2000205A00205900580020204DC9
:1008E00061783A2000205A00205900580020204DFD
:1008F000696E3A20004F6666004F6E2000536F66A7
:100900007420656E6473746F70733A20005365745D
:1009100074696E672054726176656C20416363650B
:100920006C65726174696F6E3A2000536574746906
:100930006E67205265747261637420416363656CF5
:1009400065726174696F6E3A200053657474696EE4
:1009500067205072696E7420416363656C657261D3
:1009600074696F6E3A200053657474696E67205025
:1009700072696E7420616E642054726176656C20B9
:10098000416363656C65726174696F6E3A20004DF6
:1009900031343520533C696E6465783E206F757440
:1009A000206F662072616E67652028302D31290A1C
:1009B000002F2F20003A004361703A00454D455208
:1009C00047454E43595F50415253455200434153AE
:1009D000455F4C494748545F4252494748544E4549
:1009E000535300544F47474C455F4C494748545375
:1009F00000534F4654574152455F504F57455200A0
:100A00004255494C445F50455243454E54004C4575
:100A100056454C494E475F44415441005A5F50523D
:100A20004F4245004155544F4C4556454C0050529D
:100A3000494E545F4A4F420050524F47524553531C
:100A4000004155544F5245504F52545F54454D50FC
:100A500000564F4C554D4554524943004545505260
:100A60004F4D0053455249414C5F584F4E5F584FD0
:100A70004646004649524D574152455F4E414D450D
:100A80003A4D61726C696E20312E312E3820284724
:100A900069746875622920534F555243455F434F2F
:100AA00044455F55524C3A68747470733A2F2F67FF
:100AB00069746875622E636F6D2F4D61726C696E1B
:100AC0004669726D776172652F4D61726C696E2037
:100AD00050524F544F434F4C5F56455253494F4E1F
:100AE0003A312E30204D414348494E455F545950CC
:100AF000453A46542D3520523220455854525544DB
:100B000045525F434F554E543A3120555549443A6A
:100B100063656465326132662D343161322D34375C
:100B200034382D396231322D6335356336326633D0
:100B3000363766660A0046542D35205232204F66FD
:100B4000662E0042656420646F6E652E0020573A61
:100B5000004265642048656174696E672E004865CF
:100B60006174696E6720646F6E652E0020573A00CD
:100B70004525692025730046542D352052322072B8
:100B8000656164792E006F6B004D31313320530065
:100B90004B494C4C45442E20004543484F00494E9C
:100BA000464F004552524F52530044525952554EEF
:100BB00000434F4D4D554E49434154494F4E006FF0
:100BC000666600990B9E0BA30BAA0BB10B44454222
:100BD00055473A004525692025730046542D352098
:100BE00052322072656164792E006F66662E0A00AB
:100BF0006F6E2E0A0047323620446562756720000A
:100C0000000136372603FF3C3D380EFF2E303E12E2
:100C1000FFFF0C080907FFFF1A1C18FFFF08440A12
:100C2000FF43FFFFFFFFFFFF50726F746563746542
:100C3000642050696E0A002569730025696D2025BE
:100C40006973002569682025696D20256973002571
:100C50006964202569682025696D20256973002550
:100C6000697920256964202569682025696D20251A
:100C70006973005072696E742074696D653A200062
:100C8000456E642066696C65206C6973740A004265
:100C90006567696E2066696C65206C6973740A000B
:100CA0004E6F206D6F76652E00526573756D696E9F
:100CB00067207072696E740046542D3520523220C0
:100CC00072656164792E00436C69636B20746F20D8
:100CD000726573756D652E2E2E004D6573682070DC
:100CE0006F696E742063616E6E6F7420626520722E
:100CF00065736F6C7665640A00206F6620004D4254
:100D00004C2047323920706F696E74200059206F73
:100D10007574206F662072616E67652028312D33EF
:100D2000292E0A0058206F7574206F662072616E3C
:100D300067652028312D33292E0A004D6573682000
:100D400070726F62696E6720646F6E652E0A005361
:100D500074617274206D6573682070726F62696E61
:100D60006720776974682022473239205331222066
:100D700066697273742E0A004732380A4732392086
:100D8000533200473239205332004D657368206278
:100D90006564206C6576656C696E67206861732098
:100DA0006E6F20646174612E0A0053746174653A39
:100DB000200053206F7574206F662072616E676526
:100DC0002028302D35292E0A00536C6565702E2E93
:100DD0002E0047322F4733206261642070617261B8
:100DE0006D65746572730A004163746976652045A8
:100DF000787472756465723A200020453A00205A72
:100E00003A0020593A00583A000A4D6561737572EC
:100E1000656420706F696E74733A0A005A206F66B9
:100E2000667365743A20004E756D20582C593A202F
:100E3000332C330A00206E6F7420656E7465726502
:100E4000642E0A00473238205A20466F7262696465
:100E500064656E0A00473238205A20466F72626914
:100E60006464656E005761726E696E673A20486F00
:100E70006D696E672042756D702044697669736F85
:100E800072203C20310A00020204627573793A2014
:100E900070617573656420666F7220696E70757419
:100EA0000A00627573793A20706175736564206613
:100EB0006F7220757365720A00627573793A2070DB
:100EC000726F63657373696E670A00486F6D6520A2
:100ED0002573257325732066697273740020666913
:100EE0007273740A005A0059005800486F6D6520EB
:100EF0000020496E76616C6964206578747275644F
:100F00006572200053442072656164206572726FBF
:100F1000720A00446F6E65207072696E74696E6744
:100F20002066696C650A004B494C4C45442E2000F4
:100F300053544F505045442E20005072696E7465D2
:100F4000722073746F707065642064756520746FAF
:100F5000206572726F72732E2046697820746865FE
:100F6000206572726F7220616E6420757365204D0A
:100F700039393920746F20726573746172742E2050
:100F80002854656D7065726174757265206973208F
:100F900072657365742E20536574206974206166D0
:100FA0007465722072657374617274696E67290A60
:100FB000004E6F20436865636B73756D20776974AD
:100FC00068206C696E65206E756D6265722C204CB0
:100FD000617374204C696E653A2000636865636BC9
:100FE00073756D206D69736D617463682C204C613D
:100FF0007374204C696E653A20004C696E65204E12
:10100000756D626572206973206E6F74204C617318
:1010100074204C696E65204E756D6265722B312CA3
:10102000204C617374204C696E653A20004D31315B
:101030003000656E7175657565696E67202200FF09
:10104000FFFF0000A0400000A040000000400000A2
:101050009643000096430000BE43000000000000DD
:1010600000000000000000009643000096430000CE
:10107000BE4300000000000000000000000000006F
:1010800048420000484200002041000000007C3C33
:101090003E5E2B3D3F2F5B5D3B2C2A225C004D3397
:1010A000310043616E6E6F7420656E7465722073DB
:1010B00075626469723A20006175746F25692E67E4
:1010C000006572726F722077726974696E6720743E
:1010D0006F2066696C650A004E6F7420534420705F
:1010E00072696E74696E670A005344207072696E8B
:1010F00074696E672062797465200044656C65745C
:10110000696F6E206661696C65642C2046696C6548
:101110003A200046696C652064656C657465643AC4
:10112000006F70656E206661696C65642C2046698D
:101130006C653A200057726974696E6720746F207D
:1011400066696C653A20006F70656E206661696C37
:1011500065642C2046696C653A20006F70656E20CE
:101160006661696C65642C2046696C653A200046AE
:10117000696C652073656C65637465640A0020534F
:10118000697A653A200046696C65206F70656E6506
:10119000643A20006F70656E206661696C65642C2E
:1011A0002046696C653A20002066696C653A20002B
:1011B000667265736800646F696E67004E6F7720B2
:1011C00000454E4420535542524F5554494E450A0E
:1011D000002220706F73002220706172656E743A75
:1011E0002200535542524F5554494E452043414CDD
:1011F0004C207461726765743A22004B494C4C452F
:10120000442E2000747279696E6720746F206361C8
:101210006C6C207375622D67636F64652066696C02
:101220006573207769746820746F6F206D616E79C3
:10123000206C6576656C732E204D4158206C657668
:10124000656C2069733A004D3234004D32332025ED
:10125000730053442063617264206F6B0A006F70E7
:10126000656E526F6F74206661696C65640A007602
:101270006F6C756D652E696E6974206661696C6549
:10128000640A00534420696E6974206661696C0ABF
:101290000043616E6E6F74206F70656E20737562AF
:1012A000646972200020520020204D393030204BDC
:1012B000004C696E65617220416476616E63653AC7
:1012C0000A0020440020490020204D3330312050B6
:1012D000005049442073657474696E67733A0A005C
:1012E00020460020420020480020204D3134352087
:1012F00053004D6174657269616C20686561747535
:101300007020706172616D65746572733A0A0020B5
:101310005A002059002020473239205333205800EA
:10132000205A0020204D3432302053004D65736820
:1013300020426564204C6576656C696E673A0A00E8
:10134000205A0020590020204D32303620580048C5
:101350006F6D65206F66667365743A0A00204500FC
:10136000205A00205900205800204200205400201C
:10137000204D323035205300416476616E636564E0
:101380003A20533C6D696E5F666565647261746591
:101390003E20543C6D696E5F74726176656C5F6669
:1013A000656564726174653E20423C6D696E5F7371
:1013B00065676D656E745F74696D655F75733E20FA
:1013C000583C6D61785F78795F6A65726B3E205A30
:1013D0003C6D61785F7A5F6A65726B3E20453C6D5B
:1013E00061785F655F6A65726B3E0A002054002079
:1013F000520020204D323034205000416363656C30
:1014000065726174696F6E2028756E6974732F73CD
:1014100032293A20503C7072696E745F6163636573
:101420006C3E20523C726574726163745F616363E9
:10143000656C3E20543C74726176656C5F616363D9
:10144000656C3E0A00204500205A002059002020EB
:101450004D3230312058004D6178696D756D2041F5
:101460006363656C65726174696F6E2028756E695F
:1014700074732F7332293A0A00204500205A002045
:10148000590020204D3230332058004D6178696D6D
:10149000756D206665656472617465732028756E6C
:1014A0006974732F73293A0A00204500205A0020DE
:1014B000590020204D393220580053746570732034
:1014C00070657220756E69743A0A0020204D3230C2
:1014D000302044300A0020204D323030204400209B
:1014E00044697361626C65640A0046696C616D658C
:1014F0006E742073657474696E67733A0020204DB2
:101500003134392043203B20556E69747320696E55
:101510002043656C736975730A00202047323120BF
:101520002020203B20556E69747320696E206D6DFC
:101530000A0048617264636F646564204465666193
:10154000756C742053657474696E6773204C6F6199
:101550006465640A00DC050000DC050000C80000CA
:10156000001027000000009643000096430000A0F2
:10157000400000C8410000A0420000A0420000C896
:101580004348E1CD42202863616C63756C617465EA
:101590006429210A0020213D2000454550524F4D2D
:1015A00020435243206D69736D61746368202D2060
:1015B0002873746F726564292000290A00206279FB
:1015C0007465733B2063726320002073746F7265CF
:1015D000642073657474696E6773207265747269D0
:1015E00065766564202800204D61726C696E3D56F9
:1015F0003437290A0028454550524F4D3D00454596
:1016000050524F4D2076657273696F6E206D69730D
:101610006D617463682000290A0020627974657323
:101620003B20637263200053657474696E67732096
:1016300053746F7265642028004572726F72207750
:10164000726974696E6720746F20454550524F4D22
:10165000210A0066696C616D656E743A20007A5FDC
:101660006D696E3A2000795F6D696E3A2000785F8F
:101670006D696E3A20005265706F7274696E6720F2
:10168000656E6473746F70207374617475730A008F
:10169000456E6473746F7073202563202563202565
:1016A0006320256300205A3A0020593A0020583A16
:1016B00000656E6473746F7073206869743A2000FB
:1016C000556E6B6E6F776E20636F6D6D616E643AF1
:1016D00020220020746F6F206C6F6E672065787415
:1016E000727573696F6E2070726576656E7465646D
:1016F0000A0020636F6C6420657874727573696F7B
:101700006E2070726576656E7465640A0065636844
:101710006F3A004572726F723A00205A3A002059AF
:101720003A0020436F756E7420583A004D383420CB
:10173000582059205A20450024F4D43050C38E201C
:10174000C2A24017828B7011127A910D816CD90A56
:10175000A861E108C7586607615143061E4B5D0545
:10176000C145A7041A411104093D98037139310399
:101770004036DB0265339102D4305402802E1D02C4
:10178000632CEE01752AC501B028A0011027810144
:101790008F2564012B244B01E0223401AC211F0171
:1017A0008D200D01801FFC00841EED00971DDF00C1
:1017B000B81CD200E61BC600201BBC00641AB20095
:1017C000B219A8000A19A0006A189900D11791004F
:1017D00040178B00B516840031167E00B3157900D2
:1017E0003A157300C7146F0058146A00EE136600B0
:1017F0008813630025135E00C7125B006C1257004C
:1018000015125400C111510070114F0021114B00ED
:10181000D61049008D1047004610440002104200C7
:10182000C00F4000800F3E00420F3C00060F3B00FF
:10183000CB0E3800930E37005C0E3500270E3400B7
:10184000F30D3200C10D3100900D3000600D2E00FF
:10185000320D2D00050D2C00D90C2B00AE0C2900EB
:10186000850C29005C0C2700350C27000E0C260087
:10187000E80B2400C40B2400A00B23007D0B2300E5
:101880005A0B2100390B2100180B2000F80A1F0009
:10189000D90A1E00BB0A1E009D0A1D00800A1D00F9
:1018A000630A1C00470A1B002C0A1B00110A1A00BD
:1018B000F7091A00DD091900C4091900AB0919005C
:1018C000920917007B091800630917004C091600DC
:1018D00036091600200916000A091500F50815003A
:1018E000E0081400CC081400B8081400A408140080
:1018F000900813007D0812006B08130058081200AE
:1019000046081200340811002308110012081100C3
:1019100001081100F0071000E0071000D0071000C8
:10192000C0071000B0070F00A107100091070E00BC
:1019300083070F0074070F0065070E0057070E009E
:1019400049070E003B070D002E070E0020070D0073
:1019500013070D0006070D00F9060C00ED060D003B
:10196000E0060C00D4060C00C8060C00BC060C00F7
:10197000B0060C00A4060B0099060C008D060B00A7
:1019800082060B0077060B006C060B0061060A004E
:1019900057060B004C060A0042060A0038060A00E9
:1019A0002E060A0024060A001A060A00100609007C
:1019B00007060A00FD050900F4050900EB0509000A
:1019C000E2050900D9050900D0050900C70509008D
:1019D000BE050900B5050800AD050800A50509000C
:1019E0009C050800940508008C0508008405080083
:1019F0007C050800740508006C05070065050800F3
:101A00005D050700560508004E050700470507005D
:101A10004005080038050700310507002A050700C2
:101A2000230507001C050600160507000F05070023
:101A30000805060002050700FB040600F504070080
:101A4000EE040600E8040600E2040700DB040600DA
:101A5000D5040600CF040600C9040600C30406002E
:101A6000BD040600B7040600B1040500AC0406007E
:101A7000A6040600A00405009B04060095040500CA
:101A8000900406008A040500850405008004060011
:101A90007A04050075040500700405006B04050058
:101AA00066040500610405005C0405005704050098
:101AB000520405004D0405004804050043040500D8
:101AC0003E0404003A040500350405003004040017
:101AD0002C04050027040400230405001E04040050
:101AE0001A04040016040500110404000D04040087
:101AF000090405000404040000040400FC030400BD
:101B0000F8030400F4030400F0030400EC030400F1
:101B1000E8030400E4030400E0030400DC03040021
:101B2000D8030400D4030400D0030400CC03040051
:101B3000C8030300C503030024F404D9201BC40C0C
:101B40005C0E9804C4095F0265077101F405F90091
:101B5000FB04B30048048700C10369005803550023
:101B600003034500BE023A008402310053022A00FA
:101B70002902250004022000E4011C00C80119000C
:101B8000AF011700980114008401130071011000C7
:101B90006101100051010E0043010D0036010B00E0
:101BA0002B010B0020010B00150109000C0109009D
:101BB00003010800FB000800F3000800EB00070029
:101BC000E4000600DE000600D8000600D200060091
:101BD000CC000500C7000500C2000500BD000400E0
:101BE000B9000400B5000400B1000400AD00040019
:101BF000A9000400A5000300A20003009F00040048
:101C00009B0003009800030095000200930003006E
:101C1000900003008D0002008B000300880002008A
:101C20008600020084000300810002007F000200A1
:101C30007D0002007B0002007900020077000100B5
:101C400076000200740002007200010071000200C0
:101C50006F0002006D0001006C0002006A000100CC
:101C600069000200670001006600010065000100D4
:101C700064000200620001006100010060000100D8
:101C80005F0002005D0001005C0001005B000100DC
:101C90005A000100590001005800010057000100DE
:101CA00056000100550001005400010053000000DF
:101CB00053000100520001005100010050000100DA
:101CC0004F0001004E0000004E0001004D000100D9
:101CD0004C0001004B0000004B0001004A000100D5
:101CE00049000100480000004800010047000100D1
:101CF00046000000460001004500000045000100CC
:101D000044000100430000004300010042000000C5
:101D100042000100410000004100010040000100BC
:101D20003F0000003F0001003E0000003E000100B7
:101D30003D0000003D0001003C0000003C000000B0
:101D40003C0001003B0000003B0001003A000000A5
:101D50003A0001003900000039000100380000009D
:101D60003800000038000100370000003700010093
:101D7000360000003600000036000100350000008B
:101D80003500000035000100340000003400000080
:101D90003400010033000000330000003300010074
:101DA000320000003200000032000100310000006B
:101DB0003100000031000100300000003000000060
:101DC000300001002F0000002F0000002F00000055
:101DD0002F0001002E0000002E0000002E00010048
:101DE0002D0000002D0000002D0000002D0001003E
:101DF0002C0000002C0000002C0000002C00010032
:101E00002B0000002B0000002B0000002B00010025
:101E10002A0000002A0000002A0000002A00010019
:101E2000290000002900000029000000290000000E
:101E30002900010028000000280000002800000000
:101E400028000000280001002700000027000000F3
:101E500027000000270000002700010026000000E6
:101E600026000000260000002600000026000100D9
:101E700025000000250000002500000025000000CE
:101E800025000000250001002400000024000000BF
:101E900024000000240000002400010023000000B2
:101EA00023000000230000002300000023000000A6
:101EB0002300000023000100220000002200000097
:101EC0002200000022000000220000002200010089
:101ED000210000002100000021000000210000007E
:101EE000210000002100000021000100200000006E
:101EF0002000000020000000200000002000000062
:101F00002000000020000000200001001F00000051
:101F10001F0000001F0000001F0000001F00000045
:101F20001F0000001F0001001E0000001E00000036
:101F30001E0000001E0000002042403A0020403AEF
:101F400000202F00546865726D616C2052756E61BF
:101F500077617900544845524D414C2052554E41CD
:101F6000574159004B494C4C45442E2000202D2010
:101F7000496E76616C696420657874727564657207
:101F8000206E756D62657220210A00486561746972
:101F90006E67206661696C65640048656174696E8E
:101FA00067206661696C65640048656174696E6785
:101FB000206661696C65640048656174696E6720BC
:101FC0006661696C6564004D494E54454D502074FE
:101FD0007269676765726564004572723A204D499F
:101FE0004E54454D5020424544004572723A204DB2
:101FF000494E54454D50004D415854454D50207464
:102000007269676765726564004572723A204D4176
:102010005854454D5020424544004572723A204D77
:10202000415854454D50006265640A002C20737974
:102030007374656D2073746F7070656421204865DA
:10204000617465725F49443A200023646566696E75
:1020500065202044454641554C545F4B6420002385
:10206000646566696E65202044454641554C545F61
:102070004B69200023646566696E652020444546EF
:1020800041554C545F4B70200050494420417574B9
:102090006F74756E652066696E697368656421206A
:1020A00050757420746865206C617374204B702CBB
:1020B000204B6920616E64204B6420636F6E7374E3
:1020C000616E74732066726F6D2062656C6F77202D
:1020D000696E746F20436F6E6669677572617469AB
:1020E0006F6E2E680A00504944204175746F7475F4
:1020F0006E65206661696C6564212074696D656F29
:1021000075740A00546865726D616C2052756E6159
:1021100077617900544845524D414C2052554E410B
:102120005741590048656174696E67206661696C42
:1021300065640048656174696E67206661696C65F5
:102140006400504944204175746F74756E65206653
:1021500061696C6564212054656D70657261747588
:10216000726520746F6F20686967680A00204B648D
:102170003A2000204B693A2000204B703A20000A98
:1021800020436C617373696320504944200A002026
:1021900054753A2000204B753A2000206D61783A42
:1021A0002000206D696E3A200020643A20002062F1
:1021B0006961733A200070012C0190012701B00180
:1021C0002201C0011D01F0011801100213013002AB
:1021D0000E016002090190020401C002FF00000329
:1021E000FA004003F5008003F000D003EB00200468
:1021F000E6007004E100E004DC004005D700C00503
:10220000D2004006CD00D006C8008007C3003008C9
:10221000BE00F008B900C009B400B00AAF00B00BAE
:10222000AA00D00CA500000EA000500F9B00C0100B
:1022300096005012910000148C00C0158700B01752
:102240008200B0197D00D01B7800001E7300402072
:102250006E0090226900F024640040275F009029FE
:102260005A00E02B5500102E500020304B00103249
:102270004600E033410090353C001037370070389D
:102280003200A0392D00B03A2800A03B2300603C6A
:102290001E00103D1900903D1400103E0F00703ECE
:1022A0000A00C03E0500003F0000403FFBFF803FAA
:1022B000F6FFC03FF1FF436172642072656D6F7677
:1022C0006564004361726420696E7365727465644D
:1022D00000746F20726573756D65005761697420B5
:1022E000666F72207072696E74005052494E5420AD
:1022F0005041555345440020204E6F7A7A6C653A20
:10230000200066696C616D656E7420657874727505
:102310006465005761697420666F72005052494EBF
:1023200054205041555345440020204E6F7A7A6C1A
:10233000653A200066696C616D656E74206C6F6132
:1023400064005761697420666F72005052494E54A0
:10235000205041555345440020204E6F7A7A6C65D9
:102360003A2000746F20636F6E74696E75652E2E4F
:102370002E00616E642070726573732062757474D0
:102380006F6E00496E736572742066696C616D656D
:102390006E74005052494E542050415553454400EC
:1023A00020204E6F7A7A6C653A200068656174204F
:1023B0006E6F7A7A6C652E00507265737320627549
:1023C00074746F6E20746F005052494E5420504107
:1023D000555345440020204E6F7A7A6C653A2000B0
:1023E000506C6561736520776169742E2E2E0048EC
:1023F000656174696E67206E6F7A7A6C6500505201
:10240000494E54205041555345440020204E6F7A88
:102410007A6C653A200066696C616D656E74207532
:102420006E6C6F6164005761697420666F72005052
:1024300052494E54205041555345440020204E6F80
:102440007A7A6C653A20006368616E6765006F6632
:10245000207468652066696C616D656E74005761F3
:10246000697420666F7220737461727400505249EF
:102470004E5420504155534544004578747275645C
:1024800065206D6F726500526573756D65207072A1
:10249000696E7400524553554D45204F5054494F75
:1024A0004E533A0020204E6F7A7A6C653A200042F3
:1024B00061636B004D696E696D756D2054656D705B
:1024C000206973203138302E0048656174696E6769
:1024D000206661696C656400052E2E004D61696E91
:1024E0000046696C2E204469612E0046696C2E20DE
:1024F0004469612E004520696E206D6D33004F6682
:1025000066004F6E2000416476616E6365204B006B
:10251000416476616E6365204B00416476616E6351
:1025200065204B00436F6E74726F6C00537465705E
:10253000732F6D6D004A65726B00416363656C6556
:10254000726174696F6E0056656C6F6369747900AF
:10255000436F6E74726F6C004573746570732F6D8A
:102560006D004573746570732F6D6D005A737465DB
:1025700070732F6D6D005A73746570732F6D6D00DD
:102580005973746570732F6D6D0059737465707332
:102590002F6D6D005873746570732F6D6D005873D7
:1025A000746570732F6D6D004D6F74696F6E00569A
:1025B000652D6A65726B0056652D6A65726B0056F3
:1025C000652D6A65726B00567A2D6A65726B0056CE
:1025D0007A2D6A65726B0056792D6A65726B0056AA
:1025E000792D6A65726B0056792D6A65726B00569B
:1025F000782D6A65726B0056782D6A65726B00568D
:10260000782D6A65726B004D6F74696F6E00416D55
:102610006178204500416D6178204500416D617809
:10262000205A00416D6178205A00416D617820592F
:1026300000416D6178205900416D6178205800415A
:102640006D6178205800412D74726176656C00418F
:102650002D74726176656C00412D726574726163D0
:102660007400412D72657472616374004163636527
:102670006C00416363656C004D6F74696F6E00564A
:1026800054726176206D696E005654726176206DC9
:10269000696E005654726176206D696E00566D69E0
:1026A0006E00566D696E00566D696E00566D6178EC
:1026B000204500566D6178204500566D61782045B3
:1026C00000566D6178205A00566D6178205A005688
:1026D0006D6178205A00566D6178205900566D6101
:1026E00078205900566D6178205900566D61782028
:1026F0005800566D6178205800566D61782058005A
:102700004D6F74696F6E0053746F726520736574DA
:1027100074696E67730042656400426564004265D7
:1027200064004E6F7A7A6C65004E6F7A7A6C650041
:102730004E6F7A7A6C650046616E207370656564D1
:102740000046616E2073706565640046616E20739B
:10275000706565640054656D70657261747572654D
:1027600000507265686561742041425320636F6E4A
:1027700066005072656865617420504C4120636F3B
:102780006E6600504944204175746F74756E650023
:10279000504944204175746F74756E65005049440A
:1027A0002D44005049442D44005049442D490050C7
:1027B00049442D49005049442D50005049442D5062
:1027C0000020022046616374002002204661637489
:1027D000002002204D6178002002204D6178002009
:1027E00002204D6178002002204D696E00200220F9
:1027F0004D696E002002204D696E004175746F7442
:10280000656D70004F6666004F6E200046616E2059
:10281000737065656420320046616E207370656573
:102820006420320046616E2073706565642032005A
:1028300046616E20737065656420310046616E20CC
:10284000737065656420310046616E207370656544
:102850006420310042656400426564004E6F7A7AFC
:102860006C65004E6F7A7A6C6500436F6E74726FA0
:102870006C004D33303320553120452569205325D8
:102880006900496E697469616C697A6520454550D3
:10289000524F4D00436F6E74726F6C00496E6974D5
:1028A00069616C697A6520454550524F4D0052650B
:1028B00073746F7265206661696C73616665004C44
:1028C0006F61642073657474696E67730053746F0D
:1028D00072652073657474696E67730046696C6114
:1028E0006D656E74004D6F74696F6E0054656D7028
:1028F00065726174757265004D61696E004578742A
:102900007275646572004D6F7665205A004D6F7662
:10291000652059004D6F76652058005072657061D2
:102920007265004D6F766520302E316D6D004D6FF4
:10293000766520316D6D004D6F76652031306D6D9F
:10294000004D6F7665206178697300457874727503
:10295000646572004D6F7665205A004D6F76652074
:1029600059004D6F7665205800457874727564651E
:1029700072004D6F7665205A004D6F7665205900C4
:102980004D6F76652058005072656865617420410E
:102990004253005072656865617420504C41004399
:1029A0006F6F6C646F776E004368616E6765206659
:1029B000696C616D656E740044697361626C652059
:1029C0007374657070657273004D383400536574AC
:1029D00020686F6D65206F6666736574730042656D
:1029E00064204C6576656C696E6700486F6D652084
:1029F0005A00473238205A00486F6D652059004709
:102A00003238205900486F6D652058004732382011
:102A100058004175746F20686F6D6500473238004B
:102A20004D6F76652061786973004D61696E005362
:102A3000746F72652073657474696E6773004C6F90
:102A400061642073657474696E6773004C657665A4
:102A50006C2062656400426564205A00426564200F
:102A60005A0046616465204865696768740046617C
:102A700064652048656967687400426564204C6538
:102A800076656C696E67004F6666004F6E20005079
:102A90007265706172650047323800486F6D696E0B
:102AA000672058595A00436C69636B20746F204249
:102AB0006567696E0047323920533100473239204B
:102AC0005332004E65787420506F696E740025692A
:102AD000202F202575004D6F7665205A004732392A
:102AE000205332004C6576656C696E6720446F6ECA
:102AF000652100507265686561742041425320422F
:102B000065640050726568656174204142532045D8
:102B10006E640050726568656174204142530050D4
:102B200072657061726500507265686561742050ED
:102B30004C412042656400507265686561742050A4
:102B40004C4120456E640050726568656174205088
:102B50004C410050726570617265004368616E6738
:102B6000652066696C616D656E7400466C6F7700F8
:102B7000466C6F770046616E207370656564203225
:102B80000046616E20737065656420320046616E98
:102B900020737065656420320046616E2073706535
:102BA000656420310046616E207370656564203174
:102BB0000046616E20737065656420310042656473
:102BC00000426564004E6F7A7A6C65004E6F7A7AC7
:102BD0006C6500426564205A00426564205A0053C7
:102BE0007065656400537065656400537065656465
:102BF000004D61696E004D363030204230004D345A
:102C00003238004E6F20534420636172640050726A
:102C1000696E742066726F6D2053440053746F7038
:102C2000207072696E7400526573756D65207072E4
:102C3000696E74005061757365207072696E7400FE
:102C4000436F6E74726F6C005072657061726500D4
:102C500054756E6500496E666F2073637265656EAC
:102C6000005072696E742061626F72746564005006
:102C700072696E7420706175736564000025753A21
:102C80002530327500253032753A25303275002DE9
:102C90002D2D005344005A0059005800506C6561B6
:102CA0007365207265736574005052494E544552E5
:102CB0002048414C54454400001C1F11111F0000C6
:102CC0000006191803130C00040E1F041C0000005A
:102CD000000E1315110E00001C1018170506050034
:102CE000040A0A0A0A11110E0C12120C000000004C
:102CF000001F1511151F0000000000000102040450
:102D00000000001C1C0C0404040201000000000070
:102D100004081000000000002D2D2D2D2D2D007C0D
:102D20004D61726C696E7C002D2D2D2D2D2D00684E
:102D30007474703A2F2F6D61726C696E66772E6FA6
:102D4000726700687474703A2F2F6D61726C696ECF
:102D500066772E6F72670020312E312E380000000A
:102D60000A0B02090C0D0E08070304010000000005
:102D70000000000000000000000000000000000053
:102D80000000000000000000000012111000000010
:102D90000000000000000000000000000000000033
:102DA0000000000001021020200808102040102020
:102DB00040800201020108040201010204081020FF
:102DC00040808040201008040201800402018040FD
:102DD0002010080402010804020101020408102066
:102DE0004080010204081020408005050505070504
:102DF00008080808020202020A0A08080404040477
:102E000001010101010101010303030303030303A2
:102E1000040707070C0C0C0C0C0C0C0C0202020231
:102E200006060606060606060B0B0B0B0B0B0B0B1A
:102E3000000020002300260029002C002F00320073
:102E40000001000003010601090100002200250025
:102E500028002B002E003100340002010000050183
:102E600008010B0100002100240027002A002D008A
:102E70003000330001010000040107010A01024E85
:102E8000414E494E495459494E46CDCCCC3D0AD7C6
:102E9000233C17B7D13877CC2B329595E6241FB158
:102EA0004F0A000020410000C84200401C4620BCE0
:102EB000BE4CCA1B0E5AAEC59D74F6637A905892EA
:102EC000E1AA94D5176411241FBECFEFD1E2DEBF73
:102ED000CDBF00E00CBF13E0A0E0B2E0E2ECF8E40C
:102EE00002E00BBF02C007900D92AA39B107D9F7D3
:102EF00024E1AAE9B3E001C01D92A53EB207E1F7C3
:102F00001EE2C4ECDEE200E006C022970109FE01E9
:102F10000BBF0F946A1CCA3BD10780E00807A9F7D2
:102F20000F94C8170D9450240C940000CF92DF9298
:102F3000EF92FF92CF93DF936B017C01EA012FE6C2
:102F400032E143E85AEB0F94B31A87FD26C021E221
:102F500030E046E953E4C701B6010F94B0181816E3
:102F6000E4F0C880D980EA80FB802FE632E143E8B4
:102F70005AEBC701B6010F94B31A87FD0EC0C1E02A
:102F800021E230E046E953E4C701B6010F94B018DE
:102F900018160CF4C0E08C2F01C080E0DF91CF91B7
:102FA000FF90EF90DF90CF90089580E1EEE5F7E09D
:102FB000AEE4B7E001900D928A95E1F7089581544F
:102FC0008A3148F5482F50E0FA0193E0F595E795EE
:102FD0009A95E1F7EE5CF34F208130E0877002C0F4
:102FE000359527958A95E2F720FF15C0FA01E85E2E
:102FF000F34F2081222339F080913D0C90913E0CBB
:10300000820F911D02C080E090E090933A0C809373
:10301000390C81E0089580E00895D1DF882339F0EC
:1030200081E02091390C30913A0C232B09F480E097
:1030300008951F93CF93DF938091390C90913A0CB0
:10304000009701F1FC01EF011191212F2F7D99F0E3
:10305000153411F01536B9F7188260E070E08091F0
:10306000390C90913A0C0F94C41C1883562F472F9B
:10307000382F292F0BC060E070E0DF91CF911F91B6
:103080000D94C41C50E040E030E020E0652F742F28
:10309000832F922FDF91CF911F9108958091390C4A
:1030A00090913A0C009731F04AE050E060E070E017
:1030B0000D942C1E60E070E0CB0108958091390CD6
:1030C00090913A0C892B79F0E9DF97FF02C080E0FC
:1030D0000895E4DF6F3F71058105910509F01CF447
:1030E000DDDF6623A1F381E00895CF930E947ED5B2
:1030F000C82F882349F063E682E795E00E947AD2E0
:103100000E94F3C90E9484D58C2FCF9108956FEF50
:1031100086E695E00E947AD20E9484D581E00895E7
:10312000CF92DF92EF92FF92C0902902D0902A02B4
:10313000E0902B02F0902C02FC0180819181A28111
:10314000B3818093290290932A02A0932B02B0931B
:103150002C020E94D853C0922902D0922A02E092F7
:103160002B02F0922C02FF90EF90DF90CF90089509
:103170002F923F924F925F926F927F928F929F9287
:10318000AF92BF92CF92DF92EF92FF920F931F9375
:10319000CF93DF9300D01F921F92CDB7DEB75C01B3
:1031A0008B014A011901C0905E07D0905F07E09043
:1031B0006007F0906107A7019601FC0160817181B1
:1031C000828193810F94B018F1E0FD83811112C0C8
:1031D0002091620730916307409164075091650721
:1031E000F80160817181828193810F94B0188111FF
:1031F00001C01D82F4014080518062807380209163
:103200000A0230910B0240910C0250910D02C30151
:10321000B2010F94B018882309F455C040920A02F5
:1032200050920B0260920C0270920D0220E030E08E
:1032300040E450E460915D0D70915E0D80915F0DF2
:103240009091600D0F94B71869837A838B839C8368
:10325000C0924E07D0924F07E0925007F09251076C
:103260008091620790916307A0916407B091650710
:103270008093520790935307A0935407B093550738
:10328000F40180819181A281B3818093560790934C
:103290005707A0935807B093590780916A079091F8
:1032A0006B07A0916C07B0916D0780935A079093BC
:1032B0005B07A0935C07B0935D07CE01019630DFFA
:1032C0000E943EB872DEFD81FF2331F14090550D22
:1032D0005090560D6090570D7090580DC090590D3C
:1032E000D0905A0DE0905B0DF0905C0DA701960117
:1032F000C301B2010F94B01820E030E040E251E485
:1033000087FF05C0C301B2010F94B71813C0C701EE
:10331000B6010F94B7180EC020E030E040EC5FE338
:103320006091610D7091620D8091630D9091640DBB
:103330000F94B71869837A838B839C832091FC094F
:10334000222349F0AB01BC0186E495E00E9444AB26
:103350008AE00E94B429F50180819181A281B38124
:1033600080934E0790934F07A0935007B093510757
:10337000F80180819181A281B3818093520790935B
:103380005307A0935407B0935507F1012081318171
:103390004281538160915A0770915B0780915C076D
:1033A00090915D070F94D71760935A0770935B074E
:1033B00080935C0790935D07CE010196B1DE0E9479
:1033C0003EB8F3DD0F900F900F900F900F90DF91AC
:1033D000CF911F910F91FF90EF90DF90CF90BF9012
:1033E000AF909F908F907F906F905F904F903F90A5
:1033F0002F900895CF93DF9300D01F92CDB7DEB703
:103400002091B70321111AC021E02093B703409106
:10341000AF035091B0036091B1037091B203705843
:1034200049835A836B837C83AC01485F5F4FBC0147
:103430006C5F7F4F9E012F5F3F4F9ADE0F900F9082
:103440000F900F90DF91CF9108950F931F93CF931B
:10345000DF9300D01F92CDB7DEB78C018091B70308
:103460008823F9F02AE939E949E95FE36091AF037C
:103470007091B0038091B1039091B2030F94EE1A52
:1034800069837A838B839C83A801485F5F4FB8016F
:103490006C5F7F4F9E012F5F3F4FC80169DE109226
:1034A000B7030F900F900F900F90DF91CF911F9166
:1034B0000F9108950F931F93CF93DF9300D01F9226
:1034C000CDB7DEB780919A038F3F09F05FC081E0EE
:1034D0008093A31463E680E093E00E947AD20E9476
:1034E0005FD563DD8EE497E0B0DF00E213E00E9479
:1034F0007ED5811138C00E945FD520E030E040E8E1
:103500005EE360915A0770915B0780915C07909130
:103510005D070F94D71760935A0770935B078093EA
:103520005C0790935D070150110909F46EC020E01B
:1035300030E040E751E46091610D7091620D80913F
:10354000630D9091640D0F94B71869837A838B8310
:103550009C83CE010196E4DD0E943EB826DD80E02A
:103560000E94F44BC4CF0E9484D563EF72E08FE5D4
:1035700092E00F947E2063E686EE92E00E947AD27B
:103580000E94F3C91092A31480E040C063E682ED6C
:1035900092E00E947AD20E94F3C907DD2091A7032E
:1035A0003091A8034091A9035091AA0360915A0752
:1035B00070915B0780915C0790915D070F94D7171E
:1035C00060935A0770935B0780935C0790935D0745
:1035D00020E030E040E751E46091610D7091620DB0
:1035E0008091630D9091640D0F94B71869837A836D
:1035F0008B839C83CE01019693DD0E943EB8D5DC7F
:103600008EE497E0F7DE80E001C081E00F900F903C
:103610000F900F90DF91CF911F910F9108952F92EE
:103620003F924F925F926F927F928F929F92AF9252
:10363000BF92CF92DF92EF92FF920F931F93CF939F
:10364000DF93CDB7DEB7A0970FB6F894DEBF0FBEFD
:10365000CDBF9D8F8C8F7F8F6E8F2CE43CE03C879D
:103660002B8700E010E03FEF3F838FEF88879FEFCD
:103670009B8BAFE4AC8BB3ECBD8BE7E4EE8B81E0CE
:1036800090E0002E02C0880F991F0A94E2F79B8FEA
:103690008A8FACEFB3E0BA8BA98BE0E4FCE0FA8749
:1036A000E987312C08A3A989BA898D919D91BA8B9C
:1036B000A98BEA8DFB8D8E239F23892B09F0C1C036
:1036C000AB85BC85CD90DD90ED90FC90A985BA8549
:1036D0008D919D910D90BC91A02D8D879E87AF8778
:1036E000B88BA7019601EC8DFD8D6081718182817F
:1036F00093810F94D6172B013C012D853E854F8574
:103700005889AE8DBF8D6D917D918D919C910F9457
:10371000D6174B015C01A3019201C301B2010F94C2
:10372000EE1A2B013C01A5019401C501B4010F94CF
:10373000EE1A9B01AC01C301B2010F94D7170F948D
:103740005B1B4B015C01A70196016091A303709183
:10375000A4038091A5039091A6030F94D6176B0143
:103760007C012D853E854F85588960919F0370911E
:10377000A0038091A1039091A2030F94D6172B016F
:103780003C01A7019601C701B6010F94EE1A6B0127
:103790007C01A3019201C301B2010F94EE1A9B01B7
:1037A000AC01C701B6010F94D7170F945B1B20E043
:1037B00030E040E751E40F94B7189B01AC01C5011C
:1037C000B4010F94D7174B015C01C090B803D0909F
:1037D000B903E090BA03F090BB0320E030E040E88A
:1037E0005FE3C701B6010F94B31A1816ACF4C70112
:1037F000B6010F941F199B01AC0160E070E0CB0192
:103800000F9467170F9452199B01AC01B401C501C5
:103810000F94D7174B015C012B893C894D895E8938
:10382000B401C5010F94B01887FF0BC0B8A1B887C9
:103830003F82282C9F8AA88EB98E8B8A9C8AAD8A5B
:10384000BE8A3394E985FA853496FA87E987F3E0EE
:103850003F1229CF0F5F1F4F2B853C852C5F3F4FB9
:103860003C872B870330110509F009CF2F81E22F08
:10387000F0E0EE0FFF1FE450FC4F21E030E0088441
:1038800002C0220F331F0A94E2F780819181822BBC
:10389000932B91838083822D9F89A88DB98D8B83F3
:1038A0009C83AD83BE83422D5C816D817E812885A2
:1038B0003F8180E090E0A0960FB6F894DEBF0FBE87
:1038C000CDBFDF91CF911F910F91FF90EF90DF90CF
:1038D000CF90BF90AF909F908F907F906F905F90B0
:1038E0004F903F902F9008952F923F924F925F926A
:1038F0006F927F928F929F92AF92BF92CF92DF9200
:10390000EF92FF920F931F93CF93DF93CDB7DEB764
:10391000A6970FB6F894DEBF0FBECDBF9A878987F2
:103920001B01588B4F873A8B298B1C8B0B8BFE8E80
:10393000ED8EC0905E07D0905F07E0906007F0903A
:103940006107DC018D919D910D90BC91A02D8B871D
:103950009C87AD87BE879C01AD01C701B6010F945E
:10396000D6172B013C018091620790916307A091CB
:103970006407B09165078D8B9E8BAF8BB88FD1019B
:103980008D919D910D90BC91A02D898F9A8FAB8FB9
:10399000BC8F9C01AD016D897E898F89988D0F94B4
:1039A000D6174B015C01A3019201C301B2010F9430
:1039B000EE1A2B013C01A5019401C501B4010F943D
:1039C000EE1A9B01AC01C301B2010F94D7176F8FA0
:1039D00078A389A39AA3E989FA89408051806280FB
:1039E0007380A3019201C701B6010F94D6176BA390
:1039F0007CA38DA39EA3D8018D909D90AD90BC908B
:103A0000A50194016D897E898F89988D0F94D617B1
:103A10006B017C012B853C854D855E85C301B20120
:103A20000F94D6172B013C01298D3A8D4B8D5C8D5F
:103A3000C501B4010F94D6174B015C01A30192019B
:103A4000C301B2010F94EE1A2B013C01A5019401B0
:103A5000C501B4010F94EE1A9B01AC01C301B20180
:103A60000F94D7170F945B1B4B015C012BA13CA15A
:103A70004DA15EA1CA01B9010F94EE1A2B013C01C0
:103A8000A7019601C701B6010F94EE1A9B01AC0184
:103A9000C301B2010F94D7172F8D38A149A15AA1A4
:103AA0000F94B01887FF18C020E030E040EA50E4DF
:103AB000C501B4019F770F94B31A18166CF4EF8404
:103AC000F888810129853A854D8D5E8D6B897C89C9
:103AD00089899A8909DF83C020E030E040E050E422
:103AE0006F8D78A189A19AA10F94B31A18160CF0C2
:103AF00042C08EE497E07EDC19821A821B821C820F
:103B000020E030E040E05FE3609166077091670776
:103B100080916807909169070F94D7176D837E8312
:103B20008F8398879E012F5F3F4FAE014B5F5F4FA2
:103B300062E677E08EE597E01BDB19821A821B8232
:103B40001C8220E030E040E05FE3EF85F88960818F
:103B50007181828193810F94D7176D837E838F83C8
:103B600098879E012F5F3F4FAE014B5F5F4FB101C2
:103B700089859A85FDDA19821A821B821C829E0130
:103B80002F5F3F4F4F855889B10189859A85F0DABB
:103B900020910E0230910F024091100250911102BB
:103BA000C501B4010F94EE1A2091B3033091B40310
:103BB0004091B5035091B6030F94EE1A69837A834E
:103BC0008B839C838EE497E040DC9E012F5F3F4F08
:103BD0004D8D5E8D6B897C8989899A89C9DAA69613
:103BE0000FB6F894DEBF0FBECDBFDF91CF911F910E
:103BF0000F91FF90EF90DF90CF90BF90AF909F908C
:103C00008F907F906F905F904F903F902F9008958E
:103C10002F923F924F925F926F927F928F929F92DC
:103C2000AF92BF92CF92DF92EF92FF920F931F93CA
:103C3000CF93DF93CDB7DEB76E970FB6F894DEBFA4
:103C40000FBECDBF7CE4C72E7CE0D72E80E090E095
:103C5000AA24A394B12C082E02C0AA0CBB1C0A945F
:103C6000E2F7FC013196FA8FE98F21E030E0098C10
:103C700002C0220F331F0A94E2F73C8F2B8F8CEB8C
:103C800093E09C8B8B8BECEFF3E0F88FEF8B2CEDBC
:103C900033E03E8B2D8B80E49CE09A8B898B25DA78
:103CA00081119CC12F89388D3E8F2D8FF901808124
:103CB00091819C012A213B21232B09F4B0C02B8D3B
:103CC0003C8D82239323892B09F4A9C0ED89FE89B9
:103CD000808191818A219B21892B09F0A0C020E05D
:103CE00030E040E050E4F60160817181828193818F
:103CF0000F94D717162F072FF82EE92E20E030E06B
:103D000040E050E4F60164817581868197810F94CB
:103D1000D6173B014C0120E030E040E85FE3612F23
:103D2000702F8F2D9E2D0F94B01887FD59C120E064
:103D300030E845E953E4612F702F8F2D9E2D0F94AD
:103D4000B31A181634F410E000E855E9F52E63E4D0
:103D5000E62E812F902FAF2DBE2D8D879E87AF87AA
:103D6000B88BE989FA89208031804280538020E035
:103D700030E040E85FE3B101C2010F94B01887FD65
:103D800036C120E030E845E953E4B101C2010F94A7
:103D9000B31A18160CF030C1212C40E835E923E4A1
:103DA000822D942FA32FB22F89839A83AB83BC8358
:103DB00089879A87AB87BC8720E030E040E85FE3E3
:103DC000B301C4010F94B01887FD1AC120E030E898
:103DD00045E953E4B301C4010F94B31A18163CF437
:103DE000612C80E8782E95E9892E23E4922EC30178
:103DF000D4018D839E83AF83B887AE01475F5F4F49
:103E0000612F702F8F2D9E2D91D8811100C1ED89CA
:103E1000FE89808191818A299B29918380832F89C2
:103E2000388D2E5F3F4F388F2F8BED8DFE8D80812B
:103E300091818A219B21892B09F4B1C0F9018081EC
:103E400091818A219B21892B09F4A9C0EB89FC89E6
:103E5000808191818A219B21892B09F0A0C020E0DB
:103E600030E040E050E4E989FA8960817181828123
:103E700093810F94D7171B012C0120E030E040E024
:103E800050E4E989FA8964817581868197810F946C
:103E9000D6173B014C01F60110810181F280E380CD
:103EA00020E030E040E85FE3612F702F8F2D9E2DE2
:103EB0000F94B01887FDF1C020E030E845E953E4E5
:103EC000612F702F8F2D9E2D0F94B31A181634F476
:103ED00010E000E875E9F72EE3E4EE2E812F902F35
:103EE000AF2DBE2D8D839E83AF83B8878D879E8730
:103EF000AF87B88B20E030E040E85FE3B101C2015A
:103F00000F94B01887FDD0C020E030E845E953E4B5
:103F1000B101C2010F94B31A18160CF0CAC0212CBB
:103F200040E835E923E4822D942FA32FB22F89870F
:103F30009A87AB87BC8720E030E040E85FE3B301BD
:103F4000C4010F94B01887FDB8C020E030E845E9FF
:103F500053E4B301C4010F94B31A18160CF0B2C0A5
:103F6000612C40E835E923E4862D942FA32FB22F4E
:103F700089839A83AB83BC83AE01475F5F4F612F18
:103F8000702F8F2D9E2D0E94961781119FC0EB8957
:103F9000FC89808191818A299B29918380832B8947
:103FA0003C892E5F3F4F3C8B2B8B8D899E890296DF
:103FB0009E8B8D8BE989FA893496FA8BE98B225C8A
:103FC000334009F06CCE24E0C20ED11C898D9A8D4D
:103FD0008330910509F03CCE80E0C0C081E0BEC0D6
:103FE00010E000E030E8F32E4FE3E42EB2CE212CB7
:103FF00040E030E82FE3D4CE432D342D252DD0CE14
:10400000612C712CA0E88A2EBFE39B2EF0CEAE016E
:104010004F5F5F4FB301C4010E949617882309F4D4
:10402000F6CE8091FC09882331F1412F502F6F2D5E
:104030007E2D8CEA92E00E9444AB49855A856B85BF
:104040007C8586EA92E00E9444AB4D815E816F815F
:1040500078858CE992E00E9444AB49815A816B815A
:104060007C8186E992E00E9444AB89E20E94B429F7
:104070008AE00E94B429FBEAEF2EF3E0FF2E8E01C6
:104080000F5F1F4F9E012B5F3F4FA701BE01675F70
:104090007F4FCE010D9628DCBACE10E000E050E84C
:1040A000F52E6FE3E62E1ACF212C40E030E82FE307
:1040B0003ACF432D342D252D36CF612C40E030E80A
:1040C0002FE352CF472D382D292D4ECFAE014F5F14
:1040D0005F4F612F702F8F2D9E2D0E949617882382
:1040E00009F455CF8091FC09882331F1412F502FDD
:1040F0006F2D7E2D82E792E00E9444AB49855A8560
:104100006B857C858CE692E00E9444AB4D815E819C
:104110006F81788582E692E00E9444AB49815A81A2
:104120006B817C818CE592E00E9444AB89E20E9425
:10413000B4298AE00E94B4294BEAE42E43E0F42E2D
:104140008E010F5F1F4F9E012B5F3F4FA701BE01E6
:10415000675F7F4FCE010D96C7DB19CF6E960FB606
:10416000F894DEBF0FBECDBFDF91CF911F910F91AD
:10417000FF90EF90DF90CF90BF90AF909F908F9087
:104180007F906F905F904F903F902F9008958F9207
:104190009F92AF92BF92CF92DF92EF92FF920F94D5
:1041A000F6106B017C0188E8C80E83E1D81EE11C83
:1041B000F11C80919D0390919E034A970CF46BC073
:1041C00063E68AE293E00E947AD20E94F3C981E01A
:1041D0008093A31480919D0390919E03873991054C
:1041E00014F086E990E09093DE138093DD130E9433
:1041F0004FBE60919D0370919E03882777FD809547
:10420000982F0F9452199B01AC016091E5137091A6
:10421000E6138091E7139091E8130F94D6174B01A2
:104220005C0120E030E0A9010F94B31A18164CF598
:1042300020E030E040E450E4C501B4010F94B31A2B
:1042400018164CF50E947ED5811180C00F94F6108F
:104250006C197D098E099F0997FD0FC00F94F61008
:104260006B017C0188E8C80E83E1D81EE11CF11CBB
:104270000E949AC38AE00E94B42980E00E94F44B15
:10428000B8CF20E030E040E450ECC501B4010F9419
:10429000B01887FDD7CF63E686E193E00E947AD21B
:1042A0000E94F3C980919B0390919C039093E21329
:1042B0008093E11380E00E9405BE1AC00F94F610AF
:1042C0006C197D098E099F0997FD0FC00F94F61098
:1042D0006B017C0188E8C80E83E1D81EE11CF11C4B
:1042E0000E949AC38AE00E94B42980E00E94F44BA5
:1042F00060919B0370919C03882777FD8095982F90
:104300000F9452199B01AC016091E9137091EA136B
:104310008091EB139091EC130F94D6174B015C0135
:1043200020E030E0A9010F94B31A1816CCF420E075
:1043300030E040E450E4C501B4010F94B31A1816FC
:10434000CCF40E947ED5882309F4B8CFFF90EF907B
:10435000DF90CF90BF90AF909F908F900C94871874
:1043600020E030E040E450ECC501B4010F94B018F7
:1043700087FDE7CF0E9497D20E94F3C980E0FF90AB
:10438000EF90DF90CF90BF90AF909F908F90089567
:10439000CF92DF92EF92FF926B017C0120E030E040
:1043A00044EB53E4C701B6010F94B31A18165CF43A
:1043B00020E030E044EB53E4C701B6010F94D61778
:1043C0006B017C01EBCF20E030E0A901C701B60111
:1043D0000F94B01887FF0BC020E030E044EB53E4AB
:1043E000C701B6010F94D7176B017C01ECCFC70151
:1043F000B601FF90EF90DF90CF9008952F923F92FB
:104400004F925F926F927F928F929F92AF92BF92E4
:10441000CF92DF92EF92FF920F931F93CF93DF9390
:10442000CDB7DEB7CC59D1090FB6F894DEBF0FBEB9
:10443000CDBFE9E1F5E084918F010F5F1F4F882325
:1044400019F092D7F801F7CF41E061E081E00E94D6
:1044500001338111EAC680E090E0A0E8BFE38093D9
:10446000B3039093B403A093B503B093B6038093C2
:10447000AF039093B003A093B103B093B2038DEC5C
:104480009CECACE4BEE38093AB039093AC03A093AD
:10449000AD03B093AE0380E090E0A0E2B1E480937E
:1044A000A7039093A803A093A903B093AA038CE356
:1044B00090E090939E0380939D038DEC90E0909309
:1044C0009C0380939B0310929A038FE40E940D1823
:1044D000882319F00E94191804C06AE979E989E96A
:1044E0009EE3CD57DF4F688379838A839B83C358CC
:1044F000D04083E40E940D18882341F00E945E188A
:10450000C556DF4F8883CB59D04008C083E40E9452
:10451000DF17C556DF4F8883CB59D0408BE40E940C
:104520000D18882341F00E945E18C456DF4F88831F
:10453000CC59D04008C08BE40E94DF17C456DF4F2F
:104540008883CC59D04082E40E940D188823C9F09A
:104550000E9419180F941F1970939E0360939D0376
:104560006F5071096E37710560F0EEEEF4E08491E2
:104570008F010F5F1F4F882309F457C6F5D6F80146
:10458000F6CF8CE40E940D18882349F10E94191877
:104590006B017C016093AB037093AC038093AD031C
:1045A0009093AE0320E030E0A9010F94B31A87FD89
:1045B0000AC020E030E040E050E4C701B6010F94AB
:1045C000B018181664F4E6ECF4E084918F010F5FE4
:1045D0001F4F882309F429C6C7D6F801F6CF81E515
:1045E0000E94DF17882309F43CC08091390C909118
:1045F0003A0C892B51F10E9419186B017C016093D0
:10460000AF037093B0038093B1039093B2032DEC8A
:104610003CEC4CE45DE30F94B31A87FD0AC020E044
:1046200030E040E751E4C701B6010F94B018181606
:10463000C4F4E5E9F4E084918F010F5F1F4F8823F4
:1046400009F4F3C591D6F801F6CFEAE6F4E08491D7
:104650008F010F5F1F4F882309F4E7C585D6F80146
:10466000F6CF83E50E940D18882311F10E941918D6
:104670004B015C012DEC3CEC4CEC5DE30F94B31A68
:1046800087FD0AC020E030E040E85FE3C501B401E7
:104690000F94B01818169CF4E3E4F4E084918F01B1
:1046A0000F5F1F4F882309F4C0C55ED6F801F6CF0F
:1046B0001DEC812E1CEC912EA92C1EE3B12E80E561
:1046C0000E94DF178823C1F18091390C90913A0C38
:1046D000892B21F48FEF80939A032EC080919A0347
:1046E0008F5F80939A030E9419186B017C0160937D
:1046F000A7037093A8038093A9039093AA0320E0D3
:1047000030E0A9010F94B31A87FD0AC020E030E021
:1047100048EC51E4C701B6010F94B018181664F4C0
:10472000EBE1F4E084918F010F5F1F4F882309F4C0
:104730007CC51AD6F801F6CF86E40E940D188823AE
:1047400011F10E9419186B017C0120E030E040E873
:104750005FE30F94B31A87FD0AC020E030E040E821
:1047600050E4C701B6010F94B018181694F4E2EFA4
:10477000F3E084918F010F5F1F4F882309F455C523
:10478000F3D5F801F6CFC12CD12CB0EEEB2EBFE360
:10479000FB2EA7019601C701B6010F94EE1A9B01EB
:1047A000AC0160E070E084E490E40F94B7182091CD
:1047B000B3033091B4034091B5035091B6030F9405
:1047C000EE1A2B013C01A5019401C501B4010F941F
:1047D000EE1A9B01AC01C701B6010F94EE1A2CEE44
:1047E00031E548EB5DE30F94B7189B01AC01C301C1
:1047F000B2010F94EE1A6093B3037093B4038093E5
:10480000B5039093B60388E40E940D188823C9F07D
:104810000E9419180F941F1970939C0360939B03B7
:10482000655A71096437710560F0E4ECF3E0849136
:104830008F010F5F1F4F882309F4F7C495D5F80146
:10484000F6CF85E50E94DF178823C9F00F94F61094
:104850000F943E178091390C90913A0C892B19F0E6
:104860000E94191804C060E070E088E492E460934C
:10487000B8037093B9038093BA039093BB0382E5A6
:104880000E940D188823C1F00E944E18C957DF4FAF
:1048900079836883C758D040CB0118161906A4F055
:1048A000E0E9F3E084918F010F5F1F4F882309F443
:1048B000BCC45AD5F801F6CFAAE0B0E0C957DF4F23
:1048C000B983A883C758D04088E50E940D18882373
:1048D00069F00E94191820918D0530918E05409144
:1048E0008F05509190050F94D61708C060915E0710
:1048F00070915F0780916007909161076093A303B7
:104900007093A4038093A5039093A60389E50E9466
:104910000D18882369F00E94191820919105309193
:10492000920540919305509194050F94D61708C0B5
:1049300060916207709163078091640790916507A9
:1049400060939F037093A0038093A1039093A203AD
:104950006091A3037091A4038091A5039091A60395
:104960004FE953E00E94961781110CC0E6E6F3E090
:1049700084918F010F5F1F4F882309F456C4F4D42C
:10498000F801F6CF84E40E94DF1791E089270E94A6
:10499000AA3320E030E040E751E46091660770916F
:1049A000670780916807909169070F94B01887FF97
:1049B0001EC019821A821B821C8280E090E0A0E750
:1049C000B1E48DAB9EABAFABB8AFBE016F5F7F4FB5
:1049D000CE01C5960E94F6320E943EB880E1EEE418
:1049E000F7E0AEE5B7E001900D928A95E1F7CFDBF5
:1049F00081114DC110926A0710926B0710926C07DB
:104A000010926D076AE677E083E090E00E94B8A913
:104A100080919A03882321F00E945A1A811137C18C
:104A200080E2ECEFF3E0DF01982F1D929A95E9F711
:104A3000ECEDF3E0DF01982F1D929A95E9F7ECEB8E
:104A4000F3E0DF011D928A95E9F70E94D517809166
:104A5000AB039091AC03A091AD03B091AE038093F2
:104A6000560790935707A0935807B0935907198298
:104A70001A821B821C829E012F5F3F4F46E557E042
:104A800062E577E08EE497E00E94B8189E012D570A
:104A90003F4F46E557E062E577E08EE497E00E94FD
:104AA000B81881E08093A314FE0131966F017E0156
:104AB000F5E3EF0EF11C00E010E0B801882777FD68
:104AC0008095982F0F94521920E030E040EF51E488
:104AD0000F94EE1A5DDC2BED3FE049E450E40F94B7
:104AE000EE1A20E030E044E353E40F94B7184B0192
:104AF0005C010F94B41820E030E040EA50E40F94D9
:104B0000EE1AF60161937193819391936F01C50140
:104B1000B4010F94511B20E030E040EA50E40F94C0
:104B2000EE1AD7016D937D938D939D937D010F5F59
:104B30001F4F0D30110509F0C0CFC556DF4FB881AA
:104B4000CB59D040BB2309F410C162E677E08EE573
:104B500097E00E940F1BAA962FAFAA97AB963FAF84
:104B6000AB97AC964FAFAC97AD965FAFAD97AE96A7
:104B70006FAFAE97AF967FAFAF97690127FD40C388
:104B8000D7FC3EC3E22EFF24E7FCF094F701EE0FC2
:104B9000FF1FEE0FFF1FE45BF34F80819181A28125
:104BA000B381C757DF4F88839983AA83BB83C958D2
:104BB000D0400D2D112707FD1095F801EE0FFF1FB6
:104BC000EE0FFF1FE05CF34F80819181A281B381E2
:104BD000C357DF4F88839983AA83BB83CD58D040C6
:104BE000C158DF4F88839983AA83BB83CF57D040B6
:104BF000AE0141585F4FC757DF4F688179818A8185
:104C00009B81C958D0400E949617882309F4F8C2A6
:104C10008091FC09882371F0B7018DE493E00E9434
:104C20000DABB80187E493E00E940DAB89E29CD301
:104C30008AE09AD3E114F10409F09CC00115110532
:104C400009F4B6C00230110509F4BCC0212C312C86
:104C500054EB452E52E4552E812C912C64EBA62E5C
:104C600062ECB62E2DEC3CEC4CEC5DE3C201B101E4
:104C70000F94D6179B01AC01C501B4010F94B01875
:104C800087FFBAC20E947518882309F4C3C06FEF6A
:104C90008BE393E00E947AD28EE497E00E94FA19A7
:104CA00080E090E0A0E7B1E4809356079093570727
:104CB000A0935807B0935907E3961CAE1DAE1EAEE5
:104CC0001FAEE3979E0121593F4F46E557E062E54D
:104CD00077E08EE497E00E94B8188091A30390914A
:104CE000A403A091A503B091A60380934E079093CF
:104CF0004F07A0935007B093510780919F03909165
:104D0000A003A091A103B091A203809352079093B6
:104D10005307A0935407B0935507E3961CAE1DAEFE
:104D20001EAE1FAEE3979E0121593F4F46E557E067
:104D300062E577E08EE497E00E94B8181092A31421
:104D4000C456DF4F9881CC59D04091116EC2109259
:104D5000DE131092DD130E944FBE1092E2131092E8
:104D6000E11380E00E9405BE60C26FE973E083EA50
:104D700093E0EFCE92E0E916F10469F40115110514
:104D800059F1212C312C47E8442E43E4542E0230B3
:104D9000110541F538C00115110559F1212C312CAF
:104DA00034EB432E33E4532E0230110541F52BC072
:104DB000212C312C24EB422E22E4522E812C912CDA
:104DC000540150CF212C312C2101812C912C94EBBA
:104DD000A92E92ECB92E46CF212C312C84E3482EFB
:104DE00083E4582E812C912C04EBA02E02E4B02EEB
:104DF00039CF212C312C14E3412E13E4512E812C78
:104E0000912C54012FCF812C912CB4E3AB2EB3E421
:104E1000BB2E28CF20E030E040EF51E4C501B401C3
:104E20000F94B7180F941F198B0177FF03C0045F0D
:104E30001F4F06C06C3071051CF08B010C5011091E
:104E40007801EE0CFF1CEE0CFF1CA1E0B0E0AC0FF3
:104E5000BD1FEA0EFB1EF701208131814281538183
:104E6000C757DF4F688179818A819B81C958D040BB
:104E70000F94D7173B01C756DF4F8883C959D040DD
:104E8000C656DF4F9883CA59D040D701D4962D918A
:104E90003D914D915C91D797C357DF4F68817981E0
:104EA0008A819B81CD58D0400F94D717F62EE72EDC
:104EB000CF56DF4F8883C159D040CE56DF4F9883FD
:104EC000C259D0400F5F1F4F000F111F000F111F5D
:104ED000E1E0F0E0EC0FFD1F0E0F1F1FD8012D9138
:104EE0003D914D915C91C757DF4F688179818A81EF
:104EF0009B81C958D0400F94D717CD56DF4F688398
:104F0000C359D040CC56DF4F7883C459D040CB56DC
:104F1000DF4F8883C559D040CA56DF4F9883C659A2
:104F2000D040F80124A935A946A957A9C357DF4F96
:104F3000688179818A819B81CD58D0400F94D717A1
:104F4000C956DF4F6883C759D040172F082FC8565E
:104F5000DF4F9883C859D04020E030E040E85FE35D
:104F6000B301C756DF4F8881C959D040C656DF4FBD
:104F70009881CA59D0400F94B01887FD18C020E01E
:104F800030E845E953E4B301C756DF4F8881C9597A
:104F9000D040C656DF4F9881CA59D0400F94B31AFB
:104FA000181654F4612C40E835E923E410C0612C54
:104FB00040E030E82FE30BC0472DC756DF4F388164
:104FC000C959D040C656DF4F2881CA59D040862DD6
:104FD000942FA32FB22FEF968CAF9DAFAEAFBFAF84
:104FE000EF9720E030E040E85FE36F2D7E2DCF5655
:104FF000DF4F8881C159D040CE56DF4F9881C259CA
:10500000D0400F94B01887FD19C020E030E845E982
:1050100053E46F2D7E2DCF56DF4F8881C159D0408C
:10502000CE56DF4F9881C259D0400F94B31A18164C
:1050300054F4F12C40E835E923E410C0F12C40E0B1
:1050400030E82FE30BC04E2DCF56DF4F3881C159CA
:10505000D040CE56DF4F2881C259D0408F2D942F9B
:10506000A32FB22FEB968CAF9DAFAEAFBFAFEB9738
:1050700020E030E040E85FE3CD56DF4F6881C35960
:10508000D040CC56DF4F7881C459D040CB56DF4F4B
:105090008881C559D040CA56DF4F9881C659D04043
:1050A0000F94B01887FD21C020E030E845E953E4B3
:1050B000CD56DF4F6881C359D040CC56DF4F788141
:1050C000C459D040CB56DF4F8881C559D040CA560D
:1050D000DF4F9881C659D0400F94B31A181654F474
:1050E00050E040E835E923E419C050E040E030E802
:1050F0002FE314C0CD56DF4F5881C359D040CC5652
:10510000DF4F4881C459D040CB56DF4F3881C55955
:10511000D040CA56DF4F2881C659D040852F942FE2
:10512000A32FB22FE7968CAF9DAFAEAFBFAFE7977F
:1051300020E030E040E85FE3C956DF4F6881C7599F
:10514000D040712F802FC856DF4F9881C859D0406A
:105150000F94B01887FD19C020E030E845E953E40A
:10516000C956DF4F6881C759D040712F802FC8566C
:10517000DF4F9881C859D0400F94B31A181654F4D1
:1051800030E010E805E923E40FC030E010E000E86B
:105190002FE30AC0C956DF4F3881C759D040C856DF
:1051A000DF4F2881C859D040832F912FA02FB22FD5
:1051B000E3968CAF9DAFAEAFBFAFE397EBEAEE2EB9
:1051C000E3E0FE2E8E0101591F4F9E012D583F4FE7
:1051D000A701BE0169587F4FCE0185589F4F0E949D
:1051E000741C20E030E040EF51E4C501B4010F949D
:1051F000D7174B015C0136CD0E94081E811147CDA7
:10520000C957DF4F88819981C758D0400197C95746
:10521000DF4F99838883C758D040892B09F437CD55
:10522000C7FC35CDD7FE89CC32CDC456DF4F0FB683
:10523000F894DEBF0FBECDBFDF91CF911F910F91CC
:10524000FF90EF90DF90CF90BF90AF909F908F90A6
:105250007F906F905F904F903F902F9008951F9296
:105260000F920FB60F9211240BB60F922F938F93BC
:105270009F93EF93FF93E0919C0481E08E0F8F77D3
:105280009091C60020919D04821731F0F0E0E45E19
:10529000FB4F908380939C04FF91EF919F918F919E
:1052A0002F910F900BBE0F900FBE0F901F9018956F
:1052B0009B01AC01211581EE38074105510549F1EB
:1052C00082E08093C00060E079E08DE390E00F948D
:1052D000291C2150310941095109CA01B90122E0B3
:1052E00030E040E050E00F94291C3093C50020933B
:1052F000C4008091C10080618093C1008091C10091
:1053000088608093C1008091C10080688093C10053
:1053100008951092C00020E130E0E7CF3FB7F89445
:1053200020919D0480919C04821759F0E22FF0E0B7
:10533000E45EFB4F808190E02F5F2F7720939D04E8
:1053400002C08FEF9FEF3FBF08958FB7F894909101
:105350009D0490939C048FBF08959091C00095FF89
:10536000FCCF8093C6000895F8CFAF92BF92CF9242
:10537000DF92EF92FF920F931F93CF93DF93CDB7FE
:10538000DEB7A0970FB6F894DEBF0FBECDBF611594
:10539000710581059105A9F1B12CC42ED12CE12C08
:1053A000F12CAA24A394AB0C01E010E00C0F1D1FFC
:1053B0000B0D111DB7FC1A95A70196010F94071C40
:1053C000F8016083B901CA01611571058105910574
:1053D00011F41B2D11C0BA2CE4CFE1E0F0E0EC0F8A
:1053E000FD1FE10FF11D17FDFA9580818A3038F419
:1053F00090E3890FB2DF11501F3F79F714C097E394
:10540000F8CF80E3A0960FB6F894DEBF0FBECDBFF5
:10541000DF91CF911F910F91FF90EF90DF90CF9090
:10542000BF90AF909ACFA0960FB6F894DEBF0FBE94
:10543000CDBFDF91CF911F910F91FF90EF90DF9043
:10544000CF90BF90AF9008954115510511F4862F6C
:1054500084CF8BCFAB01682F70E080E090E0F4CF79
:10546000AB01BC0180E090E0EFCFCF92DF92EF92F2
:10547000FF926B017C0197FF0AC08DE26EDFF09412
:10548000E094D094C094C11CD11CE11CF11C4AE0F2
:10549000C701B601FF90EF90DF90CF9066CF411526
:1054A000510511F4862F59CF4A30510509F4DDCF4B
:1054B0005CCFAB01BC01882777FD8095982FEFCF9B
:1054C0008DE04BDF8AE049CFAB01BC0180E090E08A
:1054D000BBDFF6CF8F929F92AF92BF92CF92DF92B7
:1054E000EF92FF92CF936B017C01B42E20E030E06D
:1054F000A9010F94B01887FF06C08DE22EDFF7FADE
:10550000F094F7F8F094C0E060E070E080E09FE392
:10551000CB1541F02DEC3CEC4CEC5DE30F94EE1A16
:10552000CF5FF6CF9B01AC01C701B6010F94D7172F
:105530006B017C010F9424194B015C014AE015DFDB
:10554000CC2381F1C501B4010F9450199B01AC012A
:10555000C701B6010F94D6176B017C018EE2FDDE08
:1055600020E030E040E251E4C701B6010F94EE1AAA
:105570006B017C010F941F194B01AA2497FCA09486
:10558000BA2CC501B40171DFC501B4010F945219E1
:105590009B01AC01C701B6010F94D6176B017C01CA
:1055A000C150F1F6CF91FF90EF90DF90CF90BF9078
:1055B000AF909F908F9008958DCFEF92FF920F93B1
:1055C0001F93CF93DF931F92CDB7DEB7082F162F0F
:1055D000E7EBF9E084917F012FEFE21AF20A8823CA
:1055E00029F09983C1DEF7019981F4CFE02FF92FDB
:1055F00084917F019FEFE91AF90A882319F0B4DE3C
:10560000F701F6CFE5EBF9E084917F01AFEFEA1AFD
:10561000FA0A882319F0A8DEF701F6CF6AE070E0F5
:10562000812F90E046DF8AE00F90DF91CF911F91AC
:105630000F91FF90EF9098CE8091C41381111AC002
:105640006091570270915802882777FD8095982FB6
:105650000F9452199B01AC016091E9137091EA1308
:105660008091EB139091EC130F94B018881F88274A
:10567000881F089580E00895CF92DF92EF92FF9205
:105680000F931F93CF93DF93EC010F94F6100E81CD
:105690001F81288539850115110521053105B9F5C9
:1056A0003C85332309F440C02A8531503C8731E0E2
:1056B000320F3A874D85341301C01A86FE0134E05B
:1056C000239FE00DF11D112406851785208931895E
:1056D0000A831B832C833D836B017C01C00ED11E8A
:1056E000E11CF11CCE82DF82E886F9868C819D81E7
:1056F000892BD1F01FB7F8942A813B8140E050E01C
:105700006C817D8185E20F94AB131FBF0DC06B01CF
:105710007C01C01AD10AE20AF30AF7FC05C04098DE
:105720001E821F8218861986DF91CF911F910F91DB
:10573000FF90EF90DF90CF9008950F94F610609354
:105740007405709375058093760590937705089599
:1057500080E1EEE4F7E0AEE5B7E001900D928A95C6
:10576000E1F70895AC01485F5F4FBC016C5F7F4F6C
:105770000C94AC9ACF92DF92EF92FF920F931F930B
:10578000CF93DF93EB01FC01608171818281938172
:105790004CE3C42ED12CE12CF12CA70196010F94DF
:1057A000071C162F072FCA01B901A70196010F94F4
:1057B000071CF62EE72ECA01B90128E130E040E0CF
:1057C00050E00F94071CFB01C9016DE671E00F94D6
:1057D000E01B9B014F2D5E2D21153105D9F00F9354
:1057E0001F93EF92FF92FF93EF939F938F933F93BB
:1057F0002F938FE59CE09F938F93DF93CF930F942C
:105800003D218DB79EB70E960FB6F8949EBF0FBE82
:105810008DBF5BC00097C9F00F931F93EF92FF926B
:10582000FF93EF939F938F938FE49CE09F938F93CD
:10583000DF93CF930F943D21EDB7FEB73C960FB6A3
:10584000F894FEBF0FBEEDBF40C03097B9F00F9384
:105850001F93EF92FF92FF93EF9383E49CE09F935B
:105860008F93DF93CF930F943D218DB79EB70A9608
:105870000FB6F8949EBF0FBE8DBF27C0452BA9F071
:105880000F931F93EF92FF928BE39CE09F938F9374
:10589000DF93CF930F943D21EDB7FEB738960FB647
:1058A000F894FEBF0FBEEDBF10C00F931F9387E3A8
:1058B0009CE09F938F93DF93CF930F943D210F90A4
:1058C0000F900F900F900F900F90DF91CF911F913D
:1058D0000F91FF90EF90DF90CF9008958091390C59
:1058E00090913A0C009731F04AE050E060E070E0AF
:1058F0000D945D1F60E070E0CB0108950E944E188A
:1059000097FD0EC00E944E186F3F710581059105ED
:1059100009F01CF40E944E1801C06FEF862F089505
:1059200080E00895EF92FF920F931F93CF93DF9340
:10593000EC017B018A016C854D8564130AC0E88106
:10594000F9810190F081E02DCE0119950E945EC091
:10595000F2CFF70120813181F801808191815B854F
:10596000FE0174E0579FE00DF11D11243E96318336
:105970002083938382836F5F6C8781E0850F841718
:1059800011F08B8701C01B86DF91CF911F910F9182
:10599000FF90EF900895AF92BF92CF92DF92FF9267
:1059A0000F931F93CF93DF9300D01F92CDB7DEB735
:1059B000F82E662351F01092A8041092A4041092BD
:1059C000A5041092A6041092A7040F94F61000915B
:1059D000A4041091A5042091A6043091A7045B01B2
:1059E0006C01A01AB10AC20AD30AD7FC40C0F7FE64
:1059F00005C004EC19E020E030E015C0E091A804F7
:105A00002F2D332727FD30952C5F3F4F4E2F5527E5
:105A100047FD50952417350754F1EF1554F300E96D
:105A200011E020E030E0DC01CB01800F911FA21FCC
:105A3000B31F8093A4049093A504A093A604B093ED
:105A4000A70480ED97E09A8389838CE291E09C83A0
:105A50008B83AE014F5F5F4FBE016D5F7F4F84E46C
:105A600095E060DF8091A8048F5F8093A8040F9079
:105A70000F900F900F90DF91CF911F910F91FF909A
:105A8000DF90CF90BF90AF9008950F931F93CF9367
:105A9000DF93CDB7DEB72C970FB6F894DEBF0FBEFD
:105AA000CDBF8091660790916707A0916807B0917C
:105AB0006907409162075091630760916407709194
:105AC000650700915E0710915F0720916007309194
:105AD000610709871A872B873C874D835E836F8315
