:100000000C943C160C946D160C946D160C946D1695
:100010000C946D160C946D160C946D160C946D1654
:100020000C946D160C946D160C946D160C946D1644
:100030000C946D160C9452420C946D160C946D1623
:100040000C946D160C94E7430C946D160C946D167D
:100050000C946D160C946D160C94D0D40C9436B789
:100060000C946D160C94FC410C946D160C946D164A
:100070000C946D160C946D160C946D160C946D16F4
:100080000C94FF4D0C946D160C946D160C946D161B
:100090000C946D160C946D160C946D160C946D16D4
:1000A0000C946D160C946D160C94D14D0C946D1629
:1000B0000C946D160C946D160C946D160C94A34D47
:1000C0000C946D160C946D160C946D160C946D16A4
:1000D0000C946D160C946D160C946D160C946D1694
:1000E0000C946D16BC74C574CF74D874E174FC7430
:1000F00009751275EA74F37425B528B517B51BB5E3
:1001000021B55FB52CB530B536B53AB53EB544B579
:1001100048B54CB55FB552B556B55AB552B657B697
:100120005CB666B670B6E9B67AB682B68AB694B6EA
:100130009EB6A8B6B7B6C1B6E9B6CBB6D5B6DFB6E9
:10014000084AD73B3BCE016E84BCBFFDC12F3D6C3E
:1001500074319ABD56833DDA3D00C77F11BED9E4A4
:10016000BB4C3E916BAAAABE000000803F05A84C84
:10017000CDB2D44EB93836A9020C50B99186880850
:100180003CA6AAAA2ABE000000803F000D94760477
:100190000D9475024E414E494E495459494E46CD33
:1001A000CCCC3D0AD7233C17B7D13877CC2B32952E
:1001B00095E6241FB14F0A000020410000C842000C
:1001C000401C4620BCBE4CCA1B0E5AAEC59D744393
:1001D0004F4D4D554E49434154494F4E004452599D
:1001E00052554E004552524F525300494E464F0011
:1001F0004543484F0020746F6F206C6F6E67206519
:100200007874727573696F6E2070726576656E743E
:1002100065640A0020636F6C64206578747275737E
:10022000696F6E2070726576656E7465640A00474A
:10023000322F47332062616420706172616D657492
:100240006572730A00536C6565702E2E2E00526520
:1002500073756D696E67207072696E740046542DF7
:10026000352052322072656164792E00436C6963D7
:100270006B20746F20726573756D652E2E2E004E87
:100280006F206D6F76652E00456E642066696C6523
:10029000206C6973740A00426567696E2066696C38
:1002A00065206C6973740A005344207072696E741F
:1002B000696E67206279746520004E6F7420534424
:1002C000207072696E74696E670A00256973002573
:1002D000696D20256973002569682025696D2025D1
:1002E000697300256964202569682025696D2025CA
:1002F00069730025697920256964202569682025AE
:10030000696D20256973005072696E742074696D7F
:10031000653A200050726F7465637465642050699B
:100320006E0A004525692025730046542D3520525C
:10033000322072656164792E00F001EB01E401DD89
:1003400001CF016F66660044454255473A004B496C
:100350004C4C45442E20004D3131332053006F6BFF
:100360000048656174696E6720646F6E652E0020B9
:10037000573A004525692025730046542D352052F3
:10038000322072656164792E0042656420646F6E6C
:10039000652E0020573A0042656420486561746903
:1003A0006E672E0046542D35205232204F66662E41
:1003B00000205A00205900580020204D61783A2032
:1003C00000205A00205900580020204D696E3A2024
:1003D000004F6E20004F666600536F667420656E96
:1003E0006473746F70733A2000000136372603FF80
:1003F0003C3D380EFF2E303E12FFFF0C080907FF70
:10040000FF1A1C18FFFF08440AFF43FFFFFFFFFF0E
:10041000FF43290A0061626C656420286D696E20C3
:1004200074656D702000436F6C642065787472751C
:1004300064657320617265200023646566696E657A
:10044000202044454641554C545F4B6420002364B2
:100450006566696E65202044454641554C545F4BA6
:1004600069200023646566696E6520204445464125
:10047000554C545F4B702000504944204175746FB7
:1004800074756E652066696E6973686564212050B5
:10049000757420746865206C617374204B702C2017
:1004A0004B6920616E64204B6420636F6E737461CE
:1004B0006E74732066726F6D2062656C6F77206951
:1004C0006E746F20436F6E66696775726174696FD1
:1004D0006E2E680A00504944204175746F74756E21
:1004E00065206661696C6564212074696D656F754E
:1004F000740A00544845524D414C2052554E4157C4
:10050000415900546865726D616C2052756E617757
:1005100061790048656174696E67206661696C6520
:10052000640048656174696E67206661696C656422
:1005300000504944204175746F74756E6520666182
:10054000696C6564212054656D70657261747572A3
:100550006520746F6F20686967680A00204B643AF1
:100560002000204B693A2000204B703A20000A20DE
:10057000436C617373696320504944200A0020541E
:10058000753A2000204B753A2000206D61783A20A2
:1005900000206D696E3A200020643A2000206269D4
:1005A00061733A2000426564204C6576656C696E23
:1005B0006720004661696C656420746F20656E6118
:1005C000626C6520426564204C6576656C696E6777
:1005D0000A00426564204C6576656C20436F727238
:1005E000656374696F6E204D61747269783A004F6B
:1005F000666673657473206170706C69656400452C
:1006000072723A20546F6F206661722100546F6FCE
:10061000206661722066726F6D2072656665726514
:100620006E636520706F696E740A003A2000207A4C
:100630005F6D696E3A20202D3330207A5F6D6178CE
:100640003A202033300A0050726F6265205A204FE2
:100650006666736574004D36303020486F74656E81
:100660006420746F6F20636F6C6420746F20636804
:10067000616E67652066696C616D656E740A004124
:1006800075746F0020452F443D00416476616E63B0
:1006900065204B3D004E6F2063617365206C696778
:1006A00068740A00416374697665204578747275D0
:1006B0006465723A2000556E6B6E6F776E20636FC3
:1006C0006D6D616E643A2022004C696E65204E7536
:1006D0006D626572206973206E6F74204C61737453
:1006E000204C696E65204E756D6265722B312C2031
:1006F0004C617374204C696E653A20004B494C4C38
:1007000045442E200053544F505045442E20005055
:1007100072696E7465722073746F707065642064A2
:10072000756520746F206572726F72732E20466932
:100730007820746865206572726F7220616E642023
:10074000757365204D39393920746F207265737463
:100750006172742E202854656D70657261747572B3
:10076000652069732072657365742E20536574204B
:100770006974206166746572207265737461727445
:10078000696E67290A004E6F20436865636B737555
:100790006D2077697468206C696E65206E756D6276
:1007A00065722C204C617374204C696E653A200090
:1007B000636865636B73756D206D69736D617463D8
:1007C000682C204C617374204C696E653A20004D92
:1007D000313130004D333100534420726561642063
:1007E0006572726F720A00446F6E65207072696E76
:1007F00074696E672066696C650A0020496E7661CF
:100800006C696420657874727564657220000000FC
:1008100000000000000000000000000096430000FF
:1008200096430000BE4353544F505045442E200081
:100830005072696E7465722073746F707065642095
:1008400064756520746F206572726F72732E204616
:10085000697820746865206572726F7220616E64B9
:1008600020757365204D39393920746F2072657396
:10087000746172742E202854656D70657261747590
:1008800072652069732072657365742E20536574D8
:100890002069742061667465722072657374617278
:1008A00074696E67290A0053544F502063616C6C61
:1008B00065642062656361757365206F6620424CD4
:1008C000546F756368206572726F72202D20726597
:1008D00073746172742077697468204D3939390AEC
:1008E00000024B494C4C45442E2000202D20496EDF
:1008F00076616C6964206578747275646572206EC7
:10090000756D62657220210A002D2D2D2D2D2D0073
:100910007C4D61726C696E7C002D2D2D2D2D2D006E
:10092000687474703A2F2F6D61726C696E66772EE1
:100930006F726700687474703A2F2F6D61726C6902
:100940006E66772E6F72670020312E312E380020B0
:1009500020506C616E6E6572427566666572427992
:100960007465733A20002046726565204D656D6F91
:1009700072793A2000436F6D70696C65643A20416A
:10098000756720313020323031380A00207C204118
:100990007574686F723A2028436172654675647594
:1009A0006E6461652C204D61726C696E20312E3150
:1009B0002E38290A00323031372D31322D32352090
:1009C00031323A303000204C6173742055706461CC
:1009D0007465643A2000312E312E380A004D617260
:1009E0006C696E0020536F66747761726520526582
:1009F0007365740A00205761746368646F672052DE
:100A0000657365740A002042726F776E206F75748B
:100A10002052657365740A002045787465726E61B2
:100A20006C2052657365740A00506F77657255705B
:100A30000A0073746172740A006572726F722077B3
:100A4000726974696E6720746F2066696C650A004C
:100A5000456E6473746F70732025632025632025B1
:100A60006320256300205A3A0020593A0020583A62
:100A700000656E6473746F7073206869743A200047
:100A8000446F6E6520736176696E672066696C6578
:100A90002E0A004D32390024F4D43050C38E20C2C7
:100AA000A24017828B7011127A910D816CD90AA81D
:100AB00061E108C7586607615143061E4B5D05C1D9
:100AC00045A7041A411104093D98037139310340C7
:100AD00036DB0265339102D4305402802E1D02634E
:100AE0002CEE01752AC501B028A001102781018FC5
:100AF0002564012B244B01E0223401AC211F018D20
:100B0000200D01801FFC00841EED00971DDF00B842
:100B10001CD200E61BC600201BBC00641AB200B247
:100B200019A8000A19A0006A189900D1179100406D
:100B3000178B00B516840031167E00B31579003A84
:100B4000157300C7146F0058146A00EE136600880E
:100B500013630025135E00C7125B006C125700156B
:100B6000125400C111510070114F0021114B00D6D9
:100B70001049008D1047004610440002104200C08A
:100B80000F4000800F3E00420F3C00060F3B00CBA1
:100B90000E3800930E37005C0E3500270E3400F33C
:100BA0000D3200C10D3100900D3000600D2E00326D
:100BB0000D2D00050D2C00D90C2B00AE0C29008545
:100BC0000C29005C0C2700350C27000E0C2600E8D1
:100BD0000B2400C40B2400A00B23007D0B23005A20
:100BE0000B2100390B2100180B2000F80A1F00D937
:100BF0000A1E00BB0A1E009D0A1D00800A1D00631C
:100C00000A1C00470A1B002C0A1B00110A1A00F7D5
:100C1000091A00DD091900C4091900AB091900926D
:100C20000917007B091800630917004C09160036E4
:100C3000091600200916000A091500F5081500E03C
:100C4000081400CC081400B8081400A4081400907C
:100C50000813007D0812006B0813005808120046A4
:100C600008120034081100230811001208110001B5
:100C7000081100F0071000E0071000D0071000C0B6
:100C8000071000B0070F00A107100091070E0083A6
:100C9000070F0074070F0065070E0057070E004985
:100CA000070E003B070D002E070E0020070D001356
:100CB000070D0006070D00F9060C00ED060D00E01B
:100CC000060C00D4060C00C8060C00BC060C00B0D4
:100CD000060C00A4060B0099060C008D060B008282
:100CE000060B0077060B006C060B0061060A005726
:100CF000060B004C060A0042060A0038060A002EBF
:100D0000060A0024060A001A060A0010060900074F
:100D1000060A00FD050900F4050900EB050900E2DB
:100D2000050900D9050900D0050900C7050900BE5D
:100D3000050900B5050800AD050800A50509009CDA
:100D4000050800940508008C050800840508007C4F
:100D5000050800740508006C050700650508005DBE
:100D6000050700560508004E050700470507004027
:100D700005080038050700310507002A050700238C
:100D80000507001C050600160507000F05070008EB
:100D900005060002050700FB040600F5040700EE47
:100DA000040600E8040600E2040700DB040600D5A0
:100DB000040600CF040600C9040600C3040600BDF3
:100DC000040600B7040600B1040500AC040600A642
:100DD000040600A00405009B04060095040500908D
:100DE0000406008A04050085040500800406007AD4
:100DF00004050075040500700405006B0405006619
:100E0000040500610405005C040500570405005258
:100E10000405004D04050048040500430405003E98
:100E20000404003A04050035040500300404002CD5
:100E300004050027040400230405001E0404001A0E
:100E400004040016040500110404000D0404000944
:100E50000405000404040000040400FC030400F87A
:100E6000030400F4030400F0030400EC030400E8AE
:100E7000030400E4030400E0030400DC030400D8DE
:100E8000030400D4030400D0030400CC030400C80E
:100E9000030300C503030024F404D9201BC40C5C25
:100EA0000E9804C4095F0265077101F405F900FB9F
:100EB00004B30048048700C10369005803550003C8
:100EC000034500BE023A008402310053022A002981
:100ED00002250004022000E4011C00C8011900AF33
:100EE00001170098011400840113007101100061C2
:100EF00001100051010E0043010D0036010B002BC3
:100F0000010B0020010B00150109000C0109000371
:100F1000010800FB000800F3000800EB000700E4F4
:100F2000000600DE000600D8000600D2000600CC55
:100F3000000500C7000500C2000500BD000400B99F
:100F4000000400B5000400B1000400AD000400A9D5
:100F5000000400A5000300A20003009F0004009B02
:100F60000003009800030095000200930003009026
:100F70000003008D0002008B000300880002008641
:100F800000020084000300810002007F0002007D57
:100F90000002007B00020079000200770001007669
:100FA0000002007400020072000100710002006F74
:100FB0000002006D0001006C0002006A000100697F
:100FC0000002006700010066000100650001006486
:100FD0000002006200010061000100600001005F8A
:100FE0000002005D0001005C0001005B0001005A8E
:100FF000000100590001005800010057000100568F
:10100000000100550001005400010053000000538E
:101010000001005200010051000100500001004F8A
:101020000001004E0000004E0001004D0001004C88
:101030000001004B0000004B0001004A0001004984
:101040000001004800000048000100470001004680
:10105000000000460001004500000045000100447A
:101060000001004300000043000100420000004274
:101070000001004100000041000100400001003F6C
:101080000000003F0001003E0000003E0001003D66
:101090000000003D0001003C0000003C0000003C5E
:1010A0000001003B0000003B0001003A0000003A54
:1010B000000100390000003900010038000000384C
:1010C0000000003800010037000000370001003642
:1010D0000000003600000036000100350000003539
:1010E000000000350001003400000034000000342E
:1010F0000001003300000033000000330001003223
:101100000000003200000032000100310000003118
:10111000000000310001003000000030000000300D
:101120000001002F0000002F0000002F0000002F02
:101130000001002E0000002E0000002E0001002DF6
:101140000000002D0000002D0000002D0001002CEB
:101150000000002C0000002C0000002C0001002BDF
:101160000000002B0000002B0000002B0001002AD3
:101170000000002A0000002A0000002A00010029C7
:1011800000000029000000290000002900000029BB
:1011900000010028000000280000002800000028AE
:1011A00000000028000100270000002700000027A1
:1011B0000000002700000027000100260000002694
:1011C0000000002600000026000000260001002587
:1011D000000000250000002500000025000000257B
:1011E000000000250001002400000024000000246D
:1011F0000000002400000024000100230000002360
:101200000000002300000023000000230000002352
:101210000000002300010022000000220000002244
:101220000000002200000022000000220001002136
:10123000000000210000002100000021000000212A
:10124000000000210000002100010020000000201B
:10125000000000200000002000000020000000200E
:1012600000000020000000200001001F0000001FFF
:101270000000001F0000001F0000001F0000001FF2
:101280000000001F0001001E0000001E0000001EE4
:101290000000001E0000004D383420582059205A0C
:1012A00020450046696C2E204469612E0046696C19
:1012B0002E204469612E004F6666004F6E20004567
:1012C00020696E206D6D3300416476616E63652028
:1012D0004B00416476616E6365204B00416476612A
:1012E0006E6365204B00436F6E74726F6C004361D8
:1012F0006E6E6F7420656E746572207375626469BA
:10130000723A2000052E2E004D61696E0020204E9D
:101310006F7A7A6C653A20004261636B004D696EAA
:10132000696D756D2054656D70206973203138309A
:101330002E0048656174696E67206661696C65643A
:101340000045787472756465206D6F726500526532
:1013500073756D65207072696E7400524553554DFA
:1013600045204F5054494F4E533A0020204E6F7A3B
:101370007A6C653A20006368616E6765006F66206D
:101380007468652066696C616D656E74005761698B
:101390007420666F72207374617274005052494EEB
:1013A00054205041555345440020204E6F7A7A6CAA
:1013B000653A200066696C616D656E7420756E6CAF
:1013C0006F6164005761697420666F720050524902
:1013D0004E54205041555345440020204E6F7A7A98
:1013E0006C653A2000506C656173652077616974A3
:1013F0002E2E2E0048656174696E67206E6F7A7AB2
:101400006C65005052494E5420504155534544009C
:1014100020204E6F7A7A6C653A20006865617420EE
:101420006E6F7A7A6C652E005072657373206275E8
:1014300074746F6E20746F005052494E54205041A6
:10144000555345440020204E6F7A7A6C653A20004F
:10145000746F20636F6E74696E75652E2E2E006139
:101460006E6420707265737320627574746F6E00A1
:10147000496E736572742066696C616D656E740087
:101480005052494E54205041555345440020204E5F
:101490006F7A7A6C653A200066696C616D656E746E
:1014A000206C6F6164005761697420666F72005030
:1014B00052494E542050415553454400507265687E
:1014C0006561742041425320456E64005072656826
:1014D0006561742041425320426564005072656822
:1014E00065617420414253005072657061726500FD
:1014F0004D343238004D32383020503020533136A0
:101500003000424C546F7563682053656C662D54EF
:10151000657374004D3238302050302053313230F2
:1015200000507265686561742041425300507265D5
:101530006865617420504C4100436F6F6C646F7735
:101540006E00526573657420424C546F7563680079
:101550004368616E67652066696C616D656E7400D5
:1015600044697361626C6520737465707065727331
:10157000004D38340053657420686F6D65206F66C8
:10158000667365747300426564204C6576656C69AA
:101590006E67004732380A47323900486F6D652060
:1015A0005A00473238205A00486F6D65205900476D
:1015B0003238205900486F6D652058004732382076
:1015C00058004175746F20686F6D650047323800B0
:1015D0004D6F76652061786973004D61696E004DCD
:1015E0006F76652058004D6F76652059004D6F76F7
:1015F00065205A004578747275646572004D6F7687
:101600006520302E316D6D004D6F766520316D6D2A
:10161000004D6F76652031306D6D004D6F76652021
:1016200061786973004578747275646572004D6FF6
:101630007665205A004D6F76652059004D6F7665AE
:101640002058004578747275646572004D6F766538
:10165000205A004D6F76652059004D6F76652058F1
:101660000050726570617265004572726F7220770A
:10167000726974696E6720746F20454550524F4DF2
:10168000210A00290A002062797465733B20637285
:1016900063200053657474696E67732053746F72AE
:1016A0006564202800202863616C63756C61746533
:1016B0006429210A0020213D2000454550524F4D0C
:1016C00020435243206D69736D61746368202D203F
:1016D0002873746F726564292000290A00206279DA
:1016E0007465733B2063726320002073746F7265AE
:1016F000642073657474696E6773207265747269AF
:1017000065766564202800204D61726C696E3D56D7
:101710003437290A0028454550524F4D3D00454574
:1017200050524F4D2076657273696F6E206D6973EC
:101730006D61746368200048617264636F646564FE
:101740002044656661756C742053657474696E67B6
:1017500073204C6F616465640A00E8030000E803CD
:101760000000C80000001027000000001643000021
:1017700016430000A0400000C8420000A042000044
:10178000A0420000C84348E1CD4220204E6F7A7A43
:101790006C653A200066696C616D656E74206578D1
:1017A0007472756465005761697420666F720050C9
:1017B00052494E542050415553454400746F207295
:1017C0006573756D65005761697420666F7220706E
:1017D00072696E74005052494E5420504155534521
:1017E0004400436172642072656D6F7665640043E6
:1017F00061726420696E7365727465640056547218
:101800006176206D696E005654726176206D696E46
:10181000005654726176206D696E00566D696E00D7
:10182000566D696E00566D696E00566D6178204583
:1018300000566D6178204500566D61782045005650
:101840006D6178205A00566D6178205A00566D619E
:1018500078205A00566D6178205900566D617820C5
:101860005900566D6178205900566D6178205800F6
:10187000566D6178205800566D61782058004D6F84
:1018800074696F6E00416D6178204500416D61782B
:10189000204500416D6178205A00416D6178205AE1
:1018A00000416D6178205900416D617820590041F7
:1018B0006D6178205800416D6178205800412D7489
:1018C000726176656C00412D74726176656C0041C1
:1018D0002D7265747261637400412D72657472615A
:1018E000637400416363656C00416363656C004D24
:1018F0006F74696F6E0056652D6A65726B00566570
:101900002D6A65726B0056652D6A65726B00567A9A
:101910002D6A65726B00567A2D6A65726B00567976
:101920002D6A65726B0056792D6A65726B00567967
:101930002D6A65726B0056782D6A65726B00567859
:101940002D6A65726B0056782D6A65726B004D6F5B
:1019500074696F6E004573746570732F6D6D00450B
:1019600073746570732F6D6D005A73746570732F87
:101970006D6D005A73746570732F6D6D00597374BB
:101980006570732F6D6D005973746570732F6D6D75
:10199000005873746570732F6D6D005873746570A3
:1019A000732F6D6D004D6F74696F6E0053746570A9
:1019B000732F6D6D004A65726B00416363656C65E2
:1019C000726174696F6E0056656C6F63697479003B
:1019D0005A204F6666736574005A204F66667365B9
:1019E0007400436F6E74726F6C00496E6974696144
:1019F0006C697A6520454550524F4D00436F6E74B7
:101A0000726F6C00526573746F7265206661696CE9
:101A100073616665004C6F61642073657474696EF0
:101A2000677300496E697469616C697A6520454520
:101A300050524F4D0053746F726520736574746912
:101A40006E677300424C546F7563680046696C6141
:101A50006D656E74004D6F74696F6E0054656D70C6
:101A600065726174757265004D61696E004D333049
:101A70003320553120452569205325690050726572
:101A8000686561742041425320636F6E6600507236
:101A9000656865617420504C4120636F6E6600502C
:101AA0004944204175746F74756E65005049442037
:101AB0004175746F74756E65005049442D44005033
:101AC00049442D44005049442D49005049442D4972
:101AD000005049442D50005049442D500020022010
:101AE0004661637400200220466163740020022076
:101AF0004D6178002002204D6178002002204D6168
:101B000078002002204D696E002002204D696E0091
:101B10002002204D696E004F6666004F6E20004126
:101B200075746F74656D700046616E2073706565C5
:101B30006420320046616E20737065656420320057
:101B400046616E20737065656420320046616E20C8
:101B5000737065656420310046616E207370656541
:101B60006420310046616E20737065656420310029
:101B700042656400426564004E6F7A7A6C65004E7F
:101B80006F7A7A6C6500436F6E74726F6C00537479
:101B90006F72652073657474696E67730042656463
:101BA0000042656400426564004E6F7A7A6C65009D
:101BB0004E6F7A7A6C65004E6F7A7A6C650046617A
:101BC0006E2073706565640046616E207370656594
:101BD000640046616E2073706565640054656D70C5
:101BE000657261747572650020746F6F206C6F6E22
:101BF0006720657874727573696F6E207072657690
:101C0000656E7465640A0020636F6C642065787487
:101C1000727573696F6E2070726576656E74656437
:101C20000A0053442063617264206F6B0A006F7076
:101C3000656E526F6F74206661696C65640A007628
:101C40006F6C756D652E696E6974206661696C656F
:101C5000640A00534420696E6974206661696C0AE5
:101C6000006175746F25692E67004D3234004D3266
:101C7000332025730057726974696E6720746F2072
:101C800066696C653A20006F70656E206661696CEC
:101C900065642C2046696C653A20006F70656E2083
:101CA0006661696C65642C2046696C653A20004663
:101CB000696C652073656C65637465640A00205304
:101CC000697A653A200046696C65206F70656E65BB
:101CD000643A20006F70656E206661696C65642CE3
:101CE0002046696C653A20002066696C653A2000E0
:101CF000646F696E67006672657368004E6F772067
:101D000000454E4420535542524F5554494E450AC2
:101D1000002220706F73002220706172656E743A29
:101D20002200535542524F5554494E452043414C91
:101D30004C207461726765743A22004B494C4C45E3
:101D4000442E2000747279696E6720746F2063617D
:101D50006C6C207375622D67636F64652066696CB7
:101D60006573207769746820746F6F206D616E7978
:101D7000206C6576656C732E204D4158206C65761D
:101D8000656C2069733A004572726F723A00207078
:101D90006F736974696F6E206F7574206F6620723F
:101DA000616E67652E0A003F50726F626520000AFF
:101DB0000A426564204C6576656C20436F727265DB
:101DC0006374696F6E204D61747269783A00202BDC
:101DD000000A436F72726563746564204265642013
:101DE0004865696768742076732E204265642054C4
:101DF0006F706F6C6F67793A0A00202B000A42659A
:101E0000642048656967687420546F706F677261F9
:101E10007068793A0A2020202B2D2D2D2042414335
:101E20004B202D2D2B0A2020207C2020202020201C
:101E300020202020207C0A204C207C2020202028CC
:101E40002B29202020207C20520A2045207C202085
:101E50002020202020202020207C20490A204620ED
:101E60007C20282D29204E20282B29207C20470A41
:101E70002054207C20202020202020202020207C76
:101E800020480A2020207C20202020282D292020C6
:101E900020207C20540A2020207C2020202020206C
:101EA00020202020207C0A2020204F2D2D2046524B
:101EB0004F4E54202D2D2B0A2028302C30290A007B
:101EC0004D65616E206F662073616D706C65642076
:101ED000706F696E74733A200020643A20002062AB
:101EE0003A200045716E20636F65666669636965B7
:101EF0006E74733A20613A2000202844525952559A
:101F00004E2900473239204175746F2042656420A4
:101F10004C6576656C696E670028422961636B00C9
:101F2000284629726F6E7400285229696768740008
:101F3000284C29656674003F4E756D626572206F8E
:101F4000662070726F626520706F696E74732069AD
:101F50007320696D706C61757369626C65202832DD
:101F6000206D696E696D756D292E0A003F2856290E
:101F70006572626F7365206C6576656C206973208D
:101F8000696D706C61757369626C652028302D34E1
:101F9000292E0A0053746F7720424C546F75636882
:101FA000004D3238302050302053393000446570B5
:101FB0006C6F7920424C546F756368004D32383035
:101FC0002050302053313000424C546F75636820EC
:101FD00053656C662D54657374004D323830205053
:101FE00030205331323000526573657420424C54B6
:101FF0006F756368004D32383020503020533136D1
:1020000030004D61696E005072696E7420706175A8
:1020100073656400005072696E742061626F72743F
:102020006564005072696E742066726F6D2053444F
:102030000053746F70207072696E7400526573750E
:102040006D65207072696E74004E6F20534420637A
:10205000617264005061757365207072696E7400FE
:10206000436F6E74726F6C005072657061726500C0
:1020700054756E6500496E666F2073637265656E98
:10208000004D363030204230004368616E67652075
:1020900066696C616D656E7400466C6F7700466CA6
:1020A0006F770046616E207370656564203200466C
:1020B000616E20737065656420320046616E207326
:1020C0007065656420320046616E207370656564DA
:1020D00020310046616E20737065656420310046D2
:1020E000616E207370656564203100426564004252
:1020F0006564004E6F7A7A6C65004E6F7A7A6C6513
:1021000000537065656400537065656400537065C5
:102110006564004D61696E00507265686561742088
:10212000504C4120456E64005072656865617420B2
:10213000504C4120426564005072656865617420AE
:10214000504C4100507265706172650000002100C2
:10215000240027002A002D00300033000101000078
:10216000040107010A0100002200250028002B00BD
:102170002E003100340002010000050108010B01AE
:10218000000020002300260029002C002F00320030
:102190000001000003010601090105050505070509
:1021A00008080808020202020A0A080804040404D3
:1021B00001010101010101010303030303030303FF
:1021C000040707070C0C0C0C0C0C0C0C020202028E
:1021D00006060606060606060B0B0B0B0B0B0B0B77
:1021E0000102102020080810204010204080020129
:1021F000020108040201010204081020408080400E
:10220000201008040201800402018040201008040C
:1022100002010804020101020408102040800102AA
:1022200004081020408000000A0B02090C0D0E0863
:10223000070304010000000000000000000000008F
:10224000000000000000000000000000000000008E
:10225000000012111000000000000000000000004B
:1022600000000000000000000000000043616E6EEE
:102270006F74206F70656E207375626469722000E0
:10228000656E7175657565696E67202200656368A6
:102290006F3A00473238205A20466F726269646490
:1022A000656E0A00473238205A20466F72626964B0
:1022B00064656E0050726F62696E67206661696C5A
:1022C00065640A0050726F62696E67206661696CAE
:1022D000656400205A3A200020593A200042656483
:1022E00020583A2000486F6D6520257325732573AB
:1022F000206669727374002066697273740A005AEA
:102300000059005800486F6D6520002052002020C1
:102310004D393030204B004C696E6561722041644C
:1023200076616E63653A0A0020204D383531205AB7
:10233000005A2D50726F6265204F66667365742077
:10234000286D6D293A0A0020440020490020204DC4
:102350003330312050005049442073657474696EE5
:1023600067733A0A002046002042002048002020DF
:102370004D3134352053004D6174657269616C20B4
:1023800068656174757020706172616D65746572E5
:10239000733A0A0020204D343230205300417574C6
:1023A0006F20426564204C6576656C696E673A0AF9
:1023B00000205A0020590020204D3230362058008D
:1023C000486F6D65206F66667365743A0A00204534
:1023D00000205A00205900205800204200205400BC
:1023E00020204D323035205300416476616E6365A4
:1023F000643A20533C6D696E5F6665656472617412
:10240000653E20543C6D696E5F74726176656C5FE9
:1024100066656564726174653E20423C6D696E5FFD
:102420007365676D656E745F74696D655F75733E26
:1024300020583C6D61785F78795F6A65726B3E20E9
:102440005A3C6D61785F7A5F6A65726B3E20453CED
:102450006D61785F655F6A65726B3E0A00205400AB
:1024600020520020204D32303420500041636365FB
:102470006C65726174696F6E2028756E6974732F54
:102480007332293A20503C7072696E745F616363E5
:10249000656C3E20523C726574726163745F616367
:1024A00063656C3E20543C74726176656C5F616359
:1024B00063656C3E0A00204500205A002059002028
:1024C000204D3230312058004D6178696D756D2096
:1024D000416363656C65726174696F6E2028756E07
:1024E0006974732F7332293A0A00204500205A007C
:1024F00020590020204D3230332058004D6178693A
:102500006D756D20666565647261746573202875EC
:102510006E6974732F73293A0A00204500205A000F
:1025200020590020204D39322058005374657073B3
:102530002070657220756E69743A0A0020204D3251
:1025400030302044300A0020204D3230302044000A
:102550002044697361626C65640A0046696C616D50
:10256000656E742073657474696E67733A00202019
:102570004D3134392043203B20556E6974732069F6
:102580006E2043656C736975730A002020473231F1
:10259000202020203B20556E69747320696E206DC9
:1025A0006D0A0070012C0190012701B0012201C0C9
:1025B000011D01F00118011002130130020E01602B
:1025C00002090190020401C002FF000003FA00406A
:1025D00003F5008003F000D003EB002004E6007058
:1025E00004E100E004DC004005D700C005D2004053
:1025F00006CD00D006C8008007C3003008BE00F03A
:1026000008B900C009B400B00AAF00B00BAA00D0EE
:102610000CA500000EA000500F9B00C010960050AB
:1026200012910000148C00C0158700B0178200B012
:10263000197D00D01B7800001E730040206E0090B2
:10264000226900F024640040275F0090295A00E0CE
:102650002B5500102E500020304B0010324600E069
:1026600033410090353C001037370070383200A0FD
:10267000392D00B03A2800A03B2300603C1E00101A
:102680003D1900903D1400103E0F00703E0A00C03E
:102690003E0500003F0000403FFBFF803FF6FFC0CB
:1026A0003FF1FF544845524D414C2052554E415741
:1026B000415900546865726D616C2052756E617786
:1026C0006179004572723A204D494E54454D502073
:1026D000424544004572723A204D494E54454D5092
:1026E000004D494E54454D502074726967676572BC
:1026F0006564004572723A204D415854454D502052
:10270000424544004572723A204D415854454D505F
:10271000004D415854454D50207472696767657289
:10272000656400202F002042403A0020403A00001B
:10273000000000010204040000001C1C0C0404043E
:10274000020100000000000408100000000000006A
:102750001C1F11111F00000006191803130C0004A0
:102760000E1F041C000000000E1315110E00001CAB
:1027700010181705060500040A0A0A0A11110E0CA2
:1027800012120C00000000001F1511151F000000A0
:1027900000000000000000000000000000484200AF
:1027A0000048420000A041000000005761726E69BD
:1027B0006E673A20486F6D696E672042756D7020B4
:1027C00044697669736F72203C20310A000202046A
:1027D0000000A0400000A040000000400000964320
:1027E000000096430000BE43FFFFFF7C3C3E5E2B93
:1027F0003D3F2F5B5D3B2C2A225C0025753A25303E
:10280000327500253032753A25303275002D2D2D68
:10281000005344005A005900580046696C65206412
:10282000656C657465643A0044656C6574696F6EC7
:10283000206661696C65642C2046696C653A2000ED
:102840006F70656E206661696C65642C2046696CEA
:10285000653A20004D31343520533C696E6465780B
:102860003E206F7574206F662072616E6765202848
:10287000302D31290A00205A3A0020593A002043CD
:102880006F756E7420583A0020453A00205A3A007D
:1028900020593A00583A003A004361703A00454DD9
:1028A000455247454E43595F5041525345520043AC
:1028B0004153455F4C494748545F42524947485449
:1028C0004E45535300544F47474C455F4C4947488A
:1028D000545300534F4654574152455F504F57454C
:1028E00052004255494C445F50455243454E5400B6
:1028F0004C4556454C494E475F44415441005A5F50
:1029000050524F4245004155544F4C4556454C009E
:102910005052494E545F4A4F420050524F47524521
:102920005353004155544F5245504F52545F5445F4
:102930004D5000564F4C554D455452494300454566
:1029400050524F4D0053455249414C5F584F4E5FD6
:10295000584F4646004649524D574152455F4E41F9
:102960004D453A4D61726C696E20312E312E382002
:10297000284769746875622920534F555243455F53
:10298000434F44455F55524C3A68747470733A2F04
:102990002F6769746875622E636F6D2F4D61726C5D
:1029A000696E4669726D776172652F4D61726C69EF
:1029B0006E2050524F544F434F4C5F56455253492F
:1029C0004F4E3A312E30204D414348494E455F54D9
:1029D0005950453A46542D352052322045585452CC
:1029E000554445525F434F554E543A312055554951
:1029F000443A63656465326132662D343161322D4B
:102A0000343734382D396231322D633535633632FF
:102A10006633363766660A002F2F200053657474BC
:102A2000696E672054726176656C20416363656CE2
:102A300065726174696F6E3A200053657474696ED3
:102A400067205265747261637420416363656C65CD
:102A5000726174696F6E3A200053657474696E67B1
:102A6000205072696E7420416363656C6572617495
:102A7000696F6E3A200053657474696E67205072F6
:102A8000696E7420616E642054726176656C2041B9
:102A90006363656C65726174696F6E3A2000206FC4
:102AA0007574206F662072616E67650A00536572E7
:102AB000766F20003A200020536572766F20002048
:102AC000643A0020693A0020703A0066696C616DD2
:102AD000656E743A20007A5F6D696E3A2000795F06
:102AE0006D696E3A2000785F6D696E3A200052651C
:102AF000706F7274696E6720656E6473746F702096
:102B00007374617475730A00526573656E643A205C
:102B1000006F6B00627573793A207061757365643C
:102B200020666F7220696E7075740A006275737921
:102B30003A2070617573656420666F7220757365E5
:102B4000720A00627573793A2070726F63657373ED
:102B5000696E670A004D363030004B494C4C454495
:102B60002E20004B494C4C206361757365642062D4
:102B700079204B494C4C20627574746F6E2F7069CC
:102B80006E0A004B494C4C45442E20004B494C4C9E
:102B90002063617573656420627920746F6F206DA6
:102BA00075636820696E6163746976652074696D08
:102BB00065202D2063757272656E7420636F6D6D74
:102BC000616E643A2000506C6561736520726573B4
:102BD0006574005052494E5445522048414C54456A
:102BE00044005072696E7465722068616C7465642B
:102BF0002E206B696C6C28292063616C6C656421E4
:102C00000A006265640A002C2073797374656D2074
:102C100073746F7070656421204865617465725FBC
:102C200049443A200048656174696E6720666169AD
:102C30006C65640048656174696E67206661696CE3
:102C400065640048656174696E67206661696C65DA
:102C5000640048656174696E67206661696C6564CB
:102C600000205A3A200020593A200042656420583A
:102C70003A200000C800C60011241FBECFEFD1E2E9
:102C8000DEBFCDBF00E00CBF13E0A0E0B2E0E2E1A8
:102C9000F9E202E00BBF02C007900D92AA39B1071A
:102CA000D9F724E1AAE9B3E001C01D92AA34B20722
:102CB000E1F716E1CBE3D6E100E006C02197010978
:102CC000802FFE010F94ED13CA33D10780E008076F
:102CD000A9F70E943DFB0D9478140C9400002F92EC
:102CE0003F924F925F926F927F928F929F92AF929C
:102CF000BF92CF92DF92EF92FF920F931F93CF93E9
:102D0000DF93CDB7DEB7C159D1090FB6F894DEBF56
:102D10000FBECDBF81E090E09093B0138093AF13CE
:102D2000809143148D3409F45BC6843511F40C94FE
:102D30003C2F873411F00C947E2F80914114909198
:102D400042148B31910509F40AC67CF48430910554
:102D50003CF48230910594F597FF29C00C94982F8C
:102D6000049709F4B5C50C94982F8E31910509F498
:102D70002AC664F48C31910509F421C64D9711F0EF
:102D80000C94982F0E94B59F0C94982F8B35910529
:102D900009F41DC68C35910509F41EC68A359105C6
:102DA00011F00C94982F10929E030C94982F809100
:102DB000860281110C949F2F0C94982F20918602EB
:102DC000222311F40C94982F11E0029709F010E0DF
:102DD0000E942F9E82E50E94E53C882309F44AC1A7
:102DE0000E94833C6B017C0140908E1250908F12A8
:102DF0006090901270909112809192129091931223
:102E0000A0919412B091951288AF99AFAAAFBBAFC1
:102E100020915E1230915F124091601250916112C8
:102E20002CAF3DAF4EAF5FAF8091621290916312B5
:102E3000A0916412B09165122C968CAF9DAFAEAF8D
:102E4000BFAF2C9720E030E0A901C701B6010F9475
:102E5000B90C882309F422C5A30192016CAD7DADA4
:102E60008EAD9FAD0F94B90C81110FC028AD39AD57
:102E70004AAD5BAD2C966CAD7DAD8EAD9FAD2C9704
:102E80000F94B90C882309F409C520E030E0A901AA
:102E9000C701B6010F94B90C881F8827881F181323
:102EA0000BC020E030E040E85FE364962CAF3DAF1C
:102EB0004EAF5FAF64970AC080E090E0A0E8BFEB40
:102EC00064968CAF9DAFAEAFBFAF6497A301920184
:102ED0006CAD7DAD8EAD9FAD0F94F11028966CAFAB
:102EE0007DAF8EAF9FAF289728AD39AD4AAD5BADB2
:102EF0002C966CAD7DAD8EAD9FAD2C970F94F110DF
:102F000060966CAF7DAF8EAF9FAF609728962CAD6B
:102F10003DAD4EAD5FAD2897CA01B9010F941E0DAE
:102F20004B015C0160962CAD3DAD4EAD5FAD609741
:102F3000CA01B9010F941E0D9B01AC01C501B4017A
:102F40000F94F2100F945D1324966CAF7DAF8EAF8B
:102F50009FAF249720E030E040E05FE30F941E0D28
:102F60004B015C01A7019601C701B6010F941E0D2C
:102F70006B017C01A5019401C501B4010F941E0DE4
:102F80009B01AC01C701B6010F94F1100F945D13C2
:102F90009B01AC0164966CAD7DAD8EAD9FAD649729
:102FA0000F941E0D4B015C012CAD3DAD4EAD5FADE0
:102FB000C301B2010F94F21020E030E040E05FE383
:102FC0000F941E0D6B017C0160966CAD7DAD8EADD6
:102FD0009FAD6097905824962CAD3DAD4EAD5FAD42
:102FE00024970F94CE119B01AC01C501B4010F943D
:102FF0001E0D9B01AC01C701B6010F94F210A30195
:1030000092010F94F1106B017C012C962CAD3DAD1B
:103010004EAD5FAD2C9768AD79AD8AAD9BAD0F9489
:10302000F21020E030E040E05FE30F941E0D2B0132
:103030003C0124962CAD3DAD4EAD5FAD2497289656
:103040006CAD7DAD8EAD9FAD28970F94CE119B01D9
:10305000AC01C501B4010F941E0D9B01AC01C3016D
:10306000B2010F94F21028AD39AD4AAD5BAD0F94AB
:10307000F11014C089E40E94E53C882329F00E94E5
:10308000833C6B017C0103C0C12CD12C76018AE406
:103090000E94E53C8823F9F00E94833C2C966CAF9B
:1030A0007DAF8EAF9FAF2C9720E030E0A901C70124
:1030B000B6010F94B90C81111EC020E030E0A901C7
:1030C0002C966CAD7DAD8EAD9FAD2C970F94B90C49
:1030D000811111C0E3C320E030E0A901C701B601AE
:1030E0000F94B90C882309F4D9C32C961CAE1DAEDD
:1030F0001EAE1FAE2C97A7019601505828AF39AFCE
:103100004AAF5BAF2C968CAD9DADAEADBFAD2C97ED
:10311000B0588CAF9DAFAEAFBFAFCA01B9010F942D
:103120001E0D4B015C012CAD3DAD4EAD5FADCA0136
:10313000B9010F941E0D9B01AC01C501B4010F94A0
:10314000F2100F945D13A4966CAF7DAF8EAF9FAF5E
:10315000A49720918E1230918F124091901250912D
:10316000911224962CAF3DAF4EAF5FAF2497A701CD
:10317000960124966CAD7DAD8EAD9FAD24970F94D6
:10318000F21064966CAF7DAF8EAF9FAF6497809165
:10319000921290919312A0919412B0919512609610
:1031A0008CAF9DAFAEAFBFAF60972C962CAD3DAD51
:1031B0004EAD5FAD2C97BC01CD010F94F210689617
:1031C0006CAF7DAF8EAF9FAF689720915E1230914C
:1031D0005F1240916012509161126C962CAF3DAF1E
:1031E0004EAF5FAF6C9764962CAD3DAD4EAD5FAD0D
:1031F00064976C966CAD7DAD8EAD9FAD6C970F9462
:10320000F1106B017C018091621290916312A09188
:103210006412B0916512A0968CAF9DAFAEAFBFAFF8
:10322000A09768962CAD3DAD4EAD5FAD6897BC01E3
:10323000CD010F94F1104B015C0120919612309159
:1032400097124091981250919912AC962CAF3DAFC5
:103250004EAF5FAFAC97609166127091671280912C
:103260006812909169120F94F11028966CAF7DAF9F
:103270008EAF9FAF289780916A1290916B12A091A8
:103280006C12B0916D12A8968CAF9DAFAEAFBFAF70
:10329000A89720919A1230919B1240919C125091C4
:1032A0009D12E0962CAF3DAF4EAF5FAFE097A70108
:1032B000960168AD79AD8AAD9BAD0F941E0D2B01C3
:1032C0003C01A50194016CAD7DAD8EAD9FAD0F9419
:1032D0001E0D9B01AC01C301B2010F94F2102B0132
:1032E0003C01A501940168AD79AD8AAD9BAD0F9409
:1032F0001E0D4B015C01A70196016CAD7DAD8EAD3D
:103300009FAD0F941E0D9B01AC01C501B4010F943C
:10331000F110A30192010F9465116B017C0120E073
:1033200030E0A9010F94B90C87FF0AC02BED3FE0F4
:1033300049EC50E4C701B6010F94F2106B017C0117
:10334000112351F02BED3FE049EC50E4C701B601E9
:103350000F94F1106B017C0120E030E0A901C7015E
:10336000B6010F94B90C811128C06C962CAD3DADFF
:103370004EAD5FAD6C9724966CAD7DAD8EAD9FADBF
:1033800024970F94B90C811118C0A0962CAD3DADB7
:103390004EAD5FADA09760966CAD7DAD8EAD9FAD2F
:1033A00060970F94B90C811108C01BEDC12E1FE06E
:1033B000D12E19ECE12E10E4F12EA4962CAD3DADEA
:1033C0004EAD5FADA497C701B6010F941E0D9B01D2
:1033D000AC010F941E0D4B015C0128962CAD3DAD48
:1033E0004EAD5FAD2897CA01B9010F941E0D9B0128
:1033F000AC01C501B4010F94F2100F945D134B01A1
:103400005C012FE632E143E85AE30F94B90C87FDE3
:1034100041C2C501B4010F9467120F943B121B0106
:10342000672B19F422242394312CB10180E090E021
:103430000F94BD0C4B015C019B01AC01C701B601AF
:103440000F94CE1124966CAF7DAF8EAF9FAF2497B3
:10345000A501940128966CAD7DAD8EAD9FAD2897EA
:103460000F94CE11A4966CAF7DAF8EAF9FAFA49793
:10347000E0962CAD3DAD4EAD5FADE097A8966CAD3E
:103480007DAD8EAD9FADA8970F94F110A50194016D
:103490000F94CE11A8966CAF7DAF8EAF9FAFA8975B
:1034A00024962CAD3DAD4EAD5FAD2497CA01B90158
:1034B0000F941E0D20E030E040E05FE30F941E0DFE
:1034C0009B01AC0160E070E080E89FE30F94F11095
:1034D0006C966CAF7DAF8EAF9FAF6C97AC968CAD9A
:1034E0009DADAEADBFADAC9789879A87AB87BC87E2
:1034F000E0962CAD3DAD4EAD5FADE0972D873E879C
:103500004F87588B6091350270913602072E000C60
:10351000880B990B0F94BF0C20913B0230913C0219
:1035200040913D0250913E020F941E0D2AE037ED6E
:1035300043E25CE30F941E0D6CA77DA78EA79FA7A7
:103540000E942AB79B01AC0128533F4F4F4F5F4F5A
:10355000A0962CAF3DAF4EAF5FAFA09748AC59AC33
:103560006AAC7BAC41E050E02E965FAF4EAF2E9739
:1035700059E125965FAF25972E96AEADBFAD2E973C
:10358000A215B30509F44BC10E9478F60E942AB730
:10359000DC01CB01A0962CAD3DAD4EAD5FADA0974B
:1035A000821B930BA40BB50BB7FD11C00E942AB769
:1035B0009B01AC0128533F4F4F4F5F4FA0962CAF5C
:1035C0003DAF4EAF5FAFA09780E00E946FF12596B0
:1035D0003FAD2597315025963FAF2597332309F40A
:1035E00045C06C962CAD3DAD4EAD5FAD6C976CADEE
:1035F0007DAD8EAD9FAD0F941E0D6B017C012496A9
:103600002CAD3DAD4EAD5FAD2497B201C3010F941B
:103610001E0DA70196010F94F2107B018C016C9690
:103620002CAD3DAD4EAD5FAD6C97B201C3010F94B3
:103630001E0D4B015C0124962CAD3DAD4EAD5FAD32
:1036400024976CAD7DAD8EAD9FAD0F941E0D9B018B
:10365000AC01C501B4010F94F1102B013C01C7016D
:10366000D8018CAF9DAFAEAFBFAF5BC02E964EAD55
:103670005FAD2E97BA0180E090E00F94BD0C2496C8
:103680002CAD3DAD4EAD5FAD24970F941E0D4B019B
:103690005C010F94CB116B017C01C501B4010F9447
:1036A00053134B015C01A701960168AD79AD8AAD5A
:1036B0009BAD0F941E0D2B013C01A50194012C968E
:1036C0006CAD7DAD8EAD9FAD2C970F941E0D9B0103
:1036D000AC01C301B2010F94F2102B013C01A50112
:1036E000940168AD79AD8AAD9BAD0F941E0D4B0171
:1036F0005C01A70196012C966CAD7DAD8EAD9FADA2
:103700002C970F941E0D9B01AC01C501B4010F94C1
:10371000F1106CAF7DAF8EAF9FAF59E125965FAFD3
:1037200025979201A30164966CAD7DAD8EAD9FADE2
:1037300064970F94F21069837A838B839C832CADFA
:103740003DAD4EAD5FAD68966CAD7DAD8EAD9FADC0
:1037500068970F94F2106D837E838F839887A49669
:103760002CAD3DAD4EAD5FADA49769857A858B8557
:103770009C850F94F21069877A878B879C87A8961F
:103780002CAD3DAD4EAD5FADA8976D857E858F8527
:1037900098890F94F2106D877E878F87988B809120
:1037A0001E02882321F0CE0101960E94BEDDE0902A
:1037B0001F1489819A81AB81BC8188A399A3AAA394
:1037C000BBA38D819E81AF81B8858CA39DA3AEA341
:1037D000BFA389859A85AB85BC8588A799A7AAA729
:1037E000BBA7CE0180960E94003D8E01045D1F4F55
:1037F0009E01235F3F4FAE01485D5F4FBE016C5D90
:103800007F4FCE0180960E9430942E968EAD9FAD54
:103810002E9701962E969FAF8EAF2E97ADCEE0904D
:103820001F1480915E1290915F12A0916012B0916E
:10383000611288A399A3AAA3BBA38091621290915D
:103840006312A0916412B09165128CA39DA3AEA3E4
:10385000BFA38091661290916712A0916812B091F7
:10386000691288A799A7AAA7BBA7CE0180960E9434
:10387000003D8E01045D1F4F2AE632E1AE01485D36
:103880005F4FBE016C5D7F4FCE0180960E943094E9
:103890000E94123D0E941C3D0C94982FE7E8FDE128
:1038A00084918F010F5F1F4F882321F00E945F3D9D
:1038B000F801F6CFEFE2F2E084918F010F5F1F4F26
:1038C000882311F40C94982F0E945F3DF801F4CFE7
:1038D00080E50E94E53C882329F00E94433C6B016F
:1038E0007C0103C0C12CD12C760183E50E94E53C0C
:1038F000882361F00E94833C20E030E04AE754E4F2
:103900000F941E0D0F943B126B017C010E943FF837
:1039100080914002811105C060E085E492E00E9440
:10392000D5BC0E941C3D8091BA139091BB13A0910D
:10393000BC13B091BD13C80ED91EEA1EFB1E0E9417
:103940002AB7DC01CB018C199D09AE09BF09B7FD6F
:1039500002C00C94982F80E00E946FF1F0CF0E947B
:1039600090C981110C94982F80E090E0A6E1B3E417
:1039700089839A83AB83BC8380E090E0A1E9B3E4C0
:103980008D839E83AF83B88780E090E0A0EAB1E4A6
:1039900089879A87AB87BC8780E50E94E53C8823AE
:1039A00019F00E94533C01C060E068A3BE016F5F44
:1039B0007F4FCE0180960E944EEF0C94982F0E946C
:1039C00056CD0C94982F0E945CFA0C94982F81E0AD
:1039D00080939E030C94982F0E9483E60C94982F5A
:1039E00080914114909142148537910509F42CC7B8
:1039F0000CF0DAC08C34910509F44AC40CF071C0A3
:103A00008831910509F4B3C2E4F58231910509F4D6
:103A10006DC6F4F497FF02C00C94982F8230910584
:103A20000CF4BBC1419711F00C94982F60E08FE724
:103A300092E00E94D5BC5F988A989FB7F8948091D5
:103A400008018E7F809308019FBF12980C94982FD5
:103A50008531910509F470C23CF4449711F00C943F
:103A6000982FE7E9F2E025C28631910509F468C292
:103A7000479711F00C94982FE0913F14F091401467
:103A800069C28E31910509F4CDC2C4F48A31910521
:103A900009F47EC20CF476C28B31910509F486C21A
:103AA0004C9711F00C94982F40E060E080913F1407
:103AB000909140140E94FA980C94982F80329105AE
:103AC00009F4B4C20CF4FEC28A32910509F4A0C311
:103AD0008B34910511F00C94982F0E9450C90C94CE
:103AE000982F8A36910509F49EC5B4F58435910561
:103AF00009F4FCC5E4F48135910509F4D8C54CF40A
:103B00008D34910511F00C94982F0E94D6BD0C9421
:103B1000982F8235910509F4E5C58335910511F09B
:103B20000C94982F81E080939D030C94982F8C35F2
:103B3000910509F4FAC534F48535910509F4DAC51F
:103B40000C94982F8836910509F4A6C389369105FF
:103B500009F4EBC40C94982F8F36910509F406C430
:103B600084F48C36910509F48AC40CF488C58D362A
:103B7000910509F41EC58E36910509F4E4C30C9431
:103B8000982F8137910509F486C40CF47CC48237E0
:103B9000910509F453C68337910511F00C94982FC1
:103BA0000E94B4EA0C94982F8C32B1E09B0711F478
:103BB0000C94EC250CF079C0893C910509F45CC6A5
:103BC000ACF58C38910509F492C4ACF487379105B3
:103BD00009F447C60CF441C68837910509F445C677
:103BE0008937910511F00C94982F1092020F1092C2
:103BF000010F0C94982F8B39910509F4B3C44CF440
:103C00008139910511F00C94982F0E9461E40C9475
:103C1000982F8E3B910509F4EAC4883C910511F078
:103C20000C94982F0E942BEA0C94982F833D9105B9
:103C300009F469C614F58C3C910509F43FC64CF4AF
:103C40008B3C910511F00C94982F0E9409EA0C947A
:103C5000982F8D3C910509F435C68E3C910511F0E5
:103C60000C94982FBAE8CB2EB2E0DB2E18E5E12EAB
:103C700014E0F12E00E010E029C68D3D910509F415
:103C800032C734F48C3D910509F41EC70C94982F6B
:103C9000823E910509F471C78831914011F00C946E
:103CA000982F0E9469E80C94982F8C3A21E0920793
:103CB00011F40C94422A8CF5803941E0940711F4F8
:103CC0000C94B729ACF48E32A1E09A0709F48CC7A2
:103CD0000CF486C78F32E1E09E0709F4DCC7833617
:103CE000914011F00C94982FE7E8FDE10C94102F0F
:103CF000823921E0920711F40C94BE2914F40C943B
:103D0000BA298A3941E0940709F4C1C3843A914041
:103D100011F40C94C2290C94982F8835A2E09A07CC
:103D200011F40C948A2BECF4853FE1E09E0711F42A
:103D30000C94202B4CF4843F914011F00C94982F5C
:103D40000E943F660C94982F863F31E0930711F450
:103D50000C94232B873F914011F40C94262B0C9448
:103D6000982F843853E0950711F40C94142E4CF4DA
:103D70008335934011F00C94982FEDE8F2E20C9407
:103D8000322B803AE3E09E0709F48FC1873E9340CF
:103D900011F40C94272F0C94982FA0903F14B090FE
:103DA000401480E50E94E53C882359F00E94433C82
:103DB0006B017C0111E0672B682B692B31F410E05B
:103DC00004C010E0C12CD12C760183E50E94E53CB3
:103DD0008823F1F00E94833C20E030E04AE754E47D
:103DE0000F941E0D0F943B126B017C01111112C038
:103DF000672B682B692B71F4A114B10459F0D5011C
:103E00008C91882339F061E0C5010E94F6BC07C09F
:103E1000112391F360E08CE692E00E94D5BC83E030
:103E200090E09093B0138093AF1381E08093B50B33
:103E30000E943FF80E941C3DC114D104E104F1042A
:103E4000F1F08091BA139091BB13A091BC13B09183
:103E5000BD13C80ED91EEA1EFB1E0E942AB7DC0144
:103E6000CB018C199D09AE09BF09B7FF1EC0809117
:103E7000B50B8823D1F080E00E946FF1EECF8091E6
:103E8000B50B882321F080E00E946FF1F8CF80917C
:103E9000910F9091920F60E0029719F48DE592E0F6
:103EA00002C08EE492E00E94D5BC1092B50B0C9437
:103EB000982F84918F010F5F1F4F882321F00E945C
:103EC0005F3DF801F6CF10924E1210924D1240E075
:103ED00050E0BA0189EF9FE00E9437C38BE1E9EF20
:103EE000FFE0DE01159601900D928A95E1F7809131
:103EF000F70F9091F80F9C838B8388EE92E09A8362
:103F0000898340E050E0BE016F5F7F4F82E893E01D
:103F10000E94D6BECE0101960E9470DEE8E8F2E073
:103F200084918F010F5F1F4F882311F40C94982FF9
:103F30000E945F3DF801F4CF0E943B9C0C94982FA7
:103F40001092A10F1092A20F0C94982F803209F4B6
:103F50001082319680818111F9CF40E061E080913B
:103F60003F14909140140E94FA980C94982F8091DD
:103F7000A20F882319F081E08093A10F0E9450C9FD
:103F80000C94982F1092A10F0E94F7CA0C94982FAE
:103F90008091A20F882311F40C94982F83E50E943E
:103FA000E53C81110C9454300C94982F8091A20F11
:103FB000882351F1E8EAF2E084918F010F5F1F4FEF
:103FC000882321F00E945F3DF801F6CF60914412F2
:103FD0007091451280914612909147124AE00E94DA
:103FE000CF408FE20E945F3D60914012709141127C
:103FF00080914212909143124AE00E94CF408AE0A1
:104000000E945F3D0C94982FEAEBF2E084918F01BF
:104010000F5F1F4F882311F40C94982F0E945F3D6F
:10402000F801F4CF0E94D7E40C94982F8091A10F4F
:1040300081110E943FF88091A20F882311F40C9403
:10404000982F80E50E94E53C882319F00E94743C7B
:1040500003C080E50E94B63C182F482F61E0809194
:104060003F14909140140E94FA9883E50E94E53C29
:10407000882381F00E94533CAB01BC014093441261
:1040800050934512609346127093471283E991E171
:104090000E9437C38091A20F882319F081E080939A
:1040A000A10F11110C94982F69CF80913F1490911A
:1040B000401421E02093A00F40E060E00E94FA98B5
:1040C0000C94982F0E94A1BEACE3CA2ED12CE12CF7
:1040D000F12CA70196010F949410762E672ECA0139
:1040E000B901A70196010F9494106B017C01CA01DC
:1040F000B90128E130E040E050E00F9494104B010A
:104100005C01C9016DE671E00F94C6138E010F5F6B
:104110001F4F6115710599F06F927F92DF92CF92D8
:104120009F928F929F938F937F936F9383EF92E0F1
:104130009F938F931F930F930F94520C12C000976D
:10414000B1F06F927F92DF92CF929F928F929F9366
:104150008F9383EE92E09F938F931F930F930F940F
:10416000520C0FB6F894DEBF0FBECDBF36C081141F
:104170009104A104B10479F06F927F92DF92CF9203
:104180009F928F9287ED92E09F938F931F930F934F
:104190000F94520CE6CFC114D104E104F10469F08C
:1041A0006F927F92DF92CF928FEC92E09F938F93EA
:1041B0001F930F930F94520CD4CF6F927F928BEC7E
:1041C00092E09F938F931F930F930F94520C0F9035
:1041D0000F900F900F900F900F9060E0C8010E9419
:1041E000F6BCEDE8F2E284917F019FEFE91AF90A4B
:1041F000882321F00E945F3DF701F5CFB80187E0E9
:1042000093E00E9443928AE00E945F3D0C94982FB5
:1042100083E50E94E53C882311F40C94982F0E94BA
:10422000633CE82E80E50E94E53C882341F00E9433
:10423000533C8B0177FF02C00C94982F02C00DE015
:1042400010E0902FE9EEF3E088E28E0F24919217B0
:1042500029F031968E13FACF0C946530E7E8FDE132
:1042600084918F010F5F1F4F882321F00E945F3DD3
:10427000F801F6CFE4E1F3E084918F010F5F1F4F67
:10428000882311F40C94982F0E945F3DF801F4CF1D
:104290000E94F7CA0C94982F88E690E00E9435415E
:1042A00081110C94982F8091740E83FF02C00C949E
:1042B000982F83E50E94E53C882309F440C00E94C2
:1042C000833C0F94361270931A146093191480E093
:1042D0000E94B0D70E94833C20E030E044EB52E4DF
:1042E0000F94B90C18163CF00E94D6BD60E08AE22B
:1042F00093E00E94D5BC0E94833C2091870B3091B3
:10430000880B4091890B50918A0B0F941813181643
:10431000B4F488E093E09F938F938091C31290E070
:1043200001969F938F9383E293E09F938F931F92C5
:104330000E9433C90FB6F894DEBF0FBECDBF0F94F5
:10434000B0010C94982F8EE40E94E53C882311F470
:104350000C94982F0E94533C6093620C7093630CF2
:104360008093640C9093650C0C94982F83E50E94C5
:10437000B63C882359F083E50E94E53C882319F078
:104380000E94633C01C080E08093740EEDE8F2E28D
:1043900084918F010F5F1F4F882321F00E945F3DA2
:1043A000F801F6CFE7E4F3E084918F010F5F1F4F30
:1043B000882321F00E945F3DF801F6CF8091740EB2
:1043C0008823A1F1F9E3CF2EF3E0DF2EE12CF12CCD
:1043D00020E08091740E90E00E2C02C09595879598
:1043E0000A94E2F780FF17C0BB24B394B20E2223D5
:1043F00019F08CE20E945F3DF60125913491F9019C
:10440000849189010F5F1F4F882321F00E945F3D37
:104410009801F5CF2B2DFFEFEF1AFF0A32E0C30E04
:10442000D11C45E0E416F104A1F624C0E3E4F3E076
:1044300084918F010F5F1F4F8823E1F00E945F3D41
:10444000F801F6CFC090370CD090380CE090390CC2
:10445000F0903A0C20E030E0A901C701B6010F94BA
:10446000B90C882311F40C94022F42E0C701B60165
:104470000E948B418AE00E945F3D0C94982F10921D
:104480002E020C94982F8EE493E00E941DF10E945E
:104490005EE70C94982F83E50E94E53C882369F041
:1044A0000E94633C8D3320F4809381020C94982FFA
:1044B0008CE3809381020C94982FEDE8F2E28491D2
:1044C0008F010F5F1F4F882321F00E945F3DF8018D
:1044D000F6CF4091810250E060E070E087E593E024
:1044E0000E942D4E8AE00E945F3D0C94982F80918F
:1044F000740E83FF02C00C94982F83E50E94E53C64
:10450000882311F40C94982F0E94833C0F94361248
:104510006739710514F066E970E0709318146093C0
:1045200017140E9465D70C94982F89E690E00E949A
:104530003541811111C0EEE5F3E084918F010F5FE9
:104540001F4F882321F00E945F3DF801F6CF0E94A3
:1045500044D48AE00E945F3D1092B0131092AF13D2
:104560000C94253583E50E94E53C882311F40C94D6
:10457000982F0E94633C182F8D3308F01CE3109392
:10458000B5130E942AB76B017C01212F30E0A8EE01
:10459000B3E00F94E210C60ED71EE81EF91EC092BB
:1045A000B113D092B213E092B313F092B4130C94FF
:1045B000982F8DE690E00E94354181110C94982F40
:1045C0008091740E83FF02C00C94982F83E50E94A3
:1045D000E53C29968FAF299781110C94833082E5B1
:1045E0000E94E53C81110C9483300C94982F8091AB
:1045F000740E83FF02C00C94982F60E087E993E06B
:104600000E94D5BC83E50E94E53C29968FAF29978F
:1046100081110C94123282E50E94E53C81110C94C8
:1046200012320C94982F80E50E94E53C882341F0DB
:104630000E94633C182F823010F00C94982F01C018
:1046400010E083E50E94E53C882329F00E94533C5A
:10465000362F272F02C03FEF20E0E12FF0E0EE0FD2
:10466000FF1FE55EFB4E832F922F8F3F910519F0C0
:1046700010F08FEF90E0918380830C94982F80E569
:104680000E94E53C882341F00E94533C6230710552
:1046900010F00C94982F02C060E070E0660F771F56
:1046A000FB01E55EFB4E118210820C94982F0E9454
:1046B000FBD70E943FF80E940DF110921C1410923B
:1046C0001B1410921E1410921D1468EE73E080E00B
:1046D00090E00E9452BC60E084EA93E00E94D5BC66
:1046E0000C94982F10929D030C94982F0E9409E42B
:1046F0000C94982F83E50E94B63C882311F40C9407
:10470000982F0E94833C20E030E04AE754E40F9465
:104710001E0D0F943B126093BE137093BF138093D2
:10472000C0139093C1130C94982F9AE8C92E92E06D
:10473000D92E2EE9E22E22E1F22E10E0D6018D9143
:104740006D010E94B63C882309F46DC0133009F056
:1047500063C00E94833C4B015C0120E030E040EAF2
:1047600051E40F94B90C87FF4EC0A50194016091EC
:10477000AA127091AB128091AC129091AD120F946D
:10478000CE112B013C019B01AC016091090C709191
:104790000A0C80910B0C90910C0C0F941E0D6093E1
:1047A000090C70930A0C80930B0C90930C0CA301D2
:1047B00092016091DD0B7091DE0B8091DF0B909187
:1047C000E00B0F941E0D6093DD0B7093DE0B809356
:1047D000DF0B9093E00B60914B0C70914C0C80912F
:1047E0004D0C90914E0C0F94BD0CA30192010F94AF
:1047F0001E0D0F943B1260934B0C70934C0C8093E6
:104800004D0C90934E0C8092AA129092AB12A092F3
:10481000AC12B092AD1207C00E94833CF7016083D6
:104820007183828393831F5FF4E0EF0EF11C1430D9
:1048300009F084CF0E94C5930C94982F0E943FF8F2
:104840000E942CE30C94982F60E080913F1490918B
:1048500040140E94F6BC0C94982F0E9473EA0C94AA
:10486000982F0E948EF00C94982F81E08093020F75
:104870008093010F0C94982F01EEE02E0BE0F02EA8
:104880000AE812E084E0D82ED00ED8018D918D0177
:104890000E94B63C882349F00E94833C0F943B124F
:1048A000F7016083718382839383F4E0EF0EF11C40
:1048B000D012EBCF0E946B920C94982F0E94A0E92B
:1048C0000C94982F0E9436E90C94982FD6018D9164
:1048D0006D010E94B63C882351F00E94833CF70191
:1048E0006083718382839383C8010E942F3B0F5F93
:1048F0001F4FF4E0EF0EF11C0330110539F70E9451
:104900002CE30C94982FEDE8F2E284918F010F5F75
:104910001F4F882321F00E945F3DF801F6CF83E509
:104920000E94B63C882321F00E94743C80931E02B2
:10493000E9EDF3E084918F010F5F1F4F882321F091
:104940000E945F3DF801F6CF80911E02811103C0E5
:10495000E5EDF3E002C0E1EDF3E084918F010F5F3C
:104960001F4F882321F00E945F3DF801F6CFE9EC4C
:10497000F3E084918F010F5F1F4F882321F00E9485
:104980005F3DF801F6CF20916E1230916F12409189
:1049900070125091711260918C0B70918D0B8091FF
:1049A0008E0B90918F0B0F94F210AB01BC0187EC32
:1049B00093E00E94674E20917212309173124091E1
:1049C0007412509175126091900B7091910B8091BF
:1049D000920B9091930B0F94F210AB01BC0184ECFD
:1049E00093E00E94674E20917612309177124091A9
:1049F0007812509179126091940B7091950B80917F
:104A0000960B9091970B0F94F210AB01BC0181ECC7
:104A100093E00E94674EE9EBF3E084918F010F5F12
:104A20001F4F882321F00E945F3DF801F6CF2091AF
:104A30006E1230916F12409170125091711260910C
:104A400012027091130280911402909115020F943A
:104A5000F210AB01BC0187EB93E00E94674E2091FE
:104A600072123091731240917412509175126091CC
:104A700016027091170280911802909119020F94FA
:104A8000F210AB01BC0184EB93E00E94674E2091D1
:104A9000761230917712409178125091791260918C
:104AA0001A0270911B0280911C0290911D020F94BA
:104AB000F210AB01BC0181EB93E00E94674E8AE0EB
:104AC0000E945F3D0C94982F83E50E94E53C88236B
:104AD00011F40C94982F0E94533C7093360260930B
:104AE00035020C94982F8DED90E00E943541811194
:104AF0000C94982F83E50E94E53C882311F40C94D4
:104B0000982F0091C31210E00E94533C000F111F18
:104B1000F801ED5CFD4F718360838091C31290E0DA
:104B20008C01000F111F000F111F9801215D3D4FD7
:104B30007901880F991FFC01ED5CFD4F6081718147
:104B4000072E000C880B990B0F94BF0C2AE037ED51
:104B500043E25CE30F941E0DF801EB58F14F208106
:104B60003181428153810F941E0DD7016D937D9346
:104B70008D939C9313970C94982F80E50E94B63CDC
:104B8000882311F40C94982F0E94533C6B017C01F4
:104B900083E50E94E53C882321F00E94533C8B0171
:104BA00002C00FEF1FEFC8010196039710F00C949D
:104BB000982FD7FE02C00C94982F9C2DE9EEF3E0BD
:104BC00088E28E0F2491921711F40C94982F31964D
:104BD0008E13F8CF0C94FC340E9434E80C94982F78
:104BE0000E9497E70C94982F83E50E94B63C182FFB
:104BF000882371F00E94833C0F9436127093110247
:104C00006093100221E0672B09F020E020938B0BCA
:104C100080E50E94B63C882361F02091100230911B
:104C20001102232B11F00E94743C80938B0B0C9487
:104C3000982F11110C94982FEDE8F2E284918F01D6
:104C40000F5F1F4F882321F00E945F3DF801F6CFD0
:104C500080918B0B811103C06CEF72E002C06DE894
:104C600073E086E294E00E9443926091100270919A
:104C7000110285E194E00E942A92E1E1F4E084913E
:104C80008F010F5F1F4F882311F40C94982F0E94FF
:104C90005F3DF801F4CF85E40E94E53C882321F0D4
:104CA0000E94533C7B0102C0E12CF12C83E40E9462
:104CB000E53C882331F00E94533CEA966FAFEA97B7
:104CC00004C025E0EA962FAFEA9785E50E94E53C0F
:104CD000882319F00E94743C03C085E50E94B63C0D
:104CE000CB57DF4F8883C558D040F7FC07C0812CD5
:104CF000912C56E1A52E53E4B52E06C0812C912CA3
:104D00004CE8A42E42E4B42E83E50E94E53C8823BF
:104D100021F00E94833C4B015C01E114F10411F489
:104D20001092C3120E942AB72B013C01E11003C06C
:104D300003E113E00BC006E213E0D8018D918D0171
:104D4000882309F497CB0E945F3DF7CFF80181914A
:104D50008F01882319F00E945F3DF8CFC501B4018F
:104D60000F943612072E000C880B990B0F94BF0C72
:104D700029966FAF299721967FAF219725968FAF00
:104D800025972D969FAF2D97A3019201205E314B61
:104D90004F4F5F4FC257DF4F288339834A835B836E
:104DA000CE58D0408AE00E945F3D0E94FBD78FE73B
:104DB0008093C11281E080932E02C358DF4F488256
:104DC00059826A827B82CD57D040CA57DF4F4882D2
:104DD00059826A827B82C658D040ED961FAEED970D
:104DE000C657DF4F188219821A821B82CA58D040D8
:104DF00065961FAE659730E469963FAF69974CE1C1
:104E00006D964FAF6D9756E4A9965FAFA997AD9693
:104E10001FAEAD97A1961FAEA197A5961FAEA59701
:104E2000E1961FAEE197E9961CAE1DAE1EAE1FAE19
:104E3000E997E5961CAE1DAE1EAE1FAEE597C12CE0
:104E4000D12C76013FE7832E912CA12CB12C8FE73A
:104E500090E0A0E0B0E08CAF9DAFAEAFBFAFCF575A
:104E6000DF4F188219821A821B82C158D04091E00C
:104E7000EC969FAFEC9762961FAE1EAE629710E065
:104E8000212C312C00E0EA96AFADEA970A2E000CF7
:104E9000BB0BEB96BFAFAEAFEB9780912E02882392
:104EA00009F400C10E942AB768AF79AF8AAF9BAFFF
:104EB0008091BF12882309F4D1C00E94C1D81091FB
:104EC000870B2090880B3090890B00918A0B212F43
:104ED000322D432D502FAD966FADAD97A1967FAD7E
:104EE000A197A5968FADA597E1969FADE1970F94F9
:104EF000B90C87FF0CC0AD961FAFAD97A1962FAE32
:104F0000A197A5963FAEA597E1960FAFE197212F08
:104F1000322D432D502F65966FAD659769967FAD05
:104F200069976D968FAD6D97A9969FADA9970F94D0
:104F30001813181664F465961FAF659769962FAE1F
:104F400069976D963FAE6D97A9960FAFA997EC96AE
:104F5000BFADEC9729962FAD299721963FAD2197AC
:104F600025964FAD25972D965FAD2D97612F722D0C
:104F7000832D902FBB2309F453C00F9418131816D8
:104F80000CF06CC048AD59AD6AAD7BAD4419550904
:104F900066097709DB01CA0188589341A109B10963
:104FA000B7FD5CC08CAD9DADAEADBFAD88199909A4
:104FB000AA09BB09B595A795979587958093C112C6
:104FC000CF57DF4F488359836A837B83C158D040D2
:104FD0002996EFAD2997AD96EFAFAD972196FFAD2E
:104FE0002197A196FFAFA19725962FAD2597A5965E
:104FF0002FAFA5972D963FAD2D97E1963FAFE19747
:1050000088AD99ADAAADBBADC358DF4F88839983F6
:10501000AA83BB83CD57D040EC961FAEEC971EC041
:105020000F94B90C87FF1AC088AD99ADAAADBBAD7E
:10503000C358DF4F288139814A815B81CD57D040E9
:10504000821B930BA40BB50BAC01BD014858534117
:105050006109710977FD02C00C94733320E030E0E0
:1050600040EA51E429966FAD299721967FAD2197AB
:1050700025968FAD25972D969FAD2D970F94F21005
:105080009B01AC01612F722D832D902F0F9418136B
:1050900018167CF4E1E3F5E084918F010F5F1F4F58
:1050A000811103C00E94FBD743C70E945F3DF801F6
:1050B000F3CF88AD99ADAAADBBADCA57DF4F2881FC
:1050C00039814A815B81C658D040821B930BA40B67
:1050D000B50BB7FDABC00E9444D48AE00E945F3D8F
:1050E00088AD99ADAAADBBAD8053984FAF4FBF4FC0
:1050F000CA57DF4F88839983AA83BB83C658D040A1
:10510000ED969FADED9791116EC0C657DF4F288188
:1051100039814A815B81CA58D040612F722D832D1D
:10512000902F0F94181318160CF046C020E030E0B2
:1051300040EC50E429966FAD299721967FAD2197D9
:1051400025968FAD25972D969FAD2D970F94F11035
:105150009B01AC01A1E0ED96AFAFED97612F722DF1
:10516000832D902F0F94181318161CF0ED961FAE78
:10517000ED9720E030E040E050E4612F722D832D68
:10518000902F0F94F210C657DF4F688379838A837C
:105190009B83CA58D04028AD39AD4AAD5BAD205E87
:1051A000314B4F4F5F4FC257DF4F288339834A83BC
:1051B0005B83CE58D0403AC088AD99ADAAADBBADA7
:1051C000C257DF4F288139814A815B81CE58D04058
:1051D000821B930BA40BB50BB7FD28C043E155E030
:1051E00062E275E020C020E030E040EA51E4299618
:1051F0006FAD299721967FAD219725968FAD259785
:105200002D969FAD2D970F94F1109B01AC01612F4E
:10521000722D832D902F0F94B90C87FF07C043EF99
:1052200054E063E075E080E00E940CF688AD99AD33
:10523000AAADBBAD880F991FAA1FBB1FC358DF4F74
:10524000288139814A815B81CD57D040821B930BE5
:10525000A40BB50B84199509A609B70981389F4499
:10526000A241B10568F0E5EDF4E084918F010F5F94
:105270001F4F882309F416CF0E945F3DF801F5CF38
:1052800062964EAD5FAD6297EB968EAD9FADEB979C
:10529000841795070CF068C0E8E7F4E084918F016B
:1052A0000F5F1F4F882321F00E945F3DF801F6CF6A
:1052B000B701A60183E694E00E94674E8AE00E944F
:1052C0005F3DE5964CAD5DAD6EAD7FADE5978EE48F
:1052D00094E00E94674E8AE00E945F3DE9964CADE3
:1052E0005DAD6EAD7FADE99789E394E00E94674EB6
:1052F0008AE00E945F3DCB57DF4F9881C558D04070
:10530000992309F415C6C092120CD092130CE092A6
:10531000140CF092150C2CEA35EC47E25EE3E596AE
:105320006CAD7DAD8EAD9FADE5970F941E0D609376
:105330001A0C70931B0C80931C0C90931D0C2CEA80
:1053400035EC47E25EE3E9966CAD7DAD8EAD9FAD89
:10535000E9970F94CE116093160C7093170C8093FD
:10536000180C9093190CE4C50E94607196CD0E94B0
:105370003FF8DEC581E00E94513ADAC580E00E9424
:10538000513AD6C580918E1290918F12A0919012B1
:10539000B091911289839A83AB83BC8380919212DE
:1053A00090919312A0919412B09195128D839E8347
:1053B000AF83B8878091961290919712A09198121E
:1053C000B091991289879A87AB87BC8786E50E943E
:1053D000B63C882321F082ED95E00F94E80383E545
:1053E0000E94B63C882331F00E94743C182F0E9422
:1053F0002C3C01C010E0F090FF12111103C0EDE849
:10540000F2E21AC0F110FBCFE7E8FDE184918F01D1
:105410000F5F1F4F882321F00E945F3DF801F6CFF8
:10542000E3EBF5E084918F010F5F1F4F882339F381
:105430000E945F3DF801F6CF84918F010F5F1F4FEF
:10544000882321F00E945F3DF801F6CFF11003C0E0
:1054500064E073E002C060E073E085EA95E00E94DA
:1054600043928AE00E945F3D4CE050E06EE872E1BA
:10547000CE0101960F940114892B09F459C50E949D
:105480002CE356C50E9490C9811152C55FE8A52E34
:1054900057E2B52EAEE8B2E1B9AFA8AFFE01319642
:1054A0004F0108EE17E21F01F3E0F00FFCAFF5012A
:1054B0006591759185919491A8ADB9ADCD90DD9030
:1054C000ED90FD90B9AFA8AFA70196010F94F11030
:1054D0002B013C0120E030E040EA51EC0F9418131E
:1054E00087FD10C020E030E040EA51E4C301B20182
:1054F0000F94B90C181634F0F10140825182628287
:1055000073820DC0F80184911816B4F7F7FAF0947D
:10551000F7F8F094F101C082D182E282F382D101E6
:10552000CD90DD90ED90FD901D0120E030E040EA4F
:1055300051ECC701B6010F94181387FF03C0E7E8C9
:10554000FDE10BC020E030E040EA51E4C701B601C4
:105550000F94B90C181674F5F2CF84918F010F5F78
:105560001F4F882321F00E945F3DF801F6CFEDE048
:10557000F6E084918F010F5F1F4F882321F00E9476
:105580005F3DF801F6CF61E08FEF95E00E94D5BC5A
:105590000E94BDDE88E290E099A388A388EC90E0A9
:1055A0009DA78CA7BE01605E7F4FCE018C960E94A6
:1055B000C29DBEC4B4E0AB0EB11C0F5F1F4FECAD7B
:1055C000E01375CF48E5E42E44E0F42E00E010E04F
:1055D000F40181919191A191B1914F01F7018193D2
:1055E0009193A193B1937F01C8010E942F3B0F5F5C
:1055F0001F4F0330110561F70E942CE360E08FEE2E
:1056000095E00E94D5BC83E992E09DA78CA704E6B3
:1056100010E019A308A3BE01645D7F4FCE01809600
:105620000E94C29D8AEB92E09DA78CA719A308A3B4
:10563000BE01645D7F4FCE0180960E94C29D78C4FA
:105640000E94A76175C40E947D6072C483E50E94B8
:10565000B63C882321F00E94743C91E089270E9487
:10566000DECE66C484918F010F5F1F4F882321F027
:105670000E945F3DF801F6CFE7E4F6E084918F01E8
:105680000F5F1F4F882321F00E945F3DF801F6CF86
:105690008AE50E94B63C882369F10E94833C6B0135
:1056A0007C0120E030E040EF51EC0F94181387FFAD
:1056B00003C0EEE2F6E013C020E030E040EF51E43A
:1056C000C701B6010F94B90C18169CF3C0927A1258
:1056D000D0927B12E0927C12F0927D120BC08491EA
:1056E0008F010F5F1F4F882309F422C40E945F3D82
:1056F000F801F5CF40917A1250917B1260917C12A3
:1057000070917D128BE296E00E94674E8AE00E94C3
:105710005F3D0EC480E090E0A6E1B3E489839A8304
:10572000AB83BC8380E090E0A1E9B3E48D839E83EA
:10573000AF83B88780E090E0A0EAB1E489879A87D8
:10574000AB87BC8785E40E94B63C882319F00E9491
:10575000833C04C060E070E080E090EC6CAB7DAB1B
:105760008EAB9FAB8AE50E94E53C882379F08AE501
:105770000E94E53C882319F00E94833C03C060E04E
:1057800070E0CB0169877A878B879C8788E50E94C8
:10579000E53C882379F088E50E94E53C882319F0F0
:1057A0000E94833C03C060E070E0CB0169837A8390
:1057B0008B839C8389E50E94E53C882379F089E509
:1057C0000E94E53C882319F00E94833C03C060E0FE
:1057D00070E0CB016D837E838F83988785E50E947F
:1057E000B63C882319F00E94833C04C060E070E05E
:1057F00080E291EC68AB79AB8AAB9BAB8CE40E9406
:10580000B63C882319F00E94833C03C060E070E03E
:10581000CB016CA77DA78EA79FA782E40E94E53CE1
:10582000882321F00E94533C162F01C012E0E09023
:10583000910FF090920F8091B7138111EEC180917A
:10584000740E83FD35C020E030E0A90168A979A974
:105850008AA99BA90F94B90C882351F180918B0BD5
:10586000811124C02091191430911A1480911002D2
:105870009091110228173907CCF4E7E8FDE18491F3
:105880008F010F5F1F4F882321F00E945F3DF801B9
:10589000F6CFE6E5F6E084918F010F5F1F4F882376
:1058A00009F4BBC10E945F3DF801F5CF0F94B70525
:1058B00081E08093B7139091A10F992321F010926A
:1058C000A10F80939F030E94F7CA80E090E00E949E
:1058D000B1740E943FF880E1EEE8F2E1A0EAB3E0A3
:1058E00001900D928A95E1F720E030E0A9016CA9C2
:1058F0007DA98EA99FA90F94B90C882331F00E942D
:1059000050DE882311F40C94F23482E088A3BE01A7
:105910006F5F7F4FCE0180960E944EEF20E030E017
:10592000A90168A979A98AA99BA90F94B90C882310
:1059300079F081E090E00E94B17480E00E946FF104
:1059400040E050E060E271E4CE01C0960F94800523
:1059500082E090E00E94B17461E0812F0E940DE628
:1059600080E00E946FF10E940BF164E670E080E03D
:1059700090E00E9452BC0E942AB7DC01CB01805A01
:105980009541AF4FBF4F8093D4139093D513A093FD
:10599000D613B093D7131092F91283E090E090934E
:1059A000B0138093AF1381E08093B50B01E0809139
:1059B000B50B882309F442C060E0812F0E940DE6F8
:1059C0008091F9128823B1F188E090E00E94B174CF
:1059D0008091B50B882321F081E00E946FF1F8CF10
:1059E0001092D4131092D5131092D6131092D7138D
:1059F0001092F9120E94B0D70F94B70582E090E0A0
:105A00000E94B1740E942AB7DC01CB01805A9541F3
:105A1000AF4FBF4F8093D4139093D513A093D61359
:105A2000B093D7131092F9120093B50B61E0812F58
:105A30000E940DE681E00E946FF1B9CF81E090E015
:105A40009093B0138093AF138091B713882309F418
:105A5000E4C00091F9121092D4131092D513109251
:105A6000D6131092D7131092F91280E00E94B0D78B
:105A700001110F94B70561E0812F0E940DE60E948D
:105A8000083D20E030E0A9016CA57DA58EA59FA56D
:105A90000F94B90C882379F1002321F082E090E083
:105AA0000E94B17483E090E09093B0138093AF13A1
:105AB00081E08093B50B8091B50B882351F00023D2
:105AC00041F060E0812F0E940DE681E00E946FF1BD
:105AD000F2CF81E090E09093B0138093AF1383E016
