:100000000C942F160C9460160C9460160C946016C9
:100010000C9460160C9460160C9460160C94601688
:100020000C9460160C9460160C9460160C94601678
:100030000C9460160C949D580C9460160C946016E9
:100040000C9460160C94916D0C9460160C946016D0
:100050000C9460160C9460160C94B3DE0C945358F8
:100060000C9460160C94CF3B0C9460160C946016A4
:100070000C9460160C9460160C9460160C94601628
:100080000C94D2770C9460160C9460160C94601645
:100090000C9460160C9460160C9460160C94601608
:1000A0000C9460160C9460160C94A4770C94601653
:1000B0000C9460160C9460160C9460160C94767771
:1000C0000C9460160C9460160C9460160C946016D8
:1000D0000C9460160C9460160C9460160C946016C8
:1000E0000C94601632973597249728972E976C9723
:1000F00039973D97439747974B97519755975997FE
:100100006C975F9763976797589B5D9B629B6C9B0F
:10011000769BEF9B809B889B909B9A9BA49BAE9B1E
:10012000BD9BC79BEF9BD19BDB9BE59B084AD73BC5
:100130003BCE016E84BCBFFDC12F3D6C74319ABDB6
:1001400056833DDA3D00C77F11BED9E4BB4C3E91DA
:100150006BAAAABE000000803F05A84CCDB2D44EC9
:10016000B93836A9020C50B9918688083CA6AAAACB
:100170002ABE000000803F000D949D004E414E4974
:100180004E495459494E46CDCCCC3D0AD7233C1755
:10019000B7D13877CC2B329595E6241FB14F0A00A2
:1001A0000020410000C84200401C4620BCBE4CCA92
:1001B0001B0E5AAEC59D74434F4D4D554E4943419C
:1001C00054494F4E0044525952554E004552524FD9
:1001D000525300494E464F004543484F0020746F2C
:1001E0006F206C6F6E6720657874727573696F6EBF
:1001F0002070726576656E7465640A0020636F6CAA
:100200006420657874727573696F6E20707265769C
:10021000656E7465640A0047322F4733206261645B
:1002200020706172616D65746572730A00536C654C
:1002300065702E2E2E00473238205A20466F72628B
:10024000696464656E0A00473238205A20466F722E
:1002500062696464656E00205A3A200020593A2091
:100260000042656420583A2000526573756D696ECE
:1002700067207072696E740046542D35205232200A
:1002800072656164792E00436C69636B20746F2022
:10029000726573756D652E2E2E004E6F206D6F7614
:1002A000652E00456E642066696C65206C69737408
:1002B0000A00426567696E2066696C65206C697327
:1002C000740A005344207072696E74696E6720620C
:1002D00079746520004E6F74205344207072696EEB
:1002E00074696E670A002569730025696D202569A8
:1002F00073002569682025696D20256973002569CB
:1003000064202569682025696D20256973002569A9
:100310007920256964202569682025696D20256973
:1003200073005072696E742074696D653A200050D4
:10033000726F7465637465642050696E0A004525A8
:10034000692025730046542D352052322072656194
:1003500064792E00D801D301CC01C501B7016F66C5
:10036000660044454255473A004B494C4C45442EA3
:1003700020004D3131332053006F6B0046542D3532
:10038000205232204F66662E00454D455247454E5D
:1003900043595F50415253455200434153455F4CCE
:1003A000494748545F4252494748544E45535300C9
:1003B000544F47474C455F4C494748545300534FAF
:1003C0004654574152455F504F5745520042554998
:1003D0004C445F50455243454E54004C4556454CA5
:1003E000494E475F44415441005A5F50524F424585
:1003F000004155544F4C4556454C005052494E54BF
:100400005F4A4F420050524F4752455353004155A7
:10041000544F5245504F52545F54454D5000564F23
:100420004C554D455452494300454550524F4D009F
:1004300053455249414C5F584F4E5F584F46460016
:100440004649524D574152455F4E414D453A4D61E7
:10045000726C696E20312E312E38202847697468FD
:1004600075622920534F555243455F434F44455FC2
:1004700055524C3A68747470733A2F2F67697468D8
:1004800075622E636F6D2F4D61726C696E46697275
:100490006D776172652F4D61726C696E2050524F9D
:1004A000544F434F4C5F56455253494F4E3A312EAD
:1004B00030204D414348494E455F545950453A46D6
:1004C000542D352052322045585452554445525FE0
:1004D000434F554E543A3120555549443A6365646B
:1004E00065326132662D343161322D343734382D26
:1004F000396231322D6335356336326633363766CD
:10050000660A002F2F20004D31343520533C696E90
:100510006465783E206F7574206F662072616E6727
:10052000652028302D31290A0053657474696E677F
:100530002054726176656C20416363656C657261FD
:1005400074696F6E3A200053657474696E67205247
:1005500065747261637420416363656C6572617474
:10056000696F6E3A200053657474696E672050722B
:10057000696E7420416363656C65726174696F6E46
:100580003A200053657474696E67205072696E7406
:1005900020616E642054726176656C2041636365EE
:1005A0006C65726174696F6E3A20000001363726FF
:1005B00003FF3C3D380EFF2E303E12FFFF0C0809B2
:1005C00007FFFF1A1C18FFFF08440AFF43FFFFFF45
:1005D000FFFFFF206F7574206F662072616E676584
:1005E0000A00536572766F20003A2000205365722E
:1005F000766F200020643A0020693A0020703A00AB
:1006000043290A0061626C656420286D696E20745C
:10061000656D702000436F6C64206578747275643A
:100620006573206172652000426564204C657665C3
:100630006C696E6720004661696C656420746F2088
:10064000656E61626C6520426564204C6576656C00
:10065000696E670A00426564204C6576656C2043CC
:100660006F7272656374696F6E204D617472697820
:100670003A004F666673657473206170706C6965CB
:1006800064004572723A20546F6F206661722100D7
:10069000546F6F206661722066726F6D207265669E
:1006A0006572656E636520706F696E740A003A202A
:1006B00000207A5F6D696E3A20202D35207A5F6DBB
:1006C00061783A2020300A0050726F6265205A200B
:1006D0004F6666736574004E6F2063617365206CAE
:1006E000696768740A0041637469766520457874A7
:1006F00072756465723A2000556E6B6E6F776E206E
:10070000636F6D6D616E643A2022004B494C4C451D
:10071000442E200053544F505045442E2000507218
:10072000696E7465722073746F707065642064758F
:100730006520746F206572726F72732E204669781F
:1007400020746865206572726F7220616E64207516
:100750007365204D39393920746F20726573746167
:1007600072742E202854656D70657261747572659F
:100770002069732072657365742E20536574206937
:100780007420616674657220726573746172746935
:100790006E67290A004E6F20436865636B73756D41
:1007A0002077697468206C696E65206E756D62656E
:1007B000722C204C617374204C696E653A20006382
:1007C0006865636B73756D206D69736D61746368C3
:1007D0002C204C617374204C696E653A20004C6982
:1007E0006E65204E756D626572206973206E6F7440
:1007F000204C617374204C696E65204E756D626586
:10080000722B312C204C617374204C696E653A2038
:10081000004D313130004D33310053442072656159
:1008200064206572726F720A00446F6E6520707288
:10083000696E74696E672066696C650A0020496E8E
:1008400076616C69642065787472756465722000E5
:1008500000000000000000000000000000009643BF
:10086000000096430000B94353544F505045442E66
:1008700020005072696E7465722073746F707065B9
:10088000642064756520746F206572726F72732EB8
:100890002046697820746865206572726F722061E5
:1008A0006E6420757365204D39393920746F20725C
:1008B0006573746172742E202854656D7065726161
:1008C000747572652069732072657365742E205388
:1008D0006574206974206166746572207265737432
:1008E000617274696E67290A0053544F5020636126
:1008F0006C6C65642062656361757365206F66204A
:10090000424C546F756368206572726F72202D209F
:10091000726573746172742077697468204D393917
:10092000390A0020204E6F7A7A6C653A200063689D
:10093000616E6765006F66207468652066696C612A
:100940006D656E74005761697420666F72207374F0
:10095000617274005052494E5420504155534544E1
:100960000020204E6F7A7A6C653A200066696C61CF
:100970006D656E7420756E6C6F616400576169748B
:1009800020666F72005052494E54205041555345D5
:10099000440020204E6F7A7A6C653A2000506C65D6
:1009A00061736520776169742E2E2E00486561742D
:1009B000696E67206E6F7A7A6C65005052494E54AA
:1009C000205041555345440020204E6F7A7A6C6583
:1009D0003A200068656174206E6F7A7A6C652E002B
:1009E000507265737320627574746F6E20746F003B
:1009F0005052494E54205041555345440020204EFA
:100A00006F7A7A6C653A2000746F20636F6E746938
:100A10006E75652E2E2E00616E6420707265737384
:100A200020627574746F6E00496E7365727420660F
:100A3000696C616D656E74005052494E542050418E
:100A4000555345440020204E6F7A7A6C653A200059
:100A500066696C616D656E74206C6F6164005761CE
:100A6000697420666F72005052494E5420504155AF
:100A70005345440020204E6F7A7A6C653A20006618
:100A8000696C616D656E742065787472756465005B
:100A90005761697420666F72005052494E5420505D
:100AA000415553454400746F20726573756D650040
:100AB0005761697420666F72207072696E7400509D
:100AC00052494E5420504155534544004D36303024
:100AD00020486F74656E6420746F6F20636F6C6460
:100AE00020746F206368616E67652066696C616D54
:100AF000656E740A00486F6D652025732573257334
:100B0000206669727374002066697273740A005AF1
:100B10000059005800486F6D65200057726974696C
:100B20006E6720746F2066696C653A20006F70658F
:100B30006E206661696C65642C2046696C653A209C
:100B4000006F70656E206661696C65642C20466973
:100B50006C653A200046696C652073656C6563744A
:100B600065640A002053697A653A200046696C651D
:100B7000206F70656E65643A20006F70656E206648
:100B800061696C65642C2046696C653A20002066BA
:100B9000696C653A2000646F696E67006672657300
:100BA00068004E6F772000454E4420535542524F07
:100BB0005554494E450A002220706F730022207060
:100BC0006172656E743A2200535542524F55544932
:100BD0004E452043414C4C207461726765743A2243
:100BE000004B494C4C45442E2000747279696E6765
:100BF00020746F2063616C6C207375622D67636F66
:100C000064652066696C6573207769746820746F09
:100C10006F206D616E79206C6576656C732E204D4A
:100C20004158206C6576656C2069733A0043616EAB
:100C30006E6F74206F70656E2073756264697220C8
:100C400000507265686561742041425320456E64AE
:100C500000507265686561742041425320426564AA
:100C6000005072656865617420414253005072659E
:100C700070617265004D343238004D32383020508A
:100C800030205331363000424C546F756368205326
:100C9000656C662D54657374004D323830205030C9
:100CA00020533132300050726568656174204142D2
:100CB00053005072656865617420504C4100436F69
:100CC0006F6C646F776E004368616E67652066695C
:100CD0006C616D656E7400526573657420424C548E
:100CE0006F7563680044697361626C652073746535
:100CF0007070657273004D38340053657420686FEE
:100D00006D65206F66667365747300426564204C80
:100D10006576656C696E67004732380A473239007C
:100D2000486F6D65205A00473238205A00486F6D71
:100D300065205900473238205900486F6D652058AA
:100D4000004732382058004175746F20686F6D6518
:100D500000473238004D6F76652061786973004D29
:100D600061696E004D6F76652058004D6F76652085
:100D700059004D6F7665205A004578747275646528
:100D800072004D6F766520302E316D6D004D6F769F
:100D90006520316D6D004D6F76652031306D6D00D1
:100DA0004D6F76652061786973004578747275645B
:100DB0006572004D6F7665205A004D6F766520593B
:100DC000004D6F76652058004578747275646572C1
:100DD000004D6F7665205A004D6F76652059004DA5
:100DE0006F76652058005072657061726500022D43
:100DF0002D2D2D2D2D007C4D61726C696E7C002D8A
:100E00002D2D2D2D2D00687474703A2F2F6D617269
:100E10006C696E66772E6F726700687474703A2F13
:100E20002F6D61726C696E66772E6F72670020316C
:100E30002E312E38002020506C616E6E6572427526
:100E40006666657242797465733A20002046726561
:100E500065204D656D6F72793A2000436F6D706942
:100E60006C65643A204E6F7620323720323031384C
:100E70000A00207C20417574686F723A2028436113
:100E80007265467564756E6461652C204D61726C87
:100E9000696E20312E312E38290A00323031372D3B
:100EA00031322D32352031323A303000204C6173EE
:100EB0007420557064617465643A2000312E312EBF
:100EC000380A004D61726C696E0020536F6674774A
:100ED0006172652052657365740A002057617463FE
:100EE00068646F672052657365740A002042726FF0
:100EF000776E206F75742052657365740A00204503
:100F0000787465726E616C2052657365740A005066
:100F10006F77657255700A0073746172740A0065A8
:100F200072726F722077726974696E6720746F20B5
:100F300066696C650A00456E6473746F7073202572
:100F40006320256320256320256300205A3A002072
:100F5000593A0020583A00656E6473746F707320BC
:100F60006869743A2000446F6E6520736176696E1B
:100F7000672066696C652E0A004D323900534420A3
:100F800063617264206F6B0A006F70656E526F6FE1
:100F900074206661696C65640A00766F6C756D65B6
:100FA0002E696E6974206661696C65640A00457219
:100FB000726F723A00534420696E697420666169E9
:100FC0006C0A006175746F25692E67004D3234001C
:100FD0004D323320257300656E7175657565696ED8
:100FE000672022006563686F3A0020706F73697430
:100FF000696F6E206F7574206F662072616E676511
:101000002E0A003F50726F626520000A0A42656432
:10101000204C6576656C20436F7272656374696FEE
:101020006E204D61747269783A00202B000A436F7C
:1010300072726563746564204265642048656967FF
:1010400068742076732E2042656420546F706F6C34
:101050006F67793A0A00202B000A426564204865D0
:101060006967687420546F706F6772617068793A4D
:101070000A2020202B2D2D2D204241434B202D2DA9
:101080002B0A2020207C202020202020202020200F
:10109000207C0A204C207C20202020282B29202066
:1010A00020207C20520A2045207C20202020202047
:1010B00020202020207C20490A2046207C20282D2A
:1010C00029204E20282B29207C20470A2054207CD0
:1010D00020202020202020202020207C20480A20A2
:1010E00020207C20202020282D29202020207C202A
:1010F000540A2020207C2020202020202020202076
:10110000207C0A2020204F2D2D2046524F4E542067
:101110002D2D2B0A2028302C30290A004D65616EB8
:10112000206F662073616D706C656420706F696EEE
:1011300074733A200020643A200020623A2000456F
:10114000716E20636F656666696369656E74733A74
:1011500020613A2000202844525952554E29004718
:101160003239204175746F20426564204C65766584
:101170006C696E670028422961636B0028462972FA
:101180006F6E74002852296967687400284C2965BD
:101190006674003F4E756D626572206F66207072D6
:1011A0006F626520706F696E747320697320696D5A
:1011B000706C61757369626C65202832206D696E90
:1011C000696D756D292E0A003F2856296572626F78
:1011D0007365206C6576656C20697320696D706C31
:1011E00061757369626C652028302D34292E0A00E0
:1011F00024F4D43050C38E20C2A24017828B7011C9
:10120000127A910D816CD90AA861E108C758660766
:10121000615143061E4B5D05C145A7041A411104E7
:10122000093D9803713931034036DB026533910281
:10123000D4305402802E1D02632CEE01752AC501A4
:10124000B028A001102781018F2564012B244B01B8
:10125000E0223401AC211F018D200D01801FFC0014
:10126000841EED00971DDF00B81CD200E61BC600EF
:10127000201BBC00641AB200B219A8000A19A00011
:101280006A189900D117910040178B00B516840099
:1012900031167E00B31579003A157300C7146F003C
:1012A00058146A00EE1366008813630025135E006D
:1012B000C7125B006C12570015125400C111510087
:1012C00070114F0021114B00D61049008D104700BE
:1012D0004610440002104200C00F4000800F3E0044
:1012E000420F3C00060F3B00CB0E3800930E370038
:1012F0005C0E3500270E3400F30D3200C10D3100B5
:10130000900D3000600D2E00320D2D00050D2C00CB
:10131000D90C2B00AE0C2900850C29005C0C270091
:10132000350C27000E0C2600E80B2400C40B24000B
:10133000A00B23007D0B23005A0B2100390B210049
:10134000180B2000F80A1F00D90A1E00BB0A1E0055
:101350009D0A1D00800A1D00630A1C00470A1B002D
:101360002C0A1B00110A1A00F7091A00DD091900DE
:10137000C4091900AB091900920917007B0918006C
:10138000630917004C0916003609160020091600DB
:101390000A091500F5081500E0081400CC0814002F
:1013A000B8081400A4081400900813007D08120067
:1013B0006B08130058081200460812003408110088
:1013C000230811001208110001081100F007100095
:1013D000E0071000D0071000C0071000B0070F0092
:1013E000A107100091070E0083070F0074070F007C
:1013F00065070E0057070E0049070E003B070D005A
:101400002E070E0020070D0013070D0006070D0024
:10141000F9060C00ED060D00E0060C00D4060C00E9
:10142000C8060C00BC060C00B0060C00A4060B009D
:1014300099060C008D060B0082060B0077060B0048
:101440006C060B0061060A0057060B004C060A00EA
:1014500042060A0038060A002E060A0024060A0080
:101460001A060A001006090007060A00FD05090011
:10147000F4050900EB050900E2050900D90509009A
:10148000D0050900C7050900BE050900B50508001B
:10149000AD050800A50509009C0508009405080095
:1014A0008C050800840508007C0508007405080008
:1014B0006C050700650508005D0507005605080076
:1014C0004E050700470507004005080038050700DE
:1014D000310507002A050700230507001C05060043
:1014E000160507000F05070008050600020507009E
:1014F000FB040600F5040700EE040600E8040600FD
:10150000E2040700DB040600D5040600CF04060051
:10151000C9040600C3040600BD040600B7040600A3
:10152000B1040500AC040600A6040600A0040500F2
:101530009B04060095040500900406008A0405003B
:1015400085040500800406007A0405007504050082
:10155000700405006B0405006604050061040500C5
:101560005C04050057040500520405004D04050005
:1015700048040500430405003E0404003A04050045
:1015800035040500300404002C0405002704040081
:10159000230405001E0404001A04040016040500B8
:1015A000110404000D0404000904050004040400EF
:1015B00000040400FC030400F8030400F403040026
:1015C000F0030400EC030400E8030400E403040057
:1015D000E0030400DC030400D8030400D403040087
:1015E000D0030400CC030400C8030300C5030300B8
:1015F00024F404D9201BC40C5C0E9804C4095F02B7
:1016000065077101F405F900FB04B3004804870085
:10161000C10369005803550003034500BE023A00A8
:101620008402310053022A0029022500040220000E
:10163000E4011C00C8011900AF0117009801140053
:1016400084011300710110006101100051010E00AE
:1016500043010D0036010B002B010B0020010B0094
:10166000150109000C01090003010800FB00080036
:10167000F3000800EB000700E4000600DE000600AF
:10168000D8000600D2000600CC000500C700050007
:10169000C2000500BD000400B9000400B50004004C
:1016A000B1000400AD000400A9000400A50003007F
:1016B000A20003009F0004009B00030098000300A9
:1016C0009500020093000300900003008D000200CB
:1016D0008B000300880002008600020084000300E3
:1016E000810002007F0002007D0002007B000200FA
:1016F0007900020077000100760002007400020009
:1017000072000100710002006F0002006D00010014
:101710006C0002006A00010069000200670001001D
:101720006600010065000100640002006200010023
:1017300061000100600001005F0002005D00010027
:101740005C0001005B0001005A000100590001002B
:10175000580001005700010056000100550001002B
:10176000540001005300000053000100520001002A
:1017700051000100500001004F0001004E00000028
:101780004E0001004D0001004C0001004B00000024
:101790004B0001004A000100490001004800000020
:1017A000480001004700010046000000460001001B
:1017B0004500000045000100440001004300000016
:1017C000430001004200000042000100410000000F
:1017D00041000100400001003F0000003F00010007
:1017E0003E0000003E0001003D0000003D00010001
:1017F0003C0000003C0000003C0001003B000000F9
:101800003B0001003A0000003A00010039000000EE
:1018100039000100380000003800000038000100E5
:1018200037000000370001003600000036000000DD
:1018300036000100350000003500000035000100D1
:1018400034000000340000003400010033000000C8
:1018500033000000330001003200000032000000BD
:1018600032000100310000003100000031000100B1
:101870003000000030000000300001002F000000A8
:101880002F0000002F0000002F0001002E0000009C
:101890002E0000002E0001002D0000002D00000091
:1018A0002D0000002D0001002C0000002C00000085
:1018B0002C0000002C0001002B0000002B00000079
:1018C0002B0000002B0001002A0000002A0000006D
:1018D0002A0000002A000100290000002900000061
:1018E0002900000029000000290001002800000054
:1018F0002800000028000000280000002800010047
:10190000270000002700000027000000270000003B
:10191000270001002600000026000000260000002D
:101920002600000026000100250000002500000020
:101930002500000025000000250000002500010012
:101940002400000024000000240000002400000007
:1019500024000100230000002300000023000000F9
:1019600023000000230000002300000023000100EA
:1019700022000000220000002200000022000000DF
:1019800022000000220001002100000021000000D0
:1019900021000000210000002100000021000000C3
:1019A00021000100200000002000000020000000B5
:1019B00020000000200000002000000020000000A7
:1019C000200001001F0000001F0000001F00000099
:1019D0001F0000001F0000001F0000001F0001008A
:1019E0001E0000001E0000001E0000001E0000007F
:1019F0004D383420582059205A20450052657365CF
:101A00006E643A20006F6B00627573793A207061E2
:101A10007573656420666F7220696E7075740A0054
:101A2000627573793A2070617573656420666F72B0
:101A300020757365720A00627573793A2070726F4F
:101A400063657373696E670A004D363030004B4929
:101A50004C4C45442E20004B494C4C20636175731F
:101A60006564206279204B494C4C20627574746F18
:101A70006E2F70696E0A004B494C4C45442E200075
:101A80004B494C4C20636175736564206279207406
:101A90006F6F206D75636820696E61637469766528
:101AA0002074696D65202D2063757272656E7420D7
:101AB000636F6D6D616E643A2000506C6561736593
:101AC000207265736574005052494E544552204847
:101AD000414C544544005072696E746572206861CF
:101AE0006C7465642E206B696C6C28292063616CB2
:101AF0006C6564210A000000000000000000000086
:101B0000000000004842000048420000A0410000E0
:101B100000005761726E696E673A20486F6D696E9A
:101B2000672042756D702044697669736F72203C3E
:101B300020310A000202040000A0400000A0400082
:101B400000004000009643000096430000B943FFA8
:101B5000FFFF436172642072656D6F7665640043B8
:101B600061726420696E73657274656400496E69A0
:101B70007469616C697A6520454550524F4D004348
:101B80006F6E74726F6C00526573746F726520664D
:101B900061696C73616665004C6F61642073657484
:101BA00074696E677300496E697469616C697A65FE
:101BB00020454550524F4D0053746F726520736538
:101BC0007474696E677300424C546F7563680046A5
:101BD000696C616D656E74004D6F74696F6E005451
:101BE000656D7065726174757265004D61696E0036
:101BF0004D33303320553120452569205325690068
:101C0000507265686561742041425320636F6E664F
:101C1000005072656865617420504C4120636F6E9E
:101C20006600504944204175746F74756E650050AC
:101C30004944204175746F74756E650050494420A5
:101C40004175746F74756E65005049442D440050A1
:101C500049442D44005049442D49005049442D49E0
:101C6000005049442D50005049442D50002002207E
:101C700046616374002002204661637400200220E4
:101C80004D6178002002204D6178002002204D61D6
:101C900078002002204D696E002002204D696E0000
:101CA0002002204D696E004F6666004F6E20004195
:101CB00075746F74656D700046616E207370656534
:101CC0006420320046616E207370656564203200C6
:101CD00046616E20737065656420320046616E2037
:101CE000737065656420310046616E2073706565B0
:101CF0006420310046616E20737065656420310098
:101D00004265640042656400426564004E6F7A7A01
:101D10006C65004E6F7A7A6C65004E6F7A7A6C65EE
:101D200000436F6E74726F6C0053746F7265207332
:101D3000657474696E67730042656400426564008F
:101D4000426564004E6F7A7A6C65004E6F7A7A6CE9
:101D500065004E6F7A7A6C650046616E207370651F
:101D600065640046616E2073706565640046616E4F
:101D70002073706565640054656D7065726174757B
:101D800072650053746F7720424C546F756368001E
:101D90004D32383020503020533930004465706C5B
:101DA0006F7920424C546F756368004D3238302093
:101DB00050302053313000424C546F7563682053CB
:101DC000656C662D54657374004D32383020503088
:101DD000205331323000526573657420424C546F89
:101DE000756368004D323830205030205331363022
:101DF000004D61696E005072696E74207061757378
:101E0000656400005072696E742061626F7274655F
:101E100064005072696E742066726F6D20534400C6
:101E200053746F70207072696E7400526573756DB3
:101E300065207072696E74004E6F20534420636198
:101E40007264005061757365207072696E7400432E
:101E50006F6E74726F6C00507265706172650054C1
:101E6000756E6500496E666F2073637265656E00FE
:101E70004D363030204230004368616E6765206621
:101E8000696C616D656E7400466C6F7700466C6FAF
:101E90007700466C6F770046616E207370656564ED
:101EA00020320046616E2073706565642032004602
:101EB000616E20737065656420320046616E207328
:101EC0007065656420310046616E207370656564DD
:101ED00020310046616E20737065656420310042D8
:101EE00065640042656400426564004E6F7A7A6CF6
:101EF00065004E6F7A7A6C65004E6F7A7A6C650079
:101F00005370656564005370656564005370656562
:101F100064004D61696E005072656865617420509F
:101F20004C4120456E6400507265686561742050B4
:101F30004C412042656400507265686561742050B0
:101F40004C410050726570617265000000210024F0
:101F50000027002A002D003000330001010000049A
:101F60000107010A0100002200250028002B002E95
:101F7000003100340002010000050108010B0100DE
:101F80000020002300260029002C002F0032000032
:101F90000100000301060109010505050507050803
:101FA000080808020202020A0A08080404040401DC
:101FB00001010101010101030303030303030304FE
:101FC0000707070C0C0C0C0C0C0C0C02020202068E
:101FD000060606060606060B0B0B0B0B0B0B0B017E
:101FE000021020200808102040102040800201022A
:101FF00001080402010102040810204080804020F2
:10200000100804020180040201804020100804022C
:1020100001080402010102040810204080010204AA
:10202000081020408000000A0B02090C0D0E080762
:102030000304010000000000000000000000000098
:102040000000000000000000000000000000000090
:10205000001211100000000000000000000000004D
:10206000000000000000000000000050726F626974
:102070006E67206661696C65640A0050726F626900
:102080006E67206661696C656400205A3A20002002
:10209000593A200042656420583A20004265642085
:1020A000646F6E652E0020573A00426564204865D3
:1020B0006174696E672E00205A3A0020593A002058
:1020C000436F756E7420583A0020453A00205A3A02
:1020D0000020593A00583A003A004361703A002013
:1020E0005A00205900580020204D61783A200020E5
:1020F0005A00205900580020204D696E3A20004FA8
:102100006E20004F666600536F667420656E6473C0
:10211000746F70733A200023646566696E652020D1
:1021200044454641554C545F4B642000236465662A
:10213000696E65202044454641554C545F4B6920EB
:102140000023646566696E65202044454641554C10
:10215000545F4B702000504944204175746F747572
:102160006E652066696E69736865642120507574B8
:1021700020746865206C617374204B702C204B694F
:1021800020616E64204B6420636F6E7374616E74A3
:10219000732066726F6D2062656C6F7720696E7454
:1021A0006F20436F6E66696775726174696F6E2E1A
:1021B000680A00504944204175746F74756E65203B
:1021C0006661696C6564212074696D656F75740A58
:1021D00000544845524D414C2052554E41574159AB
:1021E00000546865726D616C2052756E617761791B
:1021F0000048656174696E67206661696C6564009A
:1022000048656174696E67206661696C6564005039
:102210004944204175746F74756E65206661696C00
:102220006564212054656D706572617475726520F6
:10223000746F6F20686967680A00204B643A200059
:10224000204B693A2000204B703A20000A20436C52
:10225000617373696320504944200A002054753A21
:102260002000204B753A2000206D61783A20002034
:102270006D696E3A200020643A2000206269617323
:102280003A200070012C0190012701B0012201C009
:10229000011D01F00118011002130130020E01604E
:1022A00002090190020401C002FF000003FA00408D
:1022B00003F5008003F000D003EB002004E600707B
:1022C00004E100E004DC004005D700C005D2004076
:1022D00006CD00D006C8008007C3003008BE00F05D
:1022E00008B900C009B400B00AAF00B00BAA00D012
:1022F0000CA500000EA000500F9B00C010960050CF
:1023000012910000148C00C0158700B0178200B035
:10231000197D00D01B7800001E730040206E0090D5
:10232000226900F024640040275F0090295A00E0F1
:102330002B5500102E500020304B0010324600E08C
:1023400033410090353C001037370070383200A020
:10235000392D00B03A2800A03B2300603C1E00103D
:102360003D1900903D1400103E0F00703E0A00C061
:102370003E0500003F0000403FFBFF803FF6FFC0EE
:102380003FF1FF202F002042403A0020403A000059
:10239000000000010204040000001C1C0C040404E2
:1023A000020100000000000408100000000000000E
:1023B0001C1F11111F00000006191803130C000444
:1023C0000E1F041C000000000E1315110E00001C4F
:1023D00010181705060500040A0A0A0A11110E0C46
:1023E00012120C00000000001F1511151F0000251F
:1023F000753A2530327500253032753A2530327500
:10240000002D2D2D005344005A0059005800290A70
:10241000002062797465733B20637263200053650A
:102420007474696E67732053746F7265642028003A
:10243000202863616C63756C6174656429210A00EE
:1024400020213D2000454550524F4D20435243200E
:102450006D69736D61746368202D202873746F72C9
:102460006564292000290A002062797465733B2085
:1024700063726320002073746F72656420736574E7
:1024800074696E677320726574726965766564201D
:102490002800204D61726C696E3D563437290A0060
:1024A00028454550524F4D3D00454550524F4D2017
:1024B00076657273696F6E206D69736D61746368A0
:1024C00020005654726176206D696E005654726118
:1024D00076206D696E005654726176206D696E00CB
:1024E000566D696E00566D696E00566D696E0056C8
:1024F0006D6178204500566D6178204500566D610C
:1025000078204500566D6178205A00566D6178201C
:102510005A00566D6178205A00566D617820590036
:10252000566D6178205900566D6178205900566DBE
:102530006178205800566D6178205800566D61789A
:102540002058004D6F74696F6E00416D61782045B1
:1025500000416D6178204500416D6178205A00414D
:102560006D6178205A00416D6178205900416D619C
:1025700078205900416D6178205800416D617820C4
:102580005800412D74726176656C00412D74726142
:1025900076656C00412D7265747261637400412D23
:1025A0007265747261637400416363656C004163BA
:1025B00063656C004D6F74696F6E0056652D6A65BA
:1025C000726B0056652D6A65726B0056652D6A65E3
:1025D000726B00567A2D6A65726B00567A2D6A65A9
:1025E000726B0056792D6A65726B0056792D6A659B
:1025F000726B0056792D6A65726B0056782D6A658C
:10260000726B0056782D6A65726B0056782D6A657C
:10261000726B004D6F74696F6E00457374657073F3
:102620002F6D6D004573746570732F6D6D005A7357
:10263000746570732F6D6D005A73746570732F6DB0
:102640006D005973746570732F6D6D0059737465E7
:1026500070732F6D6D005873746570732F6D6D00FE
:102660005873746570732F6D6D004D6F74696F6E64
:102670000048617264636F646564204465666175D7
:102680006C742053657474696E6773204C6F616459
:1026900065640A00E8030000E8030000C8000000C9
:1026A000102700000000C8420000C8420000A040FF
:1026B0000000C8420000A0420000A0420000C84341
:1026C00048E1CD4220520020204D393030204B00CF
:1026D0004C696E65617220416476616E63653A0A89
:1026E0000020204D383531205A005A2D50726F622B
:1026F00065204F666673657420286D6D293A0A005F
:1027000020440020490020204D333031205000501B
:1027100049442073657474696E67733A0A002046F1
:102720000020420020480020204D31343520530045
:102730004D6174657269616C2068656174757020A3
:10274000706172616D65746572733A0A0020204D84
:102750003432302053004175746F20426564204C40
:102760006576656C696E673A0A00205A0020590048
:1027700020204D323036205800486F6D65206F663E
:10278000667365743A0A00204500205A00205900FB
:1027900020580020420020540020204D32303520A7
:1027A0005300416476616E6365643A20533C6D6901
:1027B0006E5F66656564726174653E20543C6D6948
:1027C0006E5F74726176656C5F6665656472617474
:1027D000653E20423C6D696E5F7365676D656E7422
:1027E0005F74696D655F75733E20583C6D61785FFD
:1027F00078795F6A65726B3E205A3C6D61785F7ACA
:102800005F6A65726B3E20453C6D61785F655F6A0B
:1028100065726B3E0A0020540020520020204D3289
:102820003034205000416363656C65726174696F78
:102830006E2028756E6974732F7332293A20503CCC
:102840007072696E745F616363656C3E20523C72A6
:102850006574726163745F616363656C3E20543CB0
:1028600074726176656C5F616363656C3E0A00201B
:102870004500205A0020590020204D323031205888
:10288000004D6178696D756D20416363656C65729B
:102890006174696F6E2028756E6974732F733229A5
:1028A0003A0A00204500205A0020590020204D32CD
:1028B00030332058004D6178696D756D206665650F
:1028C0006472617465732028756E6974732F73293F
:1028D0003A0A00204500205A0020590020204D3996
:1028E0003220580053746570732070657220756EC5
:1028F00069743A0A0020204D3230302044300A00FA
:1029000020204D3230302044002044697361626CD5
:1029100065640A0046696C616D656E742073657448
:1029200074696E67733A0020204D3134392043209A
:102930003B20556E69747320696E2043656C736922
:1029400075730A002020473231202020203B20557B
:102950006E69747320696E206D6D0A005374657022
:10296000732F6D6D004A65726B00416363656C6522
:10297000726174696F6E0056656C6F63697479007B
:102980005A204F6666736574005A204F66667365F9
:102990007400436F6E74726F6C0046696C2E204435
:1029A00069612E0046696C2E204469612E004F66D5
:1029B00066004F6E20004520696E206D6D3300412A
:1029C0006476616E6365204B00416476616E636579
:1029D000204B00416476616E6365204B00436F6E4F
:1029E00074726F6C0043616E6E6F7420656E7465F7
:1029F00072207375626469723A2000052E2E004DB4
:102A000061696E0020204E6F7A7A6C653A20004230
:102A100061636B004D696E696D756D2054656D70F5
:102A2000206973203138302E0048656174696E6703
:102A3000206661696C656400457874727564652010
:102A40006D6F726500526573756D65207072696E89
:102A50007400524553554D45204F5054494F4E53E5
:102A60003A007C3C3E5E2B3D3F2F5B5D3B2C2A2297
:102A70005C006265640A002C2073797374656D20B4
:102A800073746F7070656421204865617465725F4E
:102A900049443A200048656174696E67206661693F
:102AA0006C65640048656174696E67206661696C75
:102AB00065640048656174696E67206661696C656C
:102AC000640048656174696E67206661696C65645D
:102AD00000544845524D414C2052554E41574159A2
:102AE00000546865726D616C2052756E6177617912
:102AF000004572723A204D494E54454D5020424592
:102B000044004572723A204D494E54454D50004D97
:102B1000494E54454D50207472696767657265640B
:102B2000004572723A204D415854454D502042455F
:102B300044004572723A204D415854454D50004D65
:102B4000415854454D5020747269676765726564D9
:102B5000004572726F722077726974696E672074B3
:102B60006F20454550524F4D210A0020746F6F2051
:102B70006C6F6E6720657874727573696F6E207004
:102B8000726576656E7465640A0020636F6C6420FC
:102B9000657874727573696F6E2070726576656E94
:102BA0007465640A0046696C652064656C657465CB
:102BB000643A0044656C6574696F6E206661696C87
:102BC00065642C2046696C653A20006F70656E2044
:102BD0006661696C65642C2046696C653A20004822
:102BE000656174696E6720646F6E652E0020573AC8
:102BF000004525692025730046542D35205232208A
:102C000072656164792E0066696C616D656E743AF7
:102C100020007A5F6D696E3A2000795F6D696E3AC7
:102C20002000785F6D696E3A20005265706F727493
:102C3000696E6720656E6473746F7020737461745D
:102C400075730A004175746F0020452F443D0041A3
:102C50006476616E6365204B3D0034FFBC00112437
:102C60001FBECFEFD1E2DEBFCDBF00E00CBF13E04F
:102C7000A0E0B2E0E8ECF3E202E00BBF02C0079094
:102C80000D92AE39B107D9F724E1AEE9B3E001C046
:102C90001D92A433B207E1F716E1CEE2D6E100E0DF
:102CA00006C021970109802FFE010F944811CD32F3
:102CB000D10780E00807A9F70E9450FA0D94D311BC
:102CC0000C9400002F923F924F925F926F927F92EE
:102CD0008F929F92AF92BF92CF92DF92EF92FF922C
:102CE0000F931F93CF93DF93CDB7DEB7C356D109B0
:102CF0000FB6F894DEBF0FBECDBF81E090E0909399
:102D00004412809343128091C0118D3409F4D9C7C5
:102D1000843511F40C945F2C873421F0E4EEFFE04D
:102D20000C94A12C2090BE113090BF112BE12216E3
:102D3000310409F4C7C59CF444E02416310444F47A
:102D400052E025163104DCF537FE32C00C94B92C64
:102D500084E02816310409F46EC50C94B92C9EE168
:102D60002916310409F4B6C67CF4BCE12B163104F3
:102D700009F4D8C5EDE12E16310411F00C94B92CEC
:102D80000E949A5E0C94B92CFBE52F16310409F4CD
:102D900011C72CE52216310409F411C73AE52316B0
:102DA000310411F00C94B92C1092A2030C94B92C9C
:102DB0008091850281110C94C02C0C94B92C8091C7
:102DC0008502882311F40C94B92C0E94CA6C82E508
:102DD0000E946036882309F43EC10E94FE354B01F3
:102DE0005C0120E030E0A9010F94010A882309F476
:102DF0005EC18091580490915904A0915A04B091F9
:102E00005B0488AB99ABAAABBBAB20915C0430915F
:102E10005D0440915E0450915F042CAB3DAB4EAB22
:102E20005FAB8091621290916312A0916412B09195
:102E3000651288AF99AFAAAFBBAF209166123091EF
:102E4000671240916812509169122CAF3DAF4EAF9E
:102E50005FAF9C01AD0168A979A98AA99BA90F94CC
:102E6000010A81110DC02CAD3DAD4EAD5FAD6CA919
:102E70007DA98EA99FA90F94010A882309F417C17F
:102E800011E032E02316310409F010E020E030E0D8
:102E9000A901C501B4010F94010A881F8827881F62
:102EA000181759F080E090E0A0E8BFEB2C968CAFAB
:102EB0009DAFAEAFBFAF2C970AC020E030E040E836
:102EC0005FE32C962CAF3DAF4EAF5FAF2C9728A998
:102ED00039A94AA95BA968AD79AD8AAD9BAD0F94BC
:102EE0004C0E24966CAF7DAF8EAF9FAF24972CA96C
:102EF0003DA94EA95FA96CAD7DAD8EAD9FAD0F9480
:102F00004C0E6B017C0124962CAD3DAD4EAD5FADFA
:102F10002497CA01B9010F94660A2B013C01A7014D
:102F20009601C701B6010F94660A9B01AC01C3016B
:102F3000B2010F944D0E0F94B81028966CAF7DAF70
:102F40008EAF9FAF289720E030E040E05FE30F9422
:102F5000660A2B013C01A5019401C501B4010F943F
:102F6000660A4B015C01A3019201C301B2010F94F7
:102F7000660A9B01AC01C501B4010F944C0E0F947D
:102F8000B8102C962CAD3DAD4EAD5FAD2C970F9487
:102F9000660A4B015C01C701B601905828962CAD1A
:102FA0003DAD4EAD5FAD28970F94290FA50194015B
:102FB0000F94660A6B017C0128AD39AD4AAD5BAD5B
:102FC00068A979A98AA99BA90F944D0E20E030E049
:102FD00040E05FE30F94660A9B01AC01C701B601B4
:102FE0000F944D0E28A939A94AA95BA90F944C0E3C
:102FF0006B017C012CAD3DAD4EAD5FAD6CA97DA9E3
:103000008EA99FA90F944D0E20E030E040E05FE3D1
:103010000F94660A2B013C0128962CAD3DAD4EADB8
:103020005FAD289724966CAD7DAD8EAD9FAD249796
:103030000F94290FA50194010F94660A9B01AC011E
:10304000C301B2010F944D0E2CA93DA94EA95FA951
:103050000F944C0E14C089E40E946036882329F036
:103060000E94FE356B017C0103C0C12CD12C76017E
:103070008AE40E9460368823E9F00E94FE3568AF3A
:1030800079AF8AAF9BAF20E030E0A901C701B6015C
:103090000F94010A81111BC020E030E0A90168AD46
:1030A00079AD8AAD9BAD0F94010A811110C0EEEA93
:1030B000FFE0ADC320E030E0A901C701B6010F94E5
:1030C000010A8823A1F318AE19AE1AAE1BAED701C0
:1030D000C601B05888AB99ABAAABBBAB28AD39AD34
:1030E0004AAD5BAD50582CAB3DAB4EAB5FAB9C01DA
:1030F000AD01BC01CD010F94660A4B015C012CA906
:103100003DA94EA95FA9CA01B9010F94660A9B01A6
:10311000AC01C501B4010F944D0E0F94B810689620
:103120006CAF7DAF8EAF9FAF689780915804909140
:103130005904A0915A04B0915B048CAF9DAFAEAF1F
:10314000BFAF9C01AD01C701B6010F944D0E2C9687
:103150006CAF7DAF8EAF9FAF2C9720915C04309108
:103160005D0440915E0450915F0428962CAF3DAF02
:103170004EAF5FAF289768AD79AD8AAD9BAD0F9428
:103180004D0E6C966CAF7DAF8EAF9FAF6C978091FC
:10319000621290916312A0916412B09165126096D0
:1031A0008CAF9DAFAEAFBFAF60972C962CAD3DAD51
:1031B0004EAD5FAD2C97BC01CD010F944C0E6B0151
:1031C0007C012091661230916712409168125091F3
:1031D000691264962CAF3DAF4EAF5FAF64976C96AB
:1031E0002CAD3DAD4EAD5FAD6C9764966CAD7DADD5
:1031F0008EAD9FAD64970F944C0E4B015C01809196
:10320000600490916104A0916204B0916304A0965F
:103210008CAF9DAFAEAFBFAFA0979C01AD016091E9
:103220006A1270916B1280916C1290916D120F94D2
:103230004C0E24966CAF7DAF8EAF9FAF2497A70145
:10324000960168A979A98AA99BA90F94660A2B01FE
:103250003C01A50194016CA97DA98EA99FA90F9499
:10326000660A9B01AC01C301B2010F944D0E2B0104
:103270003C01A501940168A979A98AA99BA90F9489
:10328000660A4B015C01A70196016CA97DA98EA974
:103290009FA90F94660A9B01AC01C501B4010F946C
:1032A0004C0EA30192010F94C00E6B017C0120E033
:1032B00030E0A9010F94010A87FF0AC02BED3FE01F
:1032C00049EC50E4C701B6010F944D0E6B017C012F
:1032D00092E02916310451F42BED3FE049EC50E423
:1032E000C701B6010F944C0E6B017C0120E030E069
:1032F000A901C701B6010F94010A811126C0609689
:103300002CAD3DAD4EAD5FAD60976CAD7DAD8EAD7E
:103310009FAD0F94010A811118C064962CAD3DAD8C
:103320004EAD5FAD649728966CAD7DAD8EAD9FAD13
:1033300028970F94010A811108C05BEDC52E5FE04C
:10334000D52E59ECE52E50E4F52EA701960168968E
:103350006CAD7DAD8EAD9FAD68970F94660A9B01F5
:10336000AC010F94660A4B015C0124962CAD3DAD77
:103370004EAD5FAD2497CA01B9010F94660A9B0157
:10338000AC01C501B4010F944D0E0F94B8104B0160
:103390005C012FE632E143E85AE30F94010A87FD0E
:1033A0002FC2C501B4010F94C20F0F94960F269639
:1033B0007FAF6EAF2697DB01AB2B31F4E1E0F0E09D
:1033C0002696FFAFEEAF26974090640450906504B8
:1033D000609066047090670426962EAD3FAD2697E8
:1033E000B90180E090E00F94050A4B015C019B015C
:1033F000AC01C701B6010F94290F6CAF7DAF8EAF42
:103400009FAFA501940124966CAD7DAD8EAD9FADAF
:1034100024970F94290F68966CAF7DAF8EAF9FAF46
:103420006897A301920160916E1270916F12809162
:103430007012909171120F944C0EA50194010F948B
:10344000290FA4966CAF7DAF8EAF9FAFA4972CAD24
:103450003DAD4EAD5FADCA01B9010F94660A20E0E3
:1034600030E040E05FE30F94660A9B01AC0160E04E
:1034700070E080E89FE30F944C0E60966CAF7DAFD8
:103480008EAF9FAF6097A0968CAD9DADAEADBFAD3A
:10349000A09789879A87AB87BC874D865E866F86A3
:1034A000788A6091780270917902072E000C880B5F
:1034B000990B0F94070A209181023091820240916A
:1034C0008302509184020F94660A2AE037ED43E2AA
:1034D0005CE30F94660A6CA77DA78EA79FA70E9446
:1034E00047589B01AC0128533F4F4F4F5F4F6496A5
:1034F0002CAF3DAF4EAF5FAF649748A859A86AA8FC
:103500007BA822242394312C39E121963FAF2197C7
:1035100026964EAD5FAD26974215530509F435C189
:103520000E9443E10E944758DC01CB0164962CAD18
:103530003DAD4EAD5FAD6497821B930BA40BB50BF5
:10354000B7FD11C00E9447589B01AC0128533F4F63
:103550004F4F5F4F64962CAF3DAF4EAF5FAF649758
:1035600080E00E94427A21963FAD2197315021960A
:103570003FAF2197332309F441C02CA93DA94EA99F
:103580005FA960966CAD7DAD8EAD9FAD60970F94D9
:10359000660A6B017C019201A3016CAD7DAD8EAD1D
:1035A0009FAD0F94660AA70196010F944D0E7B0103
:1035B0008C019201A30160966CAD7DAD8EAD9FAD87
:1035C00060970F94660A4B015C012CA93DA94EA996
:1035D0005FA96CAD7DAD8EAD9FAD0F94660A9B016A
:1035E000AC01C501B4010F944C0E2B013C01C70185
:1035F000D8018CAB9DABAEABBFAB4FC0B10180E08F
:1036000090E00F94050A2CAD3DAD4EAD5FAD0F942B
:10361000660A4B015C010F94260F6B017C01C5010A
:10362000B4010F94AE104B015C01A701960168A98B
:1036300079A98AA99BA90F94660A2B013C01A501CF
:10364000940168AD79AD8AAD9BAD0F94660AA30174
:1036500092010F944D0E2B013C01A501940168A924
:1036600079A98AA99BA90F94660A4B015C01A7015D
:10367000960168AD79AD8AAD9BAD0F94660A9B014A
:10368000AC01C501B4010F944C0E6CAB7DAB8EAB9D
:103690009FAB49E121964FAF21979201A3012C9650
:1036A0006CAD7DAD8EAD9FAD2C970F944D0E6983A3
:1036B0007A838B839C832CA93DA94EA95FA96C9624
:1036C0006CAD7DAD8EAD9FAD6C970F944D0E6D833F
:1036D0007E838F83988768962CAD3DAD4EAD5FADF0
:1036E000689769857A858B859C850F944D0E6987CF
:1036F0007A878B879C87A4962CAD3DAD4EAD5FAD90
:10370000A4976D857E858F8598890F944D0E6D8762
:103710007E878F87988B80910C02882321F0CE01C1
:1037200001960E944479E090FD1289819A81AB81D3
:10373000BC8188A399A3AAA3BBA38D819E81AF81DD
:10374000B8858CA39DA3AEA3BFA389859A85AB85BD
:10375000BC8588A799A7AAA7BBA7CE0180960E947F
:103760007B368E01045D1F4F9E01235F3F4FAE01EC
:10377000485D5F4FBE016C5D7F4FCE0180960E9419
:10378000BAED5FEF251A350AC3CEE090FD128091A5
:10379000621290916312A0916412B091651288A395
:1037A00099A3AAA3BBA38091661290916712A091DE
:1037B0006812B09169128CA39DA3AEA3BFA38091A0
:1037C0006A1290916B12A0916C12B0916D1288A741
:1037D00099A7AAA7BBA7CE0180960E947B368E012F
:1037E000045D1F4F2EE632E1AE01485D5F4FBE0122
:1037F0006C5D7F4FCE0180960E94BAED0E948D369F
:103800000E9497360C94B92C0E94DA36F801849104
:103810008F010F5F1F4F8111F7CFE7E1F2E0849135
:103820008F010F5F1F4F882311F40C94B92C0E9455
:10383000DA36F801F4CF80E50E946036882329F05B
:103840000E94BE356B017C0103C0C12CD12C7601D6
:1038500083E50E946036882361F00E94FE3520E0F7
:1038600030E04AE754E40F94660A0F94960F6B0118
:103870007C010E9433E480911502811105C060E053
:103880008DE292E00E9475840E94973680914E12DC
:1038900090914F12A0915012B0915112C80ED91EA2
:1038A000EA1EFB1E0E944758DC01CB018C199D09C2
:1038B000AE09BF09B7FD02C00C94B92C80E00E948C
:1038C000427AF0CF0E94A04A81110C94B92C80E07A
:1038D00090E0A6E1B3E489839A83AB83BC8380E064
:1038E00090E0A1E9B3E48D839E83AF83B88780E045
:1038F00090E0A0EAB1E489879A87AB87BC8780E52E
:103900000E946036882319F00E94CE3501C060E025
:1039100068A3BE016F5F7F4FCE0180960E94ADF617
:103920000C94B92C0E9433E480E00E947A350E9406
:10393000BB3681E08093E40888E50E943136E82EAA
:1039400089E50E943136082F8AE50E943136F82E2B
:10395000E11005C0011105C011E0182705C00111D3
:1039600002C010E001C0182F0E948336111104C05C
:10397000E11002C00023C1F180E090E0A0EAB1E4D0
:1039800080936A1290936B12A0936C12B0936D1295
:103990009C01AD01609160047091610480916204AA
:1039A000909163040F94010A87FF0BC019821A8259
:1039B0001B821C82BE016F5F7F4F8AE692E10E94EC
:1039C0009833111105C0E11003C0011107C00CC0EC
:1039D00080E090E00E9407781123B9F381E090E045
:1039E0000E940778111103C0FF2009F464C0809180
:1039F000A704882321F08091A80481111FC060E0F2
:103A000087E492E00E947584E4EEFFE084918F01E8
:103A10000F5F1F4F811103C0E6E3F2E004C00E9474
:103A2000DA36F801F3CF84918F010F5F1F4F88239F
:103A300009F441C00E94DA36F801F5CF0E9433350F
:103A40008091600490916104A0916204B09163043C
:103A500080936A1290936B12A0936C12B0936D12C4
:103A600080E090E0A1E1B3E480936212909363124E
:103A7000A0936412B093651280E090E0A8ECB2E4E9
:103A80008093661290936712A0936812B0936912A4
:103A900019821A821B821C829E012F5F3F4F40E6D3
:103AA00054E066E672E182E692E10E94AC3282E086
:103AB00090E00E9407780E9433358091E30880935C
:103AC000E4080E94A23683E0809314020E94BBA106
:103AD0000C94B92CC0905804D0905904E0905A042A
:103AE000F0905B0488E50E946036811109C020E0F7
:103AF00030E040EA50E4C701B6010F944D0E02C019
:103B00000E94FE3568A379A38AA39BA3C0905C049E
:103B1000D0905D04E0905E04F0905F0489E50E941F
:103B20006036811109C020E030E048E452E4C7016A
:103B3000B6010F944D0E02C00E94FE356B017C0150
:103B400069837A838B839C8388A099A0AAA0BBA059
:103B50002FEC37EF4FE950E4C501B4010F94731017
:103B600087FF02C00C94B92C21E230E046E953E40F
:103B7000C501B4010F94010A181614F40C94B92C61
:103B80002AEF3EEF47E452E4C701B6010F947310E9
:103B900087FF02C00C94B92C21E230E046E953E4DF
:103BA000C701B6010F94010A181614F40C94B92C2D
:103BB0000C94762D81E08093A2030C94B92C0E9482
:103BC00033E48AE892E099AF88AF96E5E92E92E176
:103BD000F92E28E5C22E24E0D22E3EEF232E32E12C
:103BE000332E00E010E018AAA8ADB9AD8D91B9AFA1
:103BF000A8AF0E946036882309F44CC00E94FE35AD
:103C00004B015C010CAB033049F0F10120813181A3
:103C1000428153810F944C0E4B015C01D6012D91D2
:103C20003D914D915C91C501B4010F944C0E2B0157
:103C30003C012DEB37E346E855EB0F94731087FDFD
:103C40000AC02DEB37E346E855E3C301B2010F94F8
:103C5000010A1816FCF4BCA9B33059F4809264042C
:103C600090926504A0926604B0926704E1E0E8AB2C
:103C700011C0A3019201D7016D917D918D919C910D
:103C80000F944D0EF7016083718382839383C80183
:103C90000E947D340F5F1F4FF4E0EF0EF11C24E013
:103CA000C20ED11C34E0230E311C0430110509F082
:103CB0009BCF48A941110E94D6490E94BBA10C94F8
:103CC000B92C8091BE119091BF118537910509F4EF
:103CD00071C70CF0D9C08C34910509F458C40CF0AC
:103CE00071C08831910509F4B0C2E4F582319105C3
:103CF00009F434C6F4F497FF02C00C94B92C823056
:103D000091050CF4BDC1419711F00C94B92C60E001
:103D10008AE992E00E9475845F988A989FB7F89428
:103D2000809108018E7F809308019FBF12980C94A8
:103D3000B92C8531910509F46DC23CF4449711F01A
:103D40000C94B92CE2EBF2E025C28631910509F41E
:103D500065C2479711F00C94B92CE091BC11F09119
:103D6000BD1166C28E31910509F4CBC2C4F48A310B
:103D7000910509F47BC20CF473C28B31910509F4EF
:103D800083C24C9711F00C94B92C40E060E0809114
:103D9000BC119091BD110E94744D0C94B92C8032CD
:103DA000910509F4B2C20CF4FCC28A32910509F4FF
:103DB000AEC38B34910511F00C94B92C0E94964936
:103DC0000C94B92C8A36910509F465C5B4F584358F
:103DD000910509F4C3C5E4F48135910509F49FC543
:103DE0004CF48D34910511F00C94B92C0E94D05AEA
:103DF0000C94B92C8235910509F4ACC58335910535
:103E000011F00C94B92C81E08093A1030C94B92C8F
:103E10008C35910509F4F0C534F48535910509F424
:103E2000D2C50C94B92C8836910509F4B4C38936EF
:103E3000910509F4E4C40C94B92C8F36910509F46A
:103E400014C484F48C36910509F482C40CF44FC573
:103E50008D36910509F417C58E36910509F4F2C324
:103E60000C94B92C8137910509F47EC40CF474C408
:103E70008237910509F448C68337910511F00C94F7
:103E8000B92CE0E4F4E045C68C3251E0950711F41A
:103E90000C9449290CF079C0893C910509F4A1C71B
:103EA0007CF58C38910509F48CC4ACF48737910506
:103EB00009F4C7C60CF486C68837910509F4C4C650
:103EC0008937910511F00C94B92C1092E4081092E6
:103ED000E3080C94B92C8B39910509F4ADC434F482
:103EE0008139910509F4B6C60C94B92C8E3B910525
:103EF00009F4CDC4883C910509F423C70C94B92C6E
:103F0000833D910511F40C941D2834F58C3C9105EA
:103F100009F4A1C764F48B3C910511F00C94B92C01
:103F20000AE8E02E02E0F02E06E513E184C78D3C9E
:103F3000910509F4FAC78E3C910511F00C94B92C47
:103F4000BAE8CB2EB2E0DB2E1BEAE12E14E0F12E14
:103F500000E010E00C940A288D3D910511F40C94BA
:103F60002D283CF48C3D910511F40C9420280C94E0
:103F7000B92C823E910511F40C947428883191403B
:103F800011F40C949E280C94B92C8C3AE1E09E0715
:103F900011F40C94F32AA4F5803921E0920711F46E
:103FA0000C94672AC4F48E3241E0940711F40C9407
:103FB000102A14F40C9472298F32A1E09A0711F49C
:103FC0000C94642A8336914011F00C94B92CEEEADB
:103FD000FFE00C94372C8239E1E09E0711F40C9439
:103FE0006E2A14F40C946A2A8A3921E0920709F4A3
:103FF000B7C3843A914011F40C94722A0C94B92CF2
:10400000883542E0940711F40C942E2CECF4853F93
:10401000A1E09A0711F40C94C82B4CF4843F914012
:1040200011F00C94B92C0E94ADAF0C94B92C863FC2
:10403000F1E09F0711F40C94CB2B873F914011F4D2
:104040000C94CE2B0C94B92C843833E0930711F4E4
:104050000C94312C4CF48335934011F00C94B92C12
:10406000E4EEFFE00C94DD2B803AA3E09A0709F41C
:104070008BC1873E934011F40C944A2C0C94B92CBC
:10408000A090BC11B090BD1180E50E9460368823DD
:1040900059F00E94BE356B017C0111E0672B682B43
:1040A000692B31F410E004C010E0C12CD12C760152
:1040B00083E50E9460368823F1F00E94FE3520E0FF
:1040C00030E04AE754E40F94660A0F94960F6B01B0
:1040D0007C01111112C0672B682B692B71F4A1149C
:1040E000B10459F0F5018081882339F061E0C50100
:1040F0000E94948407C0112391F360E087E892E066
:104100000E94758483E090E0909344128093431260
:1041100081E080938B120E9433E40E949736C11491
:10412000D104E104F104E1F080914E1290914F121C
:10413000A0915012B0915112C80ED91EEA1EFB1E5A
:104140000E944758DC01CB018C199D09AE09BF09BB
:10415000B7FF1CC080918B1281110C94CD2D16C01D
:1041600080918B12882321F080E00E94427AF8CF60
:10417000809173099091740960E0029719F488E7BF
:1041800092E002C089E692E00E94758410928B1240
:104190000C94B92C84918F010F5F1F4F882321F05D
:1041A0000E94DA36F801F6CF1092300C10922F0CE4
:1041B0008BED99E00E944DC98BE1EBEDF9E0DE015A
:1041C000159601900D928A95E1F78091D909909109
:1041D000DA099C838B8384EA92E09A83898340E0A6
:1041E00050E0BE016F5F7F4F8EE493E00E94584B1A
:1041F000CE0101960E94D679E3EAF2E084918F0124
:104200000F5F1F4F882311F40C94B92C0E94DA36EB
:10421000F801F4CF0E94F65C0C94B92C109283093B
:10422000109284090C94B92C803209F410823196D2
:1042300080818111F9CF40E061E08091BC119091C3
:10424000BD110E94744D0C94B92C8091840988236F
:1042500019F081E0809383090E9496490C94B92C4F
:10426000109283090E943E4B0C94B92C80918409D2
:10427000882311F40C94B92C83E50E9460368111D7
:104280000C94D22D0C94B92C80918409811103C017
:10429000E5EDF2E02AC0E3ECF2E084918F010F5FDC
:1042A0001F4F882321F00E94DA36F801F6CF609183
:1042B000260C7091270C8091280C9091290C4AE0D3
:1042C0000E949D3A8FE20E94DA366091220C709132
:1042D000230C8091240C9091250C4AE00E949D3A79
:1042E0008AE00E94DA360C94B92C84918F010F5F1A
:1042F0001F4F882311F40C94B92C0E94DA36F80170
:10430000F4CF0E94A7F30C94B92C809183098111FA
:104310000E9433E480918409882311F40C94B92C11
:1043200080E50E946036882319F00E94EF3503C0B3
:1043300080E50E943136182F482F61E08091BC1132
:104340009091BD110E94744D83E50E9460368823D0
:1043500081F00E94CE35AB01BC014093260C5093F6
:10436000270C6093280C7093290C85E79BE00E9432
:104370000BE880918409882319F081E080938309F8
:1043800011110C94B92C68CF8091BC119091BD1182
:1043900021E02093820940E060E00E94744D0C947B
:1043A000B92C0E943B5E7B018C0120E831E541E0A5
:1043B00050E00F94EF0DC9016DE671E00F942111EB
:1043C0004B015C01C801B70120E13EE040E050E054
:1043D0000F94EF0DCA01B90128E130E040E050E050
:1043E0000F94EF0D762E672EC62ED72E8CE3282E37
:1043F000312C412C512CC801B701A20191010F941D
:10440000EF0DF62EE72ECA01B901A20191010F941A
:10441000EF0DCB018E010F5F1F4F8114910499F0B6
:10442000EF92FF927F936F936F927F92BF92AF92C2
:104430009F928F928EE093E09F938F931F930F93A1
:104440000F949B0913C0A114B104B1F0EF92FF9235
:104450007F936F936F927F92BF92AF928EEF92E0B5
:104460009F938F931F930F930F949B090FB6F8940C
:10447000DEBF0FBECDBF30C0CD2879F0EF92FF92E6
:104480007F936F936F927F9282EF92E09F938F93CF
:104490001F930F930F949B09E9CF892B69F0EF923B
:1044A000FF927F936F938AEE92E09F938F931F9377
:1044B0000F930F949B09DACFEF92FF9286EE92E072
:1044C0009F938F931F930F930F949B090F900F90BF
:1044D0000F900F900F900F9060E0C8010E9494849D
:1044E000E4EEFFE084917F01BFEFEB1AFB0A882323
:1044F00021F00E94DA36F701F5CFB80182E293E0AD
:104500000E9449EB8AE00E94DA360C94B92C83E5CC
:104510000E946036882311F40C94B92C0E94DE3579
:10452000E82E80E50E946036882341F00E94CE3557
:104530008B0177FF02C00C94B92C02C00DE010E093
:10454000802FEBEAF5E09491891303C0EEEAFFE0D7
:104550000AC0319625E0E33DF207A9F70C94E22D5D
:104560000E94DA36F80184918F010F5F1F4F81118D
:10457000F7CFEFE2F3E084918F010F5F1F4F8823A5
:1045800011F40C94B92C0E94DA36F801F4CF0E9491
:104590003E4B0C94B92C88E690E00E94083B8111B8
:1045A0000C94B92C8091CF1283FF02C00C94B92CCB
:1045B00083E50E946036882309F440C00E94FE35DE
:1045C0000F94910F7093F8126093F71280E00E949D
:1045D00026DD0E94FE3520E030E044EB52E40F94EB
:1045E000010A18163CF00E94D05A60E085E493E07E
:1045F0000E9475840E94FE3520918C1230918D129C
:1046000040918E1250918F120F9473101816B4F4BB
:1046100088E093E09F938F9380911E1390E0019622
:104620009F938F938EE393E09F938F931F920E94AB
:10463000A65B0FB6F894DEBF0FBECDBF0E94D4EBD1
:104640000C94B92C8EE40E946036882311F40C94EB
:10465000B92C0E94CE3560937A0470937B048093CA
:104660007C0490937D040C94B92C83E50E94313630
:10467000882359F083E50E946036882319F00E9450
:10468000DE3501C080E08093CF12E4EEFFE084913C
:104690008F010F5F1F4F811103C0E2E6F3E004C0FA
:1046A0000E94DA36F801F3CF84918F010F5F1F4F1C
:1046B000882321F00E94DA36F801F6CF8091CF12DC
:1046C000811103C0EEE5F3E034C0B4E5CB2EB3E0D6
:1046D000DB2EE12CF12C20E08091CF1290E00E2C0B
:1046E00002C0959587950A94E2F780FF17C0BB2416
:1046F000B394B20E222319F08CE20E94DA36F6014E
:1047000085919491FC0184918F010F5F1F4F882345
:1047100021F00E94DA36F801F6CF2B2D5FEFE51A73
:10472000F50A82E0C80ED11C95E0E916F104A1F665
:104730000AC084918F010F5F1F4F882321F00E94D0
:10474000DA36F801F6CF8AE00E94DA360C94B92CFA
:10475000109271020C94B92C89E693E00E94F079D2
:104760000E94329C0C94B92C83E50E946036811122
:1047700003C0E4EEFFE00DC00E94DE358D3320F46F
:1047800080935B020C94B92C8CE380935B020C94B5
:10479000B92C84918F010F5F1F4F882321F00E9455
:1047A000DA36F801F6CF40915B0250E060E070E04D
:1047B00082E793E00E94F6EA8AE00E94DA360C94DF
:1047C000B92C8091CF1283FF02C00C94B92C83E5E1
:1047D0000E946036882311F40C94B92C0E94FE3597
:1047E0000F94910F6937710514F068E770E07093CA
:1047F000F6126093F5120E94DADC0C94B92C89E66B
:1048000090E00E94083B811111C0E9E7F3E0849138
:104810008F010F5F1F4F882321F00E94DA36F801C5
:10482000F6CF0E9449AA8AE00E94DA36109244121A
:10483000109243120C945D2E83E50E94603688230B
:1048400011F40C94B92C0E94DE35182F8D3308F02A
:104850001CE3109349120E9447586B017C01212FE1
:1048600030E0A8EEB3E00F943D0EC60ED71EE81E52
:10487000F91EC0924512D0924612E0924712F09271
:1048800048120C94B92C0E94CAF00C94B92C0E94C6
:1048900098A20C94B92C80E50E946036882341F0E0
:1048A0000E94DE35182F823010F00C94B92C01C014
:1048B00010E083E50E946036882329F00E94CE35FF
:1048C000362F272F02C03FEF20E0E12FF0E0EE0F60
:1048D000FF1FE750FD4E832F922F8F3F910519F058
:1048E00010F08FEF90E0918380830C94B92C80E5D9
:1048F0000E946036882341F00E94CE3562307105F7
:1049000010F00C94B92C02C060E070E0660F771FC5
:10491000FB01E750FD4E118210820C94B92C0E94CD
:1049200072DD0E9433E40E94E0791092FA12109234
:10493000F9121092FC121092FB1268EE73E080E004
:1049400090E00E94BC8360E08CE793E00E94758455
:104950000C94B92C1092A1030C94B92C83E50E94FD
:104960006036882399F00E94FE3520E030E04AE767
:1049700054E40F94660A0F94960F60935C02709350
:104980005D0280935E0290935F02F3C788E50E9408
:10499000313681110C94002E89E50E943136811147
:1049A0000C94002E8AE50E94313681110C94002E61
:1049B00085E40E94313681110C94002E0E9433E46C
:1049C0000E94E079D6C783E50E943136882309F436
:1049D000D0C70E94FE3520E030E04AE754E40F944F
:1049E000660A0F94960F609352127093531280933D
:1049F000541290935512BDC75AE8C52E52E0D52ED9
:104A000068E6E62E64E0F62E10E0D6018D916D0189
:104A10000E943136882309F46DC0133009F063C059
:104A20000E94FE354B015C0120E030E040EA51E499
:104A30000F94010A87FF4EC0A50194016091740490
:104A40007091750480917604909177040F94290FEA
:104A50002B013C019B01AC0160918E1370918F136F
:104A600080919013909191130F94660A60938E1326
:104A700070938F138093901390939113A3019201DD
:104A80006091621370916313809164139091651328
:104A90000F94660A60936213709363138093641398
:104AA00090936513609120147091211480912214C9
:104AB000909123140F94050AA30192010F94660AA2
:104AC0000F94960F609320147093211480932214F6
:104AD000909323148092740490927504A0927604AB
:104AE000B092770407C00E94FE35F701608371839E
:104AF000828393831F5FF4E0EF0EF11C143009F002
:104B000084CF0E944FED35C70E9433E40E94BBA1C1
:104B100030C784918F010F5F1F4F882321F00E94BF
:104B2000DA36F801F6CF60E080E394E00E9484A1D9
:104B300061E089E294E00E9484A161E08EE194E06A
:104B40000E9484A161E08EE094E00E9484A160E074
:104B500085E094E00E9484A161E08BEF93E00E94E5
:104B600084A161E081EF93E00E9484A161E089EE7D
:104B700093E00E9484A161E08BED93E00E9484A108
:104B800060E08DEC93E00E9484A160E08EEB93E006
:104B90000E9484A160E080EB93E00E9484A160E029
:104BA0008AE993E00E9484A160E089E893E00E9492
:104BB00084A1DFC660E08091BC119091BD110E947C
:104BC0009484D7C685E40E946036882319F00E9439
:104BD000EF3503C085E40E943136882361F0E4EEAE
:104BE000FFE084918F010F5F1F4F882321F00E9407
:104BF000DA36F801F6CF81E40E946036882319F096
:104C00000E94EF3503C081E40E943136882361F0B1
:104C1000E3E0F5E084918F010F5F1F4F882321F0BF
:104C20000E94DA36F801F6CF0091BC111091BD1147
:104C3000D8018D918D01882309F485CD0E94DA3643
:104C4000F7CF0E94D7F795C681E08093E408809360
:104C5000E3088FC683E50E946036882319F00E941E
:104C6000CE3502C060E070E08B01112702301105E3
:104C7000D4F0EEEAFFE084918F010F5F1F4F8111A6
:104C800003C0E7E0F5E004C00E94DA36F801F3CF94
:104C900084918F010F5F1F4F882309F46AC60E9419
:104CA000DA36F801F5CF88E40E9460368823A1F057
:104CB0000E94CE35643B710534F0663F71052CF0DF
:104CC00065EF70E002C064EB70E0F801EE0FFF1FCB
:104CD000E654FD4E7183608386E40E94603688232B
:104CE000A9F00E94CE35F801EE0FFF1FE254FD4EF1
:104CF000718360836F3F710519F014F06FEF70E0FE
:104D000077FF02C060E070E07183608382E40E94FC
:104D10006036882309F42DC60E94CE3565307105B2
:104D200034F06A3671052CF069E670E002C065E087
:104D300070E0000F111FF801EA54FD4E718360838B
:104D400018C688EC90E00E94083B811112C684E4EA
:104D50000E943136882309F441C00E94FE356B0160
:104D60007C0111E020E030E0A9010F94010A8111DB
:104D700001C010E010939A1320E030E0A901C701B0
:104D8000B6010F94010A882349F10E94FE35E09193
:104D90001E13B4E0EB9FF0011124EA56FC4E608331
:104DA00071838283938320E030E0A90160919613A0
:104DB0007091971380919813909199130F94010A11
:104DC00081110CC080E090E0A0EEBFE380939613C9
:104DD00090939713A0939813B09399130E9472CE57
:104DE000C8C58AE8E82E82E0F82E06E613E196E7C9
:104DF000C92E93E1D92EF70181917F010E943136AE
:104E0000882351F00E94FE350F94960FD8016D93C0
:104E10007D938D939C9313970C5F1F4FC016D10603
:104E200051F70E9404ECA5C50C5F1F4FB3E1063695
:104E30001B0709F49EC5F70181917F010E9431365D
:104E4000882391F30E94FE35D8016D937D938D9355
:104E50009C931397E9CF83E50E9431368823D9F0DC
:104E60000E94FE35AB01BC0140937E1350937F132B
:104E7000609380137093811340937613509377134C
:104E8000609378137093791383E895E00E9413EB95
:104E90008AE00E94DA3680E50E943136882399F054
:104EA0000E94FE35AB01BC0140937E1350937F13EB
:104EB000609380137093811386E695E00E9413EB54
:104EC0008AE00E94DA3682E50E943136882399F022
:104ED0000E94FE35AB01BC0140937A1350937B13C3
:104EE00060937C1370937D1387E495E00E9413EB2D
:104EF0008AE00E94DA3684E50E943136882309F47C
:104F000038C50E94FE35AB01BC0140937613509327
:104F10007713609378137093791389E295E00E9478
:104F200013EB8AE00E94DA3624C583E50E9431360D
:104F3000882351F00E94FE356093521370935313EF
:104F4000809354139093551384E50E94313688233F
:104F500051F00E94FE3560934E1370934F1380936F
:104F600050139093511382E40E943136882351F0FC
:104F70000E94BE356093AB137093AC138093AD1356
:104F80009093AE1388E50E943136882351F00E9439
:104F9000FE356093821370938313809384139093F0
:104FA000851389E50E943136882351F00E94FE3531
:104FB000609386137093871380938813909389135B
:104FC0008AE50E943136882351F00E94FE356093B5
:104FD0008A1370938B1380938C1390938D1385E4B5
:104FE0000E943136882309F4C4C40E94FE356093C0
:104FF0008E1370938F138093901390939113B9C471
:105000000F5F1F4FB4E0EB0EF11C0330110511F4DC
:105010000C945D1EF60181916F010E943136882348
:1050200079F30E94FE35D7016D937D938D939C9308
:105030001397C8010E947D34E3CF0E94A6A099C4B3
:1050400083E50E946036882309F493C40E94CE351C
:1050500070937902609378028CC48DED90E00E9489
:10506000083B811186C483E50E946036882309F4D9
:1050700080C400911E1310E00E94CE35000F111F56
:10508000F801EA58FD4F7183608380911E1390E010
:105090008C01000F111F000F111FF801EE58FD4F7A
:1050A0007F01880F991FFC01EA58FD4F60817181D3
:1050B000072E000C880B990B0F94070A2AE037ED96
:1050C00043E25CE30F94660AF801E053FD4E208151
:1050D0003181428153810F94660AD7016D937D938C
:1050E0008D939C93139745C480E50E9431368823A5
:1050F00009F43FC40E94CE356B017C0183E50E9418
:105100006036882321F00E94CE358B0102C00FEF5C
:105110001FEFC8010196039708F02BC4D7FC29C4E0
:105120002C2DEBEAF5E083ED95E03491231709F49B
:1051300020C431968E179F07C1F796C580E50E945F
:105140003136882309F415C40E94CE356B017C01E9
:105150008B01672B19F0EEEAFFE07FC083E50E9428
:105160003136811103C0E4EEFFE007C00E94CE3566
:1051700082E599E00E94C976FCC384917F01BFEF6C
:10518000EB1AFB0A882321F00E94DA36F701F5CFEB
:1051900060E070E08CEE95E00E9430EB8091540965
:1051A00028E532E06901C81AD10887FDD394CC0CF8
:1051B000DD1CCC0CDD1C0D2C000CEE08FF088091D2
:1051C000530928E830E04901881A910887FD939433
:1051D000880C991C880C991C092C000CAA08BB0887
:1051E000809152098F3FB9F090E0FC01EE0FFF1F54
:1051F0008E0F9F1FFC01EB51F74F0181128133E0AD
:10520000000F111F3A95E1F744E0169507954A956E
:10521000E1F70E5F1F4F98012F5F3F4FC901330F1A
:10522000AA0BBB0B9C01AD01281939094A095B097E
:10523000A4EBB0E00F942D0EA701960128193909AF
:105240004A095B090F94110EB90189EE95E00E949D
:1052500030EB8AE00E94DA368CC384918F010F5FB5
:105260001F4F882321F00E94DA36F801F6CFB601ED
:1052700082EE95E00E9430EBE3EDF5E084918F0142
:105280000F5F1F4F882309F474C30E94DA36F801B8
:10529000F5CF83E50E946036882319F00E94CE3551
:1052A00002C064E071E079A368A380E50E946036E3
:1052B000882339F00E94CE356938E3E17E0730F467
:1052C00002C068EE73E07A83698304C088E893E1E2
:1052D0009A838983BE01605E7F4FCE0101960E9452
:1052E000624947C385E40E946036811110C080E5A1
:1052F0000E943136882391F00E94FE356093A912F6
:105300007093AA128093AB129093AC1207C00E94C4
:10531000DE35882361F3EEEAFFE071C089E40E9484
:105320003136882381F00E94FE352CEA35EC47E2C5
:105330005EE30F94660A6093B1127093B212809389
:10534000B3129093B41284E40E943136882381F022
:105350000E94FE352CEA35EC47E25EE30F94290FFC
:105360006093AD127093AE128093AF129093B0120F
:10537000E4EEFFE084918F010F5F1F4F882321F03F
:105380000E94DA36F801F6CF4091A9125091AA1284
:105390006091AB127091AC128CEF95E00E9413EB10
:1053A0002CEA35EC47E25EE36091B1127091B212E3
:1053B0008091B3129091B4120F94290FAB01BC01EC
:1053C00088EF95E00E9413EB2CEA35EC47E25EE3B0
:1053D0006091AD127091AE128091AF129091B012A7
:1053E0000F94660AAB01BC0184EF95E00E9413EBB9
:1053F0008AE00E94DA36BDC20E94DA36F801849152
:105400008F010F5F1F4F8111F7CF03E113E0D80128
:105410008D918D01882309F496C90E94DA36F7CF61
:1054200083E50E943136182F882371F00E94FE35E3
:105430000F94910F709362026093610221E0672BD9
:1054400009F020E02093901280E50E9431368823F5
:1054500059F02091610230916202232B11F00E94D9
:10546000EF358093901285C2111183C2E4EEFFE004
:1054700084918F010F5F1F4F882321F00E94DA363D
:10548000F801F6CF80919012882319F061E973E05A
:1054900002C06CEF72E085E196E00E9449EB6091FA
:1054A00061027091620284E096E00E9430EBE0E0DD
:1054B000F6E084918F010F5F1F4F882309F459C2D2
:1054C0000E94DA36F801F5CF0E946C9C52C20E940D
:1054D00033E44FC281E00E949F334BC280E00E94C0
:1054E0009F3347C28091580490915904A0915A0467
:1054F000B0915B0489839A83AB83BC8380915C0405
:1055000090915D04A0915E04B0915F048D839E83B1
:10551000AF83B8878091600490916104A091620488
:10552000B091630489879A87AB87BC8786E50E9420
:105530003136882321F085E596E00F94480283E513
:105540000E943136882331F00E94EF35182F0E94D7
:105550007A3501C010E0F0901F13111103C0E4EE82
:10556000FFE01BC0F110FBCFEEEAFFE084918F015A
:105570000F5F1F4F811103C0E6E3F6E004C00E94F5
:10558000DA36F801F3CF84918F010F5F1F4F882324
:1055900031F30E94DA36F801F6CF84918F010F5F64
:1055A0001F4F882321F00E94DA36F801F6CFFF2042
:1055B00019F060E073E002C064E073E088E296E016
:1055C0000E9449EB8AE00E94DA364CE050E068E540
:1055D00074E0CE0101960F945C11892B09F4C9C1C6
:1055E0000E94BBA1C6C10E94A04A8111C2C106EFA0
:1055F0001AE1E8E5F4E0F9ABE8AB9E012F5F3F4F1D
:1056000049019FE4A92E9BE1B92E1901F80165918A
:10561000759185919491A8A9B9A9CD90DD90ED904F
:10562000FD90B9ABA8ABA70196010F944C0E2B01CE
:105630003C01F101608371838283938320E030E039
:1056400040EA51EC0F94731087FD0AC020E030E06F
:1056500040EA51E4C301B2010F94010A18162CF478
:10566000F501849118160CF4F5C2D101CD90DD90AE
:10567000ED90FD901D0120E030E040EA51ECC701C3
:10568000B6010F94731087FD0AC020E030E040EAB5
:1056900051E4C701B6010F94010A181684F5EEEA29
:1056A000FFE084918F010F5F1F4F811103C0E0E97C
:1056B000F6E004C00E94DA36F801F3CF84918F013E
:1056C0000F5F1F4F882321F00E94DA36F801F6CFD2
:1056D00061E082E896E00E9475840E94EDA488E271
:1056E00090E099A388A388EC90E09DA78CA7BE01C9
:1056F000605E7F4FCE018C960E9462493AC10C5F7A
:105700001F4FBFEFAB1ABB0AE2E0FBE1E017F10766
:1057100009F07CCF8BEAE82E84E0F82E00E010E060
:10572000F40181919191A191B1914F01F701819380
:105730009193A193B1937F01C8010E947D340F5FC3
:105740001F4F0330110561F70E94BBA160E082E7A3
:1057500096E00E94758483E992E09DA78CA704E6F9
:1057600010E019A308A3BE01645D7F4FCE018096AF
:105770000E9462498AEB92E09DA78CA719A308A317
:10578000BE01645D7F4FCE0180960E946249F1C0E8
:105790000E94CCAAEEC00E947EBBEBC083E50E94B3
:1057A0003136882321F00E94EF3591E089270E944D
:1057B000A9BCDFC00E94DA36F80184918F010F5F27
:1057C0001F4F8111F7CFE8ECF6E084918F010F5F56
:1057D0001F4F882321F00E94DA36F801F6CF8AE5C0
:1057E0000E943136882351F10E94FE356B017C0105
:1057F00020E030E040EA50EC0F94731087FD09C0C0
:1058000020E030E0A901C701B6010F94010A181683
:105810006CF4E1EBF6E084918F010F5F1F4F88235A
:1058200009F4A7C00E94DA36F801F5CFC0920A1336
:10583000D0920B13E0920C13F0920D1340910A13C7
:1058400050910B1360910C1370910D138EEA96E03A
:105850000E9413EB8AE00E94DA368BC00E94AB45AF
:1058600088C00E9454F885C00E94DA36F8018491FD
:105870008F010F5F1F4F8111F7CFE7EDF6E08491A5
:105880008F010F5F1F4F882309F473C00E94DA361F
:10589000F801F5CF81E0809385021092700883E5CE
:1058A0000E946036882319F00E94EF3503C083E51B
:1058B0000E94313681115DC00E944F7D5AC0F09028
:1058C000BE11FF2029F1E4EEFFE084918F010F5F0C
:1058D0001F4F882321F00E94DA36F801F6CF84E5C5
:1058E0000E94DA366F2D70E080E090E04AE00E947E
:1058F0009D3A80E20E94DA3603E113E0D8018D91EF
:105900008D01882311F40C94A3230E94DA36F6CF7C
:105910001092FD12E4EEFFE084918F010F5F1F4FA4
:10592000882321F00E94DA36F801F6CF6091FD124B
:1059300070E086EE96E00E9430EB8AE00E94DA3654
:1059400018C084918F010F5F1F4F882321F00E94A0
:10595000DA36F801F6CF60914C1270914D1288EF53
:1059600096E00E9449EB82E20E94DA368AE00E94C9
:10597000DA3610924412109243120E94307D9DC17B
:105980000E94CA6C80910C02882321F082E692E189
:105990000E9444790E9497368091CF1283FD88C07F
:1059A000C0906E12D0906F12E0907012F090711251
:1059B000209164043091650440916604509167041D
:1059C000C701B6010F94010A882309F471C00E942F
:1059D000E583882309F1C0926404D0926504E092C3
:1059E0006604F0926704E4EEFFE084918F010F5F9C
:1059F0001F4F811103C0ECEFF1E004C00E94DA36C2
:105A0000F801F3CF84918F010F5F1F4F882321F09E
:105A10000E94DA36F801F6CFC0906E12D0906F1265
:105A2000E0907012F090711220916404309165043E
:105A30004091660450916704C701B6010F944C0E63
:105A40009F77E091FD1244E0E49FF0011124EE58AD
:105A5000FD4F20813181428153810F94660A20E0FD
:105A600030E048E453E40F94731018160CF5C0921C
:105A70006404D0926504E0926604F0926704E4EE58
:105A8000FFE084918F010F5F1F4F811103C0EDED87
:105A9000F1E004C00E94DA36F801F3CF84918F015F
:105AA0000F5F1F4F882321F00E94DA36F801F6CFEE
:105AB0006091780270917902072E000C880B990B87
:105AC0000F94070A20918102309182024091830253
:105AD000509184020F94660A2AE037ED43E25CE3BA
