:100000000C9425160C9456160C9456160C945616F1
:100010000C9456160C9456160C9456160C945616B0
:100020000C9456160C9456160C9456160C945616A0
:100030000C9456160C941F580C9456160C94561685
:100040000C9456160C9499610C9456160C945616F2
:100050000C9456160C9456160C941ADB0C94D55727
:100060000C9456160C9422E70C9456160C945616C3
:100070000C9456160C9456160C9456160C94561650
:100080000C94DA6B0C9456160C9456160C94561667
:100090000C9456160C9456160C9456160C94561630
:1000A0000C9456160C9456160C94AC6B0C94561675
:1000B0000C9456160C9456160C9456160C947E6B93
:1000C0000C9456160C9456160C9456160C94561600
:1000D0000C9456160C9456160C9456160C945616F0
:1000E0000C945616AA9BAD9B9C9BA09BA69BE49B45
:1000F000B19BB59BBB9BBF9BC39BC99BCD9BD19B1E
:10010000E49BD79BDB9BDF9BCF9FD49FD99FE39F33
:10011000ED9F66A0F79FFF9F07A011A01BA025A041
:1001200034A03EA066A048A052A05CA0084AD73BDD
:100130003BCE016E84BCBFFDC12F3D6C74319ABDB6
:1001400056833DDA3D00C77F11BED9E4BB4C3E91DA
:100150006BAAAABE000000803F05A84CCDB2D44EC9
:10016000B93836A9020C50B9918688083CA6AAAACB
:100170002ABE000000803F004E414E494E4954596E
:10018000494E46CDCCCC3D0AD7233C17B7D1387762
:10019000CC2B329595E6241FB14F0A000020410078
:1001A00000C84200401C4620BCBE4CCA1B0E5AAEC2
:1001B000C59D74434F4D4D554E49434154494F4E93
:1001C0000044525952554E004552524F5253004925
:1001D0004E464F004543484F0047322F4733206279
:1001E000616420706172616D65746572730A005399
:1001F0006C6565702E2E2E00205A3A200020593A48
:10020000200042656420583A2000526573756D697C
:100210006E67207072696E740046542D352052321C
:100220002072656164792E00436C69636B20746F82
:1002300020726573756D652E2E2E004E6F206D6FCA
:1002400076652E00456E642066696C65206C697366
:10025000740A00426567696E2066696C65206C6986
:1002600073740A005344207072696E74696E67205B
:100270006279746520004E6F742053442070726957
:100280006E74696E670A002569730025696D202503
:100290006973002569682025696D2025697300252B
:1002A0006964202569682025696D2025697300250A
:1002B000697920256964202569682025696D2025D4
:1002C0006973005072696E742074696D653A20001C
:1002D00050726F7465637465642050696E0A0045DE
:1002E00025692025730046542D3520523220726531
:1002F0006164792E00D401CF01C801C101B3016F3F
:1003000066660044454255473A004B494C4C4544CB
:100310002E20004D3131332053006F6B0046542D99
:1003200035205232204F66662E00454D45524745D6
:100330004E43595F50415253455200434153455F2C
:100340004C494748545F4252494748544E455353DD
:1003500000544F47474C455F4C494748545300535E
:100360004F4654574152455F504F574552004255F2
:10037000494C445F50455243454E54004C45564508
:100380004C494E475F44415441005A5F50524F42DE
:1003900045004155544F4C4556454C005052494E2E
:1003A000545F4A4F420050524F4752455353004109
:1003B00055544F5245504F52545F54454D5000567E
:1003C0004F4C554D455452494300454550524F4DB1
:1003D0000053455249414C5F584F4E5F584F464677
:1003E000004649524D574152455F4E414D453A4DA9
:1003F00061726C696E20312E312E38202847697465
:100400006875622920534F555243455F434F444519
:100410005F55524C3A68747470733A2F2F67697441
:100420006875622E636F6D2F4D61726C696E4669DF
:10043000726D776172652F4D61726C696E205052DA
:100440004F544F434F4C5F56455253494F4E3A31EC
:100450002E30204D414348494E455F545950453A4E
:1004600046542D3520523220455854525544455259
:100470005F434F554E543A3120555549443A6365D0
:100480006465326132662D343161322D343734384F
:100490002D396231322D6335356336326633363766
:1004A00066660A002F2F20004D31343520533C69F9
:1004B0006E6465783E206F7574206F662072616E81
:1004C00067652028302D31290A0053657474696EE0
:1004D000672054726176656C20416363656C657258
:1004E0006174696F6E3A200053657474696E672099
:1004F0005265747261637420416363656C657261F7
:1005000074696F6E3A200053657474696E67205089
:1005100072696E7420416363656C65726174696FA2
:100520006E3A200053657474696E67205072696E6C
:100530007420616E642054726176656C204163633F
:10054000656C65726174696F6E3A2000205A0020F4
:100550005900580020204D61783A2000205A002090
:100560005900580020204D696E3A20004F6E20003F
:100570004F666600536F667420656E6473746F70A7
:10058000733A2000000136372603FF3C3D380EFF4A
:100590002E303E12FFFF0C080907FFFF1A1C18FF40
:1005A000FF08440AFF43FFFFFFFFFFFF206F757442
:1005B000206F662072616E67650A00536572766F00
:1005C00020003A200020536572766F200020643AA4
:1005D0000020693A0020703A0043290A0061626CE9
:1005E000656420286D696E2074656D702000436F0E
:1005F0006C6420657874727564657320617265201F
:1006000000426564204C6576656C696E6720004623
:1006100061696C656420746F20656E61626C652031
:10062000426564204C6576656C696E670A004265B8
:1006300064204C6576656C20436F727265637469E3
:100640006F6E204D61747269783A004F666673650B
:100650007473206170706C696564004572723A2031
:10066000546F6F206661722100546F6F2066617253
:100670002066726F6D207265666572656E636520B7
:10068000706F696E740A003A2000207A5F6D696E9F
:100690003A20202D35207A5F6D61783A2020320A89
:1006A0000050726F6265205A204F66667365740051
:1006B0004175746F0020452F443D00416476616EA2
:1006C0006365204B3D004E6F2063617365206C694C
:1006D0006768740A004163746976652045787472AE
:1006E000756465723A2000556E6B6E6F776E20638D
:1006F0006F6D6D616E643A2022004D3630302048B7
:100700006F74656E6420746F6F20636F6C64207407
:100710006F206368616E67652066696C616D656EE8
:10072000740A0020204E6F7A7A6C653A2000636864
:10073000616E6765006F66207468652066696C612C
:100740006D656E74005761697420666F72207374F2
:10075000617274005052494E5420504155534544E3
:100760000020204E6F7A7A6C653A200066696C61D1
:100770006D656E7420756E6C6F616400576169748D
:1007800020666F72005052494E54205041555345D7
:10079000440020204E6F7A7A6C653A2000506C65D8
:1007A00061736520776169742E2E2E00486561742F
:1007B000696E67206E6F7A7A6C65005052494E54AC
:1007C000205041555345440020204E6F7A7A6C6585
:1007D0003A200068656174206E6F7A7A6C652E002D
:1007E000507265737320627574746F6E20746F003D
:1007F0005052494E54205041555345440020204EFC
:100800006F7A7A6C653A2000746F20636F6E74693A
:100810006E75652E2E2E00616E6420707265737386
:1008200020627574746F6E00496E73657274206611
:10083000696C616D656E74005052494E5420504190
:10084000555345440020204E6F7A7A6C653A20005B
:1008500066696C616D656E74206C6F6164005761D0
:10086000697420666F72005052494E5420504155B1
:100870005345440020204E6F7A7A6C653A2000661A
:10088000696C616D656E742065787472756465005D
:100890005761697420666F72005052494E5420505F
:1008A000415553454400746F20726573756D650042
:1008B0005761697420666F72207072696E7400509F
:1008C00052494E542050415553454400486F6D6580
:1008D0002025732573257320666972737400206662
:1008E000697273740A005A0059005800486F6D65A8
:1008F000200057726974696E6720746F2066696C96
:10090000653A20006F70656E206661696C65642CC5
:100910002046696C653A20006F70656E20666169DB
:100920006C65642C2046696C653A200046696C65EC
:100930002073656C65637465640A002053697A6589
:100940003A200046696C65206F70656E65643A20D8
:10095000006F70656E206661696C65642C20466965
:100960006C653A20002066696C653A2000646F6906
:100970006E67006672657368004E6F772000454EA3
:100980004420535542524F5554494E450A002220A7
:10099000706F73002220706172656E743A2200538A
:1009A0005542524F5554494E452043414C4C2074BA
:1009B00061726765743A22004B494C4C45442E20C5
:1009C00000747279696E6720746F2063616C6C20AB
:1009D0007375622D67636F64652066696C6573204B
:1009E0007769746820746F6F206D616E79206C6513
:1009F00076656C732E204D4158206C6576656C20B1
:100A000069733A0043616E6E6F74206F70656E207B
:100A10007375626469722000507265686561742044
:100A200041425320456E64005072656865617420D0
:100A300041425320426564005072656865617420CC
:100A40004142530050726570617265004D34323816
:100A5000004D323830205030205331363000424C77
:100A6000546F7563682053656C662D54657374000C
:100A70004D323830205030205331323000507265C2
:100A80006865617420414253005072656865617405
:100A900020504C4100436F6F6C646F776E00436869
:100AA000616E67652066696C616D656E7400526584
:100AB00073657420424C546F7563680044697361B8
:100AC000626C65207374657070657273004D3834A4
:100AD0000053657420686F6D65206F66667365747A
:100AE0007300426564204C6576656C696E670047EB
:100AF00032380A47323900486F6D65205A00473254
:100B000038205A00486F6D65205900473238205907
:100B100000486F6D652058004732382058004175F5
:100B2000746F20686F6D6500473238004D6F7665D1
:100B30002061786973004D61696E004D6F766520A4
:100B400058004D6F76652059004D6F7665205A002C
:100B50004578747275646572004D6F766520302E2D
:100B6000316D6D004D6F766520316D6D004D6F7686
:100B7000652031306D6D004D6F7665206178697349
:100B8000004578747275646572004D6F7665205A01
:100B9000004D6F76652059004D6F766520580045F1
:100BA00078747275646572004D6F7665205A004DD9
:100BB0006F76652059004D6F76652058005072653C
:100BC0007061726500526573656E643A20006F6BE8
:100BD0000020746F6F206C6F6E672065787472757B
:100BE00073696F6E2070726576656E7465640A0055
:100BF00020636F6C6420657874727573696F6E2002
:100C000070726576656E7465640A00627573793A10
:100C10002070617573656420666F7220696E7075EF
:100C2000740A00627573793A207061757365642087
:100C3000666F7220757365720A00627573793A2067
:100C400070726F63657373696E670A004B494C4C31
:100C500045442E20004B494C4C20636175736564FC
:100C6000206279204B494C4C20627574746F6E2F52
:100C700070696E0A004B494C4C45442E20004B498C
:100C80004C4C2063617573656420627920746F6FCA
:100C9000206D75636820696E616374697665207480
:100CA000696D65202D2063757272656E7420636FA7
:100CB0006D6D616E643A2000506C656173652072E1
:100CC00065736574005052494E5445522048414C5A
:100CD000544544005072696E7465722068616C748A
:100CE00065642E206B696C6C28292063616C6C65CF
:100CF00064210A0000000000000000000000000065
:100D000000004842000048420000A04100000000EE
:100D10005761726E696E673A20486F6D696E672021
:100D200042756D702044697669736F72203C203182
:100D30000A000202040000A0400000A040000000E1
:100D40004000009643000096430000B943FFFFFFB8
:100D500053442063617264206F6B0A006F70656E8C
:100D6000526F6F74206661696C65640A00766F6CFF
:100D7000756D652E696E6974206661696C65640ABB
:100D8000004572726F723A00534420696E69742094
:100D90006661696C0A006175746F25692E67004D84
:100DA0003234004D323320257300656E71756575E0
:100DB00065696E672022006563686F3A00022D2D19
:100DC0002D2D2D2D007C4D61726C696E7C002D2DBA
:100DD0002D2D2D2D00687474703A2F2F6D61726C5B
:100DE000696E66772E6F726700687474703A2F2F81
:100DF0006D61726C696E66772E6F72670020312E9E
:100E0000312E38002020506C616E6E65724275661E
:100E100066657242797465733A2000204672656592
:100E2000204D656D6F72793A2000436F6D70696C6B
:100E300065643A2044656320313420323031390A08
:100E400000207C20417574686F723A2028436172DB
:100E500065467564756E6461652C204D61726C69C0
:100E60006E20312E312E38290A00323031372D31A3
:100E7000322D32352031323A303000204C617374DB
:100E800020557064617465643A2000312E312E382B
:100E90000A004D61726C696E0020536F6674776151
:100EA00072652052657365740A0020576174636827
:100EB000646F672052657365740A002042726F7711
:100EC0006E206F75742052657365740A0020457832
:100ED0007465726E616C2052657365740A00506FA0
:100EE00077657255700A0073746172740A006572D6
:100EF000726F722077726974696E6720746F2066F2
:100F0000696C650A00456E6473746F7073202563A5
:100F100020256320256320256300205A3A002059AC
:100F20003A0020583A00656E6473746F70732068DD
:100F300069743A2000446F6E6520736176696E674C
:100F40002066696C652E0A004D3239004B494C4CC5
:100F500045442E200053544F505045442E200050FD
:100F600072696E7465722073746F7070656420644A
:100F7000756520746F206572726F72732E204669DA
:100F80007820746865206572726F7220616E6420CB
:100F9000757365204D39393920746F20726573740B
:100FA0006172742E202854656D706572617475725B
:100FB000652069732072657365742E2053657420F3
:100FC00069742061667465722072657374617274ED
:100FD000696E67290A004E6F20436865636B7375FD
:100FE0006D2077697468206C696E65206E756D621E
:100FF00065722C204C617374204C696E653A200038
:10100000636865636B73756D206D69736D6174637F
:10101000682C204C617374204C696E653A20004C3A
:10102000696E65204E756D626572206973206E6F02
:1010300074204C617374204C696E65204E756D622E
:1010400065722B312C204C617374204C696E653AAB
:1010500020004D313130004D333100534420726552
:101060006164206572726F720A00446F6E65207051
:1010700072696E74696E672066696C650A00204942
:101080006E76616C6964206578747275646572202F
:1010900000000000000000000000000000000096BA
:1010A00043000096430000B94353544F5050454409
:1010B0002E20005072696E7465722073746F7070A8
:1010C00065642064756520746F206572726F727339
:1010D0002E2046697820746865206572726F7220D0
:1010E000616E6420757365204D39393920746F2025
:1010F000726573746172742E202854656D70657208
:1011000061747572652069732072657365742E2031
:10111000536574206974206166746572207265730A
:1011200074617274696E67290A0053544F502063CA
:10113000616C6C65642062656361757365206F66C0
:1011400020424C546F756368206572726F72202D57
:1011500020726573746172742077697468204D39E8
:1011600039390A00473238205A20466F7262696462
:1011700064656E0A00473238205A20466F726269F1
:101180006464656E0024F4D43050C38E20C2A24043
:1011900017828B7011127A910D816CD90AA861E1C6
:1011A00008C7586607615143061E4B5D05C145A738
:1011B000041A411104093D9803713931034036DBAB
:1011C0000265339102D4305402802E1D02632CEE4E
:1011D00001752AC501B028A001102781018F25645F
:1011E000012B244B01E0223401AC211F018D200D85
:1011F00001801FFC00841EED00971DDF00B81CD28B
:1012000000E61BC600201BBC00641AB200B219A87D
:10121000000A19A0006A189900D117910040178B95
:1012200000B516840031167E00B31579003A1573A7
:1012300000C7146F0058146A00EE13660088136329
:101240000025135E00C7125B006C12570015125484
:1012500000C111510070114F0021114B00D61049EF
:10126000008D1047004610440002104200C00F409D
:1012700000800F3E00420F3C00060F3B00CB0E38B3
:1012800000930E37005C0E3500270E3400F30D324C
:1012900000C10D3100900D3000600D2E00320D2D7B
:1012A00000050D2C00D90C2B00AE0C2900850C2953
:1012B000005C0C2700350C27000E0C2600E80B24E0
:1012C00000C40B2400A00B23007D0B23005A0B212C
:1012D00000390B2100180B2000F80A1F00D90A1E44
:1012E00000BB0A1E009D0A1D00800A1D00630A1C27
:1012F00000470A1B002C0A1B00110A1A00F7091AE2
:1013000000DD091900C4091900AB09190092091779
:10131000007B091800630917004C091600360916EE
:1013200000200916000A091500F5081500E0081448
:1013300000CC081400B8081400A408140090081386
:10134000007D0812006B08130058081200460812AE
:1013500000340811002308110012081100010811BF
:1013600000F0071000E0071000D0071000C00710C1
:1013700000B0070F00A107100091070E0083070FB0
:101380000074070F0065070E0057070E0049070E8F
:10139000003B070D002E070E0020070D0013070D60
:1013A0000006070D00F9060C00ED060D00E0060C26
:1013B00000D4060C00C8060C00BC060C00B0060CDD
:1013C00000A4060B0099060C008D060B0082060B8C
:1013D0000077060B006C060B0061060A0057060B2F
:1013E000004C060A0042060A0038060A002E060AC9
:1013F0000024060A001A060A001006090007060A59
:1014000000FD050900F4050900EB050900E20509E6
:1014100000D9050900D0050900C7050900BE050966
:1014200000B5050800AD050800A50509009C0508E4
:1014300000940508008C050800840508007C050858
:1014400000740508006C050700650508005D0507C8
:1014500000560508004E050700470507004005082F
:101460000038050700310507002A05070023050796
:10147000001C050600160507000F050700080506F5
:101480000002050700FB040600F5040700EE040651
:1014900000E8040600E2040700DB040600D50406A9
:1014A00000CF040600C9040600C3040600BD0406FC
:1014B00000B7040600B1040500AC040600A604064B
:1014C00000A00405009B0406009504050090040696
:1014D000008A04050085040500800406007A0405DE
:1014E0000075040500700405006B04050066040522
:1014F00000610405005C0405005704050052040562
:10150000004D04050048040500430405003E0404A2
:10151000003A04050035040500300404002C0405DD
:101520000027040400230405001E0404001A040418
:101530000016040500110404000D0404000904054C
:10154000000404040000040400FC030400F8030485
:1015500000F4030400F0030400EC030400E80304B7
:1015600000E4030400E0030400DC030400D80304E7
:1015700000D4030400D0030400CC030400C8030318
:1015800000C503030024F404D9201BC40C5C0E988E
:1015900004C4095F0265077101F405F900FB04B397
:1015A0000048048700C10369005803550003034540
:1015B00000BE023A008402310053022A00290225AB
:1015C0000004022000E4011C00C8011900AF01174B
:1015D00000980114008401130071011000610110D2
:1015E0000051010E0043010D0036010B002B010BD1
:1015F0000020010B00150109000C0109000301087E
:1016000000FB000800F3000800EB000700E4000600
:1016100000DE000600D8000600D2000600CC00055F
:1016200000C7000500C2000500BD000400B90004A9
:1016300000B5000400B1000400AD000400A90004DE
:1016400000A5000300A20003009F0004009B00030C
:10165000009800030095000200930003009000032F
:10166000008D0002008B000300880002008600024B
:101670000084000300810002007F0002007D000260
:10168000007B000200790002007700010076000272
:10169000007400020072000100710002006F00027D
:1016A000006D0001006C0002006A00010069000288
:1016B000006700010066000100650001006400028F
:1016C000006200010061000100600001005F000293
:1016D000005D0001005C0001005B0001005A000198
:1016E0000059000100580001005700010056000198
:1016F0000055000100540001005300000053000198
:10170000005200010051000100500001004F000193
:10171000004E0000004E0001004D0001004C000191
:10172000004B0000004B0001004A0001004900018D
:10173000004800000048000100470001004600008A
:101740000046000100450000004500010044000182
:10175000004300000043000100420000004200017D
:10176000004100000041000100400001003F000076
:10177000003F0001003E0000003E0001003D00006F
:10178000003D0001003C0000003C0000003C000166
:10179000003B0000003B0001003A0000003A00015D
:1017A0000039000000390001003800000038000056
:1017B000003800010037000000370001003600004B
:1017C0000036000000360001003500000035000042
:1017D0000035000100340000003400000034000136
:1017E000003300000033000000330001003200002D
:1017F0000032000000320001003100000031000022
:101800000031000100300000003000000030000115
:10181000002F0000002F0000002F0000002F00010B
:10182000002E0000002E0000002E0001002D000000
:10183000002D0000002D0000002D0001002C0000F4
:10184000002C0000002C0000002C0001002B0000E8
:10185000002B0000002B0000002B0001002A0000DC
:10186000002A0000002A0000002A000100290000D0
:1018700000290000002900000029000000290001C3
:1018800000280000002800000028000000280000B8
:1018900000280001002700000027000000270000AA
:1018A000002700000027000100260000002600009D
:1018B0000026000000260000002600010025000090
:1018C0000025000000250000002500000025000084
:1018D0000025000100240000002400000024000076
:1018E0000024000000240001002300000023000069
:1018F000002300000023000000230000002300005C
:10190000002300010022000000220000002200004D
:10191000002200000022000000220001002100003F
:101920000021000000210000002100000021000033
:101930000021000000210001002000000020000024
:101940000020000000200000002000000020000017
:101950000020000000200001001F0000001F000008
:10196000001F0000001F0000001F0000001F0000FB
:10197000001F0001001E0000001E0000001E0000ED
:10198000001E0000004D383420582059205A2045B0
:101990000020706F736974696F6E206F7574206FAB
:1019A000662072616E67652E0A003F50726F626535
:1019B00020000A0A426564204C6576656C20436FFE
:1019C0007272656374696F6E204D61747269783AE2
:1019D00000202B000A436F727265637465642042B5
:1019E0006564204865696768742076732E204265B7
:1019F0006420546F706F6C6F67793A0A00202B0077
:101A00000A4265642048656967687420546F706F86
:101A10006772617068793A0A2020202B2D2D2D20C5
:101A20004241434B202D2D2B0A2020207C202020BA
:101A300020202020202020207C0A204C207C2020D8
:101A40002020282B29202020207C20520A204520DD
:101A50007C20202020202020202020207C20490ABB
:101A60002046207C20282D29204E20282B29207C30
:101A700020470A2054207C202020202020202020C5
:101A800020207C20480A2020207C20202020282D77
:101A900029202020207C20540A2020207C20202067
:101AA00020202020202020207C0A2020204F2D2DA7
:101AB0002046524F4E54202D2D2B0A2028302C30FA
:101AC000290A004D65616E206F662073616D706C30
:101AD000656420706F696E74733A200020643A2048
:101AE0000020623A200045716E20636F656666696A
:101AF0006369656E74733A20613A2000202844526D
:101B00005952554E2900473239204175746F204291
:101B10006564204C6576656C696E670028422961B2
:101B2000636B00284629726F6E740028522969671A
:101B3000687400284C29656674003F4E756D6265B7
:101B400072206F662070726F626520706F696E74AC
:101B50007320697320696D706C61757369626C655F
:101B6000202832206D696E696D756D292E0A003F3F
:101B70002856296572626F7365206C6576656C20E6
:101B8000697320696D706C61757369626C6520287A
:101B9000302D34292E0A00496E697469616C697AA6
:101BA0006520454550524F4D00436F6E74726F6C07
:101BB00000526573746F7265206661696C7361664B
:101BC00065004C6F61642073657474696E6773009F
:101BD000496E697469616C697A6520454550524F58
:101BE0004D0053746F72652073657474696E67730A
:101BF00000424C546F7563680046696C616D656E98
:101C000074004D6F74696F6E0054656D706572611C
:101C100074757265004D61696E004D333033205527
:101C2000312045256920532569005072656865613A
:101C3000742041425320636F6E6600507265686580
:101C4000617420504C4120636F6E660050494420FF
:101C50004175746F74756E65005049442041757408
:101C60006F74756E6500504944204175746F7475CA
:101C70006E65005049442D44005049442D440050A5
:101C800049442D49005049442D49005049442D50A4
:101C9000005049442D50002002204661637400200A
:101CA000022046616374002002204D61780020020A
:101CB000204D6178002002204D6178002002204DE7
:101CC000696E002002204D696E002002204D696E71
:101CD000004F6666004F6E20004175746F74656D2D
:101CE000700046616E207370656564203200466145
:101CF0006E20737065656420320046616E207370DB
:101D000065656420320046616E20737065656420ED
:101D1000310046616E207370656564203100466154
:101D20006E20737065656420310042656400426511
:101D30006400426564004E6F7A7A6C65004E6F7A7B
:101D40007A6C65004E6F7A7A6C6500436F6E7472C0
:101D50006F6C0053746F72652073657474696E677D
:101D600073004265640042656400426564004E6F22
:101D70007A7A6C65004E6F7A7A6C65004E6F7A7A6B
:101D80006C650046616E2073706565640046616E27
:101D90002073706565640046616E207370656564CC
:101DA0000054656D7065726174757265004361728F
:101DB000642072656D6F76656400436172642069AA
:101DC0006E7365727465640048656174696E67203E
:101DD000646F6E652E0020573A00452569202573F3
:101DE0000046542D352052322072656164792E00F0
:101DF00042656420646F6E652E0020573A0042658C
:101E0000642048656174696E672E00205A3A00208C
:101E1000593A0020436F756E7420583A0020453AB5
:101E200000205A3A0020593A00583A003A004361DB
:101E3000703A0023646566696E652020444546411A
:101E4000554C545F4B64200023646566696E6520C1
:101E50002044454641554C545F4B6920002364653E
:101E600066696E65202044454641554C545F4B7071
:101E70002000504944204175746F74756E6520666A
:101E8000696E697368656421205075742074686593
:101E9000206C617374204B702C204B6920616E6440
:101EA000204B6420636F6E7374616E74732066726E
:101EB0006F6D2062656C6F7720696E746F20436F61
:101EC0006E66696775726174696F6E2E680A00507C
:101ED0004944204175746F74756E65206661696C44
:101EE0006564212074696D656F75740A00544845F6
:101EF000524D414C2052554E41574159005468654E
:101F0000726D616C2052756E617761790048656110
:101F100074696E67206661696C6564004865617408
:101F2000696E67206661696C6564005049442041B0
:101F300075746F74756E65206661696C65642120C7
:101F400054656D706572617475726520746F6F2071
:101F5000686967680A00204B643A2000204B693AA0
:101F60002000204B703A20000A20436C6173736993
:101F70006320504944200A002054753A2000204B29
:101F8000753A2000206D61783A2000206D696E3A24
:101F9000200020643A200020626961733A200053D7
:101FA000746F7720424C546F756368004D3238303F
:101FB00020503020533930004465706C6F792042D6
:101FC0004C546F756368004D3238302050302053C8
:101FD000313000424C546F7563682053656C662D38
:101FE00054657374004D32383020503020533132F4
:101FF0003000526573657420424C546F75636800FD
:102000004D3238302050302053313630004D616928
:102010006E005072696E74207061757365640000A3
:102020005072696E742061626F72746564005072E0
:10203000696E742066726F6D2053440053746F7024
:10204000207072696E7400526573756D65207072D0
:10205000696E74004E6F20534420636172640050B7
:1020600061757365207072696E7400436F6E74726F
:102070006F6C00507265706172650054756E65001A
:10208000496E666F2073637265656E004D36303041
:10209000204230004368616E67652066696C616D3F
:1020A000656E7400466C6F7700466C6F7700466C07
:1020B0006F770046616E207370656564203200465C
:1020C000616E20737065656420320046616E207316
:1020D0007065656420320046616E207370656564CA
:1020E00020310046616E20737065656420310046C2
:1020F000616E207370656564203100426564004242
:10210000656400426564004E6F7A7A6C65004E6FBC
:102110007A7A6C65004E6F7A7A6C650053706565EB
:1021200064005370656564005370656564004D61BB
:10213000696E005072656865617420504C4120459D
:102140006E64005072656865617420504C41204295
:102150006564005072656865617420504C410050A0
:102160007265706172650000002100240027002A5A
:10217000002D003000330001010000040107010AB6
:102180000100002200250028002B002E0031003421
:102190000002010000050108010B010000200023DE
:1021A00000260029002C002F00320000010000034F
:1021B00001060109010505050507050808080802CB
:1021C0000202020A0A0808040404040101010101D0
:1021D0000101010303030303030303040707070CBF
:1021E0000C0C0C0C0C0C0C02020202060606060675
:1021F0000606060B0B0B0B0B0B0B0B010210202022
:10220000080810204010204080020102010804024A
:1022100001010204081020408080402010080402C0
:102220000180040201804020100804020108040219
:10223000010102040810204080010204081020401F
:102240008000000A0B02090C0D0E080703040100B0
:10225000000000000000000000000000000000007E
:10226000000000000000000000000000001211103B
:10227000000000000000000000000000000000005E
:102280000000000000000050726F62696E672066F7
:1022900061696C65640A0050726F62696E672066DE
:1022A00061696C656400205A3A200020593A200088
:1022B00042656420583A200070012C0190012701EA
:1022C000B0012201C0011D01F0011801100213012B
:1022D00030020E016002090190020401C002FF00F9
:1022E0000003FA004003F5008003F000D003EB0088
:1022F0002004E6007004E100E004DC004005D700A3
:10230000C005D2004006CD00D006C8008007C3003B
:102310003008BE00F008B900C009B400B00AAF0030
:10232000B00BAA00D00CA500000EA000500F9B001F
:10233000C01096005012910000148C00C015870048
:10234000B0178200B0197D00D01B7800001E73000A
:1023500040206E0090226900F024640040275F0056
:1023600090295A00E02B5500102E500020304B00D1
:1023700010324600E033410090353C001037370002
:1023800070383200A0392D00B03A2800A03B23005D
:10239000603C1E00103D1900903D1400103E0F00DF
:1023A000703E0A00C03E0500003F0000403FFBFFBA
:1023B000803FF6FFC03FF1FF202F002042403A004F
:1023C00020403A0000000000010204040000001C4C
:1023D0001C0C0404040201000000000004081000AA
:1023E00000000000001C1F11111F0000000619183A
:1023F00003130C00040E1F041C000000000E131534
:10240000110E00001C10181705060500040A0A0A20
:102410000A11110E0C12120C00000000001F151101
:10242000151F000025753A253032750025303275AC
:102430003A25303275002D2D2D005344005A005995
:10244000005800290A002062797465733B2063728A
:1024500063200053657474696E67732053746F72E0
:102460006564202800202863616C63756C61746565
:102470006429210A0020213D2000454550524F4D3E
:1024800020435243206D69736D61746368202D2071
:102490002873746F726564292000290A002062790C
:1024A0007465733B2063726320002073746F7265E0
:1024B000642073657474696E6773207265747269E1
:1024C00065766564202800204D61726C696E3D560A
:1024D0003437290A0028454550524F4D3D004545A7
:1024E00050524F4D2076657273696F6E206D69731F
:1024F0006D6174636820005654726176206D696E58
:10250000005654726176206D696E00565472617681
:10251000206D696E00566D696E00566D696E0056CD
:102520006D696E00566D6178204500566D617820AA
:102530004500566D6178204500566D6178205A003F
:10254000566D6178205A00566D6178205A00566D9C
:102550006178205900566D6178205900566D617878
:10256000205900566D6178205800566D61782058CA
:1025700000566D61782058004D6F74696F6E004190
:102580006D6178204500416D6178204500416D61A5
:1025900078205A00416D6178205A00416D617820A1
:1025A0005900416D6178205900416D6178205800D3
:1025B000416D6178205800412D74726176656C0020
:1025C000412D74726176656C00412D726574726183
:1025D000637400412D7265747261637400416363BA
:1025E000656C00416363656C004D6F74696F6E00CC
:1025F00056652D6A65726B0056652D6A65726B00B3
:1026000056652D6A65726B00567A2D6A65726B008D
:10261000567A2D6A65726B0056792D6A65726B0069
:1026200056792D6A65726B0056792D6A65726B005A
:1026300056782D6A65726B0056782D6A65726B004C
:1026400056782D6A65726B004D6F74696F6E004528
:1026500073746570732F6D6D004573746570732F9F
:102660006D6D005A73746570732F6D6D005A7374BD
:102670006570732F6D6D005973746570732F6D6D78
:10268000005973746570732F6D6D005873746570A5
:10269000732F6D6D005873746570732F6D6D004DE1
:1026A0006F74696F6E0048617264636F6465642063
:1026B00044656661756C742053657474696E6773E4
:1026C000204C6F616465640A00E8030000E80300C1
:1026D00000C8000000102700000000C8420000C829
:1026E000420000A0400000C8420000A0420000A03C
:1026F000420000C8430000D74320520020204D393B
:102700003030204B004C696E656172204164766107
:102710006E63653A0A0020204D383531205A005A40
:102720002D50726F6265204F666673657420286D48
:102730006D293A0A0020440020490020204D333002
:10274000312050005049442073657474696E67737A
:102750003A0A0020460020420020480020204D3147
:1027600034352053004D6174657269616C20686571
:102770006174757020706172616D65746572733A11
:102780000A0020204D3432302053004175746F20F0
:10279000426564204C6576656C696E673A0A002074
:1027A0005A0020590020204D323036205800486F02
:1027B0006D65206F66667365743A0A0020450020D7
:1027C0005A002059002058002042002054002020A8
:1027D0004D323035205300416476616E6365643A52
:1027E00020533C6D696E5F66656564726174653E19
:1027F00020543C6D696E5F74726176656C5F6665CE
:102800006564726174653E20423C6D696E5F7365FC
:10281000676D656E745F74696D655F75733E205892
:102820003C6D61785F78795F6A65726B3E205A3CD7
:102830006D61785F7A5F6A65726B3E20453C6D61C1
:10284000785F655F6A65726B3E0A00205400205213
:102850000020204D323034205000416363656C65A8
:10286000726174696F6E2028756E6974732F73328C
:10287000293A20503C7072696E745F616363656CC5
:102880003E20523C726574726163745F616363657C
:102890006C3E20543C74726176656C5F6163636565
:1028A0006C3E0A00204500205A0020590020204D8F
:1028B0003230312058004D6178696D756D2041636B
:1028C00063656C65726174696F6E2028756E6974DA
:1028D000732F7332293A0A00204500205A002059EC
:1028E0000020204D3230332058004D6178696D75DD
:1028F0006D206665656472617465732028756E6904
:1029000074732F73293A0A00204500205A00205979
:102910000020204D393220580053746570732070A8
:10292000657220756E69743A0A0020204D3230308D
:102930002044300A0020204D323030204400204412
:10294000697361626C65640A0046696C616D656EED
:10295000742073657474696E67733A0020204D317A
:1029600034392043203B20556E69747320696E20F2
:1029700043656C736975730A00202047323120204B
:1029800020203B20556E69747320696E206D6D0A9E
:102990000053746570732F6D6D004A65726B004152
:1029A0006363656C65726174696F6E0056656C6F08
:1029B00063697479005A204F6666736574005A2003
:1029C0004F666673657400436F6E74726F6C004679
:1029D000696C2E204469612E0046696C2E20446982
:1029E000612E004F6666004F6E20004520696E2004
:1029F0006D6D3300416476616E6365204B00416408
:102A000076616E6365204B00416476616E6365207C
:102A10004B00436F6E74726F6C0043616E6E6F7427
:102A200020656E746572207375626469723A200065
:102A3000052E2E004D61696E0020204E6F7A7A6C53
:102A4000653A20004261636B004D696E696D756D7A
:102A50002054656D70206973203138302E00486530
:102A60006174696E67206661696C6564004578749D
:102A700072756465206D6F726500526573756D6562
:102A8000207072696E7400524553554D45204F5069
:102A900054494F4E533A007C3C3E5E2B3D3F2F5BEA
:102AA0005D3B2C2A225C006265640A002C2073794D
:102AB0007374656D2073746F707065642120486550
:102AC000617465725F49443A200048656174696EBB
:102AD00067206661696C65640048656174696E674A
:102AE000206661696C65640048656174696E672081
:102AF0006661696C65640048656174696E6720662B
:102B000061696C656400544845524D414C205255F2
:102B10004E4157415900546865726D616C20527581
:102B20006E61776179004572723A204D494E544585
:102B30004D5020424544004572723A204D494E5452
:102B4000454D50004D494E54454D502074726967B3
:102B50006765726564004572723A204D415854456C
:102B60004D5020424544004572723A204D41585420
:102B7000454D50004D415854454D50207472696781
:102B80006765726564004572726F7220777269744E
:102B9000696E6720746F20454550524F4D210A00E1
:102BA00020746F6F206C6F6E672065787472757318
:102BB000696F6E2070726576656E7465640A0020B8
:102BC000636F6C6420657874727573696F6E2070C2
:102BD000726576656E7465640A007A5F6D696E3A37
:102BE0002000795F6D696E3A2000785F6D696E3AFA
:102BF00020005265706F7274696E6720656E647331
:102C0000746F70207374617475730A0046696C6523
:102C10002064656C657465643A0044656C6574692C
:102C20006F6E206661696C65642C2046696C653A3C
:102C300020006F70656E206661696C65642C2046AB
:102C4000696C653A20004DFA2CFA11241FBECFEFB3
:102C5000D1E2DEBFCDBF00E00CBF13E0A0E0B2E0E8
:102C6000ECE7F3E202E00BBF02C007900D92AE3931
:102C7000B107D9F724E1AEE9B3E001C01D92A33357
:102C8000B207E1F716E1C4E2D6E100E006C0219701
:102C90000109802FFE010F942211C332D10780E079
:102CA0000807A9F70E94B6FB0D94AD110C94000023
:102CB0002F923F924F925F926F927F928F929F924C
:102CC000AF92BF92CF92DF92EF92FF920F931F933A
:102CD000CF93DF93CDB7DEB7C356D1090FB6F894C3
:102CE000DEBF0FBECDBF81E090E09093B40480932F
:102CF000B304809130048D3409F40CC7843511F489
:102D00000C947E2D873421F0E7EBFDE00C94C02D70
:102D100020902E0430902F042BE12216310409F468
:102D2000CDC59CF444E02416310444F452E0251649
:102D30003104DCF537FE32C00C94D82D84E028161F
:102D4000310409F474C50C94D82D9EE12916310480
:102D500009F4E9C57CF4BCE12B16310409F4DEC5A5
:102D6000EDE12E16310411F00C94D82D0E94326C36
:102D70000C94D82DFBE52F16310409F444C62CE53C
:102D80002216310409F444C63AE52316310411F041
:102D90000C94D82D1092A2030C94D82D809185020A
:102DA00081110C94DF2D0C94D82D809185028823FD
:102DB00011F40C94D82D0E94385982E50E94CBE57D
:102DC000882309F43EC10E9469E54B015C0120E0C3
:102DD00030E0A9010F94DB09882309F45EC18091DA
:102DE000D0039091D103A091D203B091D30388ABCB
:102DF00099ABAAABBBAB2091D4033091D5034091E2
:102E0000D6035091D7032CAB3DAB4EAB5FAB80915B
:102E1000D1049091D204A091D304B091D40488AF8E
:102E200099AFAAAFBBAF2091D5043091D6044091A1
:102E3000D7045091D8042CAF3DAF4EAF5FAF9C018B
:102E4000AD0168A979A98AA99BA90F94DB09811111
:102E50000DC02CAD3DAD4EAD5FAD6CA97DA98EA969
:102E60009FA90F94DB09882309F417C111E032E010
:102E70002316310409F010E020E030E0A901C5017B
:102E8000B4010F94DB09881F8827881F181759F091
:102E900080E090E0A0E8BFEB2C968CAF9DAFAEAF8A
:102EA000BFAF2C970AC020E030E040E85FE32C96EB
:102EB0002CAF3DAF4EAF5FAF2C9728A939A94AA9D7
:102EC0005BA968AD79AD8AAD9BAD0F94260E2496B3
:102ED0006CAF7DAF8EAF9FAF24972CA93DA94EA9B3
:102EE0005FA96CAD7DAD8EAD9FAD0F94260E6B01CD
:102EF0007C0124962CAD3DAD4EAD5FAD2497CA014B
:102F0000B9010F94400A2B013C01A7019601C701AA
:102F1000B6010F94400A9B01AC01C301B2010F94AA
:102F2000270E0F94921028966CAF7DAF8EAF9FAF97
:102F3000289720E030E040E05FE30F94400A2B0147
:102F40003C01A5019401C501B4010F94400A4B0155
:102F50005C01A3019201C301B2010F94400A9B01DD
:102F6000AC01C501B4010F94260E0F9492102C965B
:102F70002CAD3DAD4EAD5FAD2C970F94400A4B018B
:102F80005C01C701B601905828962CAD3DAD4EAD01
:102F90005FAD28970F94030FA50194010F94400A89
:102FA0006B017C0128AD39AD4AAD5BAD68A979A94B
:102FB0008AA99BA90F94270E20E030E040E05FE350
:102FC0000F94400A9B01AC01C701B6010F94270E74
:102FD00028A939A94AA95BA90F94260E6B017C0187
:102FE0002CAD3DAD4EAD5FAD6CA97DA98EA99FA95D
:102FF0000F94270E20E030E040E05FE30F94400A9A
:103000002B013C0128962CAD3DAD4EAD5FAD289710
:1030100024966CAD7DAD8EAD9FAD24970F94030FBC
:10302000A50194010F94400A9B01AC01C301B201B8
:103030000F94270E2CA93DA94EA95FA90F94260E27
:1030400014C089E40E94CBE5882329F00E9469E539
:103050006B017C0103C0C12CD12C76018AE40E9453
:10306000CBE58823E9F00E9469E568AF79AF8AAFC4
:103070009BAF20E030E0A901C701B6010F94DB0946
:1030800081111BC020E030E0A90168AD79AD8AADA7
:103090009BAD0F94DB09811110C0E1E8FDE0B3C3E3
:1030A00020E030E0A901C701B6010F94DB098823B5
:1030B000A1F318AE19AE1AAE1BAED701C601B058B7
:1030C00088AB99ABAAABBBAB28AD39AD4AAD5BAD14
:1030D00050582CAB3DAB4EAB5FAB9C01AD01BC017E
:1030E000CD010F94400A4B015C012CA93DA94EA9CA
:1030F0005FA9CA01B9010F94400A9B01AC01C50147
:10310000B4010F94270E0F94921068966CAF7DAFA8
:103110008EAF9FAF68978091D0039091D103A0911B
:10312000D203B091D3038CAF9DAFAEAFBFAFA701B9
:103130009601BC01CD010F94270E2C966CAF7DAF8C
:103140008EAF9FAF2C972091D4033091D50340913F
:10315000D6035091D70328962CAF3DAF4EAF5FAF4B
:10316000289728AD39AD4AAD5BAD28966CAD7DADE5
:103170008EAD9FAD28970F94270E6C966CAF7DAFE8
:103180008EAF9FAF6C978091D1049091D204A091A3
:10319000D304B091D40460968CAF9DAFAEAFBFAFF7
:1031A00060972C962CAD3DAD4EAD5FAD2C97BC011C
:1031B000CD010F94260E6B017C012091D504309136
:1031C000D6044091D7045091D80464962CAF3DAFFB
:1031D0004EAF5FAF64976C962CAD3DAD4EAD5FAD1D
:1031E0006C9764966CAD7DAD8EAD9FAD64970F947A
:1031F000260E4B015C018091D8039091D903A091D8
:10320000DA03B091DB03A0968CAF9DAFAEAFBFAF3A
:10321000A0979C01AD016091D9047091DA0480916E
:10322000DB049091DC040F94260E24966CAF7DAFE6
:103230008EAF9FAF2497A701960168A979A98AA9A3
:103240009BA90F94400A2B013C01A50194016CA994
:103250007DA98EA99FA90F94400A9B01AC01C301CF
:10326000B2010F94270E2B013C01A501940168A91E
:1032700079A98AA99BA90F94400A4B015C01A70177
:1032800096016CA97DA98EA99FA90F94400A9B0164
:10329000AC01C501B4010F94260EA30192010F9455
:1032A0009A0E6B017C0120E030E0A9010F94DB094C
:1032B00087FF0AC02BED3FE049EC50E4C701B6019F
:1032C0000F94270E6B017C0192E02916310451F412
:1032D0002BED3FE049EC50E4C701B6010F94260EF8
:1032E0006B017C0120E030E0A901C701B6010F9419
:1032F000DB09811126C060962CAD3DAD4EAD5FADB2
:1033000060976CAD7DAD8EAD9FAD0F94DB098111E3
:1033100018C064962CAD3DAD4EAD5FAD6497289658
:103320006CAD7DAD8EAD9FAD28970F94DB098111FB
:1033300008C07BEDC72E7FE0D72E79ECE72E70E436
:10334000F72EA701960168966CAD7DAD8EAD9FAD51
:1033500068970F94400A9B01AC010F94400A4B01FF
:103360005C0124962CAD3DAD4EAD5FAD2497CA01F6
:10337000B9010F94400A9B01AC01C501B4010F943F
:10338000270E0F9492104B015C012FE632E143E8C7
:103390005AE30F94DB0987FD2FC2C501B4010F94D6
:1033A0009C0F0F94700F26967FAF6EAF2697DB01B0
:1033B000AB2B31F4E1E0F0E02696FFAFEEAF2697BD
:1033C0004090DC035090DD036090DE037090DF03DB
:1033D00026962EAD3FAD2697B90180E090E00F9480
:1033E000DF094B015C019B01AC01C701B6010F94E1
:1033F000030F6CAF7DAF8EAF9FAFA50194012496F4
:103400006CAD7DAD8EAD9FAD24970F94030F689684
:103410006CAF7DAF8EAF9FAF6897A30192016091B3
:10342000DD047091DE048091DF049091E0040F943C
:10343000260EA50194010F94030FA4966CAF7DAFE7
:103440008EAF9FAFA4972CAD3DAD4EAD5FADCA0121
:10345000B9010F94400A20E030E040E05FE30F94B0
:10346000400A9B01AC0160E070E080E89FE30F94AC
:10347000260E60966CAF7DAF8EAF9FAF6097A09623
:103480008CAD9DADAEADBFADA09789879A87AB8758
:10349000BC874D865E866F86788A609178027091CF
:1034A0007902072E000C880B990B0F94E1092091EB
:1034B00081023091820240918302509184020F94E4
:1034C000400A2AE037ED43E25CE30F94400A6CA720
:1034D0007DA78EA79FA70E94C9579B01AC012853C7
:1034E0003F4F4F4F5F4F64962CAF3DAF4EAF5FAF36
:1034F000649748A859A86AA87BA822242394312C51
:1035000039E121963FAF219726964EAD5FAD2697C4
:103510004215530509F435C10E94AADD0E94C9571E
:10352000DC01CB0164962CAD3DAD4EAD5FAD649733
:10353000821B930BA40BB50BB7FD11C00E94C9579A
:103540009B01AC0128533F4F4F4F5F4F64962CAF08
:103550003DAF4EAF5FAF649780E00E942D4D219646
:103560003FAD2197315021963FAF2197332309F486
:1035700041C02CA93DA94EA95FA960966CAD7DAD57
:103580008EAD9FAD60970F94400A6B017C01920154
:10359000A3016CAD7DAD8EAD9FAD0F94400AA70128
:1035A00096010F94270E7B018C019201A301609676
:1035B0006CAD7DAD8EAD9FAD60970F94400A4B0111
:1035C0005C012CA93DA94EA95FA96CAD7DAD8EAD66
:1035D0009FAD0F94400A9B01AC01C501B4010F944B
:1035E000260E2B013C01C701D8018CAB9DABAEABC5
:1035F000BFAB4FC0B10180E090E00F94DF092CAD6C
:103600003DAD4EAD5FAD0F94400A4B015C010F9490
:10361000000F6B017C01C501B4010F9488104B01B0
:103620005C01A701960168A979A98AA99BA90F94B1
:10363000400A2B013C0128AD39AD4AAD5BADC50157
:10364000B4010F94400AA30192010F94270E2B019D
:103650003C01A501940168A979A98AA99BA90F94A5
:10366000400A4B015C0128AD39AD4AAD5BADC701E5
:10367000B6010F94400A9B01AC01C501B4010F943F
:10368000260E6CAB7DAB8EAB9FAB49E121964FAF65
:1036900021979201A3012C966CAD7DAD8EAD9FADAF
:1036A0002C970F94270E69837A838B839C832CA994
:1036B0003DA94EA95FA96C966CAD7DAD8EAD9FAD59
:1036C0006C970F94270E6D837E838F8398876896FF
:1036D0002CAD3DAD4EAD5FAD689769857A858B8524
:1036E0009C850F94270E69877A878B879C87A49681
:1036F0002CAD3DAD4EAD5FADA4976D857E858F85BC
:1037000098890F94270E6D877E878F87988B80917D
:103710000C02882321F0CE0101960E94324CE090E9
:10372000E11289819A81AB81BC8188A399A3AAA364
:10373000BBA38D819E81AF81B8858CA39DA3AEA3D1
:10374000BFA389859A85AB85BC8588A799A7AAA7B9
:10375000BBA7CE0180960E94E6E58E01045D1F4F57
:103760009E01235F3F4FAE01485D5F4FBE016C5D20
:103770007F4FCE0180960E94BEF05FEF251A350A7A
:10378000C3CEE090E1128091D1049091D204A09137
:10379000D304B091D40488A399A3AAA3BBA3809116
:1037A000D5049091D604A091D704B091D8048CA3ED
:1037B0009DA3AEA3BFA38091D9049091DA04A091F8
:1037C000DB04B091DC0488A799A7AAA7BBA7CE0108
:1037D00080960E94E6E58E01045D1F4F2DED34E0DA
:1037E000AE01485D5F4FBE016C5D7F4FCE0180969C
:1037F0000E94BEF00E94F8E50E9402E60C94D82DCB
:103800000E940DE6F80184918F010F5F1F4F811117
:10381000F7CFE9EDF1E084918F010F5F1F4F88230F
:1038200011F40C94D82D0E940DE6F801F4CF80E538
:103830000E94CBE5882329F00E9429E56B017C01D9
:1038400003C0C12CD12C760183E50E94CBE58823EF
:1038500061F00E9469E520E030E04AE754E40F940B
:10386000400A0F94700F6B017C010E949AE08091D6
:103870001302811105C060E08FEE91E00E94648820
:103880000E9402E68091BD049091BE04A091BF0405
:10389000B091C004C80ED91EEA1EFB1E0E94C95773
:1038A000DC01CB018C199D09AE09BF09B7FD02C02F
:1038B0000C94D82D80E00E942D4DF0CF0E94973DB2
:1038C00081110C94D82D80E090E0A6E1B3E48983C7
:1038D0009A83AB83BC8380E090E0A7E8B3E48D8358
:1038E0009E83AF83B88780E090E0A0EAB1E4898747
:1038F0009A87AB87BC8780E50E94CBE5882319F0C7
:103900000E9439E501C060E068A3BE016F5F7F4F90
:10391000CE0180960E949FF50C94D82D80E00E94E5
:103920006E5C0C94D82DC090D003D090D103E09061
:10393000D203F090D30388E50E94CBE5811109C042
:1039400020E030E048E152E4C701B6010F94270EB1
:1039500002C00E9469E568A379A38AA39BA3C090D3
:10396000D403D090D503E090D603F090D70389E537
:103970000E94CBE5811109C020E030E044E352E42D
:10398000C701B6010F94260E02C00E9469E56B01C3
:103990007C0169837A838B839C8388A099A0AAA0E9
:1039A000BBA02AEF3EEF47E152E4C501B4010F94FA
:1039B0004D1087FF02C00C94D82D21E230E046E97B
:1039C00053E4C501B4010F94DB09181614F40C94E8
:1039D000D82D2FE632E143E85AEBC701B6010F9428
:1039E0004D1087FF02C00C94D82D22E430E04FE741
:1039F00053E4C701B6010F94DB09181614F40C94B4
:103A0000D82D0C94E42D81E08093A2030C94D82D42
:103A10000E949AE08AE892E099AF88AF05EC14E042
:103A200040EDC42E43E0D42E52EE252E52E1352E29
:103A3000E12CF12C18AAA8ADB9AD8D91B9AFA8AF02
:103A40000E94CBE5882309F44DC00E9469E54B0133
:103A50005C01ECAABE2DB33049F0F1012081318127
:103A6000428153810F94260E4B015C01D6012D91AA
:103A70003D914D915C91C501B4010F94260E2B012F
:103A80003C012DEB37E346E855EB0F944D1087FDD5
:103A90000AC02DEB37E346E855E3C301B2010F94AA
:103AA000DB091816FCF4BCA9B33059F48092DC038E
:103AB0009092DD03A092DE03B092DF03E1E0E8AB79
:103AC00011C0A3019201D8016D917D918D919C91BE
:103AD0000F94270EF8016083718382839383C7015B
:103AE0000E94405EFFEFEF1AFF0A0C5F1F4F24E0B9
:103AF000C20ED11C34E0230E311C44E0E416F10464
:103B000009F099CF58A951110E94CD3C0E9489908B
:103B10000C94D82D80912E0490912F048537910517
:103B200009F480C70CF0D9C08C34910509F45BC44A
:103B30000CF071C08831910509F4B3C2E4F582310B
:103B4000910509F43CC6F4F497FF02C00C94D82DFB
:103B5000823091050CF4C0C1419711F00C94D82D1E
:103B600060E08BE392E00E9464885F988A989FB738
:103B7000F894809108018E7F809308019FBF12986E
:103B80000C94D82D8531910509F470C23CF444970A
:103B900011F00C94D82DE3E5F2E028C286319105AE
:103BA00009F468C2479711F00C94D82DE0912C04C9
:103BB000F0912D0469C28E31910509F4CEC2C4F48E
:103BC0008A31910509F47EC20CF476C28B319105DD
:103BD00009F486C24C9711F00C94D82D40E060E0B7
:103BE00080912C0490912D040E946B400C94D82D50
:103BF0008032910509F4B5C20CF4FFC28A329105F6
:103C000009F4B1C38B34910511F00C94D82D0E94A6
:103C10008D3C0C94D82D8A36910509F46DC5B4F508
:103C20008435910509F4CBC5E4F48135910509F497
:103C3000A7C54CF48D34910511F00C94D82D0E9439
:103C4000D8530C94D82D8235910509F4B4C5833529
:103C5000910511F00C94D82D81E08093A1030C9470
:103C6000D82D8C35910509F4FCC534F485359105C2
:103C700009F4DCC50C94D82D8836910509F4B7C336
:103C80008936910509F4ECC40C94D82D8F36910532
:103C900009F417C484F48C36910509F48AC40CF431
:103CA00057C58D36910509F41FC58E36910509F467
:103CB000F5C30C94D82D8137910509F486C40CF412
:103CC0007CC48237910509F455C68337910511F0FC
:103CD0000C94D82DE1EEF3E053C68C32A1E09A07A4
:103CE00011F40C945F290CF079C0893C910509F41A
:103CF000B5C77CF58C38910509F494C4ACF48737CA
:103D0000910509F4D7C60CF496C68837910509F4D5
:103D1000D5C68937910511F00C94D82D10926D07F6
:103D200010926C070C94D82D8B39910509F4B5C409
:103D300034F48139910509F4C8C60C94D82D8E3B12
:103D4000910509F4D5C4883C910509F437C70C9452
:103D5000D82D833D910509F4BCC03CF58C3C910500
:103D600009F4B3C764F48B3C910511F00C94D82D81
:103D70005AE8E52E52E0F52E0AE313E196C78D3C92
:103D8000910511F40C94CF268E3C910511F00C9402
:103D9000D82D3AE8C32E32E0D32E43EDE42E4AE08C
:103DA000F42E00E010E00C9444278D3D910511F4B1
:103DB0000C9443283CF48C3D910511F40C94362866
:103DC0000C94D82D823E910511F40C948A288831E8
:103DD000914011F40C94B4280C94D82D8C3AF1E055
:103DE0009F0711F40C94092BA4F5803931E0930757
:103DF00011F40C947D2AC4F48E3251E0950711F42D
:103E00000C94262A14F40C9488298F32B1E09B0775
:103E100011F40C947A2A8336914011F00C94D82D29
:103E2000E1E8FDE00C94562D8239F1E09F0711F492
:103E30000C94842A14F40C94802A8A3931E0930774
:103E400009F4BFC3843A914011F40C94882A0C946D
:103E5000D82D883552E0950711F40C94452CECF4DC
:103E6000853FB1E09B0711F40C94DE2B4CF4843FAA
:103E7000914011F00C94D82D0E940FAC0C94D82DC9
:103E8000863F21E0920711F40C94E12B873F91408B
:103E900011F40C94E42B0C94D82D843843E094074F
:103EA00011F40C94472C4CF48335934011F00C948E
:103EB000D82DE7EBFDE00C94F32B803AB3E09B07A1
:103EC00009F48EC1873E934011F40C94692D0C9433
:103ED000D82DE7EBFDE0EBC7A0902C04B0902D04AB
:103EE00080E50E94CBE5882359F00E9429E56B010B
:103EF0007C0111E0672B682B692B31F410E004C0C2
:103F000010E0C12CD12C760183E50E94CBE58823FB
:103F1000F1F00E9469E520E030E04AE754E40F94B4
:103F2000400A0F94700F6B017C01111112C0672BB6
:103F3000682B692B71F4A114B10459F0D5018C914F
:103F4000882339F061E0C5010E94838807C01123EE
:103F500091F360E088E292E00E94648883E090E060
:103F60009093B4048093B30481E0809394120E94F0
:103F70009AE00E9402E6C114D104E104F104E1F0E8
:103F80008091BD049091BE04A091BF04B091C00483
:103F9000C80ED91EEA1EFB1E0E94C957DC01CB01C8
:103FA0008C199D09AE09BF09B7FF1CC080919412FE
:103FB00081110C943B2E16C080919412882321F01D
:103FC00080E00E942D4DF8CF8091FC079091FD0775
:103FD00060E0029719F489E192E002C08AE092E081
:103FE0000E946488109294120C94D82D84918F01B1
:103FF0000F5F1F4F882321F00E940DE6F801F6CFD6
:104000001092B90A1092B80A84E698E00E94B4C5EA
:104010008BE1E4E6F8E0DE01159601900D928A95B9
:10402000E1F780916208909163089C838B8384EA16
:1040300092E09A83898340E050E0BE016F5F7F4F3A
:104040008EE493E00E944F3ECE0101960E94C44C44
:10405000E4E4F2E084918F010F5F1F4F882311F495
:104060000C94D82D0E940DE6F801F4CF0E94FE5565
:104070000C94D82D10920C0810920D080C94D82D89
:10408000803209F41082319680818111F9CF40E0AD
:1040900061E080912C0490912D040E946B400C945F
:1040A000D82D80910D08882319F081E080930C08A9
:1040B0000E948D3C0C94D82D10920C080E94353E25
:1040C0000C94D82D80910D08882311F40C94D82DD0
:1040D00083E50E94CBE581110C94402E0C94D82DE1
:1040E00080910D08811103C0E6E7F2E02AC0E4E602
:1040F000F2E084918F010F5F1F4F882321F00E940F
:104100000DE6F801F6CF6091AF0A7091B00A809188
:10411000B10A9091B20A4AE00E9414E68FE20E942E
:104120000DE66091AB0A7091AC0A8091AD0A909156
:10413000AE0A4AE00E9414E68AE00E940DE60C9462
:10414000D82D84918F010F5F1F4F882311F40C9499
:10415000D82D0E940DE6F801F4CF0E9434F80C949B
:10416000D82D80910C0881110E949AE080910D0851
:10417000882311F40C94D82D80E50E94CBE5882388
:1041800019F00E945AE503C080E50E949CE5182FB3
:10419000482F61E080912C0490912D040E946B4087
:1041A00083E50E94CBE5882381F00E9439E5AB01CD
:1041B000BC014093AF0A5093B00A6093B10A709368
:1041C000B20A8EEF99E00E9412EB80910D088823CD
:1041D00019F081E080930C0811110C94D82D68CF50
:1041E00080912C0490912D0421E020930B0840E055
:1041F00060E00E946B400C94D82D0E9443577B01D5
:104200008C0120E831E541E050E00F94C90DC9016F
:104210006DE671E00F94FB104B015C01C801B70122
:1042200020E13EE040E050E00F94C90DCA01B90121
:1042300028E130E040E050E00F94C90D762E672E63
:10424000C62ED72E3CE3232E312C412C512CC801F5
:10425000B701A20191010F94C90DF62EE72ECA01F4
:10426000B901A20191010F94C90DCB018E010F5F1D
:104270001F4F8114910499F0EF92FF927F936F93F7
:104280006F927F92BF92AF929F928F928FEA92E04D
:104290009F938F931F930F930F94750913C0A114CD
:1042A000B104B1F0EF92FF927F936F936F927F9280
:1042B000BF92AF928FE992E09F938F931F930F93DA
:1042C0000F9475090FB6F894DEBF0FBECDBF30C096
:1042D000CD2879F0EF92FF927F936F936F927F9248
:1042E00083E992E09F938F931F930F930F94750927
:1042F000E9CF892B69F0EF92FF927F936F938BE860
:1043000092E09F938F931F930F930F947509DACFC9
:10431000EF92FF9287E892E09F938F931F930F9302
:104320000F9475090F900F900F900F900F900F90B2
:1043300060E0C8010E948388E7EBFDE084917F0183
:104340009FEFE91AF90A882321F00E940DE6F70190
:10435000F5CFB80183EC92E00E944DEE8AE00E9416
:104360000DE60C94D82D83E50E94CBE5882311F44B
:104370000C94D82D0E9449E5E82E80E50E94CBE5FB
:10438000882341F00E9439E58B0177FF02C00C942D
:10439000D82D02C00DE010E0802FE4E8F5E0949104
:1043A000891303C0E1E8FDE00AC03196A5E0EC3ACC
:1043B000FA07A9F70C94512E0E940DE6F80184919A
:1043C0008F010F5F1F4F8111F7CFE0EDF2E0849175
:1043D0008F010F5F1F4F882311F40C94D82D0E947A
:1043E0000DE6F801F4CF0E94353E0C94D82D88E6F6
:1043F00090E00E94815E81110C94D82D8091B312BF
:1044000083FF02C00C94D82D83E50E94CBE588235E
:1044100009F440C00E9469E50F946B0F7093DC12A1
:104420006093DB1280E00E948DD90E9469E520E054
:1044300030E044EB52E40F94DB0918163CF00E9484
:10444000D85360E086EE92E00E9464880E9469E59D
:104450002091951230919612409197125091981296
:104460000F944D101816B4F488E093E09F938F9347
:104470008091021390E001969F938F938FED92E0CD
:104480009F938F931F920E94AE540FB6F894DEBF95
:104490000FBECDBF0E94D8EE0C94D82D8EE40E94A2
:1044A000CBE5882311F40C94D82D0E9439E5609354
:1044B000F2037093F3038093F4039093F5030C9449
:1044C000D82D83E50E949CE5882359F083E50E945E
:1044D000CBE5882319F00E9449E501C080E0809374
:1044E000B312E7EBFDE084918F010F5F1F4F811145
:1044F00003C0E3E0F3E004C00E940DE6F801F3CF4F
:1045000084918F010F5F1F4F882321F00E940DE6D9
:10451000F801F6CF8091B312811103C0EFEFF2E002
:1045200034C025EFC22E22E0D22EE12CF12C20E067
:104530008091B31290E00E2C02C0959587950A9455
:10454000E2F780FF17C0BB24B394B20E222319F008
:104550008CE20E940DE6F60185919491FC01849114
:104560008F010F5F1F4F882321F00E940DE6F80195
:10457000F6CF2B2DFFEFEF1AFF0A32E0C30ED11C4E
:1045800045E0E416F104A1F60FC084918F010F5F9E
:104590001F4F882349F00E940DE6F801F6CF42E054
:1045A000C701B6010E9499E68AE00E940DE60C94CC
:1045B000D82D109271020C94D82D8AE093E00E94BD
:1045C000DE4C0E94DF8B0C94D82D83E50E94CBE556
:1045D000811103C0E7EBFDE00DC00E9449E58D337A
:1045E00020F480930D020C94D82D8CE380930D025F
:1045F0000C94D82D84918F010F5F1F4F882321F0D9
:104600000E940DE6F801F6CF40910D0250E060E007
:1046100070E083E193E00E94FDED8AE00E940DE6E8
:104620000C94D82D8091B31283FF02C00C94D82D26
:1046300083E50E94CBE5882311F40C94D82D0E94C9
:1046400069E50F946B0F6937710514F068E770E046
:104650007093DA126093D9120E9441D90C94D82D2C
:1046600089E690E00E94815E811111C0EAE1F3E0E9
:1046700084918F010F5F1F4F882321F00E940DE668
:10468000F801F6CF0E94ABA68AE00E940DE61092D8
:10469000B4041092B3040C94CC2E83E50E94CBE5B5
:1046A000882311F40C94D82D0E9449E5182F8D33DE
:1046B00008F01CE31093B9040E94C9576B017C01F8
:1046C000212F30E0A8EEB3E00F94170EC60ED71ED0
:1046D000E81EF91EC092B504D092B604E092B70469
:1046E000F092B8040C94D82D0E940D930C94D82D00
:1046F0000E9466910C94D82D80E50E94CBE588231A
:1047000041F00E9449E5182F823010F00C94D82D0A
:1047100001C010E083E50E94CBE5882329F00E94C8
:1047200039E5362F272F02C03FEF20E0E12FF0E0E0
:10473000EE0FFF1FE352FD4E832F922F8F3F910507
:1047400019F010F08FEF90E0918380830C94D82DB6
:1047500080E50E94CBE5882341F00E9439E5623074
:10476000710510F00C94D82D02C060E070E0660F67
:10477000771FFB01E352FD4E118210820C94D82D5D
:104780000E94D9D90E949AE00E94CE4C1092DE126B
:104790001092DD121092E0121092DF1268EE73E0B8
:1047A00080E090E00E94AB8760E08DE193E00E94A2
:1047B00064880C94D82D1092A1030C94D82D83E515
:1047C0000E94CBE58823A1F00E9469E520E030E05B
:1047D0004AE754E40F94400A0F94700F60930E025E
:1047E00070930F0280931002909311020C94D82DB5
:1047F00088E50E949CE581110C946F2E89E50E944A
:104800009CE581110C946F2E8AE50E949CE5811134
:104810000C946F2E85E40E949CE581110C946F2E00
:104820000E949AE00E94CE4C0C94D82D83E50E9401
:104830009CE5882311F40C94D82D0E9469E520E0B2
:1048400030E04AE754E40F94400A0F94700F6093ED
:10485000C1047093C2048093C3049093C4040C9465
:10486000D82D1AE8C12E12E0D12E00EEE02E03E082
:10487000F02E10E0D6018D916D010E949CE58823F9
:1048800009F46DC0133009F063C00E9469E54B0163
:104890005C0120E030E040EA51E40F94DB0987FF3F
:1048A0004EC0A50194016091EC037091ED038091DD
:1048B000EE039091EF030F94030F2B013C019B013A
:1048C000AC01609172137091731380917413909185
:1048D00075130F94400A609372137093731380934F
:1048E000741390937513A301920160914613709114
:1048F000471380914813909149130F94400A609395
:104900004613709347138093481390934913609113
:104910001F147091201480912114909122140F94EF
:10492000DF09A30192010F94400A0F94700F609366
:104930001F1470932014809321149093221480925A
:10494000EC039092ED03A092EE03B092EF0307C048
:104950000E9469E5F70160837183828393831F5FFF
:10496000F4E0EF0EF11C143009F084CF0E9453F0F4
:104970000C94D82D0E949AE00E9489900C94D82D16
:1049800084918F010F5F1F4F882321F00E940DE655
:10499000F801F6CF60E081ED93E00E94529061E073
:1049A0008AEC93E00E94529061E08FEB93E00E94CA
:1049B000529061E08FEA93E00E94529060E086EAB4
:1049C00093E00E94529061E08CE993E00E94529043
:1049D00061E082E993E00E94529061E08AE893E00E
:1049E0000E94529061E08CE793E00E94529060E058
:1049F0008EE693E00E94529060E08FE593E00E9483
:104A0000529060E081E593E00E94529060E08BE379
:104A100093E00E94529060E08AE293E00E945290FC
:104A20000C94D82D60E080912C0490912D040E946C
:104A300083880C94D82D85E40E94CBE5882319F057
:104A40000E945AE503C085E40E949CE5882361F03A
:104A5000E7EBFDE084918F010F5F1F4F882321F06A
:104A60000E940DE6F801F6CF81E40E94CBE5882391
:104A700019F00E945AE503C081E40E949CE5882356
:104A800061F0E4EAF4E084918F010F5F1F4F882307
:104A900021F00E940DE6F801F6CF00912C04109150
:104AA0002D04D8018D918D01882309F47DCD0E94BC
:104AB0000DE6F7CF0E94C9F60C94D82D81E08093C3
:104AC0006D0780936C070C94D82D83E50E94CBE58D
:104AD000882319F00E9439E502C060E070E08B0184
:104AE000112702301105DCF0E1E8FDE084918F012F
:104AF0000F5F1F4F811103C0E8EAF4E004C00E9479
:104B00000DE6F801F3CF84918F010F5F1F4F8823CB
:104B100011F40C94D82D0E940DE6F801F4CF88E42E
:104B20000E94CBE58823A1F00E9439E5643B710522
:104B300034F0663F71052CF065EF70E002C064EB65
:104B400070E0F801EE0FFF1FEF58FD4E7183608398
:104B500086E40E94CBE58823A9F00E9439E5F8019C
:104B6000EE0FFF1FEB58FD4E718360836F3F7105A1
:104B700019F014F06FEF70E077FF02C060E070E0B2
:104B80007183608382E40E94CBE5882311F40C9446
:104B9000D82D0E9439E56530710534F06A3671050B
:104BA0002CF069E670E002C065E070E0000F111FB4
:104BB000F801E359FD4E71836083FAC788EC90E0F9
:104BC0000E94815E8111F4C784E40E949CE58823E1
:104BD00009F441C00E9469E56B017C0111E020E00D
:104BE00030E0A9010F94DB09811101C010E010939E
:104BF0007E1320E030E0A901C701B6010F94DB0964
:104C0000882349F10E9469E5E0910213B4E0EB9F2B
:104C1000F0011124E658FC4E6083718382839383F4
:104C200020E030E0A90160917A1370917B138091AC
:104C30007C1390917D130F94DB0981110CC080E0EF
:104C400090E0A0EEBFE380937A1390937B13A09340
:104C50007C13B0937D130E94D9CAAAC76AE8E62ED6
:104C600062E0F62E0AE413E1F70181917F010E94D0
:104C70009CE5882351F00E9469E50F94700FD801DC
:104C80006D937D938D939C9313970C5F1F4FB3E1AE
:104C90000A351B0749F70E9408EF8AC70C5F1F4FB0
:104CA000B3E10A341B0709F483C7F70181917F013F
:104CB0000E949CE5882391F30E9469E5D8016D93D9
:104CC0007D938D939C931397E9CF83E50E949CE598
:104CD0008823D9F00E9469E5AB01BC0140936213BF
:104CE00050936313609364137093651340935A1346
:104CF00050935B1360935C1370935D1384E295E0B3
:104D00000E9419EE8AE00E940DE680E50E949CE573
:104D1000882399F00E9469E5AB01BC0140936213BE
:104D200050936313609364137093651387E095E069
:104D30000E9419EE8AE00E940DE682E50E949CE541
:104D4000882399F00E9469E5AB01BC0140935E1392
:104D500050935F13609360137093611388EE94E037
:104D60000E9419EE8AE00E940DE684E50E949CE50F
:104D7000882309F41DC70E9469E5AB01BC0140937B
:104D80005A1350935B1360935C1370935D138AEC1A
:104D900094E00E9419EE8AE00E940DE609C783E5BF
:104DA0000E949CE5882351F00E9469E560933613C8
:104DB00070933713809338139093391384E50E94CE
:104DC0009CE5882351F00E9469E56093321370934B
:104DD0003313809334139093351382E40E949CE53F
:104DE000882351F00E9429E560938F1370939013EC
:104DF000809391139093921388E50E949CE58823F9
:104E000051F00E9469E56093661370936713809375
:104E100068139093691389E50E949CE5882351F0FB
:104E20000E9469E560936A1370936B1380936C130F
:104E300090936D138AE50E949CE5882351F00E94AF
:104E400069E560936E1370936F1380937013909362
:104E5000711385E40E949CE5882309F4A9C60E9489
:104E600069E5609372137093731380937413909336
:104E700075139EC60F5F1F4FB4E0EB0EF11C03309D
:104E8000110511F40C94861DF60181916F010E94A9
:104E90009CE5882379F30E9469E5D7016D937D93A2
:104EA0008D939C931397C8010E94405EE3CF849139
:104EB0008F010F5F1F4F882321F00E940DE6F8013C
:104EC000F6CF83E50E949CE5882321F00E945AE5F5
:104ED00080930C02E4E7F5E084918F010F5F1F4F90
:104EE000882321F00E940DE6F801F6CF80910C0294
:104EF000882319F0ECE6F5E002C0E0E7F5E08491E4
:104F00008F010F5F1F4F811103C0E4E6F5E004C07D
:104F10000E940DE6F801F3CF84918F010F5F1F4FC0
:104F2000882321F00E940DE6F801F6CF2091E212CD
:104F30003091E3124091E4125091E5126091F80330
:104F40007091F9038091FA039091FB030F94270E5F
:104F5000AB01BC0182E695E00E9419EE2091E612B9
:104F60003091E7124091E8125091E9126091FC03F0
:104F70007091FD038091FE039091FF030F94270E23
:104F8000AB01BC018FE595E00E9419EE2091EA1279
:104F90003091EB124091EC125091ED1260910004AF
:104FA0007091010480910204909103040F94270EE4
:104FB000AB01BC018CE595E00E9419EEE4E5F5E05B
:104FC00084918F010F5F1F4F882321F00E940DE60F
:104FD000F801F6CF2091E2123091E3124091E412F1
:104FE0005091E512609100027091010280910202DD
:104FF000909103020F94270EAB01BC0182E595E06E
:105000000E9419EE2091E6123091E7124091E812C9
:105010005091E9126091040270910502809106029C
:10502000909107020F94270EAB01BC018FE495E02D
:105030000E9419EE2091EA123091EB124091EC128D
:105040005091ED12609108027091090280910A025C
:1050500090910B020F94270EAB01BC018CE495E0FC
:105060000E9419EE8AE00E940DE6A2C583E50E9427
:10507000CBE5882309F49CC50E9439E57093790239
:105080006093780295C58DED90E00E94815E81115C
:105090008FC583E50E94CBE5882309F489C500917B
:1050A000021310E00E9439E5000F111FF801EA58C1
:1050B000FD4F718360838091021390E08C01000F9B
:1050C000111F000F111FF801EE58FD4F7F01880FCF
:1050D000991FFC01EA58FD4F60817181072E000C79
:1050E000880B990B0F94E1092AE037ED43E25CE36A
:1050F0000F94400AF801EC54FD4E20813181428129
:1051000053810F94400AD7016D937D938D939C93A7
:1051100013974EC580E50E949CE5882309F448C595
:105120000E9439E56B017C0183E50E94CBE5882371
:1051300021F00E9439E58B0102C00FEF1FEFC8017B
:105140000196039708F034C5D7FC32C52C2DE4E84E
:10515000F5E08CEA95E03491231709F429C53196DE
:105160008E179F07C1F7EFC580E50E949CE5882355
:1051700009F41EC50E9439E56B017C018B01672B88
:1051800019F0E1E8FDE07FC083E50E949CE5811114
:1051900003C0E7EBFDE007C00E9439E58BED97E027
:1051A0000E94D16A05C584917F01BFEFEB1AFB0A0B
:1051B000882321F00E940DE6F701F5CF60E070E052
:1051C00085EC95E00E9435EE8091DD0728E532E020
:1051D0006901C81AD10887FDD394CC0CDD1CCC0C16
:1051E000DD1C0D2C000CEE08FF088091DC0728E880
:1051F00030E04901881A910887FD9394880C991C26
:10520000880C991C092C000CAA08BB088091DB07AC
:105210008F3FB9F090E0FC01EE0FFF1F8E0F9F1F34
:10522000FC01E259F84F0181128163E0000F111F68
:105230006A95E1F774E0169507957A95E1F70E5FA8
:105240001F4F98012F5F3F4FC901330FAA0BBB0BB4
:105250009C01AD01281939094A095B09A4EBB0E0AA
:105260000F94070EA7019601281939094A095B090D
:105270000F94EB0DB90182EC95E00E9435EE8AE0C7
:105280000E940DE695C484918F010F5F1F4F882304
:1052900021F00E940DE6F801F6CFB6018BEB95E008
:1052A0000E9435EEECEAF5E084918F010F5F1F4F0D
:1052B000882309F47DC40E940DE6F801F5CF83E54B
:1052C0000E94CBE5882319F00E9439E502C064E012
:1052D00071E079A368A380E50E94CBE5882339F0CB
:1052E0000E9439E56938E3E17E0730F402C068EED8
:1052F00073E07A83698304C088E893E19A838983A1
:10530000BE01605E7F4FCE0101960E94593C50C4A1
:1053100085E40E94CBE5811110C080E50E949CE5E8
:10532000882391F00E9469E5609360127093611286
:10533000809362129093631207C00E9449E588230C
:1053400061F3E1E8FDE071C089E40E949CE58823F7
:1053500081F00E9469E52CEA35EC47E25EE30F94A8
:10536000400A609368127093691280936A12909356
:105370006B1284E40E949CE5882381F00E9469E519
:105380002CEA35EC47E25EE30F94030F609364125E
:10539000709365128093661290936712E7EBFDE0BD
:1053A00084918F010F5F1F4F882321F00E940DE62B
:1053B000F801F6CF40916012509161126091621233
:1053C0007091631285ED95E00E9419EE2CEA35ECA0
:1053D00047E25EE3609168127091691280916A12EF
:1053E00090916B120F94030FAB01BC0181ED95E01E
:1053F0000E9419EE2CEA35EC47E25EE360916412FC
:105400007091651280916612909167120F94400A14
:10541000AB01BC018DEC95E00E9419EE8AE00E9480
:105420000DE6C6C30E940DE6F80184918F010F5F5F
:105430001F4F8111F7CF03E113E0D8018D918D014A
:10544000882309F4B1C80E940DE6F7CF83E50E94D6
:105450009CE5182F882371F00E9469E50F946B0F6B
:105460007093700260936F0221E0672B09F020E0D7
:105470002093991280E50E949CE5882359F02091A1
:105480006F0230917002232B11F00E945AE5809335
:1054900099128EC311118CC3E7EBFDE084918F014B
:1054A0000F5F1F4F882321F00E940DE6F801F6CF11
:1054B00080919912882319F061E973E002C06CEFC2
:1054C00072E08EEE95E00E944DEE60916F02709159
:1054D00070028DED95E00E9435EEE9EDF5E08491E6
:1054E0008F010F5F1F4F882309F462C30E940DE6EE
:1054F000F801F5CF0E94198C5BC30E949AE058C353
:1055000081E00E94625D54C380E00E94625D50C3EE
:105510008091D0039091D103A091D203B091D30395
:1055200089839A83AB83BC838091D4039091D50304
:10553000A091D603B091D7038D839E83AF83B887A4
:105540008091D8039091D903A091DA03B091DB0345
:1055500089879A87AB87BC8786E50E949CE588236C
:1055600021F08EE296E00F94220283E50E949CE5F2
:10557000882331F00E945AE5182F0E94D05901C0AB
:1055800010E0F0900313111103C0E7EBFDE01BC026
:10559000F110FBCFE1E8FDE084918F010F5F1F4F19
:1055A000811103C0EFE0F6E004C00E940DE6F801AF
:1055B000F3CF84918F010F5F1F4F882331F30E9437
:1055C0000DE6F801F6CF84918F010F5F1F4F8823FE
:1055D00021F00E940DE6F801F6CFFF2019F060E0FF
:1055E00073E002C064E073E081E096E00E944DEE5B
:1055F0008AE00E940DE64CE050E060ED73E0CE01E1
:1056000001960F943611892B09F4D2C20E94899019
:10561000CFC20E94973D8111CBC204EF1CE0E0EDA8
:10562000F3E0F9ABE8AB9E012F5F3F4F59014DE42A
:10563000842E4DE0942E1901F801659175918591A4
:105640009491A8A9B9A9CD90DD90ED90FD90B9AB4A
:10565000A8ABA70196010F94260E2B013C01F10186
:10566000608371838283938320E030E040EA51ECD1
:105670000F944D1087FD0AC020E030E040EA51E46D
:10568000C301B2010F94DB0918162CF4F4018491C4
:1056900018160CF44EC3D101CD90DD90ED90FD9025
:1056A0001D0120E030E040EA51ECC701B6010F9443
:1056B0004D1087FD0AC020E030E040EA51E4C70108
:1056C000B6010F94DB09181684F5E1E8FDE084913A
:1056D0008F010F5F1F4F811103C0E9E6F6E004C0A0
:1056E0000E940DE6F801F3CF84918F010F5F1F4FE9
:1056F000882321F00E940DE6F801F6CF61E08BE5EA
:1057000096E00E9464880E9458A188E290E099A3E4
:1057100088A388EC90E09DA78CA7BE01605E7F4FB8
:10572000CE018C960E94593C43C20C5F1F4FBFEFC5
:105730008B1A9B0AE0E0FDE0E017F10709F07CCF4F
:1057400033EDE32E3AE0F32E00E010E0F501819115
:105750009191A191B1915F01F70181939193A193EF
:10576000B1937F01C8010E94405E0F5F1F4F03305D
:10577000110561F70E94899060E08BE496E00E9439
:10578000648883E992E09DA78CA704E610E019A342
:1057900008A3BE01645D7F4FCE0180960E94593CF4
:1057A0008AEB92E09DA78CA719A308A3BE01645DB4
:1057B0007F4FCE0180960E94593CFAC10E942EA7CD
:1057C000F7C10E94E0B7F4C183E50E949CE58823FD
:1057D00021F00E945AE591E089270E940FB9E8C1A3
:1057E0000E940DE6F80184918F010F5F1F4F811118
:1057F000F7CFE1EAF6E084918F010F5F1F4F882316
:1058000021F00E940DE6F801F6CF8AE50E949CE5A2
:10581000882359F10E9469E56B017C0120E030E0AA
:1058200040EA50EC0F944D1087FD0AC020E030E0B4
:1058300040E050E4C701B6010F94DB0918166CF480
:10584000EAE8F6E084918F010F5F1F4F882309F487
:10585000AFC10E940DE6F801F5CFC092EE12D092D2
:10586000EF12E092F012F092F1124091EE1250918C
:10587000EF126091F0127091F11287E896E00E94A9
:1058800019EE8AE00E940DE693C1A0D291C10E9458
:105890009AE08BE40E94CBE5882399F00E9469E5A9
:1058A0006B017C0120E030E0A9010F944D1087FDD1
:1058B00008C0C0927F13D0928013E0928113F092BF
:1058C000821382E50E94CBE5882361F00E9469E59E
:1058D0006B017C0120E030E0A9010F94DB0987FF18
:1058E00089C006C0C12CD12C20E8E22E2FEBF22E6D
:1058F00084E40E94CBE5882329F00E9469E54B01EE
:105900005C0106C0812C912C90E8A92E9FEBB92E4A
:1059100087E50E94CBE5882329F00E9469E52B01E9
:105920003C0106C0412C512C80E8682E8FEB782E6C
:1059300088E40E94CBE5882339F00E9469E568ABD2
:1059400079AB8AAB9BAB08C020E030E040E85FEB6E
:1059500028AB39AB4AAB5BAB20E030E0A901C50115
:10596000B4010F944D1087FD45C020E030E0A9013F
:10597000C301B2010F944D1087FD3CC020E030E020
:10598000A90168A979A98AA99BA90F944D1087FD3F
:1059900031C020E030E0A901C501B4010F94DB095A
:1059A000882391F120E030E040E05FE3C501B401DD
:1059B0000F94400A6B017C0128A939A94AA95BA967
:1059C000C301B2010F94400A4B015C01A70196018B
:1059D000C701B6010F94400A2BED3FE049E450E4C3
:1059E0000F94400A9B01AC01C501B4010F94030F51
:1059F0006B017C0120E030E0A901C701B6010F94E2
:105A00004D1087FF04C00BC0C12CD12C7601C09271
:105A10008B13D0928C13E0928D13F0928E13E7EBE0
:105A2000FDE084918F010F5F1F4F882321F00E94BA
:105A30000DE6F801F6CF40917F13509180136091ED
:105A40008113709182138BEB96E00E9419EEE5EBC7
:105A5000F6E084918F010F5F1F4F882321F00E9491
:105A60000DE6F801F6CFC0908B13D0908C13E09028
:105A70008D13F0908E1320E030E0A901C701B6012C
:105A80000F94DB0981110C94CF22E0EBF6E08491B6
:105A90008F010F5F1F4F882311F40C94D4220E94B2
:105AA0000DE6F801F4CF0E940DE6F80184918F0114
:105AB0000F5F1F4F8111F7CFE6ECF6E084918F0165
:105AC0000F5F1F4F882309F473C00E940DE6F80191
:105AD000F5CF81E0809385021092F90683E50E945C
