:100000000C943C160C946D160C946D160C946D1695
:100010000C946D160C946D160C946D160C946D1654
:100020000C946D160C946D160C946D160C946D1644
:100030000C946D160C9469440C946D160C946D160A
:100040000C946D160C94FC450C946D160C946D1666
:100050000C946D160C946D160C9452EB0C9438AEF7
:100060000C946D160C9413440C946D160C946D1630
:100070000C946D160C946D160C946D160C946D16F4
:100080000C940E500C946D160C946D160C946D1609
:100090000C946D160C946D160C946D160C946D16D4
:1000A0000C946D160C946D160C94E04F0C946D1618
:1000B0000C946D160C946D160C946D160C94B24F36
:1000C0000C946D160C946D160C946D160C946D16A4
:1000D0000C946D160C946D160C946D160C946D1694
:1000E0000C946D16D775E075EA75F375FC75177687
:1000F00024762D7605760E7627AC2AAC19AC1DAC8D
:1001000023AC61AC2EAC32AC38AC3CAC40AC46ACB1
:100110004AAC4EAC61AC54AC58AC5CAC54AD59ADCF
:100120005EAD68AD72ADEBAD7CAD84AD8CAD96AD22
:10013000A0ADAAADB9ADC3ADEBADCDADD7ADE1AD21
:10014000084AD73B3BCE016E84BCBFFDC12F3D6C3E
:1001500074319ABD56833DDA3D00C77F11BED9E4A4
:10016000BB4C3E916BAAAABE000000803F05A84C84
:10017000CDB2D44EB93836A9020C50B99186880850
:100180003CA6AAAA2ABE000000803F000D94F803F6
:100190000D9442034E414E494E495459494E46CD65
:1001A000CCCC3D0AD7233C17B7D13877CC2B32952E
:1001B00095E6241FB14F0A000020410000C842000C
:1001C000401C4620BCBE4CCA1B0E5AAEC59D7420B6
:1001D000746F6F206C6F6E672065787472757369C9
:1001E0006F6E2070726576656E7465640A002063B8
:1001F0006F6C6420657874727573696F6E207072AD
:100200006576656E7465640A0047322F4733206255
:10021000616420706172616D65746572730A005368
:100220006C6565702E2E2E00473238205A20466F9E
:100230007262696464656E0A00473238205A20464B
:100240006F7262696464656E00205A3A200020591A
:100250003A200042656420583A2000526573756D5B
:10026000696E67207072696E740046542D35205295
:10027000322072656164792E00436C69636B20746F
:100280006F20726573756D652E2E2E004E6F206D7A
:100290006F76652E00456E642066696C65206C691A
:1002A00073740A00426567696E2066696C65206C2C
:1002B0006973740A005344207072696E74696E67C2
:1002C000206279746520004E6F7420534420707250
:1002D000696E74696E670A0046696C652064656CB6
:1002E000657465643A0044656C6574696F6E206678
:1002F00061696C65642C2046696C653A20006F70FA
:10030000656E206661696C65642C2046696C653A8F
:1003100020002569730025696D2025697300256912
:10032000682025696D202569730025696420256989
:10033000682025696D202569730025697920256964
:1003400064202569682025696D2025697300507235
:10035000696E742074696D653A2000000136372695
:1003600003FF3C3D380EFF2E303E12FFFF0C080904
:1003700007FFFF1A1C18FFFF08440AFF43FFFFFF97
:10038000FFFFFF50726F7465637465642050696E7F
:100390000A004B494C4C45442E20006F6B004865C9
:1003A0006174696E6720646F6E652E0020573A0095
:1003B0004525692025730046542D35205232207280
:1003C000656164792E0042656420646F6E652E005D
:1003D00020573A004265642048656174696E672E53
:1003E0000046542D35205232204F66662E004D3186
:1003F000343520533C696E6465783E206F757420F7
:100400006F662072616E67652028302D31290A00E1
:1004100043290A0061626C656420286D696E20744E
:10042000656D702000436F6C64206578747275642C
:10043000657320617265200023646566696E6520BE
:100440002044454641554C545F4B6420002364656D
:1004500066696E65202044454641554C545F4B69A2
:10046000200023646566696E652020444546415539
:100470004C545F4B702000504944204175746F7498
:10048000756E652066696E697368656421205075B4
:100490007420746865206C617374204B702C204B41
:1004A0006920616E64204B6420636F6E7374616EAB
:1004B00074732066726F6D2062656C6F7720696E51
:1004C000746F20436F6E66696775726174696F6ED1
:1004D0002E680A00504944204175746F74756E652A
:1004E000206661696C6564212074696D656F75743F
:1004F0000A00544845524D414C2052554E415741F7
:100500005900546865726D616C2052756E61776137
:10051000790048656174696E67206661696C65641D
:100520000048656174696E67206661696C65640086
:10053000504944204175746F74756E652066616919
:100540006C6564212054656D7065726174757265A7
:1005500020746F6F20686967680A00204B643A2036
:1005600000204B693A2000204B703A20000A2043BB
:100570006C617373696320504944200A00205475EC
:100580003A2000204B753A2000206D61783A200017
:10059000206D696E3A200020643A20002062696173
:1005A000733A2000426564204C6576656C696E671D
:1005B00020004661696C656420746F20656E61621D
:1005C0006C6520426564204C6576656C696E670ACF
:1005D00000426564204C6576656C20436F727265DD
:1005E0006374696F6E204D61747269783A003A20C5
:1005F00000207A5F6D696E3A20202D3330207A5FBB
:100600006D61783A202033300A0050726F626520A5
:100610005A204F6666736574004D36303020486F3F
:1006200074656E6420746F6F20636F6C6420746FE8
:10063000206368616E67652066696C616D656E74C4
:100640000A004175746F0020452F443D00416476D7
:10065000616E6365204B3D004E6F206361736520C2
:100660006C696768740A004163746976652045782F
:100670007472756465723A2000556E6B6E6F776E9A
:1006800020636F6D6D616E643A2022004C696E6567
:10069000204E756D626572206973206E6F74204CF8
:1006A000617374204C696E65204E756D6265722BA6
:1006B000312C204C617374204C696E653A20004BDC
:1006C000494C4C45442E200053544F505045442E25
:1006D00020005072696E7465722073746F7070655B
:1006E000642064756520746F206572726F72732E5A
:1006F0002046697820746865206572726F72206187
:100700006E6420757365204D39393920746F2072FD
:100710006573746172742E202854656D7065726102
:10072000747572652069732072657365742E205329
:1007300065742069742061667465722072657374D3
:10074000617274696E67290A004E6F2043686563A1
:100750006B73756D2077697468206C696E65206EA7
:10076000756D6265722C204C617374204C696E65E6
:100770003A2000636865636B73756D206D69736DF6
:10078000617463682C204C617374204C696E653A07
:1007900020004D313130004D33310053442072651B
:1007A0006164206572726F720A00446F6E6520701A
:1007B00072696E74696E672066696C650A0020490B
:1007C0006E76616C696420657874727564657220F8
:1007D0000000000000000000000000000000009683
:1007E00043000096430000BE4353544F50504544CD
:1007F0002E20005072696E7465722073746F707071
:1008000065642064756520746F206572726F727301
:100810002E2046697820746865206572726F722098
:10082000616E6420757365204D39393920746F20ED
:10083000726573746172742E202854656D706572D0
:1008400061747572652069732072657365742E20FA
:1008500053657420697420616674657220726573D3
:1008600074617274696E67290A0053544F50206393
:10087000616C6C65642062656361757365206F6689
:1008800020424C546F756368206572726F72202D20
:1008900020726573746172742077697468204D39B1
:1008A00039390A0020706F736974696F6E206F7533
:1008B00074206F662072616E67652E0A003F507269
:1008C0006F62652000024B494C4C45442E200020AD
:1008D0002D20496E76616C69642065787472756448
:1008E0006572206E756D62657220210A002D2D2DB6
:1008F0002D2D2D007C4D61726C696E7C002D2D2D8F
:100900002D2D2D00687474703A2F2F6D61726C69F3
:100910006E66772E6F726700687474703A2F2F6D51
:1009200061726C696E66772E6F72670020312E31AE
:100930002E38002020506C616E6E657242756666BE
:10094000657242797465733A2000204672656520AD
:100950004D656D6F72793A2000436F6D70696C65FB
:10096000643A204D617920203820323031380A0035
:10097000207C20417574686F723A2028436172654B
:10098000467564756E6461652C204D61726C696E8C
:1009900020312E312E38290A00323031372D3132B4
:1009A0002D32352031323A303000204C61737420C2
:1009B000557064617465643A2000312E312E380A16
:1009C000004D61726C696E0020536F6674776172BE
:1009D000652052657365740A00205761746368640A
:1009E0006F672052657365740A002042726F776EDC
:1009F000206F75742052657365740A002045787401
:100A000065726E616C2052657365740A00506F7771
:100A1000657255700A0073746172740A00657272AF
:100A20006F722077726974696E6720746F206669CF
:100A30006C650A00456E6473746F707320256320C3
:100A4000256320256320256300205A3A0020593A67
:100A50000020583A00656E6473746F707320686983
:100A6000743A2000446F6E6520736176696E67206A
:100A700066696C652E0A004D32390024F4D430507A
:100A8000C38E20C2A24017828B7011127A910D8101
:100A90006CD90AA861E108C7586607615143061E70
:100AA0004B5D05C145A7041A411104093D98037126
:100AB0003931034036DB0265339102D43054028071
:100AC0002E1D02632CEE01752AC501B028A001106D
:100AD0002781018F2564012B244B01E0223401ACD6
:100AE000211F018D200D01801FFC00841EED009749
:100AF0001DDF00B81CD200E61BC600201BBC006432
:100B00001AB200B219A8000A19A0006A189900D1F7
:100B100017910040178B00B516840031167E00B384
:100B20001579003A157300C7146F0058146A00EE67
:100B30001366008813630025135E00C7125B006C08
:100B400012570015125400C111510070114F0021AD
:100B5000114B00D61049008D10470046104400028A
:100B6000104200C00F4000800F3E00420F3C0006C4
:100B70000F3B00CB0E3800930E37005C0E3500277C
:100B80000E3400F30D3200C10D3100900D300060C5
:100B90000D2E00320D2D00050D2C00D90C2B00AEB2
:100BA0000C2900850C29005C0C2700350C27000E51
:100BB0000C2600E80B2400C40B2400A00B23007DAE
:100BC0000B23005A0B2100390B2100180B2000F8D1
:100BD0000A1F00D90A1E00BB0A1E009D0A1D0080C4
:100BE0000A1D00630A1C00470A1B002C0A1B001187
:100BF0000A1A00F7091A00DD091900C4091900AB27
:100C0000091900920917007B091800630917004CA5
:100C100009160036091600200916000A091500F504
:100C2000081500E0081400CC081400B8081400A44B
:100C3000081400900813007D0812006B0813005878
:100C4000081200460812003408110023081100128F
:100C500008110001081100F0071000E0071000D093
:100C6000071000C0071000B0070F00A10710009187
:100C7000070E0083070F0074070F0065070E00576B
:100C8000070E0049070E003B070D002E070E00203F
:100C9000070D0013070D0006070D00F9060C00ED07
:100CA000060D00E0060C00D4060C00C8060C00BCC3
:100CB000060C00B0060C00A4060B0099060C008D73
:100CC000060B0082060B0077060B006C060B00611A
:100CD000060A0057060B004C060A0042060A0038B6
:100CE000060A002E060A0024060A001A060A001048
:100CF00006090007060A00FD050900F4050900EBD6
:100D0000050900E2050900D9050900D0050900C759
:100D1000050900BE050900B5050800AD050800A5D8
:100D20000509009C050800940508008C050800844E
:100D30000508007C050800740508006C05070065BF
:100D40000508005D050700560508004E0507004729
:100D50000507004005080038050700310507002A8F
:100D6000050700230507001C050600160507000FF0
:100D70000507000805060002050700FB040600F54C
:100D8000040700EE040600E8040600E2040700DBA6
:100D9000040600D5040600CF040600C9040600C3FB
:100DA000040600BD040600B7040600B1040500AC4B
:100DB000040600A6040600A00405009B0406009596
:100DC000040500900406008A0405008504050080DF
:100DD0000406007A04050075040500700405006B24
:100DE00004050066040500610405005C0405005765
:100DF000040500520405004D0405004804050043A5
:100E00000405003E0404003A0405003504050030E2
:100E10000404002C04050027040400230405001E1C
:100E20000404001A04040016040500110404000D53
:100E3000040400090405000404040000040400FC88
:100E4000030400F8030400F4030400F0030400ECBE
:100E5000030400E8030400E4030400E0030400DCEE
:100E6000030400D8030400D4030400D0030400CC1E
:100E7000030400C8030300C503030024F404D920BD
:100E80001BC40C5C0E9804C4095F0265077101F471
:100E900005F900FB04B30048048700C1036900584A
:100EA00003550003034500BE023A0084023100539B
:100EB000022A002902250004022000E4011C00C8C7
:100EC000011900AF0117009801140084011300718B
:100ED0000110006101100051010E0043010D0036A8
:100EE000010B002B010B0020010B00150109000C68
:100EF00001090003010800FB000800F3000800EBF3
:100F0000000700E4000600DE000600D8000600D25C
:100F1000000600CC000500C7000500C2000500BDAA
:100F2000000400B9000400B5000400B1000400ADE5
:100F3000000400A9000400A5000300A20003009F14
:100F40000004009B0003009800030095000200933A
:100F5000000300900003008D0002008B0003008856
:100F60000002008600020084000300810002007F6E
:100F70000002007D0002007B000200790002007781
:100F8000000100760002007400020072000100718E
:100F90000002006F0002006D0001006C0002006A98
:100FA00000010069000200670001006600010065A1
:100FB00000010064000200620001006100010060A5
:100FC0000001005F0002005D0001005C0001005BA9
:100FD0000001005A000100590001005800010057AB
:100FE00000010056000100550001005400010053AB
:100FF00000000053000100520001005100010050A8
:101000000001004F0001004E0000004E0001004DA5
:101010000001004C0001004B0000004B0001004AA1
:10102000000100490001004800000048000100479D
:101030000001004600000046000100450000004598
:101040000001004400010043000000430001004291
:10105000000000420001004100000041000100408A
:101060000001003F0000003F0001003E0000003E84
:101070000001003D0000003D0001003C0000003C7C
:101080000000003C0001003B0000003B0001003A72
:101090000000003A0001003900000039000100386A
:1010A0000000003800000038000100370000003761
:1010B0000001003600000036000000360001003557
:1010C000000000350000003500010034000000344D
:1010D0000000003400010033000000330000003342
:1010E0000001003200000032000000320001003137
:1010F000000000310000003100010030000000302D
:10110000000000300001002F0000002F0000002F21
:101110000000002F0001002E0000002E0000002E15
:101120000001002D0000002D0000002D0000002D0A
:101130000001002C0000002C0000002C0000002CFE
:101140000001002B0000002B0000002B0000002BF2
:101150000001002A0000002A0000002A0000002AE6
:1011600000010029000000290000002900000029DA
:1011700000000029000100280000002800000028CD
:1011800000000028000000280001002700000027C0
:1011900000000027000000270000002700010026B3
:1011A00000000026000000260000002600000026A7
:1011B000000100250000002500000025000000259A
:1011C000000000250000002500010024000000248C
:1011D000000000240000002400000024000100237F
:1011E0000000002300000023000000230000002373
:1011F0000000002300000023000100220000002264
:101200000000002200000022000000220000002256
:101210000001002100000021000000210000002149
:10122000000000210000002100000021000100203A
:10123000000000200000002000000020000000202E
:101240000000002000000020000000200001001F1E
:101250000000001F0000001F0000001F0000001F12
:101260000000001F0000001F0001001E0000001E03
:101270000000001E0000001E0000004D3834205801
:101280002059205A2045006265640A002C20737999
:101290007374656D2073746F707065642120486588
:1012A000617465725F49443A200046696C2E20449F
:1012B00069612E0046696C2E204469612E004F66DC
:1012C00066004F6E20004520696E206D6D33004131
:1012D0006476616E6365204B00416476616E636580
:1012E000204B00416476616E6365204B00436F6E56
:1012F00074726F6C0043616E6E6F7420656E7465FE
:1013000072207375626469723A2000052E2E004DBA
:1013100061696E0020204E6F7A7A6C653A20004237
:1013200061636B004D696E696D756D2054656D70FC
:10133000206973203138302E0048656174696E670A
:10134000206661696C656400457874727564652017
:101350006D6F726500526573756D65207072696E90
:101360007400524553554D45204F5054494F4E53EC
:101370003A0020204E6F7A7A6C653A2000636861EB
:101380006E6765006F66207468652066696C616DC4
:10139000656E74005761697420666F7220737461A2
:1013A0007274005052494E542050415553454400E8
:1013B00020204E6F7A7A6C653A200066696C616D08
:1013C000656E7420756E6C6F61640057616974207E
:1013D000666F72005052494E542050415553454457
:1013E0000020204E6F7A7A6C653A2000506C65615F
:1013F000736520776169742E2E2E004865617469CB
:101400006E67206E6F7A7A6C65005052494E542098
:101410005041555345440020204E6F7A7A6C653A0E
:10142000200068656174206E6F7A7A6C652E0050BA
:101430007265737320627574746F6E20746F0050E0
:1014400052494E54205041555345440020204E6F80
:101450007A7A6C653A2000746F20636F6E74696EDF
:1014600075652E2E2E00616E642070726573732078
:10147000627574746F6E00496E736572742066696C
:101480006C616D656E74005052494E542050415548
:101490005345440020204E6F7A7A6C653A200066EE
:1014A000696C616D656E74206C6F61640057616971
:1014B0007420666F72005052494E5420504155536B
:1014C0004544007C3C3E5E2B3D3F2F5B5D3B2C2A20
:1014D000225C00507265686561742041425320456A
:1014E0006E64005072656865617420414253204209
:1014F0006564005072656865617420414253005014
:10150000726570617265004D343238004D3238308A
:10151000205030205331363000424C546F75636890
:101520002053656C662D54657374004D323830203D
:10153000503020533132300050726568656174203C
:10154000414253005072656865617420504C4100FF
:10155000436F6F6C646F776E0052657365742042E1
:101560004C546F756368004368616E6765206669F7
:101570006C616D656E740044697361626C652073A3
:1015800074657070657273004D3834005365742053
:10159000686F6D65206F666673657473004265647D
:1015A000204C6576656C696E67004732380A4732B1
:1015B0003900486F6D65205A00473238205A00487C
:1015C0006F6D65205900473238205900486F6D65AE
:1015D0002058004732382058004175746F20686FDA
:1015E0006D6500473238004D6F766520617869730C
:1015F000004D61696E004D6F76652058004D6F7625
:10160000652059004D6F7665205A004578747275D3
:10161000646572004D6F766520302E316D6D004D22
:101620006F766520316D6D004D6F76652031306DC0
:101630006D004D6F7665206178697300457874722E
:1016400075646572004D6F7665205A004D6F766542
:101650002059004D6F766520580045787472756486
:101660006572004D6F7665205A004D6F7665205982
:10167000004D6F766520580050726570617265008C
:1016800020204E6F7A7A6C653A200066696C616D35
:10169000656E74206578747275646500576169744D
:1016A00020666F72005052494E54205041555345A8
:1016B0004400746F20726573756D650057616974BD
:1016C00020666F72207072696E74005052494E54D9
:1016D0002050415553454400436172642072656D4A
:1016E0006F766564004361726420696E736572741D
:1016F0006564005654726176206D696E00565472AE
:101700006176206D696E005654726176206D696E47
:1017100000566D696E00566D696E00566D696E00FB
:10172000566D6178204500566D6178204500566DF4
:101730006178204500566D6178205A00566D6178B9
:10174000205A00566D6178205A00566D61782059F4
:1017500000566D6178205900566D61782059005609
:101760006D6178205800566D6178205800566D6183
:10177000782058004D6F74696F6E00416D6178205C
:101780004500416D6178204500416D6178205A0027
:10179000416D6178205A00416D6178205900416D9A
:1017A0006178205900416D6178205800416D617861
:1017B000205800412D74726176656C00412D747261
:1017C0006176656C00412D726574726163740041CD
:1017D0002D7265747261637400416363656C0041CE
:1017E0006363656C004D6F74696F6E0056652D6A9A
:1017F00065726B0056652D6A65726B0056652D6AC1
:1018000065726B00567A2D6A65726B00567A2D6A86
:1018100065726B0056792D6A65726B0056792D6A78
:1018200065726B0056792D6A65726B0056782D6A69
:1018300065726B0056782D6A65726B0056782D6A5A
:1018400065726B004D6F74696F6E004573746570DF
:10185000732F6D6D004573746570732F6D6D005A35
:1018600073746570732F6D6D005A73746570732F88
:101870006D6D005973746570732F6D6D00597374BD
:101880006570732F6D6D005873746570732F6D6D77
:10189000005873746570732F6D6D004D6F74696FB0
:1018A0006E0053746570732F6D6D004A65726B0026
:1018B000416363656C65726174696F6E0056656C37
:1018C0006F63697479005A204F6666736574005AB5
:1018D000204F666673657400436F6E74726F6C00A0
:1018E000496E697469616C697A6520454550524F4B
:1018F0004D00436F6E74726F6C00526573746F723B
:1019000065206661696C73616665004C6F61642077
:1019100073657474696E677300496E697469616C8C
:10192000697A6520454550524F4D0053746F72657A
:101930002073657474696E677300424C546F7563ED
:10194000680046696C616D656E74004D6F74696FF7
:101950006E0054656D7065726174757265004D61DD
:10196000696E004D333033205531204525692053B1
:101970002569005072656865617420414253206397
:101980006F6E66005072656865617420504C41202E
:10199000636F6E6600504944204175746F74756EB4
:1019A0006500504944204175746F74756E65005030
:1019B00049442D44005049442D44005049442D4988
:1019C000005049442D49005049442D50005049448D
:1019D0002D500020022046616374002002204661E1
:1019E0006374002002204D6178002002204D617850
:1019F000002002204D6178002002204D696E0020F9
:101A000002204D696E002002204D696E004F66660F
:101A1000004F6E20004175746F74656D70004661F3
:101A20006E20737065656420320046616E207370AD
:101A300065656420320046616E20737065656420C0
:101A4000320046616E207370656564203100466126
:101A50006E20737065656420310046616E2073707E
:101A600065656420310042656400426564004E6F24
:101A70007A7A6C65004E6F7A7A6C6500436F6E748B
:101A8000726F6C0053746F72652073657474696E45
:101A90006773004265640042656400426564004EFD
:101AA0006F7A7A6C65004E6F7A7A6C65004E6F7A49
:101AB0007A6C650046616E207370656564004661EE
:101AC0006E2073706565640046616E207370656595
:101AD000640054656D70657261747572650045725D
:101AE000726F722077726974696E6720746F204517
:101AF0004550524F4D210A00290A00206279746531
:101B0000733B20637263200053657474696E67735E
:101B10002053746F726564202800202863616C6311
:101B2000756C6174656429210A0020213D200045FF
:101B30004550524F4D20435243206D69736D61747F
:101B40006368202D202873746F7265642920002932
:101B50000A002062797465733B2063726320002061
:101B600073746F7265642073657474696E67732033
:101B7000726574726965766564202800204D617213
:101B80006C696E3D563437290A0028454550524F3E
:101B90004D3D00454550524F4D2076657273696F3B
:101BA0006E206D69736D61746368200070012C0193
:101BB00090012701B0012201C0011D01F0011801AF
:101BC0001002130130020E016002090190020401AB
:101BD000C002FF000003FA004003F5008003F0009C
:101BE000D003EB002004E6007004E100E004DC0018
:101BF0004005D700C005D2004006CD00D006C80081
:101C00008007C3003008BE00F008B900C009B40066
:101C1000B00AAF00B00BAA00D00CA500000EA000C7
:101C2000500F9B00C01096005012910000148C00C1
:101C3000C0158700B0178200B0197D00D01B780056
:101C4000001E730040206E0090226900F0246400A2
:101C500040275F0090295A00E02B5500102E5000BD
:101C600020304B0010324600E033410090353C00FC
:101C70001037370070383200A0392D00B03A2800F4
:101C8000A03B2300603C1E00103D1900903D140055
:101C9000103E0F00703E0A00C03E0500003F0000ED
:101CA000403FFBFF803FF6FFC03FF1FF202F0020A9
:101CB00042403A0020403A000000000001020404C3
:101CC0000000001C1C0C04040402010000000000C1
:101CD0000408100000000000001C1F11111F00006C
:101CE0000006191803130C00040E1F041C0000004A
:101CF000000E1315110E00001C1018170506050024
:101D0000040A0A0A0A11110E0C12120C000000003B
:101D1000001F1511151F000025753A25303275007A
:101D2000253032753A25303275002D2D2D00534463
:101D3000005A0059005800526573656E643A2000DD
:101D40006F6B00627573793A2070617573656420FA
:101D5000666F7220696E7075740A00627573793AE5
:101D60002070617573656420666F7220757365728B
:101D70000A00627573793A2070726F6365737369D4
:101D80006E670A004D363030004B494C4C45442EAE
:101D900020004B494C4C2063617573656420627967
:101DA000204B494C4C20627574746F6E2F70696EB5
:101DB0000A004B494C4C45442E20004B494C4C20CA
:101DC00063617573656420627920746F6F206D752F
:101DD000636820696E6163746976652074696D65F6
:101DE000202D2063757272656E7420636F6D6D6156
:101DF0006E643A2000506C6561736520726573658E
:101E000074005052494E5445522048414C54454468
:101E1000005072696E7465722068616C7465642E1E
:101E2000206B696C6C28292063616C6C6564210AE5
:101E3000000000000000000000000000000000485A
:101E400042000048420000A04100000000576172BB
:101E50006E696E673A20486F6D696E672042756DD6
:101E6000702044697669736F72203C20310A000249
:101E700002040000A0400000A0400000004000005C
:101E80009643000096430000BE43FFFFFF534420EB
:101E900063617264206F6B0A006F70656E526F6FC2
:101EA00074206661696C65640A00766F6C756D6597
:101EB0002E696E6974206661696C65640A0053441A
:101EC00020696E6974206661696C0A006175746FBF
:101ED00025692E67004D3234004D323320257300C2
:101EE00057726974696E6720746F2066696C653A11
:101EF00020006F70656E206661696C65642C2046F9
:101F0000696C653A20006F70656E206661696C656A
:101F1000642C2046696C653A200046696C65207324
:101F2000656C65637465640A002053697A653A20BC
:101F30000046696C65206F70656E65643A20006FBD
:101F400070656E206661696C65642C2046696C65FD
:101F50003A20002066696C653A2000646F696E67FC
:101F6000006672657368004E6F772000454E44200E
:101F7000535542524F5554494E450A002220706F26
:101F800073002220706172656E743A2200535542CC
:101F9000524F5554494E452043414C4C2074617278
:101FA0006765743A22004B494C4C45442E2000741E
:101FB0007279696E6720746F2063616C6C20737531
:101FC000622D67636F64652066696C65732077694D
:101FD000746820746F6F206D616E79206C65766512
:101FE0006C732E204D4158206C6576656C206973AA
:101FF0003A004572726F723A0053746F7720424C08
:10200000546F756368004D3238302050302053399A
:1020100030004465706C6F7920424C546F75636872
:10202000004D3238302050302053313000424C5473
:102030006F7563682053656C662D54657374004D2D
:1020400032383020503020533132300052657365C1
:102050007420424C546F756368004D323830205004
:10206000302053313630004D61696E005072696E18
:10207000742070617573656400005072696E74201D
:1020800061626F72746564005072696E742066726A
:102090006F6D2053440053746F70207072696E74BA
:1020A00000526573756D65207072696E74004E6FB5
:1020B0002053442063617264005061757365207021
:1020C00072696E7400436F6E74726F6C005072654B
:1020D000706172650054756E6500496E666F20739D
:1020E000637265656E004D363030204230004368C3
:1020F000616E67652066696C616D656E7400466C23
:102100006F7700466C6F770046616E20737065656F
:102110006420320046616E20737065656420320071
:1021200046616E20737065656420320046616E20E2
:10213000737065656420310046616E20737065655B
:102140006420310046616E20737065656420310043
:1021500042656400426564004E6F7A7A6C65004E99
:102160006F7A7A6C650053706565640053706565BD
:1021700064005370656564004D61696E005072655E
:102180006865617420504C4120456E640050726552
:102190006865617420504C4120426564005072654E
:1021A0006865617420504C410050726570617265C1
:1021B0000000002100240027002A002D00300033F9
:1021C0000001010000040107010A010000220025AE
:1021D0000028002B002E0031003400020100000511
:1021E0000108010B01000020002300260029002C1B
:1021F000002F003200000100000301060109010563
:10220000050505070508080808020202020A0A086F
:102210000804040404010101010101010103030395
:102220000303030303040707070C0C0C0C0C0C0C32
:102230000C0202020206060606060606060B0B0B39
:102240000B0B0B0B0B010210202008081020401074
:10225000204080020102010804020101020408106A
:102260002040808040201008040201800402018088
:1022700040201008040201080402010102040810B1
:10228000204080010204081020408000000A0B0258
:10229000090C0D0E080703040100000000000000F7
:1022A000000000000000000000000000000000002E
:1022B00000000000000000121110000000000000EB
:1022C000000000000000000000000000000000000E
:1022D0000043616E6E6F74206F70656E207375625F
:1022E0006469722000656E7175657565696E672039
:1022F00022006563686F3A000A0A426564204C65F3
:1023000076656C20436F7272656374696F6E204DE1
:1023100061747269783A00202B000A436F7272650B
:102320006374656420426564204865696768742049
:1023300076732E2042656420546F706F6C6F6779DE
:102340003A0A00202B000A426564204865696768E4
:102350007420546F706F6772617068793A0A202038
:10236000202B2D2D2D204241434B202D2D2B0A209B
:1023700020207C20202020202020202020207C0ABB
:10238000204C207C20202020282B29202020207C4D
:1023900020520A2045207C202020202020202020A0
:1023A00020207C20490A2046207C20282D29204EF0
:1023B00020282B29207C20470A2054207C20202004
:1023C00020202020202020207C20480A2020207C43
:1023D00020202020282D29202020207C20540A2065
:1023E00020207C20202020202020202020207C0A4B
:1023F0002020204F2D2D2046524F4E54202D2D2B86
:102400000A2028302C30290A004D65616E206F6645
:102410002073616D706C656420706F696E74733ABF
:10242000200020643A200020623A200045716E208E
:10243000636F656666696369656E74733A20613AB5
:102440002000202844525952554E29004732392045
:102450004175746F20426564204C6576656C696EC9
:10246000670028422961636B00284629726F6E74E9
:10247000002852296967687400284C296566740031
:102480003F4E756D626572206F662070726F626577
:1024900020706F696E747320697320696D706C6150
:1024A000757369626C65202832206D696E696D757F
:1024B0006D292E0A003F2856296572626F736520C8
:1024C0006C6576656C20697320696D706C617573DD
:1024D00069626C652028302D34292E0A004861720B
:1024E00064636F6465642044656661756C74205331
:1024F000657474696E6773204C6F616465640A006B
:10250000E8030000E8030000C800000010270000F6
:1025100000009643000096430000A0400000C8421F
:102520000000A0420000A0420000C84348E1CD42A4
:1025300020520020204D393030204B004C696E6510
:10254000617220416476616E63653A0A0020204D15
:10255000383531205A005A2D50726F6265204F660F
:102560006673657420286D6D293A0A0020440020A6
:10257000490020204D333031205000504944207311
:10258000657474696E67733A0A0020460020420041
:1025900020480020204D3134352053004D617465B2
:1025A0007269616C20686561747570207061726118
:1025B0006D65746572733A0A0020204D3432302004
:1025C00053004175746F20426564204C6576656CDC
:1025D000696E673A0A00205A0020590020204D32C7
:1025E0003036205800486F6D65206F6666736574DD
:1025F0003A0A00204500205A0020590020580020A7
:10260000420020540020204D3230352053004164D8
:1026100076616E6365643A20533C6D696E5F6665F2
:102620006564726174653E20543C6D696E5F7472BE
:102630006176656C5F66656564726174653E2042B3
:102640003C6D696E5F7365676D656E745F74696D0F
:10265000655F75733E20583C6D61785F78795F6A7D
:1026600065726B3E205A3C6D61785F7A5F6A657275
:102670006B3E20453C6D61785F655F6A65726B3EBD
:102680000A0020540020520020204D3230342050C7
:1026900000416363656C65726174696F6E202875B3
:1026A0006E6974732F7332293A20503C7072696ED0
:1026B000745F616363656C3E20523C726574726145
:1026C00063745F616363656C3E20543C7472617631
:1026D000656C5F616363656C3E0A00204500205AAB
:1026E0000020590020204D3230312058004D6178B3
:1026F000696D756D20416363656C65726174696FA6
:102700006E2028756E6974732F7332293A0A00207F
:102710004500205A0020590020204D3230332058E7
:10272000004D6178696D756D2066656564726174D0
:1027300065732028756E6974732F73293A0A002017
:102740004500205A0020590020204D3932205800E1
:1027500053746570732070657220756E69743A0ADF
:102760000020204D3230302044300A0020204D32ED
:1027700030302044002044697361626C65640A0053
:1027800046696C616D656E742073657474696E67FB
:10279000733A0020204D3134392043203B20556EC0
:1027A00069747320696E2043656C736975730A00E0
:1027B0002020473231202020203B20556E69747341
:1027C00020696E206D6D0A0050726F62696E67201D
:1027D0006661696C65640A0050726F62696E672099
:1027E0006661696C656400205A3A200020593A20DD
:1027F0000042656420583A2000486F6D65202573BB
:10280000257325732066697273740020666972737C
:10281000740A005A0059005800486F6D6520005333
:10282000657474696E672054726176656C204163CB
:1028300063656C65726174696F6E3A2000536574EC
:1028400074696E67205265747261637420416363BA
:10285000656C65726174696F6E3A200053657474BB
:10286000696E67205072696E7420416363656C65A0
:10287000726174696F6E3A200053657474696E6793
:10288000205072696E7420616E64205472617665A6
:102890006C20416363656C65726174696F6E3A2088
:1028A00000205A00205900580020204D61783A201D
:1028B00000205A00205900580020204D696E3A200F
:1028C000004F6E20004F666600536F667420656E81
:1028D0006473746F70733A2000206F7574206F6694
:1028E0002072616E67650A00536572766F20003A48
:1028F000200020536572766F200020643A00206922
:102900003A0020703A004F666673657473206170F8
:10291000706C696564004572723A20546F6F20666E
:1029200061722100546F6F206661722066726F6D54
:10293000207265666572656E636520706F696E747E
:102940000A00434F4D4D554E49434154494F4E00A7
:1029500044525952554E004552524F525300494E1F
:10296000464F004543484F004525692025730046E2
:10297000542D352052322072656164792E0063290E
:102980005E295729502942296F6666004445425501
:10299000473A004D313133205300205A3A00205934
:1029A0003A0020436F756E7420583A0020453A0073
:1029B000205A3A0020593A00583A003A00436170D0
:1029C0003A00454D455247454E43595F5041525399
:1029D000455200434153455F4C494748545F42527A
:1029E000494748544E45535300544F47474C455F61
:1029F0004C494748545300534F4654574152455F42
:102A0000504F574552004255494C445F5045524340
:102A1000454E54004C4556454C494E475F44415441
:102A200041005A5F50524F4245004155544F4C456A
:102A300056454C005052494E545F4A4F4200505246
:102A40004F4752455353004155544F5245504F52F2
:102A5000545F54454D5000564F4C554D45545249C6
:102A60004300454550524F4D0053455249414C5F3C
:102A7000584F4E5F584F4646004649524D574152B7
:102A8000455F4E414D453A4D61726C696E20312E65
:102A9000312E3820284769746875622920534F55B4
:102AA0005243455F434F44455F55524C3A687474F6
:102AB00070733A2F2F6769746875622E636F6D2F7C
:102AC0004D61726C696E4669726D776172652F4DEA
:102AD00061726C696E2050524F544F434F4C5F5699
:102AE000455253494F4E3A312E30204D41434849CB
:102AF0004E455F545950453A46542D3520523220A8
:102B000045585452554445525F434F554E543A31FF
:102B100020555549443A63656465326132662D3407
:102B20003161322D343734382D396231322D6335ED
:102B3000356336326633363766660A002F2F20003B
:102B400048656174696E67206661696C65640048F8
:102B5000656174696E67206661696C6564004865CB
:102B60006174696E67206661696C656400486561BF
:102B700074696E67206661696C65640054484552EB
:102B80004D414C2052554E41574159005468657291
:102B90006D616C2052756E61776179004572723A91
:102BA000204D494E54454D502042454400457272D7
:102BB0003A204D494E54454D50004D494E54454DD7
:102BC0005020747269676765726564004572723A75
:102BD000204D415854454D502042454400457272A5
:102BE0003A204D415854454D50004D415854454DA3
:102BF00050207472696767657265640020746F6F36
:102C0000206C6F6E6720657874727573696F6E20C3
:102C100070726576656E7465640A0020636F6C641B
:102C200020657874727573696F6E20707265766551
:102C30006E7465640A0066696C616D656E743A2035
:102C4000007A5F6D696E3A2000795F6D696E3A2097
:102C500000785F6D696E3A20005265706F7274691A
:102C60006E6720656E6473746F7020737461747521
:102C7000730A0000C600C80011241FBECFEFD1E2C6
:102C8000DEBFCDBF00E00CBF13E0A0E0B2E0E2E5A4
:102C9000FAE202E00BBF02C007900D92AA39B10719
:102CA000D9F724E1AAE9B3E001C01D92AA34B20722
:102CB000E1F716E1CBE3D6E100E006C02197010978
:102CC000802FFE010F948D14CA33D10780E00807CE
:102CD000A9F70E940BFC0D9418150C9400002F927C
:102CE0003F924F925F926F927F928F929F92AF929C
:102CF000BF92CF92DF92EF92FF920F931F93CF93E9
:102D0000DF93CDB7DEB7C05AD1090FB6F894DEBF56
:102D10000FBECDBF81E090E09093F40C8093F30C54
:102D2000809140148D3411F40C94E61E843511F416
:102D30000C943F2F873411F00C94812F80913E1416
:102D400090913F148B31910509F440C67CF4843096
:102D500091053CF48230910594F597FF29C00C94BD
:102D60009B2F049709F4EBC50C949B2F8E31910592
:102D700009F433C764F48C31910509F457C64D97B3
:102D800011F00C949B2F0E943EB80C949B2F8B3516
:102D9000910509F492C78C35910509F493C78A35DA
:102DA000910511F00C949B2F10929E030C949B2F75
:102DB0008091100281110C94A22F0C949B2F2091D2
:102DC0001002222311F40C949B2F11E0029709F0BA
:102DD00010E00E94843D82E50E94783D882309F43A
:102DE0005CC10E94163D6B017C01409074135090B1
:102DF000751360907613709077138091781390918B
:102E00007913A0917A13B0917B132B968CAF9DAF61
:102E1000AEAFBFAF2B9720911E0D30911F0D40918B
:102E2000200D5091210D2F962CAF3DAF4EAF5FAFCF
:102E30002F978091220D9091230DA091240DB09198
:102E4000250D6B968CAF9DAFAEAFBFAF6B9720E0FB
:102E500030E0A901C701B6010F94590D882309F488
:102E600054C5A30192012F966CAD7DAD8EAD9FAD83
:102E70002F970F94590D811111C02B962CAD3DAD9C
:102E80004EAD5FAD2B976B966CAD7DAD8EAD9FADAE
:102E90006B970F94590D882309F437C520E030E073
:102EA000A901C701B6010F94590D881F8827881FF3
:102EB00018130BC020E030E040E85FE3A3962CAF8E
:102EC0003DAF4EAF5FAFA3970AC080E090E0A0E8AF
:102ED000BFEBA3968CAF9DAFAEAFBFAFA397A301DF
:102EE00092012F966CAD7DAD8EAD9FAD2F970F9457
:102EF000911167966CAF7DAF8EAF9FAF67972B96A2
:102F00002CAD3DAD4EAD5FAD2B976B966CAD7DADF1
:102F10008EAD9FAD6B970F9491116F966CAF7DAF97
:102F20008EAF9FAF6F9767962CAD3DAD4EAD5FAD49
:102F30006797CA01B9010F94BE0D4B015C016F96F2
:102F40002CAD3DAD4EAD5FAD6F97CA01B9010F9489
:102F5000BE0D9B01AC01C501B4010F9492110F94F9
:102F6000FD1363966CAF7DAF8EAF9FAF639720E08C
:102F700030E040E05FE30F94BE0D4B015C01A70120
:102F80009601C701B6010F94BE0D6B017C01A5012E
:102F90009401C501B4010F94BE0D9B01AC01C701A2
:102FA000B6010F9491110F94FD139B01AC01A396F0
:102FB0006CAD7DAD8EAD9FADA3970F94BE0D4B0153
:102FC0005C012F962CAD3DAD4EAD5FAD2F97C3018B
:102FD000B2010F94921120E030E040E05FE30F94E3
:102FE000BE0D6B017C016F966CAD7DAD8EAD9FAD5E
:102FF0006F97905863962CAD3DAD4EAD5FAD639726
:103000000F946E129B01AC01C501B4010F94BE0D6B
:103010009B01AC01C701B6010F949211A30192016B
:103020000F9491116B017C016B962CAD3DAD4EADB3
:103030005FAD6B972B966CAD7DAD8EAD9FAD2B9735
:103040000F94921120E030E040E05FE30F94BE0D5A
:103050002B013C0163962CAD3DAD4EAD5FAD63974A
:1030600067966CAD7DAD8EAD9FAD67970F946E1278
:103070009B01AC01C501B4010F94BE0D9B01AC01D5
:10308000C301B2010F9492112B962CAD3DAD4EAD04
:103090005FAD2B970F94911114C089E40E94783D85
:1030A000882329F00E94163D6B017C0103C0C12CCE
:1030B000D12C76018AE40E94783D8823F9F00E94A1
:1030C000163D6B966CAF7DAF8EAF9FAF6B9720E0D8
:1030D00030E0A901C701B6010F94590D81111EC03E
:1030E00020E030E0A9016B966CAD7DAD8EAD9FAD5B
:1030F0006B970F94590D811111C007C420E030E087
:10310000A901C701B6010F94590D882309F4FDC325
:103110006B961CAE1DAE1EAE1FAE6B97A70196013F
:1031200050582B962CAF3DAF4EAF5FAF2B976B96A1
:103130008CAD9DADAEADBFAD6B97B0582F968CAF3B
:103140009DAFAEAFBFAF2F97CA01B9010F94BE0DAF
:103150004B015C012F962CAD3DAD4EAD5FAD2F9771
:10316000CA01B9010F94BE0D9B01AC01C501B401A8
:103170000F9492110F94FD13E3966CAF7DAF8EAF59
:103180009FAFE3972091741330917513409176139C
:103190005091771363962CAF3DAF4EAF5FAF6397FF
:1031A000A701960163966CAD7DAD8EAD9FAD639723
:1031B0000F949211A3966CAF7DAF8EAF9FAFA39784
:1031C0008091781390917913A0917A13B0917B1329
:1031D0006F968CAF9DAFAEAFBFAF6F976B962CADB8
:1031E0003DAD4EAD5FAD6B97BC01CD010F9492111B
:1031F000A7966CAF7DAF8EAF9FAFA79720911E0DA6
:1032000030911F0D4091200D5091210DAB962CAFA8
:103210003DAF4EAF5FAFAB97A3962CAD3DAD4EAD7E
:103220005FADA397AB966CAD7DAD8EAD9FADAB970B
:103230000F9491116B017C018091220D9091230DCF
:10324000A091240DB091250DAF968CAF9DAFAEAF80
:10325000BFAFAF97A7962CAD3DAD4EAD5FADA79775
:10326000BC01CD010F9491114B015C0120917C13A5
:1032700030917D1340917E1350917F13EB962CAFCC
:103280003DAF4EAF5FAFEB976091260D7091270D6C
:103290008091280D9091290D0F94911167966CAF34
:1032A0007DAF8EAF9FAF679780912A0D90912B0DC8
:1032B000A0912C0DB0912D0DE7968CAF9DAFAEAFC8
:1032C000BFAFE79720918013309181134091821313
:1032D00050918313EF962CAF3DAF4EAF5FAFEF979A
:1032E000A70196012B966CAD7DAD8EAD9FAD2B9752
:1032F0000F94BE0D2B013C01A50194012F966CADDE
:103300007DAD8EAD9FAD2F970F94BE0D9B01AC018F
:10331000C301B2010F9492112B013C01A50194014C
:103320002B966CAD7DAD8EAD9FAD2B970F94BE0DE2
:103330004B015C01A70196012F966CAD7DAD8EAD62
:103340009FAD2F970F94BE0D9B01AC01C501B40139
:103350000F949111A30192010F9405126B017C014E
:1033600020E030E0A9010F94590D87FF0AC02BED32
:103370003FE049EC50E4C701B6010F9492116B0194
:103380007C01112351F02BED3FE049EC50E4C701E3
:10339000B6010F9491116B017C0120E030E0A9018E
:1033A000C701B6010F94590D811128C0AB962CAD01
:1033B0003DAD4EAD5FADAB9763966CAD7DAD8EAD63
:1033C0009FAD63970F94590D811118C0AF962CAD26
:1033D0003DAD4EAD5FADAF976F966CAD7DAD8EAD33
:1033E0009FAD6F970F94590D811108C00BEDC02E42
:1033F0000FE0D02E09ECE02E00E4F02EE3962CAD89
:103400003DAD4EAD5FADE397C701B6010F94BE0D64
:103410009B01AC010F94BE0D4B015C0167962CAD76
:103420003DAD4EAD5FAD6797CA01B9010F94BE0DBA
:103430009B01AC01C501B4010F9492110F94FD13CF
:103440004B015C012FE632E143E85AE30F94590D3A
:1034500087FD57C2C501B4010F9407130F94DB1207
:103460001B01672B19F422242394312CB10180E035
:1034700090E00F945D0D4B015C019B01AC01C70115
:10348000B6010F946E1263966CAF7DAF8EAF9FAF97
:103490006397A501940167966CAD7DAD8EAD9FAD30
:1034A00067970F946E12E3966CAF7DAF8EAF9FAFB0
:1034B000E397EF962CAD3DAD4EAD5FADEF97E79640
:1034C0006CAD7DAD8EAD9FADE7970F949111A501C9
:1034D00094010F946E12E7966CAF7DAF8EAF9FAFE5
:1034E000E79763962CAD3DAD4EAD5FAD6397CA01D6
:1034F000B9010F94BE0D20E030E040E05FE30F948F
:10350000BE0D9B01AC0160E070E080E89FE30F948A
:103510009111AB966CAF7DAF8EAF9FAFAB97EB9633
:103520008CAD9DADAEADBFADEB9789879A87AB876C
:10353000BC87EF962CAD3DAD4EAD5FADEF972D87BF
:103540003E874F87588B60913B0270913C02072E5B
:10355000000C880B990B0F945F0D20914302309162
:10356000440240914502509146020F94BE0D2AE05C
:1035700037ED43E25CE30F94BE0D6BAF7CAF8DAFD4
:103580009EAF0E942CAE9B01AC0128533F4F4F4F82
:103590005F4FAF962CAF3DAF4EAF5FAFAF97289662
:1035A0004FAC289729965FAC29972A966FAC2A973B
:1035B0002B967FAC2B9741E050E06D965FAF4EAFFE
:1035C0006D9759E164965FAF64976D96AEADBFADF0
:1035D0006D97A215B30509F459C10E944AEE0E94E5
:1035E0002CAEDC01CB01AF962CAD3DAD4EAD5FAD49
:1035F000AF97821B930BA40BB50BB7FD11C00E94B4
:103600002CAE9B01AC0128533F4F4F4F5F4FAF96FD
:103610002CAF3DAF4EAF5FAFAF9780E00E946B9B8A
:1036200064963FAD6497315064963FAF64973323FF
:1036300009F44BC0AB962CAD3DAD4EAD5FADAB9735
:103640002F966CAD7DAD8EAD9FAD2F970F94BE0DB7
:103650006B017C0163962CAD3DAD4EAD5FAD6397C4
:10366000B201C3010F94BE0DA70196010F949211F0
:103670007B018C01AB962CAD3DAD4EAD5FADAB97F4
:10368000B201C3010F94BE0D4B015C0163962CADDA
:103690003DAD4EAD5FAD63972F966CAD7DAD8EADFC
:1036A0009FAD2F970F94BE0D9B01AC01C501B401D6
:1036B0000F9491112B013C01C701D8012F968CAFBB
:1036C0009DAFAEAFBFAF2F9761C06D964EAD5FADF2
:1036D0006D97BA0180E090E00F945D0D63962CAD7C
:1036E0003DAD4EAD5FAD63970F94BE0D4B015C01D8
:1036F0000F946B126B017C01C501B4010F94F3139D
:103700004B015C01A70196012B966CAD7DAD8EAD92
:103710009FAD2B970F94BE0D2B013C01A501940189
:103720006B966CAD7DAD8EAD9FAD6B970F94BE0D5E
:103730009B01AC01C301B2010F9492112B013C011A
:10374000A50194012B966CAD7DAD8EAD9FAD2B97F1
:103750000F94BE0D4B015C01A70196016B966CADF9
:103760007DAD8EAD9FAD6B970F94BE0D9B01AC01EF
:10377000C501B4010F9491112F966CAF7DAF8EAF40
:103780009FAF2F9759E164965FAF64979201A301B1
:10379000A3966CAD7DAD8EAD9FADA3970F949211A6
:1037A00069837A838B839C832F962CAD3DAD4EAD80
:1037B0005FAD2F97A7966CAD7DAD8EAD9FADA797F2
:1037C0000F9492116D837E838F839887E3962CAD3F
:1037D0003DAD4EAD5FADE39769857A858B859C8560
:1037E0000F94921169877A878B879C87E7962CAD17
:1037F0003DAD4EAD5FADE7976D857E858F85988930
:103800000F9492116D877E878F87988B80911F020E
:10381000882321F0CE0101960E944D9AE0904B132F
:1038200089819A81AB81BC8188A399A3AAA3BBA3F8
:103830008D819E81AF81B8858CA39DA3AEA3BFA3CC
:1038400089859A85AB85BC8588A799A7AAA7BBA7B8
:10385000CE0180960E94253E8E01055C1F4F9E0181
:10386000235F3F4FAE01485D5F4FBE016C5D7F4FF0
:10387000CE0180960E941CF36D968EAD9FAD6D9724
:1038800001966D969FAF8EAF6D979FCEE0904B13D4
:1038900080911E0D90911F0DA091200DB091210DD2
:1038A00088A399A3AAA3BBA38091220D9091230D75
:1038B000A091240DB091250D8CA39DA3AEA3BFA311
:1038C0008091260D9091270DA091280DB091290D82
:1038D00088A799A7AAA7BBA7CE0180960E94253EDC
:1038E0008E01055C1F4F2AE23DE0AE01485D5F4F4F
:1038F000BE016C5D7F4FCE0180960E941CF30E943A
:10390000373E0E94413E0C949B2FE2EFFFE18491F1
:103910008F010F5F1F4F882321F00E94843EF80122
:10392000F6CFE9E0F2E084918F010F5F1F4F88230B
:1039300011F40C949B2F0E94843EF801F4CF80E593
:103940000E94783D882329F00E94D63C6B017C01BF
:1039500003C0C12CD12C760183E50E94783D8823D9
:1039600061F00E94163D20E030E04AE754E40F94F5
:10397000BE0D0F94DB126B017C010E94BF4580914C
:103980004802811105C060E08FE192E00E94D7B348
:103990000E94413E8091FE0C9091FF0CA091000D81
:1039A000B091010DC80ED91EEA1EFB1E0E942CAE5E
:1039B000DC01CB018C199D09AE09BF09B7FD02C01E
:1039C0000C949B2F80E00E946B9BF0CF0E94A8CCB0
:1039D00081110C949B2F80E090E0A6E1B3E48983F1
:1039E0009A83AB83BC8380E090E0A1E9B3E48D834C
:1039F0009E83AF83B88780E090E0A0EAB1E4898736
:103A00009A87AB87BC8780E50E94783D882319F0B0
:103A10000E94E63C01C060E068A3BE016F5F7F4F7B
:103A2000CE0180960E9475F80C949B2F0E94BF4592
:103A300080E00E94923C0E94653E81E08093DA0F14
:103A400088E50E94493DE82E89E50E94493D082FFE
:103A50008AE50E94493DF82EE11005C0011105C01C
:103A600011E0182705C0011102C010E001C0182F95
:103A70000E942D3E111104C0E11002C00023C1F1CB
:103A800080E090E0A0EAB0E48093260D9093270DAB
:103A9000A093280DB093290D9C01AD0160917C137A
:103AA00070917D1380917E1390917F130F94590D27
:103AB00087FF0BC019821A821B821C82BE016F5FB6
:103AC0007F4F86E29DE00E94B03A111105C0E110DF
:103AD00003C0011107C00CC080E090E00E9418995B
:103AE0001123B9F381E090E00E941899111103C0ED
:103AF000FF2009F463C080915704882321F080914E
:103B0000580481111EC060E089E392E00E94D7B39F
:103B1000E2EFF2E284918F010F5F1F4F882321F0C3
:103B20000E94843EF801F6CFE8E2F2E084918F0132
:103B30000F5F1F4F882309F441C00E94843EF801A3
:103B4000F5CF0E944B3C80917C1390917D13A09106
:103B50007E13B0917F138093260D9093270DA09331
:103B6000280DB093290D80E090E0A1E1B3E48093AB
:103B70001E0D90931F0DA093200DB093210D80E09A
:103B800090E0A0EDB2E48093220D9093230DA093DA
:103B9000240DB093250D19821A821B821C829E016E
:103BA0002F5F3F4F4CE753E162E27DE08EE19DE005
:103BB0000E94CB3982E090E00E9418990E944B3C11
:103BC0008091D90F8093DA0F0E944C3E83E080935E
:103BD00047020E94DEE50C949B2FC0907413D09096
:103BE0007513E0907613F090771388E50E94783D86
:103BF000811109C020E030E040EA50E4C701B6017D
:103C00000F94921102C00E94163D68A379A38AA363
:103C10009BA3C0907813D0907913E0907A13F09022
:103C20007B1389E50E94783D811109C020E030E0D6
:103C300048E352E4C701B6010F94921102C00E94FA
:103C4000163D6B017C0169837A838B839C8388A0FA
:103C500099A0AAA0BBA02FEC37EF4FE950E4C50113
:103C6000B4010F94B81387FF02C00C949B2F21E27C
:103C700030E046E953E4C501B4010F94590D18161C
:103C800014F40C949B2F2AEF3EEF47E352E4C70154
:103C9000B6010F94B81387FF02C00C949B2F21E24A
:103CA00030E046E953E4C701B6010F94590D1816E8
:103CB00014F40C949B2F0C94573081E080939E0356
:103CC0000C949B2F0E94BF45AAE82A2EA2E03A2E10
:103CD000B2E1CB2EBDE0DB2E00E010E0E12CF12CB8
:103CE00028961FAE2897F10181911F010E94783D0F
:103CF000882309F454C00E94163D4B015C01F3E097
:103D0000EF16F10459F0F801EC5AFC4E2081318194
:103D1000428153810F9491114B015C01F801EC58E1
:103D2000FC4E2081318142815381C501B4010F9441
:103D300091112B013C012DEB37E346E855EB0F9435
:103D4000B81387FD0AC02DEB37E346E855E3C301FE
:103D5000B2010F94590D181614F523E0E216F10480
:103D600069F48092801390928113A0928213B09292
:103D7000831331E028963FAF289711C0A301920129
:103D8000D6016D917D918D919C910F949211F601C8
:103D90006083718382839383C7010E94953BFFEF09
:103DA000EF1AFF0A24E0C20ED11C0C5F1F4F34E053
:103DB000E316F10409F097CF28964FAD28974111EB
:103DC0000E94C9CD0E94DEE50C949B2F80913E1489
:103DD00090913F148537910509F47EC60CF0E0C040
:103DE0008C34910509F44FC50CF071C088319105F0
:103DF00009F4AEC2E4F58231910509F45FC6F4F42A
:103E000097FF02C00C949B2F823091050CF4B6C131
:103E1000419711F00C949B2F60E08CE892E00E9497
:103E2000D7B35F988A989FB7F894809108018E7FE6
:103E3000809308019FBF12980C949B2F85319105A8
:103E400009F46BC23CF4449711F00C949B2FE4EA04
:103E5000F2E020C28631910509F463C2479711F060
:103E60000C949B2FE0913C14F0913D1464C28E3170
:103E7000910509F4C8C2C4F48A31910509F479C2E4
:103E80000CF471C28B31910509F481C24C9711F089
:103E90000C949B2F40E060E080913C1490913D1485
:103EA0000E945BA00C949B2F8032910509F4C2C341
:103EB0000CF403C48A32910509F4A5C48B3491052E
:103EC00011F00C949B2F0E9468CC0C949B2F8A3687
:103ED000910509F490C5CCF58435910509F4EEC53A
:103EE000E4F48135910509F4CAC54CF48D3491058B
:103EF00011F00C949B2F0E94DDB40C949B2F823503
:103F0000910509F4D7C58335910511F00C949B2FC9
:103F100081E080939D030C949B2F8C35910509F4CF
:103F2000D1C54CF48535910511F00C949B2F0E945E
:103F300059E70C949B2F8836910509F4A8C489365B
:103F4000910509F4DAC40C949B2F8F36910509F47E
:103F5000A2C49CF48C36910509F4A1C40CF477C575
:103F60008D36910509F40DC58E36910511F00C942E
:103F70009B2F0E946AE80C949B2F8137910509F4CE
:103F80009AC40CF490C48237910509F49FC5833715
:103F9000910511F00C949B2F0E9497E50C949B2F98
:103FA0008C3251E0950709F488C60CF06FC0893C4B
:103FB000910509F46AC67CF58C38910509F47FC433
:103FC000ACF48737910509F494C50CF48EC5883795
:103FD000910509F492C58937910511F00C949B2F36
:103FE0001092DA0F1092D90F0C949B2F8B399105F8
:103FF00009F4A0C434F48139910509F485C50C9401
:104000009B2F8E3B910509F4DAC4883C910509F495
:10401000F4C50C949B2F833D910509F442C6DCF452
:104020008C3C910509F435C64CF48B3C910511F09C
:104030000C949B2F0E94B7D60C949B2F8D3C91051E
:1040400009F42BC68E3C910511F00C949B2F0E9415
:10405000B7D50C949B2F8D3D910509F426C64CF4E1
:104060008C3D910511F00C949B2F0E94CDD40C94A3
:104070009B2F823E910509F41CC68831914011F0B6
:104080000C949B2F0E945AD30C949B2F8C3AE1E006
:104090009E0711F40C94102B8CF5803921E09207C7
:1040A00011F40C94852AACF48E3241E0940709F4A3
:1040B0000CC60CF406C68F32A1E09A0709F45CC660
:1040C0008336914011F00C949B2FE2EFFFE10C94AA
:1040D000132F8239E1E09E0711F40C948C2A14F41A
:1040E0000C94882A8A3921E0920709F4E0C3843AC3
:1040F000914011F40C94902A0C949B2F883542E047
:10410000940711F40C947D2BECF4853FA1E09A0701
:1041100011F40C94132B4CF4843F914011F00C9447
:104120009B2F0E94DF870C949B2F863FF1E09F0717
:1041300011F40C94162B873F914011F40C94192B19
:104140000C949B2F843833E0930711F40C94112EB8
:104150004CF48335934011F00C949B2FE2EFF2E284
:104160000C94252B803AA3E09A0709F4A2C2873E5B
:10417000934011F40C942A2F0C949B2FA0903C1484
:10418000B0903D1480E50E94783D882359F00E944C
:10419000D63C6B017C0111E0672B682B692B31F455
:1041A00010E004C010E0C12CD12C760183E50E9400
:1041B000783D8823F1F00E94163D20E030E04AE788
:1041C00054E40F94BE0D0F94DB126B017C011111AE
:1041D00012C0672B682B692B71F4A114B10459F03C
:1041E000F5018081882339F061E0C5010E94F8B3B0
:1041F00007C0112391F360E089E792E00E94D7B3F2
:1042000083E090E09093F40C8093F30C81E0809332
:10421000BD0B0E94BF450E94413EC114D104E10480
:10422000F104F1F08091FE0C9091FF0CA091000D33
:10423000B091010DC80ED91EEA1EFB1E0E942CAEC5
:10424000DC01CB018C199D09AE09BF09B7FF1EC067
:104250008091BD0B8823D1F080E00E946B9BEECF54
:104260008091BD0B882321F080E00E946B9BF8CFEA
:104270008091691090916A1060E0029719F48AE6C3
:1042800092E002C08BE592E00E94D7B31092BD0B82
:104290000C949B2F84918F010F5F1F4F882321F077
:1042A0000E94843EF801F6CF109226131092251337
:1042B00040E050E0BA0181ED90E10E941B5C8BE18F
:1042C000E1EDF0E1DE01159601900D928A95E1F79E
:1042D0008091CF109091D0109C838B8388EE92E0D8
:1042E0009A83898340E050E0BE016F5F7F4F82E890
:1042F00093E00E94DDB5CE0101960E94FF9AE5E9A8
:10430000F2E084918F010F5F1F4F882311F40C940A
:104310009B2F0E94843EF801F4CF0E949DA30C9431
:104320009B2F1092791010927A100C949B2F803250
:1043300009F41082319680818111F9CF40E061E06B
:1043400080913C1490913D140E945BA00C949B2F93
:1043500080917A10882319F081E0809379100E946F
:1043600068CC0C949B2F109279100E940FCE0C9465
:104370009B2F80917A10882311F40C949B2F83E556
:104380000E94783D81110C94AE300C949B2F80914B
:104390007A10882351F1E5EBF2E084918F010F5FF1
:1043A0001F4F882321F00E94843EF801F6CF6091D0
:1043B0001C1370911D1380911E1390911F134AE0DE
:1043C0000E94E6428FE20E94843E60911813709131
:1043D000191380911A1390911B134AE00E94E64230
:1043E0008AE00E94843E0C949B2FE7ECF2E08491DB
:1043F0008F010F5F1F4F882311F40C949B2F0E9495
:10440000843EF801F4CF80917A10882311F40C9443
:104410009B2F8BE692E10E94DA5B8BE692E10E9491
:1044200066621092781010927710E0903C14F09031
:104430003D1480917A10882311F40C949B2F0E94D4
:10444000D2B41D8218861C821B8288EE92E09A8369
:1044500089838DEC90E19093ED108093EC10D7015F
:104460008C918F3209F067C06FE270E0C7010F9442
:10447000D5148C010F5F1F4FFE0131964F010115BE
:10448000110509F45EC06FE270E0C8010F94D51405
:104490006C01009709F456C00817190708F052C0BC
:1044A0005C01A01AB10AA501B801CE0180960F9453
:1044B000FE14E0E2F0E0EC0FFD1FEA0DFB1D1082A0
:1044C0008E01005E1F4FD8018D918D01882319F058
:1044D0000E94843EF8CF8AE00E94843E6091EC10F6
:1044E0007091ED106115710511F06C5F7F4F21E047
:1044F000AE01405E5F4FCE0105960E946E62811153
:1045000012C0BE01605E7F4F8EEF92E00E94FFF00E
:104510008EE20E94843E8AE00E94843EC4010E9492
:10452000FF9A0C949B2F9092ED108092EC108601D4
:104530000F5F1F4FA4CF8EEE90E19093ED1080930C
:10454000EC1087016091EC107091ED106115710510
:1045500011F06C5F7F4F18A21BA222E0A801CE01D0
:1045600080960E946E62811102C0F12C1EC0CE01A5
:1045700080960E9440B48823C1F36CA57DA58EA5CA
:104580009FA541E00E942959882379F3E8A9B0E268
:10459000EB9FF0011124E25CF24F309731F385EE8E
:1045A00080831BA20E94E958F82ECE0180960E94BB
:1045B000163EFF2009F1E8EDF2E084917F012FEF34
:1045C000E21AF20A882321F00E94843EF701F5CF17
:1045D000D8018D918D01882319F00E94843EF8CF77
:1045E0008AE00E94843E10921C1310921D131092B8
:1045F0001E1310921F1318C0E6EEF2E084917F01A3
:10460000BFEFEB1AFB0A882321F00E94843EF701DA
:10461000F5CFF80181918F01882319F00E94843E23
:10462000F8CF8EE20E94843ECE0101960E94FF9A4E
:104630000C949B2F8091791081110E94BF4580912D
:104640007A10882311F40C949B2F80E50E94783D0A
:10465000882319F00E94073D03C080E50E94493D70
:10466000182F482F61E080913C1490913D140E94D6
:104670005BA083E50E94783D882381F00E94E63CA0
:10468000AB01BC0140931C1350931D1360931E1388
:1046900070931F138BE692E10E941B5C80917A104D
:1046A000882319F081E08093791011110C949B2FCD
:1046B00056CE0E94CFE80C949B2F0E94A8B5FCE335
:1046C000CF2ED12CE12CF12CA70196010F9434119F
:1046D000762E672ECA01B901A70196010F943411F5
:1046E0006B017C01CA01B90128E130E040E050E0F3
:1046F0000F9434114B015C01C9016DE671E00F9418
:1047000066148E010F5F1F4F6115710599F06F924E
:104710007F92DF92CF929F928F929F938F937F93FE
:104720006F938AE393E09F938F931F930F930F945C
:10473000F20C12C00097B1F06F927F92DF92CF928D
:104740009F928F929F938F938AE293E09F938F9390
:104750001F930F930F94F20C0FB6F894DEBF0FBEA9
:10476000CDBF36C081149104A104B10479F06F92D9
:104770007F92DF92CF929F928F928EE193E09F93F0
:104780008F931F930F930F94F20CE6CFC114D104B3
:10479000E104F10469F06F927F92DF92CF9286E19B
:1047A00093E09F938F931F930F930F94F20CD4CFAA
:1047B0006F927F9282E193E09F938F931F930F9369
:1047C0000F94F20C0F900F900F900F900F900F908E
:1047D00060E0C8010E94F8B3E2EFF2E284917F0149
:1047E000BFEFEB1AFB0A882321F00E94843EF701F9
:1047F000F5CFB8018EE493E00E94FFF08AE00E94BA
:10480000843E0C949B2F83E50E94783D882311F40D
:104810000C949B2F0E94F63CE82E80E50E94783D88
:10482000882341F00E94E63C8B0177FF02C00C9484
:104830009B2F02C00DE010E0902FEBE5F3E088E243
:104840008E0F2491921729F031968E13FACF0C9483
:10485000BF30E2EFFFE184918F010F5F1F4F88238C
:1048600021F00E94843EF801F6CFE3E8F3E0849162
:104870008F010F5F1F4F882311F40C949B2F0E9410
:10488000843EF801F4CF0E940FCE0C949B2F0E941F
:104890007AE80C949B2F0E94F3E70C949B2F1092C4
:1048A00034020C949B2F82E993E00E94199B0E9492
:1048B0004ED20C949B2F0E94C9E70C949B2F8091A1
:1048C0004C0F83FF02C00C949B2F83E50E94783D20
:1048D000882311F40C949B2F0E94163D0F94D6123E
:1048E0006739710514F066E970E0709344136093C2
:1048F00043130E94CBEC0C949B2F89E690E00E941E
:104900004C43811111C0EBE9F3E084918F010F5FFB
:104910001F4F882321F00E94843EF801F6CF0E94A9
:1049200035978AE00E94843E1092F40C1092F30CAA
:104930000C948B3583E50E94783D882311F40C9408
:104940009B2F0E94F63C182F8D3308F01CE3109328
:10495000F90C0E942CAE6B017C01212F30E0A8EEF7
:10496000B3E00F948211C60ED71EE81EF91EC09246
:10497000F50CD092F60CE092F70CF092F80C0C9437
:104980009B2F8DE690E00E944C4381110C949B2F4D
:1049900080914C0F83FF02C00C949B2F83E50E94F3
:1049A000783D68968FAF689781110C94DD3082E571
:1049B0000E94783D81110C94DD300C949B2F8091E6
:1049C0004C0F83FF02C00C949B2F60E084ED93E0BA
:1049D0000E94D7B383E50E94783D68968FAF6897B1
:1049E00081110C94783282E50E94783D81110C94FB
:1049F00078320C949B2F80E50E94783D882341F00B
:104A00000E94F63C182F823010F00C949B2F01C0AE
:104A100010E083E50E94783D882329F00E94E63C5F
:104A2000362F272F02C03FEF20E0E12FF0E0EE0FFE
:104A3000FF1FE95BFC4E832F922F8F3F910519F0EA
:104A400010F08FEF90E0918380830C949B2F80E592
:104A50000E94783D882341F00E94E63C6230710557
:104A600010F00C949B2F02C060E070E0660F771F7F
:104A7000FB01E95BFC4E118210820C949B2F0E947B
:104A800061ED0E94BF450E94099B1092481310924D
:104A9000471310924A131092491368EE73E080E0B6
:104AA00090E00E9454B360E081EE93E00E94D7B39F
:104AB0000C949B2F10929D030C949B2F0E9471E7E6
:104AC0000C949B2F0E94BBE60C949B2F0E94BF4529
:104AD0000E94DEE50C949B2F60E080913C14909145
:104AE0003D140E94F8B30C949B2F0E9456E50C9441
:104AF0009B2F0E94B8F90C949B2F81E08093DA0FD2
:104B00008093D90F0C949B2F83E50E94783D8823D6
:104B100019F00E94E63C02C060E070E08B011127B2
:104B200002301105D4F0E2EFFFE184918F010F5FB5
:104B30001F4F882321F00E94843EF801F6CFEEEE4D
:104B4000F3E084918F010F5F1F4F882311F40C94C1
:104B50009B2F0E94843EF801F4CF88E40E94783DA8
:104B60008823A1F00E94E63C643B710534F0663F67
:104B700071052CF065EF70E002C064EB70E0F801A5
:104B8000EE0FFF1FE55DF34F7183608386E40E94A3
:104B9000783D8823A9F00E94E63CF801EE0FFF1F44
:104BA000E15DF34F718360836F3F710519F014F07D
:104BB0006FEF70E077FF02C060E070E071836083A8
:104BC00082E40E94783D882311F40C949B2F0E946C
:104BD000E63C6530710534F0683871052CF067E803
:104BE00070E002C065E070E0000F111FF801E95DA0
:104BF000F34F718360830C949B2F88EC90E00E94AC
:104C00004C4381110C949B2F84E40E94493D8823DE
:104C1000C1F10E94163D11E020E030E0A9010F949F
:104C2000590D811101C010E01093800B112349F13F
:104C30000E94163DE091420CA4E0EA9FF00111248D
:104C4000E458F44F608371838283938320E030E0E3
:104C5000A90160917C0B70917D0B80917E0B9091EE
:104C60007F0B0F94590D81110CC080E090E0A0EEF5
:104C7000BFE380937C0B90937D0BA0937E0BB0934E
:104C80007F0B0E94D9D60C949B2F0E9431E50C9487
:104C90009B2F0E944ED60C949B2F0E94E4D50C941F
:104CA0009B2F0E94D9D40C949B2F0E9483D40C94E8
:104CB0009B2F0E9427D40C949B2F0E9425D30C94E9
:104CC0009B2F0E9488D20C949B2F83E50E94493D24
:104CD000182F882371F00E94163D0F94D6127093FE
:104CE00012026093110221E0672B09F020E020936B
:104CF000940B80E50E94493D882361F020911102C8
:104D000030911202232B11F00E94073D8093940BE7
:104D10000C949B2F11110C949B2FE2EFF2E28491E3
:104D20008F010F5F1F4F882321F00E94843EF801FE
:104D3000F6CF8091940B811103C06CEF72E002C03A
:104D40006DE873E085E294E00E94FFF0609111024B
:104D50007091120284E194E00E94E6F0E0E1F4E058
:104D600084918F010F5F1F4F882311F40C949B2FA8
:104D70000E94843EF801F4CF85E40E94783D8823A8
:104D800021F00E94E63C7B0102C0E12CF12C83E47F
:104D90000E94783D882341F00E94E63CC857DF4FCF
:104DA0006883C858D04006C025E0C857DF4F288325
:104DB000C858D04085E50E94783D882319F00E94AC
:104DC000073D03C085E50E94493DCC56DF4F8883EF
:104DD000C459D040F7FC07C0812C912CB6E1AB2E12
:104DE000B3E4BB2E06C0812C912CACE8AA2EA2E421
:104DF000BA2E83E50E94783D882321F00E94163D5B
:104E00004B015C01E114F10411F41092420C0E9478
:104E10002CAE2B013C01E11003C003E113E026C0DE
:104E200006E213E0D8018D918D018823D1F00E9414
:104E3000843EF8CFC0909913D0909A13E0909B13C2
:104E4000F0909C1320E030E0A901C701B6010F9457
:104E5000590D882309F4DAC742E0C701B6010E9460
:104E6000A2438AE00E94843E0C949B2FF80181911A
:104E70008F01882319F00E94843EF8CFC501B40148
:104E80000F94D612072E000C880B990B0F945F0D10
:104E900068966FAF689760967FAF609764968FAFA4
:104EA00064976C969FAF6C97A3019201205E314B83
:104EB0004F4F5F4FC356DF4F288339834A835B834D
:104EC000CD59D0408AE00E94843E0E9461ED8FE778
:104ED0008093400C81E080933402C457DF4F4882B6
:104EE00059826A827B82CC58D040CB56DF4F4882B1
:104EF00059826A827B82C559D040C557DF4F1882DC
:104F0000CB58D040C756DF4F188219821A821B82B5
:104F1000C959D040A4961FAEA49730E4A8963FAFDD
:104F2000A8974CE1AC964FAFAC9756E4E8965FAFCC
:104F3000E897EC961FAEEC97E0961FAEE097E496EC
:104F40001FAEE497C158DF4F1882CF57D040CC57DF
:104F5000DF4F188219821A821B82C458D040C05871
:104F6000DF4F188219821A821B82C058D040C12C90
:104F7000D12C7601FFE78F2E912CA12CB12C8FE73D
:104F800090E0A0E0B0E02F968CAF9DAFAEAFBFAF8A
:104F90002F97C057DF4F188219821A821B82C0597F
:104FA000D04091E0C657DF4F9883CA58D040A196B1
:104FB0001FAE1EAEA19710E0212C312C00E0C85787
:104FC000DF4FA881C858D0400A2E000CBB0BC85731
:104FD000DF4FB983A883C858D0408091340288231A
:104FE00009F414C10E942CAE2B966CAF7DAF8EAF2E
:104FF0009FAF2B978091AA13882309F4E3C00E94E6
:1050000027EE1091900B2090910B3090920B009115
:10501000930B212F322D432D502FEC966FADEC9733
:10502000E0967FADE097E4968FADE497C158DF4FEF
:105030009881CF57D0400F94590D87FF0EC0EC9642
:105040001FAFEC97E0962FAEE097E4963FAEE49763
:10505000C158DF4F0883CF57D040212F322D432D29
:10506000502FA4966FADA497A8967FADA897AC9645
:105070008FADAC97E8969FADE8970F94B8131816CC
:1050800064F4A4961FAFA497A8962FAEA897AC96E9
:105090003FAEAC97E8960FAFE897C657DF4FB881A1
:1050A000CA58D04068962FAD689760963FAD60971C
:1050B00064964FAD64976C965FAD6C97612F722DBF
:1050C000832D902FBB2309F45DC00F94B8131816DD
:1050D0000CF078C02B964CAD5DAD6EAD7FAD2B97CF
:1050E0004419550966097709DB01CA0188589341BB
:1050F000A109B109B7FD66C02F968CAD9DADAEADCF
:10510000BFAD2F9788199909AA09BB09B595A7952D
:10511000979587958093400CC057DF4F48835983FC
:105120006A837B83C059D0406896EFAD6897EC9650
:10513000EFAFEC976096FFAD6097E096FFAFE0971A
:1051400064962FAD6497E4962FAFE4976C963FADCD
:105150006C97C158DF4F3883CF57D0402B968CAD1A
:105160009DADAEADBFAD2B97C457DF4F88839983FC
:10517000AA83BB83CC58D040C657DF4F1882CA5889
:10518000D04020C00F94590D87FF1CC02B968CADCA
:105190009DADAEADBFAD2B97C457DF4F2881398190
:1051A0004A815B81CC58D040821B930BA40BB50B7A
:1051B000AC01BD01485853416109710977FD02C036
:1051C0000C94E53320E030E040EA51E468966FAD9E
:1051D000689760967FAD609764968FAD64976C9684
:1051E0009FAD6C970F9492119B01AC01612F722DB2
:1051F000832D902F0F94B81318167CF4E0E3F5E09C
:1052000084918F010F5F1F4F811103C00E9461EDD8
:1052100092C60E94843EF801F3CF2B968CAD9DADD3
:10522000AEADBFAD2B97CB56DF4F288139814A8178
:105230005B81C559D040821B930BA40BB50BB7FD06
:10524000B7C00E9435978AE00E94843E2B968CADB1
:105250009DADAEADBFAD2B978053984FAF4FBF4FB5
:10526000CB56DF4F88839983AA83BB83C559D0402F
:10527000C557DF4F9881CB58D040911176C0C756A3
:10528000DF4F288139814A815B81C959D040612F24
:10529000722D832D902F0F94B81318160CF04CC05C
:1052A00020E030E040EC50E468966FAD689760967F
:1052B0007FAD609764968FAD64976C969FAD6C9749
:1052C0000F9491119B01AC01A1E0C557DF4FA8835A
:1052D000CB58D040612F722D832D902F0F94B8138F
:1052E00018162CF0C557DF4F1882CB58D04020E05D
:1052F00030E040E050E4612F722D832D902F0F9409
:105300009211C756DF4F688379838A839B83C9597B
:10531000D0402B962CAD3DAD4EAD5FAD2B97205EB2
:10532000314B4F4F5F4FC356DF4F288339834A833A
:105330005B83CD59D0403CC02B968CAD9DADAEADBE
:10534000BFAD2B97C356DF4F288139814A815B81DE
:10535000CD59D040821B930BA40BB50BB7FD28C0D1
:1053600042E155E061E275E020C020E030E040EA33
:1053700051E468966FAD689760967FAD60976496CC
:105380008FAD64976C969FAD6C970F9491119B01B4
:10539000AC01612F722D832D902F0F94590D87FF33
:1053A00007C042EF54E062E075E080E00E940845EB
:1053B0002B968CAD9DADAEADBFAD2B97880F991FD1
:1053C000AA1FBB1FC457DF4F288139814A815B81E7
:1053D000CC58D040821B930BA40BB50B84199509B4
:1053E000A609B70981389F44A241B10568F0E4EDF0
:1053F000F4E084918F010F5F1F4F882309F406CFDB
:105400000E94843EF801F5CFA1964EAD5FADA19705
:10541000C857DF4F88819981C858D04084179507B5
:105420000CF070C0E7E7F4E084918F010F5F1F4F2D
:10543000882321F00E94843EF801F6CFB701A6012F
:1054400082E694E00E94C9F08AE00E94843EC0583F
:10545000DF4F488159816A817B81C058D0408DE4FB
:1054600094E00E94C9F08AE00E94843ECC57DF4F4E
:10547000488159816A817B81C458D04088E394E097
:105480000E94C9F08AE00E94843ECC56DF4F98818A
:10549000C459D040992309F44EC5C0921A0CD09239
:1054A0001B0CE0921C0CF0921D0C2CEA35EC47E230
:1054B0005EE3C058DF4F688179818A819B81C05843
:1054C000D0400F94BE0D6093220C7093230C8093F8
:1054D000240C9093250C2CEA35EC47E25EE3CC5784
:1054E000DF4F688179818A819B81C458D0400F94B5
:1054F0006E1260931E0C70931F0C8093200C90937F
:10550000210C19C50E947B7268CD0E94BF4513C54E
:1055100081E00E94B73A0FC580E00E94B73A0BC500
:105520008091741390917513A0917613B0917713B5
:1055300089839A83AB83BC8380917813909179138C
:10554000A0917A13B0917B138D839E83AF83B8872C
:1055500080917C1390917D13A0917E13B0917F1365
:1055600089879A87AB87BC8786E50E94493D882357
:1055700021F081ED95E00F94F80583E50E94493D07
:10558000882331F00E94073D182F0E94923C01C0F1
:1055900010E0F090490C111103C0E2EFF2E21AC0E2
:1055A000F110FBCFE2EFFFE184918F010F5F1F4FFE
:1055B000882321F00E94843EF801F6CFE2EBF5E06B
:1055C00084918F010F5F1F4F882339F30E94843E1F
:1055D000F801F6CF84918F010F5F1F4F882321F0D0
:1055E0000E94843EF801F6CFF11003C064E073E03E
:1055F00002C060E073E084EA95E00E94FFF08AE078
:105600000E94843E4CE050E064E773E1CE010196D5
:105610000F94A114892B09F48EC40E94DEE58BC47B
:105620000E9446D188C40E94788C85C40E941CCBFD
:1056300082C483E50E94493D882321F00E94073DF2
:1056400091E089270E94E2C676C484918F010F5FA2
:105650001F4F882321F00E94843EF801F6CFEAE034
:10566000F6E084918F010F5F1F4F882321F00E9485
:10567000843EF801F6CF8AE50E94493D882369F10E
:105680000E94163D6B017C0120E030E040EF51ECC0
:105690000F94B81387FF03C0E1EFF5E013C020E0DB
:1056A00030E040EF51E4C701B6010F94590D1816D0
:1056B0009CF3C0926013D0926113E0926213F09257
:1056C00063130BC084918F010F5F1F4F882309F470
:1056D00032C40E94843EF801F5CF4091601350918E
:1056E000611360916213709163138EEE95E00E94D6
:1056F000C9F08AE00E94843E1EC480E090E0A6E1EA
:10570000B3E489839A83AB83BC8380E090E0A1E912
:10571000B3E48D839E83AF83B88780E090E0A0EAF6
:10572000B1E489879A87AB87BC8785E40E94493DAD
:10573000882319F00E94163D04C060E070E080E00C
:1057400090EC27966CAF7DAF8EAF9FAF27978AE521
:105750000E94783D882379F08AE50E94783D88236D
:1057600019F00E94163D03C060E070E0CB0169872C
:105770007A878B879C8788E50E94783D882379F01B
:1057800088E50E94783D882319F00E94163D03C0E9
:1057900060E070E0CB0169837A838B839C8389E529
:1057A0000E94783D882379F089E50E94783D88231E
:1057B00019F00E94163D03C060E070E0CB016D83DC
:1057C0007E838F83988785E50E94493D882319F061
:1057D0000E94163D04C060E070E080E291EC2396E8
:1057E0006CAF7DAF8EAF9FAF23978CE40E94493D95
:1057F000882319F00E94163D03C060E070E0CB01E1
:105800006BAF7CAF8DAF9EAF82E40E94783D882362
:1058100021F00E94E63C162F01C012E0E0906910D2
:10582000F0906A108091FB0C8111F4C180914C0FB3
:1058300083FD37C020E030E0A90123966CAD7DAD3B
:105840008EAD9FAD23970F94590D882351F1809110
:10585000940B811124C020914513309146138091FF
:1058600011029091120228173907CCF4E2EFFFE100
:1058700084918F010F5F1F4F882321F00E94843E87
:10588000F801F6CFE9E1F6E084918F010F5F1F4F39
:10589000882309F4BFC10E94843EF801F5CF0F941C
:1058A000A20581E08093FB0C90917910992321F05F
:1058B0001092791080939F030E940FCE80E090E0B9
:1058C0000E94CC750E94BF4580E1E4E7F3E1A0EAC5
:1058D000B3E001900D928A95E1F720E030E0A90154
:1058E00027966CAD7DAD8EAD9FAD27970F94590D6A
:1058F000882331F00E94DF9A882311F40C948035BC
:1059000082E088A3BE016F5F7F4FCE0180960E9428
:1059100075F820E030E0A90123966CAD7DAD8EAD29
:105920009FAD23970F94590D882379F081E090E083
:105930000E94CC7580E00E946B9B40E050E060E2EA
:1059400071E4CE01CF960F946B0582E090E00E9447
:10595000CC7561E0812F0E94C8B780E00E946B9BEC
:105960000E94079B64E670E080E090E00E9454B3E0
:105970000E942CAEDC01CB01805A9541AF4FBF4F46
:105980008093A6139093A713A093A813B093A91381
:105990001092430C83E090E09093F40C8093F30C0E
:1059A00081E08093BD0B01E08091BD0B882309F459
:1059B00042C060E0812F0E94C8B78091430C8823C9
:1059C000B1F188E090E00E94CC758091BD0B8823F6
:1059D00021F081E00E946B9BF8CF1092A6131092E9
:1059E000A7131092A8131092A9131092430C0E94AF
:1059F00016ED0F94A20582E090E00E94CC750E9403
:105A00002CAEDC01CB01805A9541AF4FBF4F809344
:105A1000A6139093A713A093A813B093A913109261
:105A2000430C0093BD0B61E0812F0E94C8B781E059
:105A30000E946B9BB9CF81E090E09093F40C80932F
:105A4000F30C8091FB0C882309F4E4C00091430C13
:105A50001092A6131092A7131092A8131092A913D4
:105A60001092430C80E00E9416ED01110F94A205E4
:105A700061E0812F0E94C8B70E942D3E20E030E0F7
:105A8000A9016BAD7CAD8DAD9EAD0F94590D8823F2
:105A900079F1002321F082E090E00E94CC7583E050
:105AA00090E09093F40C8093F30C81E08093BD0B15
:105AB0008091BD0B882351F0002341F060E0812FDD
:105AC0000E94C8B781E00E946B9BF2CF81E090E01A
:105AD0009093F40C8093F30C83E090E00E94CC75DB
